:020000040800F2
:1000000000000220B902000869A700086DA70008D7
:1000100071A7000875A7000879A700080000000074
:100020000000000000000000000000007DA70008A4
:1000300081A700080000000085A7000889A7000824
:10004000E9030008E9030008E9030008E9030008E0
:10005000E9030008E9030008E9030008E9030008D0
:10006000E9030008E9030008E9030008E9030008C0
:10007000E9030008E9030008E9030008E9030008B0
:10008000E9030008E903000895A70008E903000850
:10009000E9030008E9030008E9030008E903000890
:1000A000E9030008E9030008E9030008E903000880
:1000B000A5A70008E9030008B5A70008E9030008A0
:1000C000E9030008E9030008E9030008E903000860
:1000D000E9030008E9030008E9030008C5A70008D0
:1000E000E9030008E9030008E9030008E903000840
:1000F000E9030008E9030008E9030008E903000830
:10010000E9030008E9030008E9030008E90300081F
:10011000E9030008E9030008E9030008E90300080F
:10012000E9030008E9030008E9030008E9030008FF
:10013000E9030008E9030008E9030008E9030008EF
:10014000E9030008E9030008E9030008E9030008DF
:10015000E9030008E9030008E9030008E9030008CF
:10016000E9030008E9030008E9030008E9030008BF
:10017000E9030008E9030008E903000800000000A3
:10018000E9030008E903000800B583B004F000FAB1
:10019000384B394A1360394A136039490CE00A6810
:1001A0004B6801F10C04886803E01168196004339E
:1001B00004329842F9D82146324B9942EFD32E4B64
:1001C0001A68314B9A4204D12C4B1A682F4B9A4231
:1001D00000D0FEE7274B2E4A13602E4A13602E4BA9
:1001E0000AE0194651F8082B5B6802E00020106015
:1001F00004329A42FAD30B46284A9342F1D3244B55
:100200001B6813B9234B1B6803B1FEE704F0CCF95C
:10021000694601A804F04CF9214C224B1C1BA41088
:10022000002504E01E4B53F8253098470135AC42B9
:10023000F8DC1D4C1D4B1C1BA410002504E01A4BC0
:1002400053F8253098470135AC42F8DC0099019805
:1002500009F020FD0546164C164B1C1BA41004E0AB
:10026000013C134B53F824309847002CF8DC284607
:1002700004F0F0F8BABADECA00000020F80000204E
:10028000EC030008040400087856341232547698BF
:1002900000010020448F002004040008140400081A
:1002A00014040008140400081404000814040008CE
:1002B000140400081404000808B5FFF765FF00BF28
:1002C00000BEFEE71EF0040F0CBFEFF30880EFF353
:1002D00009807146414A10472DE9F04182B0044639
:1002E0008846134B5E6B9F6B9D6A1B6B13F0020F6E
:1002F0000DD00F4BDB6A002B09DA4BF6AB6104F033
:10030000CFF920B14FF00042094BDA620CE0094806
:1003100004F0E0F8CDF800803B46324629462046FE
:1003200004F046F900BEFEE702B0BDE8F08100BF70
:1003300000ED00E080DA000800BEFEE71EF0040FCA
:100340000CBFEFF30880EFF309807146244A104791
:100350002DE9F04182B004468846084B5E6B9F6BE6
:100360009D6A074804F0B6F8CDF800803B46324657
:100370002946204604F01CF900BEFEE700ED00E02F
:1003800090DA00081EF0040F0CBFEFF30880EFF3C3
:1003900009807146134A10472DE9F04182B00446A6
:1003A0008846084B5E6B9F6B9D6A074804F092F885
:1003B000CDF800803B4632462946204604F0F8F846
:1003C00000BEFEE700ED00E09CDA000800BEFEE79C
:1003D00000BEFEE700BEFEE770470000D90200083D
:0C03E000510300089903000800BEFEE76E
:1003EC0034E4000800000020FC00002034E4000885
:1003FC00000000100000001000010020488F0020B9
:08040C000000001000000010C8
:1004200010B5044601F014FB064BA3FB0030800915
:1004300000F0A6FC002221464FF0FF3000F036FC11
:10044000002010BDD34D621008B50B4B1A6842F462
:1004500000721A601A6842F480621A601A6842F4E4
:1004600080721A60032000F003FC0020FFF7D8FF21
:100470000AF054F8002008BD003C0240024A13680C
:1004800001331360704700BFD4030020014B18688C
:10049000704700BFD403002010B582B00190FFF771
:1004A000F5FF0446FFF7F2FF001B019B9842F9D3CA
:1004B00002B010BD10B50446504B5A6822F44032C9
:1004C0005A60596842680A435A600268536823F4C4
:1004D0008073536002685368016943EA01235360E3
:1004E0000268536823F04073536002685168836860
:1004F0000B4353600268936823F4006393600268BF
:100500009168C3680B439360826A3D4B9A4214D052
:100510000268936823F07063936002689168836A4D
:100520000B4393600268936823F040539360026822
:100530009168C36A0B43936009E00268936823F0F3
:10054000706393600268936823F04053936022685D
:10055000936823F00203936022689368A16943EAD9
:1005600041039360236A03B3636A013B072B04D9F9
:1005700040F20461234803F0A3FF2268536843F468
:10058000006353602268536823F460435360636AD6
:10059000013B4FF4604292FAA2F2B2FA82F2934027
:1005A00021684A6813434B6004E02268536823F4CF
:1005B000006353602268D36A23F47003D362216816
:1005C000CA6AE369013B42EA0353CB62226893683B
:1005D00023F40073936022689368216B43EA4123FC
:1005E00093602268936823F4806393602268936821
:1005F000616943EA8123936010BD00BF002301407D
:100600000100000FBCD60008002800F0DE8010B505
:10061000044603686E4A93420CD002F580729342FE
:1006200008D002F58072934204D040F20D1169485F
:1006300003F046FF63686BB1B3F5803F0AD0B3F5B2
:10064000003F07D0B3F5403F04D04FF487716148B5
:1006500003F036FFA3686BB1B3F1807F0AD0B3F12A
:10066000007F07D0B3F1407F04D040F20F1159480A
:1006700003F026FF2369012B04D94FF488715548F4
:1006800003F01EFFA369012B04D940F21111514858
:1006900003F016FFA36AA3B3B3F1807F31D0B3F1A7
:1006A000007F2ED0B3F1407F2BD0B3F1806F28D0E4
:1006B000B3F1A06F25D0B3F1C06F22D0B3F1E06FDA
:1006C0001FD0B3F1006F1CD0B3F1106F19D0B3F18C
:1006D000206F16D0B3F1306F13D0B3F1406F10D04C
:1006E000B3F1506F0DD0B3F1606F0AD0B3F1706FFA
:1006F00007D0394A934204D04FF48971354803F04A
:10070000DFFEE3683BB1B3F5006F04D040F2131194
:10071000304803F0D5FEE369013B0F2B04D94FF4B9
:100720008A712C4803F0CCFE236B012B04D940F2D4
:100730001511284803F0C4FE6369022B04D94FF455
:100740008B71244803F0BCFE236A012B04D940F2CC
:100750001711204803F0B4FEA26A1F4B9A420FD033
:10076000E36A6BB1B3F1805F0AD0B3F1005F07D0E9
:10077000B3F1405F04D040F21B11164803F0A0FE15
:10078000236C2BB9636484F83C30204609F0F6FEF4
:10079000236C13F0100F13D1236C23F4885323F030
:1007A000020343F0020323642046FFF783FE002088
:1007B0006064236C23F0030343F00103236400E02F
:1007C0000120002384F83C3010BD0120704700BF99
:1007D00000200140BCD600080100000F10B582B017
:1007E0000446002301938369012B04D940F2DD21E3
:1007F000454803F065FEE36A6BB1B3F1805F0AD050
:10080000B3F1005F07D0B3F1405F04D040F2DE21C6
:100810003D4803F055FE94F83C30012B68D001238D
:1008200084F83C3023689A6812F0010F13D19A685B
:1008300042F001029A60354B1B68354AA2FB032344
:100840009B0C03EB4303019302E0019B013B0193EB
:10085000019B002BF9D12268936813F0010F49D056
:10086000236C23F4E06323F0010343F480732364D7
:10087000536813F4806F05D0236C23F4405343F482
:1008800080532364236C13F4805F04D0636C23F0E3
:100890000603636401E000236364002384F83C30B2
:1008A0006FF0020313602268536843F0806343F0E3
:1008B00020035360174B5B6813F01F0F0AD12368A6
:1008C0009A6812F0405F17D19A6842F080429A60AD
:1008D000002016E02368104A93420FD19A6812F064
:1008E000405F0DD19A6842F080429A60002008E093
:1008F000022006E0002004E0002002E0002000E0EA
:10090000002002B010BD00BFBCD600080C000020C3
:1009100083DE1B4300230140002001400368D86CA4
:10092000704700BF704700BF704700BF38B504462E
:100930008369012B04D940F269315B4803F0C0FDA3
:10094000E369013B0F2B04D940F26A31564803F0AA
:10095000B7FD6369022B04D940F26B31524803F0B2
:10096000AFFD22681168536803F0200311F0020FF5
:100970002DD063B3236C13F0100F03D1236C43F419
:1009800000732364936813F0405F19D1A369BBB966
:10099000D36A13F4700F03D0936813F4806F0FD1F0
:1009A000536823F020035360236C23F48073236483
:1009B000236C13F4805F03D1236C43F001032364A1
:1009C000204609F069FC23686FF012021A60236860
:1009D00019685A6802F0800211F0040F36D0002A1C
:1009E00034D0226C12F0100F03D1226C42F400526A
:1009F00022649A6812F4401F21D19A6B12F4401FAE
:100A000003D09A6812F4806F19D15A6812F4806F7B
:100A100015D19A6812F0405F11D1A2697AB95A686B
:100A200022F080025A60236C23F480532364236CE9
:100A300013F4807F03D1236C43F001032364204629
:100A400000F014F923686FF00C021A602268116834
:100A5000536803F0400311F0010F0FD073B1136816
:100A600013F0010F0AD0236C43F480332364204633
:100A7000FFF758FF23686FF001021A6022681168BF
:100A8000536803F0806311F0200F0CD05BB1636CEE
:100A900043F0020363646FF0200515602046FFF702
:100AA00043FF23681D6038BDBCD6000830B583B055
:100AB00005460C46002301930B68122B04D940F223
:100AC000FE41664803F0FCFC6368013B0F2B04D930
:100AD00040F2FF41614803F0F3FCA368072B04D9FF
:100AE0004FF4A0615D4803F0EBFC95F83C30012B1E
:100AF00000F0B180012385F83C302368092B17D919
:100B00002868C2689BB203EB43031E3B072101FA2E
:100B100003F322EA0303C3602968C868A268238834
:100B200003EB43031E3B02FA03F30343CB6013E0E2
:100B3000286802699BB203EB4303072101FA03F320
:100B400022EA0303036129680869A368228802EB8B
:100B50004202934003430B616368062B16D8286852
:100B6000426B03EB8303053B1F2101FA03F322EAE7
:100B7000030343632968486B2288636803EB83039C
:100B8000053B02FA03F303434B632EE00C2B16D80C
:100B90002868026B03EB8303233B1F2101FA03F355
:100BA00022EA030303632968086B2288636803EB66
:100BB0008303233B02FA03F303430B6315E0286826
:100BC000C26A03EB8303413B1F2101FA03F322EACC
:100BD0000303C3622968C86A2288636803EB83033E
:100BE000413B02FA03F30343CB622A681C4B9A424F
:100BF00007D12368122B04D11A4A536843F48003A7
:100C000053602A68164B9A4221D12368103B012B6E
:100C10001DD8144A536843F4000353602368102B13
:100C200015D1114B1B6802F1467202F52E3202F209
:100C30008332A2FB03239B0C03EB83035A00019234
:100C400002E0019B013B0193019B002BF9D10020A5
:100C500085F83C0000E0022003B030BDBCD600089F
:100C600000200140002301400C000020704700BF1D
:100C700010B50446C31E042B03D9A421094803F070
:100C80001FFC094AD36823F4E0631B041B0C2402F5
:100C900004F4E064234343F0BF6343F40033D360C0
:100CA00010BD00BFECD6000800ED00E070B50446B2
:100CB0000E4615460F2A03D9BC211A4803F000FC42
:100CC0000F2E03D9BD21174803F0FAFB164BDA6843
:100CD000C2F30222C2F10701042928BF0421131D17
:100CE000062B01D9033A00E00022012303FA01F1A7
:100CF00001393140914003FA02F2013A2A400A4395
:100D0000002C06DA04F00F041201D2B2074B1A5578
:100D100070BD1201D2B204F1604404F5614484F85C
:100D2000002370BDECD6000800ED00E014ED00E0FB
:100D300010B5041E03DAD021064803F0C1FB620996
:100D400004F01F04012303FA04F4034B43F8224088
:100D500010BD00BFECD6000800E100E0BFF34F8FEC
:100D60000549CA6802F4E062044B1343CB60BFF349
:100D70004F8F00BFFDE700BF00ED00E00400FA0563
:100D80000138B0F1807F0AD2064B5860F021064A44
:100D900082F823100020986007221A607047012013
:100DA000704700BF10E000E000ED00E010B5044621
:100DB000042805D020B140F2B311084803F080FBAD
:100DC000042C05D1064A136843F00403136010BDD8
:100DD000034A136823F00403136010BDECD6000827
:100DE00010E000E0704700BF08B5FFF7FBFF08BD4B
:100DF0002DE9F04782B080460F46A44B984223D09D
:100E000003F5806398421FD003F5806398421BD09E
:100E100003F58063984217D003F58063984213D09E
:100E200003F5806398420FD003F5806398420BD09E
:100E300003F58063984207D003F58063984203D09E
:100E4000C521934803F03CFB3B881BB9C621904861
:100E500003F036FB7B68012B22D9112B20D0022B0B
:100E60001ED0122B1CD08B4A934219D002F580124F
:100E7000934215D002F58012934211D0A2F5F812D8
:100E800093420DD002F58012934209D002F58012F0
:100E9000934205D0032B03D0C7217D4803F010FBFC
:100EA000BB68022B03D9C821794803F009FB002550
:100EB0002CE10124AC403E682640B44240F025813C
:100EC0007B68022B01D0122B4AD13B69C3B3092B9B
:100ED00036D0ABB3A3B39BB393B3012B30D02FD099
:100EE000022B2DD02CD02BD0032B29D0042B27D094
:100EF00026D025D0052B23D022D0092B20D0062B9D
:100F00001ED0092B1CD0072B1AD019D018D0082BB3
:100F100016D015D014D0092B12D011D00A2B0FD017
:100F20000ED00B2B0CD00C2B0AD009D00D2B07D0D8
:100F30000C2B05D00F2B03D0D921554803F0C0FA54
:100F4000EA08083258F8220005F0070399000F2339
:100F50008B4020EA03003B698B40034348F8223072
:100F6000D8F800304FEA450A4FF0030909FA0AF9A8
:100F70006FEA090903EA09027B6803F0030303FA35
:100F80000AF31343C8F800307B685A1E012A03D9BC
:100F9000112B01D0122B1BD1FB68032B03D9EC21A1
:100FA0003B4803F08DFAD8F8083009EA0302FB68E1
:100FB00003FA0AF31343C8F80830D8F8043023EAD8
:100FC00004047B68C3F30013AB401C43C8F804401F
:100FD000D8F80C3009EA0309BB6803FA0AF349EAB6
:100FE0000303C8F80C307B6813F0805F00F08D803D
:100FF00000230193284B5A6C42F480425A645B6C84
:1010000003F480430193019BA9088A1C234B53F8E6
:10101000220005F003039B000F229A4020EA020001
:101020001A4A904521D002F5806290451FD002F502
:10103000806290451DD002F5806290451BD002F57C
:101040008062904519D002F58062904517D002F574
:101050008062904515D002F58062904513D002F56C
:10106000806290451CD108221BE0002219E0012279
:1010700017E0022215E0032213E0042211E005220A
:101080000FE006220DE007220BE000BF0000024047
:1010900020D700080000111000380240003801403D
:1010A000092202FA03F3034302311B4A42F82130BA
:1010B0001A4B1A68F34302EA0301786810F4803F80
:1010C00001D046EA0201154A1160526803EA0201A2
:1010D000786810F4003F01D046EA02010F4A5160DF
:1010E000926803EA0201786810F4801F01D046EA92
:1010F00002010A4A9160D2681340796811F4001F16
:1011000001D046EA0203054AD36001350F2D7FF670
:10111000D0AE02B0BDE8F08700380140003C01408D
:1011200070B5064615460C4621B940F2B111084883
:1011300003F0C6F9012D04D94FF4D971044803F026
:10114000BFF90DB1B46170BD2404B46170BD00BFBE
:1011500020D70008002800F0E38038B50446036873
:10116000704A93420CD002F58062934208D002F597
:101170008062934204D04FF4B1716B4803F0A0F940
:101180006368013B694A934204D940F2631166489F
:1011900003F096F9A3683BB1B3F5804F04D04FF448
:1011A000B271614803F08CF9E36823F47F7323F094
:1011B000030323B140F265115B4803F081F9236911
:1011C000B3F5804F07D0B3F5404F04D04FF4B3715F
:1011D000554803F075F96369012B04D940F2671192
:1011E000514803F06DF9A36933F0FE0304D04FF4C6
:1011F000B4714D4803F064F9E36933B1402B04D076
:1012000040F26911484803F05BF9236A33B1802B3F
:1012100004D04FF4B571444803F052F994F83D30CE
:1012200013F0FF0F05D1002384F83C30204609F06D
:10123000D1F9242384F83D302268136823F0010398
:10124000136000F01FFC3A4BA3FB00239B0C2268A9
:10125000536021686568374A954201D8013308E038
:101260004FF4967202FB03F3334AA2FB03239B095C
:1012700001330B62216863682E4A934208D85B00F1
:10128000B0FBF3F0C0F30B03032B2BD8042029E0B1
:10129000A5684DB903EB4302B0FBF2F2C2F30B02B7
:1012A000B2FA82F252090AE003EB830202EB8202F5
:1012B000B0FBF2F2C2F30B02B2FA82F2520982B927
:1012C00035B903EB4303B0FBF3F040F4004009E011
:1012D00003EB830303EB8303B0FBF3F040F44040E4
:1012E00000E00120C8612268E169236A0B431360B2
:1012F00022682169E3680B43936022686169A369EE
:101300000B43D3602268136843F00103136000208D
:101310002064202384F83D30206384F83E0038BDEB
:10132000012070470054004050D700087F1A060083
:1013300083DE1B43A0860100D34D621030B583B01D
:10134000044603680F2B03D9F6219C4803F0B8F834
:10135000236813F0010F45D06368012B05D9052BD5
:1013600003D0FB21954803F0ABF8954B9B6803F045
:101370000C03042B0AD0924B9B6803F00C03082B40
:101380000CD18F4B5B6813F4800F07D08C4B1B681C
:1013900013F4003F26D0636823BBCCE12279894B4C
:1013A0001A7063687BB1FFF771F8054605E0FFF737
:1013B0006DF8401B642800F2C081814B1B6813F458
:1013C000003FF4D00EE0FFF761F8054605E0FFF7B7
:1013D0005DF8401B642800F2B281794B1B6813F45E
:1013E000003FF4D1236813F0020F6AD0E368012BA9
:1013F00004D940F22D11714803F062F823691F2BC4
:1014000004D94FF497716D4803F05AF86C4B9B6800
:1014100013F00C0F0AD06A4B9B6803F00C03082BE7
:101420001BD1674B5B6813F4800F16D1644B1B68AC
:1014300013F0020F03D0E368012B40F08281604873
:10144000036823F0F8012369F82292FAA2F2B2FAB3
:1014500082F293400B43036033E0E368FBB1012267
:10146000594B1A60FFF712F8054605E0FFF70EF832
:10147000401B022800F26781514B1B6813F0020FDA
:10148000F4D04F48036823F0F8012369F82292FA58
:10149000A2F2B2FA82F293400B43036011E0002201
:1014A000494B1A60FEF7F2FF054605E0FEF7EEFF36
:1014B000401B022800F24981414B1B6813F0020FC8
:1014C000F4D1236813F0080F2ED06369012B04D9DF
:1014D0004FF4B771394802F0F3FF636993B1012209
:1014E0003A4B1A60FEF7D2FF054605E0FEF7CEFF45
:1014F000401B022800F22B81314B5B6F13F0020F6F
:10150000F4D011E00022314B1A60FEF7BFFF054610
:1015100005E0FEF7BBFF401B022800F21A81284BB2
:101520005B6F13F0020FF4D1236813F0040F60D047
:10153000A368012B06D9052B04D04FF4CC711F48AA
:1015400002F0BEFF002301931D4B1A6C42F0805243
:101550001A641B6C03F080530193019B1C4A1368AF
:1015600043F480731360FEF791FF054605E0FEF734
:101570008DFF401B022800F2EE80154B1B6813F410
:10158000807FF4D0227A134B1A70A3688BB1FEF7D8
:101590007DFF054607E0FEF779FF401B41F28833E7
:1015A000984200F2DA80064B1B6F13F0020FF2D064
:1015B0001FE0FEF76BFF054616E000BF90D700085E
:1015C000003802400238024000004742800E474285
:1015D0000070004070380240FEF758FF401B41F297
:1015E0008833984200F2BB80634B1B6F13F0020FED
:1015F000F2D1A369022B04D940F2CD115F4802F069
:101600005FFFA369002B00F0AC805B4A926802F098
:101610000C02082A00F0A780022B79D1E3693BB1C4
:10162000B3F5800F04D04FF4EB71544802F048FF3B
:10163000236A3F2B04D940F2D711504802F040FFF3
:10164000636A323BB3F5BF7F04D94FF4EC714B486A
:1016500002F036FFA36A022B0AD0042B08D0062B17
:1016600006D0082B04D040F2D911444802F028FFDC
:10167000E36A043B0B2B04D94FF4ED713F4802F0B1
:101680001FFF00223E4B1A60FEF700FF054604E0F4
:10169000FEF7FCFE401B022867D8374B1B6813F08F
:1016A000007FF5D1E169236A1943636A47F6C07286
:1016B00092FAA2F2B2FA82F293401943A36A5B084B
:1016C0005A1E4FF4403393FAA3F3B3FA83F302FAAA
:1016D00003F30B43E26A4FF0706191FAA1F1B1FAA2
:1016E00081F18A401343244A53600122244B1A603B
:1016F000FEF7CCFE044604E0FEF7C8FE001B0228FD
:1017000035D81D4B1B6813F0007FF5D0002031E069
:1017100000221B4B1A60FEF7B9FE044604E0FEF7F8
:10172000B5FE001B022824D8134B1B6813F0007F62
:10173000F5D100201EE001201CE003201AE0032068
:1017400018E0012016E0032014E0032012E003203B
:1017500010E003200EE003200CE003200AE0032049
:1017600008E0002006E0012004E0032002E003205E
:1017700000E0032003B030BD0038024090D70008DD
:101780006000474270B504460D460368013B0E2BCE
:1017900004D94FF40E71834802F092FE072D04D94C
:1017A00040F239217F4802F08BFE7F4B1B6803F02B
:1017B0000F039D4208D9EBB27B4A1370136803F004
:1017C0000F039D4240F0DB80236813F0020F1DD011
:1017D000A368A3B1802B12D0902B10D0A02B0ED0D9
:1017E000B02B0CD0C02B0AD0D02B08D0E02B06D0C9
:1017F000F02B04D04FF414716A4802F061FE6B497B
:101800008B6823F0F002A36813438B60236813F006
:10181000010F64D06368032B04D940F2572161485B
:1018200002F04EFE6268012A05D1604B1B6813F47A
:10183000003F0FD1A5E0931E012B05D85B4B1B6821
:1018400013F0007F06D19EE0584B1B6813F0020F87
:1018500000F09B8055498B6823F0030313438B6092
:10186000FEF714FE06466368012B0FD107E0FEF772
:101870000DFE801B41F28833984200F288804B4B6A
:101880009B6803F00C03042BF1D128E0022B0ED14E
:1018900006E0FEF7FBFD801B41F28833984278D8C2
:1018A000424B9B6803F00C03082BF2D117E0032B8B
:1018B00010D13E4B9B68FEF7E9FD801B41F2883357
:1018C0009842F6D967E0FEF7E1FD801B41F28833CC
:1018D000984262D8354B9B6813F00C0FF3D1324B12
:1018E0001B6803F00F039D4207D2EAB22E4B1A7019
:1018F0001B6803F00F039D4251D1236813F0040FBE
:1019000019D0E36883B1B3F5805F0DD0B3F5A05F64
:101910000AD0B3F5C05F07D0B3F5E05F04D040F262
:10192000B521204802F0CCFD20498B6823F4E05219
:10193000E36813438B60236813F0080F1AD0236900
:1019400083B1B3F5805F0DD0B3F5A05F0AD0B3F5D6
:10195000C05F07D0B3F5E05F04D04FF42F7111489A
:1019600002F0AEFD114A936823F46043216943EA13
:10197000C10393600020FEF753FD002070BD0120DD
:1019800070BD012070BD012070BD012070BD03201D
:1019900070BD032070BD032070BD032070BD012009
:1019A00070BD00BF90D70008003C024000380240E4
:1019B000244B9B6803F00C03042B3FD0082B01D071
:1019C0002148704710B41F4B586800F03F005B6817
:1019D00013F4800F10D01D4BB3FBF0F0194B5A6875
:1019E00047F6C0710A4091FAA1F3B3FA83F322FAE1
:1019F00003F303FB00F310E0134BB3FBF0F0114BC8
:101A00005A6847F6C07402EA040194FAA4F2B2FAE2
:101A100082F221FA02F202FB00F30A4A506800F453
:101A200040324FF4403090FAA0F0B0FA80F022FA41
:101A300000F001304000B3FBF0F001E003487047D4
:101A400010BC7047003802400024F400001BB700AF
:101A500008B5FFF7ADFF084B9B6803F0F002F023D9
:101A600093FAA3F3B3FA83F322FA03F3034AD35CA2
:101A7000D840034B186008BD0038024080D70008EA
:101A80000C00002008B5FFF7E3FF084B9B6803F448
:101A9000E0524FF4E05393FAA3F3B3FA83F322FA3C
:101AA00003F3034AD35CD84008BD00BF00380240AE
:101AB00080D7000808B5FFF7CBFF084B9B6803F4FD
:101AC00060424FF4604393FAA3F3B3FA83F322FA2C
:101AD00003F3034AD35CD84008BD00BF003802407E
:101AE00080D7000830B583B005460368013B062B5C
:101AF00004D940F21661624802F0E2FC2B6813F050
:101B0000010F4AD0AB68023B052B04D940F21C619F
:101B10005B4802F0D5FC6B68323BB3F5BF7F04D95C
:101B200040F21D61564802F0CBFC0022554B1A6072
:101B3000FEF7ACFC044605E0FEF7A8FC001B0228FB
:101B400000F29180504B1B6813F0006FF4D16A686B
:101B500047F6C07393FAA3F3B3FA83F302FA03F1DF
:101B6000AB684FF0E04292FAA2F2B2FA82F29340EE
:101B70000B43454AC2F884300122424B1A60FEF7FB
:101B800085FC044604E0FEF781FC001B02286CD8AB
:101B90003D4B1B6813F0006FF5D02B6813F0020F5C
:101BA00065D000230193384B1A6C42F080521A64BE
:101BB0001B6C03F080530193019B344A136843F478
:101BC00080731360FEF762FC044604E0FEF75EFCDF
:101BD000001B02284DD82D4B1B6813F4807FF5D0D5
:101BE000294B1A6FEB68534013F4407F43D0264AC9
:101BF000136F23F44070264901240C6000240C600C
:101C0000106713F0020F0FD0FEF740FC044606E009
:101C1000FEF73CFC001B41F2883398422DD81A4B4A
:101C20001B6F13F0020FF3D0EB6803F44072B2F5B0
:101C3000407F0AD114498A6822F4F81223F07043D5
:101C400023F4407313438B6004E00F4A936823F43A
:101C5000F81393600C4A116FEB68C3F30B030B434B
:101C6000136700200AE0032008E0032006E00020BC
:101C700004E0032002E0002000E0032003B030BDB8
:101C8000C0D700086800474200380240007000409A
:101C9000400E474201684B6BC3F3C0134FF48032D0
:101CA00003E04B6BC3F3C013013A0AB1002BF8D029
:101CB00022B140F2FF538B6300207047032070472E
:101CC00001684B6B13F0450F14BF012200224FF443
:101CD000803306E04A6B12F0450F14BF0122002248
:101CE000013B0AB9002BF5D14A6B02F0040203B1A3
:101CF0001AB104238B63032070474B6B13F0400F22
:101D000003D040238B63002070472920704700BF19
:101D100003685A6B12F0450FFAD05A6B12F0040F99
:101D200003D004229A630320704740F2FF529A6363
:101D30000020704703685A6B12F0450FFAD05A6BB7
:101D400012F0040F03D004229A63032070475A6BE9
:101D500012F0010F02D001209863704740F2FF5249
:101D60009A630020704700BF38B503685A6B12F0C1
:101D7000450FFAD05A6B12F0040F03D004229A6375
:101D8000032038BD5A6B12F0010F02D00120986376
:101D900038BD0D460446184602F0DEFAA84243D18B
:101DA000236840F2FF529A63002002F0D9FA334BC5
:101DB0000340DBB300283BDB10F0804F3AD110F03A
:101DC000005F39D110F0805F38D110F0006F37D14B
:101DD00010F0806F36D110F0807F35D110F4000FF5
:101DE00034D110F4800F33D110F4001F32D110F42D
:101DF000801F31D110F4002F30D110F4802F2FD15B
:101E000010F4003F2ED110F4803F2DD110F4004F7C
:101E10002CD110F4804F2BD110F4005F2AD110F098
:101E2000080F29D01A2038BD102038BD002038BD39
:101E30001C2038BD092038BD0A2038BD0B2038BD14
:101E40000C2038BD0D2038BD0E2038BD0F2038BD08
:101E5000102038BD112038BD122038BD132038BDE8
:101E6000142038BD152038BD162038BD172038BDC8
:101E7000182038BD192038BD002038BD08E0FFFD0E
:101E80002DE9F04186B0044600258DF803505B4EE5
:101E90003560006802F016FA0120FEF7FDFA012312
:101EA000336001950295039504954FF48063059383
:101EB00001A9206802F00EFA2046FFF7EBFE8DF82C
:101EC00003009DF8033013F0FF0F03D09DF80300CB
:101ED000C0B28FE04FF4D5730193082302934023DF
:101EE000039301A9206802F0F5F92046FFF7E8FE08
:101EF0008DF803009DF8033013F0FF0F04D1012388
:101F000023624FF0804801E04FF000080023019366
:101F10003725029501A9206802F0DCF92946204600
:101F2000FFF722FF8DF803009DF8033013F0FF0F39
:101F300045D05CE0002301933726029640220392AD
:101F400004934FF48063059301A9206802F0C2F95D
:101F500031462046FFF708FF8DF803009DF8033057
:101F600013F0FF0F03D09DF80300C0B242E048F029
:101F7000004343F4801301932923029340230393E6
:101F8000002304934FF48063059301A9206802F0B5
:101F9000A1F92046FFF7BCFE8DF803009DF8033041
:101FA00013F0FF0F03D09DF80300C0B222E0002021
:101FB00002F0D6F9002800DA0127013502E00027F7
:101FC0003D4638461FB94FF6FE739D42B2D94FF6D3
:101FD000FE739D4206D91B238DF803309DF8030044
:101FE000C0B207E010F0804F01D0022323629DF8B9
:101FF0000300C0B206B0BDE8F08100BFA08025425A
:1020000030B587B00446019207250295402303931B
:10201000002304934FF48063059301A9006802F044
:1020200059F929462046FFF79FFE07B030BD00BF93
:10203000F1B170B586B00E460446436A1B040193A5
:102040000D25029540230393002304934FF48063EE
:10205000059301A9006802F03DF929462046FFF7E3
:1020600083FE044630B902F07BF93060204601E07F
:102070002620704706B070BD00B583B002A90023CA
:1020800041F8043DFFF7D4FF18B90198C0F343208D
:1020900000E0FF2003B05DF804FB00BF70B50368EB
:1020A0005C6B14F0450FFAD05C6B14F0040F03D096
:1020B00004229A63032070BD5C6B14F0010F02D000
:1020C0000120986370BD16460D460446184602F07E
:1020D00043F9A84218D1236840F2FF529A630020C6
:1020E00002F03EF910F4604F03D1000C3080002064
:1020F00070BD10F4005F09D110F4804F08D110F4C6
:10210000004F07D00F2070BD102070BD132070BD90
:10211000102070BD002070BD30B587B004460D465C
:1021200000220092436A1B0401930D230293402373
:10213000039304924FF48063059301A9006802F0B1
:10214000C9F82068436B13F0450FFAD0436B13F0C6
:10215000040F03D004238363032092E0436B13F046
:10216000010F03D00123836318468AE002F0F4F8DC
:102170000D285DD1236840F2FF529A63002002F0DF
:10218000EFF80090009BC3F343232B70009A3E4B63
:102190001340002B4ED0009B002B4DDB009B13F017
:1021A000804F4BD1009B13F0005F49D1009B13F08F
:1021B000805F47D1009B13F0006F45D1009B13F067
:1021C000806F43D1009B13F0807F41D1009B13F4BB
:1021D000000F3FD1009B13F4800F3DD1009B13F4FF
:1021E000001F3BD1009B13F4801F39D1009B13F4D7
:1021F000002F37D1009B13F4802F35D1009B13F4AF
:10220000003F33D1009B13F4803F31D1009B13F486
:10221000004F2FD1009B13F4804F2DD1009B13F45E
:10222000005F2BD1009B13F0080F29D01A2028E063
:10223000102026E0002024E01C2022E0092020E0DD
:102240000A201EE00B201CE00C201AE00D2018E0F4
:102250000E2016E00F2014E0102012E0112010E0F4
:1022600012200EE013200CE014200AE0152008E0F4
:10227000162006E0172004E0182002E0192000E0F4
:10228000002007B030BD00BF08E0FFFD30B587B0CB
:1022900004460123ADF80230006802F017F8002868
:1022A00064D0236A042B23D00023019302220292DC
:1022B000C022039204934FF48063059301A9206820
:1022C00002F008F82046FFF735FD054600284FD1FB
:1022D00002F046F8A063042002F042F8E063082010
:1022E00002F03EF820640C2002F03AF8606400E04E
:1022F0000025236A012B03D9062B01D0022B0FD115
:10230000032502954023039301A9206801F0E2FF11
:102310000DF1020229462046FFF7C0FE054640BBEC
:10232000236A042B26D0BDF8023063621B0401939C
:1023300009230293C023039301A9206801F0CAFF77
:102340002046FFF7F7FC0546B0B902F009F8A06295
:10235000042002F005F8E062082002F001F8206392
:102360000C2001F0FDFF6063284605E0252003E016
:1023700002E001E02846FFE707B030BDF0B58FB0BE
:1023800004460E4600230193029308220992102569
:102390000A9540220B920C934FF480630D9309A988
:1023A000006801F097FF29462046FFF7DDFC002872
:1023B0007FD1636AAB40099337250A9509A9206844
:1023C00001F088FF29462046FFF7CEFC002871D196
:1023D0004FF0FF3303930823049330230593022324
:1023E0000693002507950123089303A9206801F0AF
:1023F000D3FF099533250A9509A9206801F06AFFE2
:1024000029462046FFF7B0FC0546002853D1002797
:1024100009E0436B13F4001F05D001F049FF01AB45
:1024200043F8270001372068426B40F22A631A42C2
:10243000EFD0436B13F0080F03D00823836304200D
:1024400039E0436B13F0020F03D002238363184675
:1024500031E0436B13F0200F03D020238363062069
:1024600029E0436B13F4007F04D04FF400738363BF
:10247000072020E040F2FF53836301990B0203F42D
:102480007F0343EA01630A0A02F47F42134343EAEB
:102490001163736002990B0203F47F0343EA016343
:1024A0000A0A02F47F42134343EA11633360284669
:1024B00001E000E0FFE70FB0F0BD00BF30B589B02C
:1024C000044600200190029001F04AFF10F0007FC6
:1024D0002AD101A92046FFF751FF38BB029B13F414
:1024E000802F24D0636A1B0403933725049540236F
:1024F0000593002306934FF48063079303A9206894
:1025000001F0E8FE29462046FFF72EFC88B9022399
:1025100003930625049503A9206801F0DBFE2946F4
:102520002046FFF721FC04E00E2002E001E0252018
:10253000FFE709B030BD00BF30B589B004460020C8
:102540000190029001F00CFF10F0007F2AD101A948
:102550002046FFF713FF38BB029B13F4803F24D0C3
:10256000636A1B04039337250495402305930023D6
:1025700006934FF48063079303A9206801F0AAFE35
:1025800029462046FFF7F0FB88B900230393062570
:10259000049503A9206801F09DFE29462046FFF717
:1025A000E3FB04E00E2002E001E02520FFE709B094
:1025B00030BD00BF2DE9F003034690F8202081F8DC
:1025C0005620828CA1F85420826A900F0870C2F3C2
:1025D00083604870C2F301628A7093F82A20CA703F
:1025E00093F829200A7193F828204A7193F82F2034
:1025F0001201CA80D88DCA8892B2C0F30314224354
:10260000CA8000F00F00087293F82D20D00948729C
:10261000C2F380108872C2F34010C872C2F3001077
:10262000087300204873186A012840D8920202F407
:1026300040620A61DA6A0869920002F47F7202431A
:102640000A611A6B086940EA92700861C2F3C260BD
:102650000875C2F302624A755A8ED0B244098C756D
:10266000C0F38200C875520002F006020A7693F8A1
:102670003120087E40EAD21008760C69651C0020E3
:102680008D64C8640C7E0234012707FA04F4A4FBAD
:102690000545C1E912450E7AF6B207FA06F60E654F
:1026A000A6FB048906FB0599C1E9128924E00228EA
:1026B00021D1DA6A120402F47C120A6193F8330021
:1026C0000A6942EA00220A6193F832000A69024369
:1026D0000A6193F831200C690025013445F10005A9
:1026E000E80440EA5430E4048C64C8644FF4007099
:1026F0000865002000E02920C2F380144C765200C7
:1027000002F07E028A761A6B8D7EC2F3C0142C43CF
:102710008C7602F07F02CA765A6B140ED50F0D77B5
:10272000C2F341754D77C2F382628A77A20002F04C
:102730000C02CA77DA8ED4B2CD7F45EA9415CD77F4
:10274000C4F3401481F82040002481F8214002F0B5
:10275000010281F822205C6B240AE2B2D50981F8DB
:102760002350C2F3801581F82450C2F3401581F83C
:102770002550C2F3001581F82650C2F3810281F87A
:10278000272004F0030481F828405A6BC2F3460264
:1027900081F82920012481F82A4093F83B2081F810
:1027A0002C2093F83A201202CA8593F83950CA8D2A
:1027B00092B22A43CA859A6B12060A6393F83F5075
:1027C0000A6B42EA05420A63DA8F0D6B120202F4C9
:1027D0007F422A430A6393F83D500A6B2A430A63F7
:1027E00093F83C2081F8342093F8432081F8352079
:1027F000B3F8422012068A631A6C120A8D6B120417
:1028000002F47F022A438A631A6C8D6B120202F46F
:102810007F422A438A6393F847508A6B2A438A632C
:1028200093F8462091F83C5045EA121581F83C5047
:10283000120202F47062CA8793F84550CA8F92B2AE
:102840002A43CA875B6CC3F3460381F8403081F8A2
:102850004140BDE8F003704770B58CB005460E46A8
:1028600000248DF82F40047707F0DEFE05940694CF
:1028700007940894099476230A9308AB93E8070019
:102880008DE8070005AB0ECB286801F0ABFC2846AD
:10289000FFF7F6FA8DF82F009DF82F3013F0FF0F99
:1028A00003D09DF82F00C0B231E02846FFF7EEFCC0
:1028B0008DF82F009DF82F3013F0FF0F03D09DF8F7
:1028C0002F00C0B223E031462846FFF773FE8DF893
:1028D0002F009DF82F3013F0FF0F08D1B6F85420C9
:1028E000120400232846FFF78BFB8DF82F002B46A0
:1028F00053F8104B93E807008DE80700043595E87E
:102900000E00204601F06EFC9DF82F00C0B20CB006
:1029100070BD00BF036A032B30D0022B30D870B5D6
:102920008AB00E460446B1F5805F0BD0B1F5006F5A
:1029300003D1FFF7C3FD054607E029B9FFF7FCFD0A
:10294000054602E0272500E02625DDB963680493EB
:10295000A3680593E3680693079663690893A369E0
:10296000099324680AAB13E907008DE8070004AB5C
:102970000ECB204601F036FC284604E027207047A5
:102980000020704728460AB070BD00BF30B587B040
:102990000446002301930C250295402203920493E0
:1029A0004FF48063059301A9006801F093FC294668
:1029B0002046FFF7D9F907B030BD00BF2DE9F04739
:1029C0008CB004460E469146149FDDF854A0026870
:1029D0000021D162026A022A05D14FEA592242EA55
:1029E000C3594FF4007707971025089540230993A2
:1029F00000230A934FF480630B9307A9206801F02A
:102A000069FC29462046FFF7AFF9002840F0A9806D
:102A10004FF0FF3301930AFB07F3029390230393D4
:102A200002230493002305930123069301A9206840
:102A300001F0B2FCBAF1010F02D91223089301E0B0
:102A4000112308930CA941F8149D206801F042FC61
:102A5000BAF1010F20D912212046FFF785F905466A
:102A600098B17FE05B6B13F4004F0ED007E0206855
:102A700001F01EFC46F8280008F1010801E04FF0C3
:102A80000008B8F1070FF2D920362368596B40F2DD
:102A90002A321142E6D01FE011212046FFF764F9E7
:102AA000054698B15FE05B6B13F4004F0ED007E072
:102AB000206801F0FDFB46F8280008F1010801E05C
:102AC0004FF00008B8F1070FF2D920362368596B90
:102AD00040F22A621142E6D023685B6B13F4807FD8
:102AE00009D0BAF1010F06D9236A022B03D8204678
:102AF000FFF74CFF054623685A6B12F0080F03D00E
:102B000008229A6304202EE05A6B12F0020F03D0C1
:102B100002259D63284626E05A6B12F0200F03D051
:102B200020229A6306201EE05A6B12F4007F0AD01E
:102B30004FF400729A63072015E001F0B9FB46F8E4
:102B4000040B013F01E04FF0FF372068436B13F4A3
:102B5000001F01D0002FF0D140F2FF5383632846BD
:102B600001E000E0FFE70CB0BDE8F0872DE9F04799
:102B70008CB004460D469146149E159F00228DF898
:102B800003200168CA62026A022A05D14FEA59226B
:102B900042EAC3594FF4007607964FF01008CDF87B
:102BA00020804023099300230A934FF480630B9302
:102BB00007A9206801F08EFB41462046FFF7D4F8B4
:102BC000002840F0E980012F02D91923089301E081
:102BD000182308930CA941F8149D206801F07AFB92
:102BE000012F04D919212046FFF7BEF803E0182170
:102BF0002046FFF7B9F8002840F0CE8007FB06F624
:102C00004FF0FF3301930296902303930023049324
:102C100005930123069301A9206801F0BDFB012F54
:102C200035D84FF000086DE05B6B13F4804F30D067
:102C3000C8EB060ABAF11F0F20D81AF0030F02D111
:102C40004FEA9A0A03E04FEA9A0A0AF1010A4FF0A2
:102C5000000908E02946206801F02EFB043508F140
:102C6000040809F10109D145F4D312E005EB89010B
:102C7000206801F021FB09F1010901E04FF0000992
:102C8000B9F1070FF2D9203508F1200801E04FF023
:102C900000082368596B40F21A321142C4D037E061
:102CA0005B6B13F4804F2DD0C8EB060ABAF11F0FEF
:102CB00020D81AF0030F02D14FEA9A0A03E04FEA34
:102CC0009A0A0AF1010A4FF0000908E02946206833
:102CD00001F0F2FA043508F1040809F10109D145BF
:102CE000F4D30FE005EB8901206801F0E5FA09F162
:102CF000010901E04FF00009B9F1070FF2D92035C1
:102D000008F120082368596B40F21A621142C7D0BB
:102D100023685B6B13F4807F07D0012F05D9236AEA
:102D2000022B02D82046FFF731FE23685A6B12F0BF
:102D3000080F03D008229A6304202DE05A6B12F08A
:102D4000020F02D00220986326E05A6B12F0100F97
:102D500003D010229A6305201EE05A6B12F4007F04
:102D600004D04FF400729A63072015E040F2FF523E
:102D70009A630DF103012046FFF7CEF904E00DF14F
:102D800003012046FFF7C8F930B99DF80330063B30
:102D9000DBB2012BF3D9FFE70CB0BDE8F08700BF31
:102DA00008B5FFF769F9042803D0FF2803D10220F2
:102DB00008BD002008BD012008BD00BF10B4036A93
:102DC000046A24F001040462846924F0F00444EAF3
:102DD000021223F00A0319438261016210BC70479A
:102DE00010B4036A23F0100303628469036A24F4B5
:102DF000704444EA023223F0A00343EA01118261E5
:102E0000016210BC704700BF836823F0700341F07B
:102E1000070119438160704710B4846824F47F442B
:102E200042EA0323194344EA0103836010BC70475C
:102E300010B504460368244A934237D0B3F1804F5B
:102E400034D0A2F57C42934230D002F580629342A6
:102E50002CD002F58062934228D002F58062934222
:102E600024D002F58062934220D002F57042934252
:102E70001CD002F57052934218D002F58062934242
:102E800014D002F58062934210D0A2F5983293429A
:102E90000CD002F58062934208D002F58062934222
:102EA00004D04FF49A71094801F00AFB022384F818
:102EB00039302268136843F001031360012384F85A
:102EC0003930002010BD00BF00000140F4D70008D9
:102ED00038B590F83830012B00F0CE820D4604460C
:102EE000012380F83830022380F839300B68B3F5BD
:102EF000805F16D0B3F5005F13D093B1102B10D0C4
:102F0000202B0ED0302B0CD0402B0AD0502B08D0C9
:102F1000602B06D0702B04D040F66D71B24801F0E2
:102F2000CFFA2268936823F47F4323F077039360FA
:102F30002B68402B00F0A1810ED8102B00F01B82D3
:102F400003D8002B00F0EE818FE2202B00F03C82B2
:102F5000302B00F0628288E2702B51D006D8502BC3
:102F600000F0EC80602B00F043817EE2B3F5805FDF
:102F700004D0B3F5005F00F0928076E223689B4AAC
:102F8000934237D0B3F1804F34D0A2F57C429342C4
:102F900030D002F5806293422CD002F580629342D9
:102FA00028D002F58062934224D002F580629342D9
:102FB00020D002F5704293421CD002F57052934229
:102FC00018D002F58062934214D002F580629342D9
:102FD00010D0A2F5983293420CD002F58062934251
:102FE00008D002F58062934204D040F679717E48A1
:102FF00001F066FA2268936823F00703936034E2D5
:1030000023687A4A934217D0B3F1804F14D0A2F5C7
:103010007C42934210D002F5806293420CD002F5BC
:103020008062934208D002F57842934204D040F681
:1030300082716D4801F044FA6B68B3F5004F0AD015
:103040004BB143B1022B06D00A2B04D040F6847159
:10305000654801F035FAAB686BB1B3F5805F0AD013
:10306000B3F5005F07D0B3F5405F04D040F685713B
:103070005D4801F025FAEB680F2B04D940F6867104
:10308000594801F01DFAEB686A68A9682068FFF7E3
:10309000C3FE2268936843F077039360E5E12368F9
:1030A000524A934217D0B3F1804F14D0A2F57C421C
:1030B000934210D002F5806293420CD002F58062F8
:1030C000934208D002F57842934204D040F69A71B8
:1030D000454801F0F5F96B68B3F5004F0AD04BB1E4
:1030E00043B1022B06D00A2B04D040F69C713E4817
:1030F00001F0E6F9AB686BB1B3F5805F0AD0B3F5C8
:10310000005F07D0B3F5405F04D040F69D713648AC
:1031100001F0D6F9EB680F2B04D940F69E713248C6
:1031200001F0CEF9EB686A68A9682068FFF774FEC1
:103130002268936843F48043936096E123682B4AA6
:1031400093422FD0B3F1804F2CD0A2F57C42934212
:1031500028D002F58062934224D002F58062934227
:1031600020D002F5784293421CD002F5705293426F
:1031700018D002F58062934214D002F58062934227
:1031800010D0A2F5983293420CD002F5806293429F
:1031900008D002F58062934204D040F6AC71124828
:1031A00001F08EF96B68B3F5004F0AD04BB143B113
:1031B000022B06D00A2B04D040F6AF710A4801F06A
:1031C0007FF9EB680F2B04D94FF47B61064801F0BF
:1031D00077F9EA6869682068FFF7F0FD50212068F8
:1031E000FFF712FE41E100BFF4D7000800000140E4
:1031F0002368A24A93421FD0B3F1804F1CD0A2F59E
:103200007C42934218D002F58062934214D002F5BA
:103210008062934210D002F5784293420CD002F5BE
:103220007052934208D0A2F59432934204D040F6F3
:10323000BA71934801F044F96B68B3F5004F0AD0B6
:103240004BB143B1022B06D00A2B04D040F6BD711E
:103250008B4801F035F9EB680F2B04D940F6BE71AD
:10326000874801F02DF9EA6869682068FFF7B8FD22
:1032700060212068FFF7C8FDF7E023687F4A93428A
:103280002FD0B3F1804F2CD0A2F57C42934228D0AE
:1032900002F58062934224D002F58062934220D0EE
:1032A00002F5784293421CD002F57052934218D036
:1032B00002F58062934214D002F58062934210D0EE
:1032C000A2F5983293420CD002F58062934208D066
:1032D00002F58062934204D040F6C871684801F05C
:1032E000EFF86B68B3F5004F0AD04BB143B1022B36
:1032F00006D00A2B04D040F6CB71614801F0E0F80B
:10330000EB680F2B04D940F6CC715D4801F0D8F87A
:10331000EA6869682068FFF751FD40212068FFF7DF
:1033200073FDA2E02368554A93421FD0B3F1804F4A
:103330001CD0A2F57C42934218D002F580629342E1
:1033400014D002F58062934210D002F57842934285
:103350000CD002F57052934208D0A2F594329342F9
:1033600004D040F6D671464801F0AAF80021206842
:10337000FFF74AFD79E02368404A93421FD0B3F13A
:10338000804F1CD0A2F57C42934218D002F5806297
:10339000934214D002F58062934210D002F5784235
:1033A00093420CD002F57052934208D0A2F59432A9
:1033B000934204D040F6DC71314801F081F81021CD
:1033C0002068FFF721FD50E023682C4A93421FD06C
:1033D000B3F1804F1CD0A2F57C42934218D002F585
:1033E0008062934214D002F58062934210D002F5BD
:1033F000784293420CD002F57052934208D0A2F565
:103400009432934204D040F6E2711D4801F058F81E
:1034100020212068FFF7F8FC27E02368174A934231
:103420001FD0B3F1804F1CD0A2F57C42934218D03C
:1034300002F58062934214D002F58062934210D06C
:1034400002F5784293420CD002F57052934208D0B4
:10345000A2F59432934204D040F6E871084801F096
:103460002FF830212068FFF7CFFC012384F8393092
:10347000002084F8380038BD022038BD000001402B
:10348000F4D70008704700BF704700BF704700BF07
:10349000704700BF704700BF10B5044603681A6943
:1034A00012F0020F17D0DA6812F0020F13D06FF08B
:1034B00002021A610123037603689B6913F0030F6C
:1034C00002D0FFF7E3FF04E0FFF7DEFF2046FFF73F
:1034D000DFFF0023237623681A6912F0040F19D046
:1034E000DA6812F0040F15D06FF004021A6102239B
:1034F000237623689B6913F4407F03D02046FFF7AF
:10350000C5FF05E02046FFF7BFFF2046FFF7C0FFDD
:103510000023237623681A6912F0080F19D0DA689D
:1035200012F0080F15D06FF008021A6104232376F9
:103530002368DB6913F0030F03D02046FFF7A6FFD3
:1035400005E02046FFF7A0FF2046FFF7A1FF00237C
:10355000237623681A6912F0100F19D0DA6812F076
:10356000100F15D06FF010021A610823237623681C
:10357000DB6913F4407F03D02046FFF787FF05E0A7
:103580002046FFF781FF2046FFF782FF00232376C6
:1035900023681A6912F0010F09D0DA6812F0010FDE
:1035A00005D06FF001021A612046FFF76BFF236818
:1035B0001A6912F0800F09D0DA6812F0800F05D076
:1035C0006FF080021A61204600F09EF923681A69A4
:1035D00012F0400F09D0DA6812F0400F05D06FF0FA
:1035E00040021A612046FFF755FF23681A6912F05E
:1035F000200F09D0DA6812F0200F05D06FF02002FA
:103600001A61204600F07EF910BD00BF0368454AEC
:10361000904214D0B0F1804F13D0A2F57C4290427A
:1036200011D002F5806290420FD002F58062904284
:103630000DD002F5784290420BD101220AE001221E
:1036400008E0012206E0012204E0012202E001225A
:1036500000E000221AB123F070034A681343314A94
:1036600090422CD0B0F1804F2BD0A2F57C429042FA
:1036700029D002F58062904227D002F58062904204
:1036800025D002F57842904223D002F57052904244
:1036900021D002F5806290421FD002F580629042F4
:1036A0001DD0A2F5983290421BD002F58062904264
:1036B00019D002F58062904217D1012216E0012252
:1036C00014E0012212E0012210E001220EE00122AA
:1036D0000CE001220AE0012208E0012206E00122BA
:1036E00004E0012202E0012200E000221AB123F4EA
:1036F0004073CA68134303608B68C3620B688362BC
:10370000084B984205D003F58063984203D101230A
:1037100002E0012300E000230BB10B6903630123E6
:10372000436170470000014000286DD010B5044689
:103730000368364A934236D0B3F1804F33D0A2F5B6
:103740007C4293422FD002F5806293422BD002F547
:103750008062934227D002F58062934223D002F523
:10376000806293421FD002F5704293421BD002F553
:103770007052934217D002F58062934213D002F543
:10378000806293420FD0A2F5983293420BD002F59B
:103790008062934207D002F58062934203D0D92120
:1037A0001B4800F08DFEA3685BB1102B09D0202BC5
:1037B00007D0402B05D0602B03D0DA21144800F04D
:1037C0007FFE23694BB1B3F5807F06D0B3F5007F50
:1037D00003D0DB210E4800F073FE94F8393013F06B
:1037E000FF0F05D1002384F83830204606F052FF41
:1037F000022384F83930211D2068FFF707FF0123D9
:1038000084F83930002010BD0120704700000140CD
:10381000F4D7000838B504460D460368374A93428A
:1038200027D0B3F1804F24D0A2F57C42934220D020
:1038300002F5806293421CD002F58062934218D058
:1038400002F58062934214D002F58062934210D058
:1038500002F5704293420CD002F57052934208D0A8
:10386000A2F59432934204D04FF4CB61244800F087
:1038700027FE2B6893B1102B10D0202B0ED0302BAD
:103880000CD0402B0AD0502B08D0602B06D0702BC8
:1038900004D040F259611A4800F012FE6B68802B88
:1038A00005D023B140F25A61154800F009FE94F8A2
:1038B0003830012B1FD0012284F83820022384F8ED
:1038C000393021684B6823F070034B6021684868E9
:1038D0002B6803434B6021688B6823F080038B6067
:1038E000216888686B6803438B6084F83920002066
:1038F00084F8380038BD022038BD00BF0000014008
:1039000024D80008704700BF704700BF90F83930D6
:10391000DBB2212B2AD18368B3F5805F0FD1036A14
:1039200002681B88C3F30803536003691BB9036A69
:103930000233036209E0036A0133036205E00268AF
:10394000036A591C01621B785360C38C013B9BB214
:10395000C3846BB90268D36823F08003D360026824
:10396000D36843F04003D3600020704702207047C3
:10397000002070472DE9F84304464268B14B9A4253
:1039800004D940F2DD61B04800F09AFDE3683BB134
:10399000B3F5005F04D040F2DE61AB4800F090FD6B
:1039A000236953B1B3F5806F07D0B3F5C06F04D06E
:1039B00040F2DF61A44800F083FD63694FF6F372C3
:1039C000134200D123B94FF4DC619F4800F078FD29
:1039D00021680B6923F44052E36813430B612068AC
:1039E000C36823F4164222F00C02A168236919432C
:1039F00063691943E3690B431343C36021684B694F
:103A000023F44072A36913434B61E369B3F5004F9C
:103A100040F0BB80276803F1804303F510439F42C9
:103A200003D003F580639F4257D1FEF743F800EBC4
:103A3000800000EB800065686D00B0FBF5F5834EFB
:103A4000A6FB05356D092D01FEF734F800EB80006B
:103A500000EB800063685B00B0FBF3F9FEF72AF827
:103A600000EB800000EB800063685B00B0FBF3F3C9
:103A7000A6FB03235B094FF0640808FB1393DB00EC
:103A80003233A6FB03235B095B0003F4F8731D4488
:103A9000FEF710F800EB800000EB800063685B002D
:103AA000B0FBF3F9FEF706F800EB800000EB8000B6
:103AB00063685B00B0FBF3F3A6FB03235B0908FB21
:103AC00013984FEAC80808F13208A6FB0836C6F377
:103AD00042163544BD60BDE8F883FDF7D3FF00EB27
:103AE000800000EB800065686D00B0FBF5F5574E77
:103AF000A6FB05356D092D01FDF7C4FF00EB800025
:103B000000EB800063685B00B0FBF3F9FDF7BAFFE0
:103B100000EB800000EB800063685B00B0FBF3F318
:103B2000A6FB03235B094FF0640808FB1393DB003B
:103B30003233A6FB03235B095B0003F4F8731D44D7
:103B4000FDF7A0FF00EB800000EB800063685B00E6
:103B5000B0FBF3F9FDF796FF00EB800000EB80006F
:103B600063685B00B0FBF3F3A6FB03235B0908FB70
:103B700013984FEAC80808F13208A6FB0836C6F3C6
:103B800042163544BD60BDE8F8832668304B9E423E
:103B900003D003F580639E425CD1FDF78BFF00EB01
:103BA000800000EB80006568AD00B0FBF5F5274FA5
:103BB000A7FB05356D092D01FDF77CFF00EB8000AB
:103BC00000EB800063689B00B0FBF3F8FDF772FF29
:103BD00000EB800000EB800063689B00B0FBF3F318
:103BE000A7FB03235B094FF0640909FB13831B0147
:103BF0003233A7FB03235B0903F0F0031D44FDF7F9
:103C000059FF00EB800000EB800063689B00B0FB75
:103C1000F3F8FDF74FFF00EB800000EB80006368D6
:103C20009B00B0FBF3F3A7FB03235B0909FB1383A2
:103C30001B013233A7FB0323C3F343131D44B560B9
:103C4000BDE8F883A037A00058D800081F85EB51C5
:103C500000100140FDF716FF00EB800000EB800034
:103C60006568AD00B0FBF5F5254FA7FB05356D097F
:103C70002D01FDF707FF00EB800000EB800063687B
:103C80009B00B0FBF3F8FDF7FDFE00EB800000EBBE
:103C9000800063689B00B0FBF3F3A7FB03235B0981
:103CA0004FF0640909FB13831B013233A7FB032385
:103CB0005B0903F0F0031D44FDF7E4FE00EB800018
:103CC00000EB800063689B00B0FBF3F8FDF7DAFEC1
:103CD00000EB800000EB800063689B00B0FBF3F317
:103CE000A7FB03235B0909FB13831B013233A7FBEB
:103CF0000323C3F343131D44B560BDE8F88300BF3D
:103D00001F85EB512DE9F04105460E4690461C46B5
:103D1000FCF7BCFB0746B8F1000F28D057E0B4F120
:103D2000FF3F24D024B1FCF7B1FBC01B84421ED25C
:103D30002A68D36823F08003D3602A68D36823F00D
:103D40002003D3602A68D36823F48073D3602A6881
:103D5000536923F001035361202385F8393085F836
:103D60003A30002385F838300320BDE8F0812B6815
:103D70001B6836EA0303D2D10020BDE8F081B4F11C
:103D8000FF3F24D024B1FCF781FBC01B84421ED22C
:103D90002A68D36823F08003D3602A68D36823F0AD
:103DA0002003D3602A68D36823F48073D3602A6821
:103DB000536923F001035361202385F8393085F8D6
:103DC0003A30002385F838300320BDE8F0812B68B5
:103DD0001B6836EA0303D2D00020BDE8F08100BFA3
:103DE000002800F0868010B5044683691BB3036881
:103DF000414A93420FD0A2F54C4293420BD002F5B8
:103E00008062934207D002F54C42934203D0FB21DB
:103E10003A4800F055FBA36953B3B3F5807F27D030
:103E2000B3F5007F24D0B3F5407F21D0FC21334887
:103E300000F046FB1CE003682F4A934218D0A2F51D
:103E40004C42934214D002F58062934210D002F5A6
:103E5000806293420CD002F58062934208D002F552
:103E60004442934204D04FF48071244800F028FB70
:103E7000A3683BB1B3F5805F04D04FF481711F4854
:103E800000F01EFBE3693BB1B3F5004F04D040F2F4
:103E900003111A4800F014FB94F8393013F0FF0FA7
:103EA00005D1002384F83830204606F02BFC24236B
:103EB00084F839302268D36823F40053D360204655
:103EC000FFF758FD2268136923F4904313612268B9
:103ED000536923F02A0353612268D36843F40053E3
:103EE000D3600020E063202384F8393084F83A302E
:103EF00010BD0120704700BF0010014058D80008D5
:103F000070B51E4690F83930DBB2202B49D10446FB
:103F10000D46002947D0002A47D090F83830012BB1
:103F200045D0012380F838300023C363212380F873
:103F300039308284C28422E0013BE384A368B3F574
:103F4000805F11D13346002280212046FFF7DAFE40
:103F500078BB22682B88C3F30803536023690BB92D
:103F600002350CE001350AE033460022802120466C
:103F7000FFF7C8FEF8B923682A785A600135E38C48
:103F8000002BD9D13346002240212046FFF7BAFE4C
:103F9000034690B9202284F83920002284F8382082
:103FA0000CE002230AE0012308E0012306E00223DB
:103FB00004E0032302E0032300E00323184670BD5E
:103FC00090F83A30DBB2202B23D121B32AB390F8FA
:103FD0003830012B23D0012380F83830816282856C
:103FE000C2850023C363222280F83A200168CA6890
:103FF00042F48072CA6001684A6942F001024A6173
:1040000080F838300168CA6842F02002CA60184659
:10401000704702207047012070470120704702203E
:10402000704700BF704700BF08B50168CB6823F038
:104030004003CB60202380F83930FFF7F3FF0020E6
:1040400008BD00BF08B590F83A30DBB2222B43D14F
:104050008368B3F5805F13D1826A036943B903684B
:104060005B68C3F308031380836A0233836218E03A
:1040700003685B68DBB21380836A0133836210E0FC
:10408000036933B9836A5A1C8262026852681A70E3
:1040900007E0826A531C836203685B6803F07F0356
:1040A0001370C38D013B9BB2C385BBB90268D36853
:1040B00023F02003D3600268D36823F48073D360B5
:1040C0000268536923F001035361202380F83A30DA
:1040D00005F0B0FE002008BD022008BD002008BD8C
:1040E000704700BF10B584B0044603681968DA68E9
:1040F00011F0010F0DD002F4807252B10022009233
:104100001A6800925A680092009AC26B42F001024B
:10411000C26319685A6902F0010211F0020F0BD054
:1041200052B1002201921A6801925A680192019AD2
:10413000E26B42F00402E26319685A6902F001027C
:1041400011F0040F0BD052B1002202921A680292B1
:104150005A680292029AE26B42F00202E263196824
:104160005A6902F0010211F0080F0BD052B100227F
:1041700003921A6803925A680392039AE26B42F020
:104180000802E2631A68DB6803F0200312F0200FD4
:1041900003D013B12046FFF755FF23681A68DB6888
:1041A00003F0800312F0800F03D013B12046FFF715
:1041B000ADFB23681A68DB6803F0400312F0400F80
:1041C00003D013B12046FFF72FFFE36B3BB1202351
:1041D00084F8393084F83A302046FFF781FF04B084
:1041E00010BD00BF84B02DE9F047054609A880E85E
:1041F0000E002D4B9D4203D0DD212C4800F060F9CC
:10420000DDF824A0BAF1000F06D0BAF5005F03D0A4
:10421000DE21264800F054F90A9C34B1B4F5806FD1
:1042200003D0DF21214800F04BF9DDF82C90B9F1E3
:10423000000F06D0B9F5007F03D0E0211B4800F045
:104240003FF90C9E4EB1B6F5006F06D0B6F5805F13
:1042500003D0E121154800F033F9DDF83480B8F1DE
:10426000000F06D0B8F5804F03D0E2210F4800F0D0
:1042700027F90E9FFF2F03D9E3210C4800F020F906
:104280004AEA040349EA0303334348EA03033B438E
:104290006A6822F4FD4222F07F0213436B60002023
:1042A000BDE8F04704B07047002C014088D80008F2
:1042B000D0F88000704700BF0B68C0F88030002045
:1042C000704700BF0323036000207047006800F0C0
:1042D0000300704738B505460C464B683F2B04D9A0
:1042E0004FF4B4711B4800F0EBF8A36843B1402BC6
:1042F00006D0C02B04D040F26911164800F0E0F857
:10430000E36853B1B3F5807F07D0B3F5007F04D0E5
:104310004FF4B5710F4800F0D3F823693BB1B3F502
:10432000806F04D040F26B110A4800F0C9F823688E
:10433000AB606168A3681943E3680B43226943EAF1
:104340000201EA6822F47F6323F00F030B43EB6062
:10435000002038BD88D800080069C0B2704700BF8F
:1043600010B582B000230193044650B1042808D050
:10437000082806D00C2804D04FF4CB71044800F074
:104380009FF8044B23440193019B186802B010BDB1
:1043900088D80008142C014038B505460C464B68F7
:1043A000B3F1007F04D340F2AB11294800F088F844
:1043B000A36803B3102B1ED0202B1CD0302B1AD097
:1043C000402B18D0502B16D0602B14D0702B12D04D
:1043D000802B10D0902B0ED0A02B0CD0B02B0AD05D
:1043E000C02B08D0D02B06D0E02B04D04FF4D671D0
:1043F000174800F065F8E36833B1022B04D040F2AF
:10440000AD11134800F05CF8236933B1042B04D0DC
:104410004FF4D7710E4800F053F86369012B04D9AB
:1044200040F2AF110A4800F04BF823686B626368F2
:10443000AB62A268E3681A432369134362691A43B3
:10444000EB6A23F0F7031343EB62002038BD00BF93
:1044500088D80008FEE700BF08B5034800F052F80E
:104460000120FFF7F7FF00BFB8D8000808B50D4BD3
:104470001B6813B90C4A0B4B1A600A4B1A68C31C11
:1044800023F00303134409498B4206D906F02AFCA2
:104490000C2303604FF0FF3008BD02490B6010464B
:1044A00008BD00BF04010020488F002000FC01204F
:1044B00001230360014B0B60704700BF0400002024
:1044C00008B50A460146024800F004F8FFF7C4FFA9
:1044D0000CD900080FB400B583B004AB53F8042B1B
:1044E00001938021064807F027FC002803DD0146E0
:1044F000034800F049F803B05DF804EB04B07047DE
:104500000C01002010B5044606F03FFD0146204690
:1045100000F03AF80121024800F036F810BD00BF63
:10452000D0DB00082DE9F04385B004460F46435622
:1045300013BB042528462146ABBE04461FE0354682
:10454000102E28BF1025002306E014F9011B04AA31
:104550001A4402F8101C0133AB42F6D304AA1344E8
:10456000002203F8102CE9464FF004084046494663
:10457000ABBE8046761B00E00E46002EDFD13846EB
:1045800005B0BDE8F08300BF08B5FFF7CBFF08BD5D
:1045900008B500F095F8024B024A9A6008BD00BFCA
:1045A00000ED00E00000000808B500F0A9F808BD23
:1045B000F8B504460D4617461E462648FFF78AFF03
:1045C00021682548FFF786FF61682448FFF782FFCE
:1045D000A1682348FFF77EFFE1682248FFF77AFFD2
:1045E00021692148FFF776FF61692048FFF772FFD4
:1045F000A1691F48FFF76EFFE1691E48FFF76AFFD8
:104600001D48FFF767FF29461C48FFF763FF1C4C56
:10461000E16A1C48FFF75EFF216B1B48FFF75AFF5A
:10462000E16B1A48FFF756FF15F0800F03D03946AB
:104630001748FFF74FFF15F4004F03D031461548D8
:10464000FFF748FF1448FFF745FF06991348FFF7A7
:1046500041FFF8BD64D9000874D9000884D9000866
:1046600094D90008A4D90008B4D90008C4D9000816
:10467000D4D90008E4D90008F4D9000800DA000809
:1046800000ED00E010DA000820DA000830DA000857
:1046900040DA000850DA000860DA000868DA00083A
:1046A00083691A888A4207D10268033A012A05D829
:1046B000023383610120704700207047002070475B
:1046C0000C4B1A6842F001021A60002199601A68C6
:1046D00022F0847222F480321A60074A5A601A6803
:1046E00022F480221A60D9604FF00062034B9A6076
:1046F000704700BF003802401030002400ED00E099
:10470000224B9B6803F00C03042B07D0082B09D025
:10471000002B2DD11E4A1F4B1A602CE01E4A1D4B48
:104720001A6028E0194B5A685B6803F03F0312F4E3
:10473000800F09D0184AB2FBF3F2144B5B68C3F345
:10474000881303FB02F208E0114AB2FBF3F30F4AAD
:104750005168C1F3881101FB03F20C4B5B68C3F392
:10476000014301335B00B2FBF3F30A4A136002E03A
:10477000074A084B1A60054B9B68C3F30313074AAB
:10478000D15C044A1368CB40136070470038024084
:104790000024F4000C000020001BB700ACDA000875
:1047A00008B5FBF773FE08BD4FF496730360002352
:1047B0004360836080F83831704700BF10B50C4605
:1047C00090F8A832DBB2012B08D1002380F8A83280
:1047D00001220749D0F8A402FFF7F2FBA068636842
:1047E000984203DD2268101A184410BD181A10BD33
:1047F000C407002008B50E4A536892F83811C9B2B0
:10480000D0180173013353601268934202D1002221
:10481000074B5A6001220749074BD3F8A402FFF760
:10482000CFFB18B10122044B83F8A82208BD00BFBA
:104830008C060020C4070020DC03002002468368A9
:10484000C118087B40B20133936011688B4201D1DB
:1048500000239360704700BF10B582B002AC04F82B
:10486000011D4FF0FF3301222146D0F8A402FFF7CB
:1048700047FB02B010BD00BF08B54FF0FF33042264
:10488000D0F8A402FFF73CFB08BD00BF10B4002322
:104890000370037343738373FF2404614361C36430
:1048A000C0F84C31C0F8503180F85431C0F858315C
:1048B000C0F85C31C0F86031C0F89032042480F850
:1048C0009442C0F8983280F89C3280F89D32C0F84B
:1048D000A012C0F8A42280F8A83280F8A93210BC37
:1048E000704700BF08B502460148FFF7CFFF08BD7B
:1048F000DC03002070B505460E46084606F045FB71
:1049000004460146002801DA00F1FF0141F30721C6
:104910002846FFF7A1FF08492140002903DA0139A1
:1049200061F0FF01013149B22846FFF795FF31469A
:104930002846FFF7A1FF70BDFF00008070B5064656
:104940000C4600251AE07F2C13DD0E49214000297A
:1049500003DA013961F07F010131803949B2304613
:10496000FFF77AFF2346002C01DA04F17F03DC1104
:1049700004E061B23046FFF76FFF0125002DE2D061
:1049800070BD00BF7F000080037B13F0FF0F1ED0BF
:1049900010B50446FFF704FFD4F89822821AD4F821
:1049A000A0124FF47A7303FB01F39A420ED3C4F8BA
:1049B00098026FF03F012046FFF74EFF002120468E
:1049C000FFF7BCFF024A13780133137010BD704724
:1049D0008C0100202DE9F04782B004468846164637
:1049E00099469DF93470FF2303611021FFF734FFCE
:1049F0003B4B93E8030000908DF80410684606F0E6
:104A0000C4FA0546404606F0C0FA284400F10805FD
:104A1000AA464FB1109806F0B8FA0544119806F06E
:104A2000B4FA284400F1040A76B10A9806F0ADFA07
:104A3000504400F1020AB9F1000F05D00B9806F0BE
:104A4000A4FA504400F1020A51462046FFF776FFCF
:104A500069462046FFF74EFF94F8941249B220466B
:104A6000FFF7FAFE09EB46019DF93C3003EB4101EB
:104A70009DF9383003EB810107EB41019DF930309E
:104A800003EB4101490049B22046FFF7E5FED4F8A7
:104A9000A01241F307212046FFF7DEFED4F8A01252
:104AA00049B22046FFF7D8FE41462046FFF722FFD5
:104AB0003FB110992046FFF71DFF11992046FFF7DF
:104AC00019FF56B10A992046FFF714FFB9F1000FFC
:104AD00003D00B992046FFF70DFF02B0BDE8F08729
:104AE000BCDA000800B589B0084B07930693002292
:104AF00005920492039201210291019300931346BF
:104B00000349FFF767FF09B05DF804FB00DC00080C
:104B10002800002070B504461546063102EB8101DD
:104B200003EB410149B2FFF797FE059806F02DFA15
:104B3000861C002D00DD0236069806F026FA311894
:104B40002046FFF7FBFE05992046FFF7D3FE002D18
:104B50000ADD049B43F307212046FFF77DFE9DF904
:104B600010102046FFF778FE06992046FFF784FED6
:104B700070BD00BF38B504460D464021FFF76CFEFE
:104B800002212046FFF7DAFE45F307212046FFF712
:104B900063FE69B22046FFF75FFE38BD38B50446B4
:104BA0000D465021FFF758FE02212046FFF7C6FEB2
:104BB00045F307212046FFF74FFE69B22046FFF775
:104BC0004BFE38BD38B5044615460C31C9000231DC
:104BD00049B2FFF741FE02212046FFF7AFFE45F341
:104BE00007212046FFF738FE69B22046FFF734FE62
:104BF00038BD00BF38B504460D467021FFF72CFEC6
:104C000002212046FFF79AFE45F307212046FFF7D1
:104C100023FE69B22046FFF71FFE38BD10B50446DB
:104C20006FF01F01FFF718FE00212046FFF786FEF8
:104C30000023237310BD00BF0346D0F890124FF637
:104C4000FE72914205D8D0F89002421CC3F890221F
:104C500070470022C0F89022D0F89002704700BF41
:104C600010B584B00446FFF7E7FF064B0293064BEE
:104C7000019300900123002211462046FFF74AFFCE
:104C800004B010BDC4DA0008D4DA0008807B704795
:104C90002DE9F0414FE2A74B1B7813F0FF0F40F0D6
:104CA000C480A548FFF7CAFDA24BD3F85831C72BE3
:104CB00008D8A04AD2F85831591CC2F858111344E8
:104CC00083F864010A2840F036829A48D0F85831B7
:104CD0000344002283F864210122984B1A70811C3E
:104CE00000F5B27006F081F9002855D091480123F3
:104CF0004370934900F5B27006F077F918B10222BB
:104D00008C4B5A708AE08F498F4806F06EF918B1C3
:104D10000322884B5A7081E08C498B4806F065F974
:104D200030B10120FBF7B8FB0422824B5A7075E0CA
:104D30008749854806F059F918B104227D4B5A700D
:104D40006CE08449804806F050F920B982497E48D9
:104D500006F04BF918B10522764B5A705EE07F4998
:104D6000794806F042F918B10622724B5A7055E0A4
:104D70007B49754806F039F950B97A49724806F00E
:104D800034F928B97849704806F02FF9002845D041
:104D90000722684B5A7041E074496B4806F025F9C8
:104DA00018B10122724B1A7038E07249664806F059
:104DB0001CF918B102226E4B1A702FE02E216248A6
:104DC00006F0C3F818B10322694B1A7026E0654952
:104DD0005D4806F00AF918B10522654B1A701DE00E
:104DE0006549594806F001F960B10422604B1A7018
:104DF000504C012525702046FFF774FE25730023D3
:104E000063730BE05D49504806F0EFF830B10422BF
:104E1000574B1A70474B00221A709A73454B002269
:104E2000C3F8582183F8642185E14348FFF706FD64
:104E300006460746002801DA00F10F07C7F30317FB
:104E4000C6F341057B1EDBB20D2B00F27481394B9A
:104E50000022C3F85C21C3F860210220FBF71CFB91
:104E60004FF0010844464FE033493248FFF7A6FCB3
:104E7000002849D03048FFF7E1FCF3B2432B06D1BC
:104E8000C2B24C2A03D12B4AD2F85C2142B12B2B5F
:104E900020D1C3B2502B1DD1264BD3F85C31CBB9F6
:104EA000244B0022C3F85821D3F8581101F1010E08
:104EB000C3F858E1194481F86461D3F8581101F13D
:104EC000010EC3F858E1194481F864011A709A730D
:104ED0001A7319E000280BDA164AD2F85C3100F098
:104EE0007F0008FB0033C2F85C314FEAC8180BE0C2
:104EF000104BD3F85C2100F07F0008FB0020C3F8C2
:104F00005C014FEAC818002424B10A4B1B7813F047
:104F1000FF0FA9D1074BD3F85C21C3F860211B78A0
:104F200013F0FF0F00F007810022024BC3F8582155
:104F300035E000BFDC0300208C0600208D0100203E
:104F4000E0DA0008ECDA000840050020F4DA000896
:104F500000DB00080CDB000814DB000820DB000885
:104F600030DB00083CDB00084CDB000858DB0008A5
:104F70008E0100205CDB000864DB000818DB000801
:104F8000714ED6F85841631CC6F858316F48FFF788
:104F900055FC344484F864010120FBF77DFA6A4A29
:104FA000D2F85C31591EC2F85C112BB1674910462A
:104FB000FFF704FC0028E3D1022F11D1624B93F9D3
:104FC000641193F9652102EB01221A611B6923B96F
:104FD0005D4801238373FFF743FE5B4B1B69AAE027
:104FE000032F71D1584B93F9647193F9652102EB4A
:104FF000072700225A61322F06D91C461846FFF7B0
:105000000DFE2046FFF76EFD022109E04E4A53696E
:10501000581C5061501890F96401134418760131FE
:10502000BC1CA142F2D3484B5A691A4400211176A4
:105030005A69DA6459615DB11A461C4494F9646195
:10504000FB1C134493F9643103EB06263C1D00E07E
:1050500000263D4BD3F86031FA2B12D93A4F38462F
:10506000FFF7DCFD3846FFF73DFD0AE0364A53699D
:10507000591C5161111991F96411134483F85010AE
:105080000134314BD3F860319C42EFD32E4B5A6937
:105090001A44002182F850105A69C3F84C21012D9E
:1050A00004D131461846FFF765FD05E0022D03D116
:1050B00031462548FFF772FD234BDA6CD3F84C21BB
:1050C0000122C3F8502136E0052F0AD11E4890F97D
:1050D000642190F9653103EB02220021FFF772FD94
:1050E00029E0062F09D1184890F9641190F965312B
:1050F00003EB0121FFF77EFD1DE0042F1BD0072FDE
:1051000019D0092F17D00B2F15D00C2F0DD10E4C05
:105110000025257025734FF47A630D4A0D4920460A
:1051200000F042F884F8545105E00D2F03D101221C
:10513000054B83F8A92205490348FFF73FFB0028E8
:105140007FF4A9ADBDE8F081DC0300208C060020CF
:105150006CDB000870DB0008F8B506460F46154604
:10516000FFF71EFB04460E4B1868C6F802001B79B9
:10517000B37100220B4B1A7039463046FFF77CFBA7
:10518000FFF70EFB03E0FFF783FDFFF709FB054B7D
:105190001B7813B9001BA842F5D358B2F8BD00BF65
:1051A00080DB00088E010020F8B504460F461E463D
:1051B0001146023005F0E1FEFFF7F2FA0546002342
:1051C000637039462046FFF757FBFFF7E9FA03E023
:1051D000FFF75EFDFFF7E4FA63785BB213B9401B9B
:1051E000B042F5D3607840B2F8BD00BF10B50446B8
:1051F00090F8A93213F0FF0F17D140F2DC520D499D
:10520000FFF7AAFF4FF47A720B492046FFF7A4FF7D
:1052100041F28833094A0A492046FFF7C5FF84F85E
:105220009C0200232370A3732373002384F8A93204
:1052300010BD00BF88DB00088CDB000894DB000891
:105240009CDB000870B58CB0044690F854315BB21A
:10525000032B00F21481DFE803F00217275A40F213
:10526000DC528849FFF778FF40F6B832864920467D
:10527000FFF772FF012803D1012384F8543103E0C2
:10528000002384F85431FAE040F6B8327F492046D2
:10529000FFF762FF012803D1022384F8543103E0B1
:1052A000012384F85431EAE041F28833784A79499D
:1052B0002046FFF779FF012825D14FF4FA60FBF76C
:1052C000EBF84FF4FA6274492046FFF745FF4FF4BC
:1052D000FA6272492046FFF73FFF4FF47A63704A43
:1052E00070492046FFF760FF012805D04FF4FA62AD
:1052F0006D492046FFF730FF032384F85431022321
:1053000084F89C3203E0022384F85431B7E06378D8
:105310005BB2072B2AD04FF4FA60FBF7BDF841F2DD
:105320008833624A62492046FFF73EFF84F89C02B8
:1053300094F89D2252B294F89C325BB29A420ED1FC
:10534000637B5BB201335BB26373637B5BB2092B3C
:105350000CDD00236373072384F89C3206E094F885
:105360009C325BB284F89D320023637394F89C32C4
:105370005BB284F89D3294F89C325BB2023B052B01
:105380007DD8DFE803F0031219215B6F49492046FD
:10539000FFF772FA48492046FFF76EFA41F2883269
:1053A00046492046FFF7D8FE69E041F28832444979
:1053B0002046FFF7D1FE62E04FF47A63414A42494A
:1053C0002046FFF7F1FE5AE06D46404E0FCE0FC566
:1053D00033682B603E49684605F0A8FD684605F035
:1053E000D4FD03463B4A10684DF803003A4968462D
:1053F00005F09CFD684605F0C8FD03462F4A10687D
:105400004DF8030042F2107269462046FFF7A4FEF1
:10541000012834D1FFF7C4F90446FFF7C1F903E0CE
:10542000FFF736FCFFF7BCF92C4B1B78042B26D07A
:10543000001B44F61F639842F2D920E0FFF7B0F951
:105440000446FFF7ADF903E0FFF722FCFFF7A8F9E8
:10545000224B1B78042B12D0001B44F61F6398428A
:10546000F2D90CE04FF47A631D4A1E492046FFF73B
:105470009BFE002384F85431022384F89C320CB044
:1054800070BD00BF88DB00088CDB0008ACDB0008C7
:10549000B4DB0008B8DB0008C4DB0008D4DB00087C
:1054A000E4DB0008E8DB0008F4DB000894DB00081C
:1054B0009CDB000804DC00081400002010DC00085D
:1054C00014DC00086CDB000820DC00082CDC000881
:1054D000380000203CDC0008100000208E01002075
:1054E00058DB000870DB000810B5044601220949AA
:1054F000D0F8A402FEF764FD10B1012384F8A832AD
:1055000040F6B83204492046FFF726FE2046FFF752
:1055100099FE10BDC40700208CDB000810B50446BE
:10552000037813F0FF0F03D100238373FFF78AFE84
:10553000084B1A78084B93F900309A4205DB204655
:10554000FFF754FE0022034B1A702046FFF71CFAA7
:1055500010BD00BF8C01002035000020024B1870E8
:1055600059709A70704700BF8806002038B504460D
:105570000D460848FFF718F9012200210846FFF7F9
:10558000EDFF29462046FFF7ADF90348FFF7ACFFD2
:1055900038BD00BF8C060020DC0300202DE9F04F51
:1055A00087B001F0EFFB814601F060F9044601F09D
:1055B00007FC054601F06AF983462A46564920460B
:1055C00001F028FF01F0DEFB059001F04FF90646DF
:1055D000524A534901F05EFF524A5349304601F0A6
:1055E00059FF01F0EDFB074601F050F905463A4638
:1055F0004E49304601F00EFF01F0C4FB064601F0B3
:1056000035F98246DFF870810022494B414601F0AE
:10561000D3FF484F484A3946504601F0B1FF314662
:10562000284601F0CBFE01F0ADFB824601F01EF9E9
:1056300006460022414B414601F0BEFF404A394632
:10564000304601F09DFF5146284601F0B7FE01F0BB
:1056500099FB01F00BF90022354B4146304601F031
:10566000ABFF384A3946304601F08AFF514628469A
:1056700001F0A4FE0599584601F0A0FE324A3349D4
:10568000204601F07DFF01F07DFB064601F0EEF8BB
:105690002F4D304A294601F0FDFE32462E49204664
:1056A00001F012FF01F06EFB064601F0DFF807463D
:1056B0002A4A2B4901F0EEFE2A4A2946384601F0D3
:1056C000E9FE32462849204601F0FEFE484601F038
:1056D00055FE04462548FFF7D9FAA0B1244B93F9AB
:1056E000016093F9007093F90280204D2846FFF77E
:1056F000A3FA02941F4B0193009043463A46314669
:105700002846FFF707FA204601F030FE484601F030
:10571000E1FA07B0BDE8F08F40DC000850DC00087B
:1057200054DC00086CDC000878DC000880DC000831
:1057300000003440B0DC0008A4DC000800405F40FA
:10574000BCDC0008CCDC0008D8DC0008E0DC000889
:10575000F8DC000800DD000818DD000830DD000876
:105760003CDD000844DD000858DD0008DC030020B3
:105770008806002074DD000894DC00082DE9F04F55
:1057800085B0074601F0FEFA054601F06FF80446C1
:1057900001F016FB064601F079F8804632464C4986
:1057A000204601F037FE01F0EDFA814601F05EF887
:1057B0008246484A484901F06DFE484A48495046E9
:1057C00001F068FE01F0FCFA834601F05FF806463E
:1057D0005A464449504601F01DFE01F0D3FA824674
:1057E00001F044F883463A463F4901F06DFE3F4FD1
:1057F0003F4A3946584601F0C3FE5146304601F053
:10580000DDFD01F0BFFA824601F030F88346002248
:10581000384B394901F0D0FE384A3946584601F034
:10582000AFFE5146304601F0C9FD4946404601F001
:10583000C5FD334A3349204601F0A2FE01F0A2FA29
:10584000074601F013F8304E304A314601F022FE8F
:105850003A462F49204601F037FE01F093FA0746F9
:1058600001F004F880462B4A2B4901F013FE2B4A25
:105870003146404601F00EFE3A462949204601F0E5
:1058800023FE284601F07AFD04462648FFF7FEF97C
:10589000A0B1254B93F9017093F9008093F9029020
:1058A000204E3046FFF7C8F90294204B0193009038
:1058B0004B46424639463046FFF72CF9204601F068
:1058C00055FD284601F006FA05B0BDE8F08F00BF8F
:1058D00040DC000850DC000854DC000884DD0008CF
:1058E00078DC000880DC000890DD0008B0DC0008EF
:1058F000A0DD000800405F4094DC0008A8DD00083F
:10590000B4DD0008E0DC0008F8DC0008BCDD0008BD
:1059100018DD000830DD00083CDD0008D4DD00089B
:1059200058DD0008DC03002088060020E8DD0008C0
:1059300008B501E0FFF7ACF904490548FEF73EFF62
:105940000028F7D10248FFF7E9FD08BD8C060020CA
:10595000DC030020C3B2A3F13002D2B2092A01D87D
:1059600030387047A3F16102D2B2052A01D8573806
:105970007047413BDBB2052B01D8373870474FF0F9
:10598000FF30704790F9003083B32DE9F04190F972
:1059900001406CB390F902606EB390F903706FB37D
:1059A0000D461846FFF7D6FF80462046FFF7D2FF88
:1059B00004463046FFF7CEFF06463846FFF7CAFFDB
:1059C000B8F1FF3F1DD0B4F1FF3F1DD0B6F1FF3F4E
:1059D0001DD0B0F1FF3F1DD0230243EA083343EA54
:1059E0000613184328600120BDE8F08100207047AD
:1059F0000020BDE8F0810020BDE8F0810020BDE876
:105A0000F0810020BDE8F0810020BDE8F081002099
:105A1000BDE8F0810020BDE8F08100BF00F1400347
:105A2000DBB2012B16D9F42816D800F0C003802B66
:105A300014D010F0800F13D000F0E003C02B11D071
:105A400000F0F003E02B0FD000F0F800F0280DD1AB
:105A500004207047002070470020704700207047E6
:105A600001207047022070470320704700207047D4
:105A700038B504460D460078FFF7D0FF28600128AE
:105A800001D1237846E002280CD1627802F0C003ED
:105A9000802B07D1237803F01F0302F03F0242EA74
:105AA000831337E0032815D1637803F0C002802AFE
:105AB00010D1A27802F0C00180290BD1217801F029
:105AC0000F0103F03F0343EA811302F03F0242EA71
:105AD00083131FE0042835D1637803F0C002802AC5
