:020000040800F2
:10000000000002204D030008051F0308111F03080C
:100010001D1F0308251F03082D1F030800000000F3
:10002000000000000000000000000000351F030871
:10003000411F0308000000004D1F0308591F03085B
:10004000D1040008D1040008D1040008D10400083C
:10005000D1040008D1040008D1040008D10400082C
:10006000D1040008D1040008D1040008D10400081C
:10007000D1040008D1040008D1040008D10400080C
:10008000D1040008D1040008691F0308D104000846
:10009000D1040008D1040008D1040008D1040008EC
:1000A000D1040008D1040008D1040008D1040008DC
:1000B0007D1F0308D1040008911F0308D104000824
:1000C000D1040008D1040008D1040008D1040008BC
:1000D000D1040008D1040008A51F0308D1040008BA
:1000E000D1040008D1040008D1040008D10400089C
:1000F000D1040008D1040008D1040008D10400088C
:10010000D1040008D1040008D1040008D10400087B
:10011000D1040008D1040008D1040008D10400086B
:10012000D1040008D1040008D1040008D10400085B
:10013000D1040008D1040008D1040008D10400084B
:10014000D1040008D1040008D1040008D10400083B
:10015000D1040008D1040008D1040008D10400082B
:10016000D1040008D1040008D1040008D10400081B
:10017000D1040008D1040008D104000800000000E8
:10018000D1040008D104000880B596B000AF22F079
:10019000CBFD5D4B5D4A1A605D4B5C4A1A605D4B5E
:1001A0007B6523E07B6D1A1D7A651B68FB647B6DA4
:1001B0001A1D7A651B68BB647B6D1A1D7A651B6806
:1001C0007B64FB6C3B63BB6CFB627B6CBB62FB6A5E
:1001D0007B6207E07B6A1A1D7A623A6B111D3963F4
:1001E00012681A60BA6A7B6A9A42F3D87B6D4A4AEF
:1001F0009342D7D3444B1B68484A934204D1444BA3
:100200001B68474A934200D0FEE7464B3F4A1A60BC
:10021000454B3E4A1A60454B3B6519E03B6D1A1D44
:100220003A651B68FB633B6D1A1D3A651B68BB632F
:10023000FB6B3B64BB6B3B623B6CFB6104E0FB69AB
:100240001A1DFA6100221A603A6AFB699A42F6D8CE
:100250003B6D374A9342E1D3324B1B68002B03D1ED
:10026000314B1B68002B00D0FEE722F06BFD3A1DDE
:1002700007F108031146184622F0CAFA2D4A2E4B00
:10028000D31A9B103B610023FB6007E02A4AFB68FE
:1002900052F823309847FB680133FB603A69FB68EA
:1002A0009A42F3DC254A264BD31A9B103B6100236C
:1002B000FB6007E0224AFB6852F823309847FB684E
:1002C0000133FB603A69FB689A42F3DCBB687A68E9
:1002D0001146184630F054F978631A4A1A4BD31A6B
:1002E0009B10BB61BB697B6108E07B69013B164ADF
:1002F00052F8233098477B69013B7B617B69002B77
:10030000F3DC786B22F0B8F900000020BABADECA3C
:10031000E4030020D8040008F004000878563412E2
:1003200032547698E803002014A50120F004000858
:100330000005000800050008000500080005000889
:1003400000050008000500080005000880B500AFA2
:10035000FFF71AFF80B400AF00BEFEE71EF0040FE7
:100360000CBFEFF30880EFF309807146554A104740
:1003700000BF00BF80B588B002AF78603960184B0D
:100380005B6B7B61164B9B6B3B61154B9B6AFB6008
:10039000134B1B6B03F00203002B10D0104BDB6AD6
:1003A000002B0CDA4BF6AB61786822F07FFD034638
:1003B000002B04D00A4B4FF00042DA620CE00948EF
:1003C00022F0D0FB3B6800933B697A69F968786852
:1003D00022F0D6FC00BEFEE71837BD4680BD00BF48
:1003E00000ED00E0BC6B030880B400AF00BEFEE788
:1003F0001EF0040F0CBFEFF30880EFF30980714685
:10040000314A104700BF00BF80B588B002AF7860A6
:1004100039600B4B5B6B7B61094B9B6B3B61084B02
:100420009B6AFB60074822F09DFB3B6800933B6999
:100430007A69F968786822F0A3FC00BEFEE700BF85
:1004400000ED00E0CC6B03081EF0040F0CBFEFF3CF
:100450000880EFF3098071461C4A104700BF00BFB7
:1004600080B588B002AF786039600B4B5B6B7B6105
:10047000094B9B6B3B61084B9B6AFB60074822F072
:1004800071FB3B6800933B697A69F968786822F0F0
:1004900077FC00BEFEE700BF00ED00E0D86B03086C
:1004A00080B400AF00BEFEE780B400AF00BEFEE740
:1004B00080B400AF00BEFEE780B400AF00BFBD4611
:1004C00080BC704775030008090400086104000837
:0804D00080B400AF00BEFEE79E
:1004D800EC76030800000020E8030020EC7603080F
:1004E8000000001000000010E803002018A50120FB
:0804F8000000001000000010DC
:1005000080B500AF0E4A0E4B1B6843F400731360B6
:100510000B4A0B4B1B6843F480631360084A084B7B
:100520001B6843F480731360032002F06DFF00200A
:1005300000F040F831F054FA0023184680BD00BFA7
:10054000003C024080B500AF134B4FF0FF321A62FF
:10055000114B00221A62104B4FF0FF325A620E4BC1
:1005600000225A620C4B4FF0FF321A610A4B0022F4
:100570001A61094B4FF0FF325A61074B00225A6152
:10058000054B4FF0FF329A61034B00229A6100F055
:100590000BF80023184680BD0038024080B400AF3D
:1005A00000BFBD4680BC704780B400AF00BFBD46F1
:1005B00080BC704780B582B000AF78600BF052FA13
:1005C0000246094BA3FB02239B09184602F09EFF3B
:1005D000002279684FF0FF3002F036FF0023184602
:1005E0000837BD4680BD00BFD34D621080B400AF58
:1005F000044B1B680133034A136000BFBD4680BC37
:10060000704700BFE006002080B400AF024B1B68BB
:100610001846BD4680BC7047E006002080B584B017
:1006200000AF78600023FB60FFF7EEFFF86000BFCB
:10063000FFF7EAFF0246FB68D21A7B689A42F7D3BB
:1006400000BF1037BD4680BD80B400AF044A044BE4
:100650001B6823F00203136000BFBD4680BC7047D7
:1006600010E000E080B400AF044A044B1B6843F084
:100670000203136000BFBD4680BC704710E000E07D
:1006800080B400AF024B1846BD4680BC704700BF27
:100690000004040180B400AF034B1B681B0C184618
:1006A000BD4680BC704700BF002004E080B400AFAE
:1006B000034B1B68C3F30B031846BD4680BC704751
:1006C000002004E080B400AF044A044B5B6843F0B0
:1006D0000103536000BFBD4680BC7047002004E0AA
:1006E00080B400AF044A044B5B6823F001035360FD
:1006F00000BFBD4680BC7047002004E080B400AF5E
:10070000044A044B5B6843F00203536000BFBD46DC
:1007100080BC7047002004E080B400AF044A044B62
:100720005B6823F00203536000BFBD4680BC704786
:10073000002004E080B400AF044A044B5B6843F03F
:100740000403536000BFBD4680BC7047002004E036
:1007500080B400AF044A044B5B6823F00403536089
:1007600000BFBD4680BC7047002004E080B483B069
:1007700000AF01237B607B6893FAA3F33B603B6887
:10078000B3FA83F31A46054B13449B001A46012320
:10079000136000BF0C37BD4680BC704700C1891094
:1007A00080B483B000AF01237B607B6893FAA3F32E
:1007B0003B603B68B3FA83F31A46054B13449B0036
:1007C0001A460023136000BF0C37BD4680BC70473B
:1007D00000C1891080B584B000AF78600023FB733E
:1007E0007B68002B01D1012357E17B681B68A24A7B
:1007F00093420ED07B681B68A04A934209D07B6865
:100800001B689F4A934204D040F20D119D4822F08C
:100810009BF97B685B68002B13D07B685B68B3F542
:10082000803F0ED07B685B68B3F5003F09D07B68E2
:100830005B68B3F5403F04D04FF48771914822F0D4
:1008400083F97B689B68002B13D07B689B68B3F1AE
:10085000807F0ED07B689B68B3F1007F09D07B68F6
:100860009B68B3F1407F04D040F20F11854822F01D
:100870006BF97B681B69002B08D07B681B69012B17
:1008800004D04FF488717F4822F05EF97B689B6941
:10089000002B08D07B689B69012B04D040F211111A
:1008A000784822F051F97B689B6A002B54D07B6812
:1008B0009B6AB3F1807F4FD07B689B6AB3F1007F66
:1008C0004AD07B689B6AB3F1407F45D07B689B6AC6
:1008D000B3F1806F40D07B689B6AB3F1A06F3BD0CF
:1008E0007B689B6AB3F1C06F36D07B689B6AB3F1BB
:1008F000E06F31D07B689B6AB3F1006F2CD07B68CE
:100900009B6AB3F1106F27D07B689B6AB3F1206FAD
:1009100022D07B689B6AB3F1306F1DD07B689B6AE5
:10092000B3F1406F18D07B689B6AB3F1506F13D05E
:100930007B689B6AB3F1606F0ED07B689B6AB3F1F2
:10094000706F09D07B689B6A4F4A934204D04FF482
:1009500089714C4822F0F8F87B68DB68002B09D0DD
:100960007B68DB68B3F5006F04D040F21311454893
:1009700022F0EAF87B68DB69002B03D07B68DB6937
:10098000102B04D94FF48A713E4822F0DDF87B68C1
:100990001B6B002B08D07B681B6B012B04D040F233
:1009A0001511384822F0D0F87B685B69012B0CD018
:1009B0007B685B69002B08D07B685B69022B04D0E5
:1009C0004FF48B712F4822F0BFF87B681B6A002B15
:1009D00008D07B681B6A012B04D040F2171129480C
:1009E00022F0B2F87B689B6A274A934217D07B6853
:1009F000DB6A002B13D07B68DB6AB3F1805F0ED01B
:100A00007B68DB6AB3F1005F09D07B68DB6AB3F116
:100A1000405F04D040F21B111A4822F095F87B6821
:100A20001B6C002B09D17B6800225A647B68002272
:100A300083F83C20786831F005F87B681B6C03F084
:100A40001003002B22D17B681B6C23F4885323F006
:100A5000020343F002027B681A64786801F026F909
:100A60007B6800225A647B681B6C23F0030343F00D
:100A700001027B681A640BE0002001400021014064
:100A800000220140946503080100000F0123FB735D
:100A90007B68002283F83C20FB7B18461037BD465C
:100AA00080BD00BF80B584B000AF78600023FB73C9
:100AB0007B68002B01D1012336E07B681B681C4A50
:100AC00093420ED07B681B681A4A934209D07B6818
:100AD0001B68194A934204D040F25B11174822F078
:100AE00033F87B681B6C43F002027B681A647B68F6
:100AF0001B687A681268926822F001029A607B682B
:100B00001B689B6803F00103002B08D1786830F064
:100B1000CFFF7B6800225A647B6800221A647B68DE
:100B2000002283F83C20FB7B18461037BD4680BD71
:100B3000002001400021014000220140946503088B
:100B400080B483B000AF786000BF0C37BD4680BC76
:100B5000704700BF80B483B000AF786000BF0C372F
:100B6000BD4680BC704700BF80B584B000AF7860E0
:100B70000023FB607B689B69002B08D07B689B6926
:100B8000012B04D04FF4DD71564821F0DDFF7B6866
:100B9000DB6A002B13D07B68DB6AB3F1805F0ED079
:100BA0007B68DB6AB3F1005F09D07B68DB6AB3F175
:100BB000405F04D040F2BB114A4821F0C5FF7B687A
:100BC00093F83C30012B01D1022387E07B6801229E
:100BD00083F83C207B681B689B6803F00103002BB3
:100BE00018D17B681B687A681268926842F001022B
:100BF0009A603D4B1B683D4AA2FB03239A0C1346A7
:100C00005B001344FB6002E0FB68013BFB60FB6898
:100C1000002BF9D17B681B689B6803F00103002B54
:100C20005BD07B681B6C23F4E06323F0010343F487
:100C300080727B681A647B681B685B6803F480635E
:100C4000002B07D07B681B6C23F4405343F4805285
:100C50007B681A647B681B6C03F48053002B06D0FE
:100C60007B685B6C23F006027B685A6402E07B6859
:100C700000225A647B68002283F83C207B681B6852
:100C80006FF002021A601A4B5B6803F01F03002B1F
:100C90000FD17B681B689B6803F04053002B1CD16D
:100CA0007B681B687A681268926842F080429A609A
:100CB00013E07B681B680F4A93420ED17B681B6868
:100CC0009B6803F04053002B07D17B681B687A6850
:100CD0001268926842F080429A60002318461037EA
:100CE000BD4680BD946503081000002083DE1B43D1
:100CF000002301400020014080B582B000AF786041
:100D00007B681B681F4A93420ED07B681B681E4A93
:100D1000934209D07B681B681C4A934204D040F27E
:100D20001D211B4821F010FF7B6893F83C30012BFC
:100D300001D1022321E07B68012283F83C207B68FB
:100D40001B687A681268926822F001029A607B68D8
:100D50001B689B6803F00103002B09D17B681B6CA7
:100D600023F4885323F0010343F001027B681A64E3
:100D70007B68002283F83C20002318460837BD46D4
:100D800080BD00BF00200140002101400022014041
:100D90009465030880B584B000AF786039600023A3
:100DA000FB607B681B689B6803F48063002B12D098
:100DB0007B681B689B6803F48073002B0BD07B68F7
:100DC0001B6C43F020027B681A647B68002283F866
:100DD0003C2001235CE0FFF717FCF8601AE03B6859
:100DE000B3F1FF3F16D03B68002B07D0FFF70CFC98
:100DF0000246FB68D21A3B689A420BD97B681B6C8F
:100E000043F004027B681A647B68002283F83C206C
:100E100003233DE07B681B681B6803F00203002B83
:100E2000DDD07B681B686FF012021A607B681B6C58
:100E300043F400727B681A647B681B689B6803F04C
:100E40004053002B23D17B689B69002B1FD17B680B
:100E50001B68DB6A03F47003002B06D07B681B68F9
:100E60009B6803F48063002B11D17B681B6C23F417
:100E700080727B681A647B681B6C03F48053002BC0
:100E800005D17B681B6C43F001027B681A64002368
:100E900018461037BD4680BD80B586B000AFF860FB
:100EA000B9607A6000237B61FB681B68344A934217
:100EB0000ED0FB681B68334A934209D0FB681B685D
:100EC000314A934204D040F29F21304821F03CFE49
:100ED000BB68012B07D0BB68202B04D04FF42871CE
:100EE0002A4821F031FEFFF78FFB78611AE07B681A
:100EF000B3F1FF3F16D07B68002B07D0FFF784FBD0
:100F000002467B69D21A7B689A420BD9FB681B6C3C
:100F100043F00402FB681A64FB68002283F83C205B
:100F2000032328E0FB681B681A68BB681A40BB688B
:100F30009A42DCD1BB68012B0BD1FB681B6C43F4DC
:100F40008032FB681A64FB681B686FF001021A604C
:100F500010E0FB681B6C43F48062FB681A64FB685A
:100F60005B6C43F00202FB685A64FB681B686FF01D
:100F700020021A60002318461837BD4680BD00BF06
:100F80000020014000210140002201409465030837
:100F900080B584B000AF78600023FB607B689B69FC
:100FA000002B08D07B689B69012B04D040F2DD2127
:100FB0005B4821F0C9FD7B68DB6A002B13D07B689E
:100FC000DB6AB3F1805F0ED07B68DB6AB3F1005F50
:100FD00009D07B68DB6AB3F1405F04D040F2DE21C8
:100FE0004F4821F0B1FD7B6893F83C30012B01D1D3
:100FF000022391E07B68012283F83C207B681B6818
:101000009B6803F00103002B18D17B681B687A688A
:101010001268926842F001029A60424B1B68424A91
:10102000A2FB03239A0C13465B001344FB6002E00F
:10103000FB68013BFB60FB68002BF9D17B681B68F8
:101040009B6803F00103002B65D07B681B6C23F4C5
:10105000E06323F0010343F480727B681A647B68C9
:101060001B685B6803F48063002B07D07B681B6CF4
:1010700023F4405343F480527B681A647B681B6CF2
:1010800003F48053002B06D07B685B6C23F00602D0
:101090007B685A6402E07B6800225A647B68002205
:1010A00083F83C207B681B686FF002021A607B6843
:1010B0001A687B681B685B6843F0806343F0200319
:1010C00053601A4B5B6803F01F03002B0FD17B6842
:1010D0001B689B6803F04053002B1CD17B681B6886
:1010E0007A681268926842F080429A6013E07B68E6
:1010F0001B680F4A93420ED17B681B689B6803F004
:101100004053002B07D17B681B687A68126892688D
:1011100042F080429A60002318461037BD4680BDD9
:10112000946503081000002083DE1B430023014068
:101130000020014080B582B000AF78607B681B68FA
:10114000244A93420ED07B681B68234A934209D0FD
:101150007B681B68214A934204D040F24231204808
:1011600021F0F2FC7B6893F83C30012B01D1022383
:101170002BE07B68012283F83C207B681B687A683F
:101180001268926822F001029A607B681B689B6873
:1011900003F00103002B13D17B681A687B681B687E
:1011A0005B6823F0806323F0200353607B681B6C33
:1011B00023F4885323F0010343F001027B681A648F
:1011C0007B68002283F83C20002318460837BD4680
:1011D00080BD00BF002001400021014000220140ED
:1011E0009465030880B584B000AF78600023FB608D
:1011F0000023BB607B689B69002B08D07B689B69E0
:10120000012B04D040F26931604821F09DFC7B68DD
:10121000DB69002B03D07B68DB69102B04D940F21B
:101220006A315A4821F090FC7B685B69012B0CD035
:101230007B685B69002B08D07B685B69022B04D05C
:1012400040F26B31514821F07FFC7B681B681B68C2
:1012500003F00203002B14BF01230023DBB2FB6069
:101260007B681B685B6803F02003002B14BF01231D
:101270000023DBB2BB60FB68002B49D0BB68002BAE
:1012800046D07B681B6C03F01003002B05D17B68F4
:101290001B6C43F400727B681A647B681B689B6854
:1012A00003F04053002B2BD17B689B69002B27D187
:1012B0007B681B68DB6A03F47003002B06D07B6835
:1012C0001B689B6803F48063002B19D17B681B6843
:1012D0007A681268526822F020025A607B681B6CA0
:1012E00023F480727B681A647B681B6C03F4805360
:1012F000002B05D17B681B6C43F001027B681A64EC
:1013000078682FF059FA7B681B686FF012021A6038
:101310007B681B681B6803F00403002B14BF0123C8
:101320000023DBB2FB607B681B685B6803F0800313
:10133000002B14BF01230023DBB2BB60FB68002B32
:101340005AD0BB68002B57D07B681B6C03F010038E
:10135000002B05D17B681B6C43F400527B681A6438
:101360007B681B689B6803F44013002B3CD17B68AF
:101370001B689B6B03F44013002B09D07B681B6830
:101380009B6803F48063002B2ED101E09465030871
:101390007B681B685B6803F48063002B24D17B6847
:1013A0001B689B6803F04053002B1DD17B689B6931
:1013B000002B19D17B681B687A681268526822F08A
:1013C00080025A607B681B6C23F480527B681A642D
:1013D0007B681B6C03F48073002B05D17B681B6C4E
:1013E00043F001027B681A64786801F051FA7B6867
:1013F0001B686FF00C021A607B681B681B6803F0A7
:101400000103002B14BF01230023DBB2FB607B68C8
:101410001B685B6803F04003002B14BF012300230B
:10142000DBB2BB60FB68002B17D0BB68002B14D06D
:101430007B681B681B6803F00103002B0DD07B68E1
:101440001B6C43F480327B681A64786800F0B6F94C
:101450007B681B686FF001021A607B681B681B6861
:1014600003F02003002B14BF01230023DBB2FB6039
:101470007B681B685B6803F08063002B14BF01234B
:101480000023DBB2BB60FB68002B15D0BB68002BD0
:1014900012D07B685B6C43F002027B685A647B6805
:1014A0001B686FF020021A60786800F091F97B6881
:1014B0001B686FF020021A6000BF1037BD4680BD68
:1014C00080B586B000AFF860B9607A6000237B61B8
:1014D000FB689B69002B08D0FB689B69012B04D03B
:1014E00040F2FA316A4821F02FFBFB68DB6A002BDF
:1014F00013D0FB68DB6AB3F1805F0ED0FB68DB6A58
:10150000B3F1005F09D0FB68DB6AB3F1405F04D040
:1015100040F2FB315E4821F017FBFB6893F83C304A
:10152000012B01D10223AEE0FB68012283F83C20AD
:10153000FB681B689B6803F00103002B18D1FB6854
:101540001B68FA681268926842F001029A60514B77
:101550001B68514AA2FB03239A0C13465B001344F9
:101560007B6102E07B69013B7B617B69002BF9D1E8
:10157000FB681B689B6803F00103002B00F082806E
:10158000FB681B6C23F4E06323F0010343F48072D7
:10159000FB681A64FB681B685B6803F48063002BBC
:1015A00007D0FB681B6C23F4405343F48052FB6864
:1015B0001A64FB681B6C03F48053002B06D0FB6895
:1015C0005B6C23F00602FB685A6402E0FB680022B1
:1015D0005A64FB68002283F83C20FB689B6B2F4A0F
:1015E000DA63FB689B6B2E4A1A64FB689B6B2D4A7F
:1015F0009A64FB681B686FF002021A60FB681B6844
:10160000FA681268526842F080625A60FB681B6890
:10161000FA681268926842F480729A60FB68986B6C
:10162000FB681B684C331946BA687B6802F004FCFF
:101630001D4B5B6803F01F03002B0FD1FB681B6879
:101640009B6803F04053002B1CD1FB681B68FA68B1
:101650001268926842F080429A6013E0FB681B684F
:10166000124A93420ED1FB681B689B6803F04053FB
:10167000002B07D1FB681B68FA681268926842F079
:1016800080429A60002318461837BD4680BD00BFCF
:10169000946503081000002083DE1B43CD1E000864
:1016A000751F0008911F0008002301400020014021
:1016B00080B584B000AF78600023FB737B681B6843
:1016C0002A4A93420ED07B681B68294A934209D06C
:1016D0007B681B68274A934204D040F27141264838
:1016E00021F032FA7B6893F83C30012B01D10223C0
:1016F00038E07B68012283F83C207B681B687A68AD
:101700001268926822F001029A607B681B689B68ED
:1017100003F00103002B20D17B681B687A681268F4
:10172000926822F480729A607B689B6B184602F084
:10173000D3FB0346FB737B681B687A6812685268A8
:1017400022F080625A607B681B6C23F4885323F07C
:10175000010343F001027B681A647B68002283F86E
:101760003C20FB7B18461037BD4680BD0020014061
:1017700000210140002201409465030880B483B039
:1017800000AF78607B681B68DB6C18460C37BD4681
:1017900080BC704780B483B000AF786000BF0C3766
:1017A000BD4680BC704700BF80B483B000AF786096
:1017B00000BF0C37BD4680BC704700BF80B483B00B
:1017C00000AF786000BF0C37BD4680BC704700BFDB
:1017D00080B483B000AF786000BF0C37BD4680BCDA
:1017E000704700BF90B585B000AF786039600023C6
:1017F000FB603B681B68122B04D940F2FE419F48F6
:1018000021F0A2F93B685B68002B03D03B685B6862
:10181000102B04D940F2FF41984821F095F93B681C
:101820009B68002B20D03B689B68012B1CD03B6839
:101830009B68022B18D03B689B68032B14D03B6835
:101840009B68042B10D03B689B68052B0CD03B6831
:101850009B68062B08D03B689B68072B04D04FF48D
:10186000A061864821F070F97B6893F83C30012B29
:1018700001D10223FEE07B68012283F83C203B6813
:101880001B68092B24D97B6819687B681B68D8689A
:101890003B681B689AB213465B0013441E3B072249
:1018A00002FA03F3DB430340CB607B6819687B6873
:1018B0001B68D8683B689C683B681B689AB21346F3
:1018C0005B0013441E3B04FA03F30343CB6021E0A7
:1018D0007B6819687B681B6818693B681B689AB24B
:1018E00013465B001344072202FA03F3DB43034071
:1018F0000B617B6819687B681B6818693B689C688A
:101900003B681B689AB213465B00134404FA03F366
:1019100003430B613B685B68062B23D87B6819681F
:101920007B681B68586B3B685A6813469B001344DE
:10193000053B1F2202FA03F3DB4303404B637B6842
:1019400019687B681B68586B3B681B689CB23B68D6
:101950005A6813469B001344053B04FA03F3034300
:101960004B634AE03B685B680C2B23D87B681968A3
:101970007B681B68186B3B685A6813469B001344CE
:10198000233B1F2202FA03F3DB4303400B637B6814
:1019900019687B681B68186B3B681B689CB23B68C6
:1019A0005A6813469B001344233B04FA03F3034392
:1019B0000B6322E07B6819687B681B68D86A3B6808
:1019C0005A6813469B001344413B1F2202FA03F35B
:1019D000DB430340CB627B6819687B681B68D86A6D
:1019E0003B681B689CB23B685A6813469B001344D3
:1019F000413B04FA03F30343CB627B681B68204A34
:101A0000934209D13B681B68122B05D11D4A1D4B1F
:101A10005B6843F4800353607B681B68184A9342F9
:101A200023D13B681B68102B03D03B681B68112B2C
:101A30001BD1144A134B5B6843F4000353603B68AB
:101A40001B68102B11D1104B1B68104AA2FB0323FB
:101A50009A0C13469B0013445B00FB6002E0FB689A
:101A6000013BFB60FB68002BF9D17B68002283F807
:101A70003C20002318461437BD4690BD94650308EA
:101A800000200140002301401000002083DE1B43A2
:101A900080B584B000AF786039600023FB603B689C
:101AA0001B68724A934221D03B681B68704A93427C
:101AB0001CD03B681B686F4A934217D03B681B6879
:101AC000B3F5000F12D03B681B68B3F5800F0DD043
:101AD0003B681B68B3F5400F08D03B681B68002BC0
:101AE00004D040F26A51644821F02EF83B68DB686C
:101AF000122B04D940F26B515F4821F025F83B6866
:101B00001B69002B08D03B681B69012B04D040F2F5
:101B10006C51594821F018F87B681B685B6803F02A
:101B20004073FB60FB68002B04D13B685B68B3F536
:101B3000805F1DD3FB68B3F1807F04D13B685B6895
:101B4000B3F5806F14D3FB68B3F1007F03D13B681A
:101B50005B68FF2B0CD9FB68B3F1407F03D13B6876
:101B60005B683F2B04D94FF4AE61434820F0ECFF93
:101B7000FB68002B04D13B689B68B3F5805F1DD3E5
:101B8000FB68B3F1807F04D13B689B68B3F5806F3D
:101B900014D3FB68B3F1007F03D13B689B68FF2B34
:101BA0000CD9FB68B3F1407F03D13B689B683F2BA6
:101BB00004D940F27151304820F0C6FF7B6893F899
:101BC0003C30012B01D102234CE07B68012283F8D9
:101BD0003C203B681B69012B08D17B681B687A6835
:101BE0001268526842F040025A6007E07B681B6846
:101BF0007A681268526822F040025A607B681A685C
:101C00007B681B685B6823F4400323F40073536014
:101C10007B681B687A68126851683A6812680A43E0
:101C20005A607B681B683A6852685A627B681B6816
:101C30003A6892689A627B681B687A681268526890
:101C400022F01F025A607B681B687A68126851682C
:101C50003A68D26892B20A435A607B68002283F8DD
:101C60003C20002318461037BD4680BD000280008E
:101C7000000240000002C0009465030880B483B0F5
:101C800000AF78607B681B6C18460C37BD4680BC83
:101C9000704700BF80B483B000AF78607B685B6C36
:101CA00018460C37BD4680BC704700BF80B584B075
:101CB00000AF7860824A824B5B6823F44033536004
:101CC0007F497F4B5A687B685B6813434B607B6836
:101CD0001B687A681268526822F480725A607B68C6
:101CE0001B687A68126851687A68126912020A439E
:101CF0005A607B681B687A681268526822F04072EA
:101D00005A607B681B687A68126851687A689268C2
:101D10000A435A607B681B687A681268926822F4EA
:101D200000629A607B681B687A68126891687A68BA
:101D3000D2680A439A607B689B6A624A934222D0C7
:101D40007B681B687A681268926822F070629A60F9
:101D50007B681B687A68126891687A68926A0A439D
:101D60009A607B681B687A681268926822F0405219
:101D70009A607B681B687A68126891687A68D26A90
:101D80000A439A600FE07B681B687A681268926861
:101D900022F070629A607B681B687A6812689268A9
:101DA00022F040529A607B681B687A6812689268D9
:101DB00022F002029A607B681B687A681268916858
:101DC0007A68926952000A439A607B681B6A002B0A
:101DD00032D07B685B6A002B03D07B685B6A082B80
:101DE00004D940F20461384820F0AEFE7B681B68DD
:101DF0007A681268526842F400625A607B681B6815
:101E00007A681268526822F460425A607B685B6AA2
:101E10005A1E4FF46043FB60FB6893FAA3F3BB6068
:101E2000BB68B3FA83F39A407B681B6879680968DA
:101E300049680A435A6007E07B681B687A68126841
:101E4000526822F400625A607B681B687A681268E4
:101E5000D26A22F47002DA627B681B687A681268C0
:101E6000D16A7A68D269013A12050A43DA627B685C
:101E70001B687A681268926822F400729A607B6824
:101E80001B687A68126891687A68126B52020A437A
:101E90009A607B681B687A681268926822F4806294
:101EA0009A607B681B687A68126891687A685269E0
:101EB00092020A439A6000BF1037BD4680BD00BF42
:101EC000002301400100000F9465030880B584B031
:101ED00000AF78607B689B6BFB60FB681B6C03F05A
:101EE0005003002B3CD1FB681B6C43F40072FB6871
:101EF0001A64FB681B689B6803F04053002B2BD1CE
:101F0000FB689B69002B27D1FB681B68DB6A03F425
:101F10007003002B06D0FB681B689B6803F480638A
:101F2000002B19D1FB681B68FA681268526822F00E
:101F300020025A60FB681B6C23F48072FB681A64F1
:101F4000FB681B6C03F48053002B05D1FB681B6CF2
:101F500043F00102FB681A64F8682EF02DFC04E0DF
:101F6000FB689B6B9B6C7868984700BF1037BD4639
:101F700080BD00BF80B584B000AF78607B689B6B8C
:101F8000FB60F868FFF710FC00BF1037BD4680BD4E
:101F900080B584B000AF78607B689B6BFB60FB68AA
:101FA00040221A64FB685B6C43F00402FB685A64CD
:101FB000F868FFF70DFC00BF1037BD4680BD00BFBD
:101FC00080B487B000AF78600023FB6000237B61A2
:101FD00000233B617B6893F83C30012B01D1022345
:101FE0009BE07B68012283F83C207B681B689B6830
:101FF00003F00103002B18D17B681B687A68126814
:10200000926842F001029A60464B1B68464AA2FB66
:1020100003239A0C13465B001344FB6002E0FB6849
:10202000013BFB60FB68002BF9D17B681B689B6858
:1020300003F00103002B6FD07B681B6C23F440532B
:1020400023F0010343F480527B681A647B681B6CA5
:1020500003F48073002B02D17B6800225A647B68F2
:10206000002283F83C207B681B686FF004021A6032
:102070002E4B5B6803F01F03002B24D17B681B6889
:102080009B6803F44013002B0CBF01230023DBB239
:102090007B617B681B685B6803F48063002B0CBF6B
:1020A00001230023DBB23B617B69002B34D03B6909
:1020B000002B31D07B681B687A681268926842F402
:1020C00080029A6028E07B681B689B6803F44013D9
:1020D000002B0CBF01230023DBB27B617B681B68F4
:1020E0005B6803F48063002B0CBF01230023DBB289
:1020F0003B617B681B680E4A93420DD17B69002BC4
:102100000AD03B69002B07D07B681B687A6812688D
:10211000926842F480029A60002318461C37BD463C
:1021200080BC70471000002083DE1B430023014069
:102130000020014080B487B000AF78600023FB60CE
:1021400000237B6100233B617B6893F83C30012BCB
:1021500001D10223A3E07B68012283F83C207B6845
:102160001B689B6803F00103002B18D17B681B6878
:102170007A681268926842F001029A604A4B1B68C2
:102180004A4AA2FB03239A0C13465B001344FB60EC
:1021900002E0FB68013BFB60FB68002BF9D17B6828
:1021A0001B689B6803F00103002B77D07B681B6CD6
:1021B00023F4405323F0010343F480527B681A64F4
:1021C0007B681B6C03F48073002B02D17B680022B8
:1021D0005A647B68002283F83C207B681B686FF0A0
:1021E00004021A607B681B687A681268526842F0C1
:1021F00080025A602E4B5B6803F01F03002B24D132
:102200007B681B689B6803F44013002B0CBF012301
:102210000023DBB27B617B681B685B6803F480632F
:10222000002B0CBF01230023DBB23B617B69002B39
:1022300034D03B69002B31D07B681B687A68126808
:10224000926842F480029A6028E07B681B689B6871
:1022500003F44013002B0CBF01230023DBB27B618E
:102260007B681B685B6803F48063002B0CBF012351
:102270000023DBB23B617B681B680E4A93420DD1A1
:102280007B69002B0AD03B69002B07D07B681B6859
:102290007A681268926842F480029A6000231846B5
:1022A0001C37BD4680BC70471000002083DE1B43F6
:1022B000002301400020014080B584B000AF786069
:1022C0000023FB737B681B682A4A93420ED07B680D
:1022D0001B68294A934209D07B681B68274A9342AE
:1022E00004D04FF4B871264820F02EFC7B6893F898
:1022F0003C30012B01D1022337E07B68012283F8B7
:102300003C207B681B6C03F48073002B20D17B681E
:102310001B685B6803F48063002B19D17B681B6822
:102320007A681268926822F001029A607B681B68E2
:102330009B6803F00103002B12D17B681B6C23F414
:10234000885323F0010343F001027B681A6407E01D
:102350007B681B6C43F020027B681A640123FB73CB
:102360007B68002283F83C20FB7B18461037BD4673
:1023700080BD00BF0020014000210140002201403B
:10238000C465030880B584B000AF7860396000236D
:10239000FB60FEF739F9F86017E03B68B3F1FF3FE7
:1023A00013D03B68002B07D0FEF72EF90246FB68DE
:1023B000D21A3B689A4208D97B6804221A647B6867
:1023C000002283F83C2003234BE07B681B681B68DA
:1023D00003F00403002BE0D07B681B686FF00C0255
:1023E0001A607B681B6C43F400527B681A647B683C
:1023F0001B689B6803F44013002B31D17B681B687A
:102400009B6B03F44013002B06D07B681B689B6812
:1024100003F48063002B23D17B681B685B6803F4A3
:102420008063002B1CD17B681B689B6803F04053C2
:10243000002B15D17B689B69002B11D17B681B6C2D
:1024400023F480527B681A647B681B6C03F48073EE
:10245000002B05D17B681B6C43F001027B681A647A
:10246000002318461037BD4680BD00BF80B584B03C
:1024700000AF78600023FB737B681B682E4A934291
:102480000ED07B681B682D4A934209D07B681B687D
:102490002B4A934204D040F2E9112A4820F054FB21
:1024A0007B6893F83C30012B01D102233FE07B682D
:1024B000012283F83C207B681B6C03F48073002BA3
:1024C00028D17B681B685B6803F48063002B21D1F3
:1024D0007B681B687A681268926822F001029A6031
:1024E0007B681B689B6803F00103002B1AD17B6893
:1024F0001B687A681268526822F080025A607B6812
:102500001B6C23F4885323F0010343F001027B6822
:102510001A6407E07B681B6C43F020027B681A6436
:102520000123FB737B68002283F83C20FB7B184669
:102530001037BD4680BD00BF002001400021014092
:1025400000220140C465030880B584B000AF786004
:1025500039600023FB603B68002B02D03B68042BF2
:1025600004D940F22721184820F0EEFA7B681B6856
:102570006FF004021A603B68013B032B1ED801A2D6
:1025800052F823F0B3250008A92500089F2500086C
:10259000952500087B681B689B6CFB600FE07B68DF
:1025A0001B685B6CFB600AE07B681B681B6CFB6054
:1025B00005E07B681B68DB6BFB6000E000BFFB682D
:1025C00018461037BD4680BDC465030880B586B087
:1025D00000AFF860B9607A6000237B61FB689B699B
:1025E000002B08D0FB689B69012B04D040F25A21D4
:1025F000654820F0A9FAFB68DB6A002B13D0FB6862
:10260000DB6AB3F1805F0ED0FB68DB6AB3F1005F79
:1026100009D0FB68DB6AB3F1405F04D040F25B2174
:10262000594820F091FAFB681B6B002B08D0FB681F
:102630001B6B012B04D04FF41771534820F084FA20
:10264000FB6893F83C30012B01D1022398E0FB6832
:10265000012283F83C20FB681B689B6803F00103A0
:10266000002B18D1FB681B68FA681268926842F068
:1026700001029A60454B1B68454AA2FB03239A0C52
:1026800013465B0013447B6102E07B69013B7B6185
:102690007B69002BF9D1FB681B689B6803F0010381
:1026A000002B6CD0FB681B6C23F4E06323F0010368
:1026B00043F48072FB681A64FB681B685B6803F470
:1026C0008063002B07D0FB681B6C23F4405343F45A
:1026D0008052FB681A64FB681B6C03F48053002B68
:1026E00006D0FB685B6C23F00602FB685A6402E0CC
:1026F000FB6800225A64FB68002283F83C20FB68D8
:102700009B6B244ADA63FB689B6B234A1A64FB6861
:102710009B6B224A9A64FB681B686FF002021A6086
:10272000FB681B68FA681268526842F080625A605F
:10273000FB681B6B002B06D0194A194B5B6843F4EE
:102740000053536005E0164A154B5B6823F40053B1
:102750005360FB68986BBA687B68124901F06CFBA8
:10276000FB681B689B6803F04053002B07D1FB6894
:102770001B68FA681268926842F080429A600023EF
:1027800018461837BD4680BDC465030810000020F8
:1027900083DE1B43A92F0008513000086D3000086C
:1027A000002301400823014080B584B000AF786069
:1027B0000023FB737B681B68294A93420ED07B6819
:1027C0001B68284A934209D07B681B68264A9342BB
:1027D00004D040F2CB21254820F0B6F97B6893F86D
:1027E0003C30012B01D1022336E07B68012283F8C3
:1027F0003C207B681B687A681268926822F00102AC
:102800009A607B681B689B6803F00103002B1ED154
:10281000174A174B5B6823F4005353607B689B6B2C
:10282000184601F059FB0346FB737B681B687A6806
:102830001268526822F080625A607B681B6C23F435
:10284000885323F0010343F001027B681A647B681C
:10285000002283F83C20FB7B18461037BD4680BD24
:10286000002001400021014000220140C46503080E
:102870000023014080B483B000AF7860034B9B68B5
:1028800018460C37BD4680BC704700BF002301408E
:1028900080B483B000AF786000BF0C37BD4680BC09
:1028A000704700BF90B585B000AF786039600023F5
:1028B000FB603B681B68122B04D940F21A3199481F
:1028C00020F042F93B685B68002B03D03B685B68F3
:1028D000042B04D940F21B31924820F035F93B68B3
:1028E0009B68002B20D03B689B68012B1CD03B6869
:1028F0009B68022B18D03B689B68032B14D03B6865
:102900009B68042B10D03B689B68052B0CD03B6860
:102910009B68062B08D03B689B68072B04D04FF4BC
:102920004771804820F010F93B68DB69002B54D0D8
:102930003B68DB69B3F5803F4FD03B68DB69B3F59B
:10294000003F4AD03B68DB69B3F5403F45D03B6868
:10295000DB69B3F5802F40D03B68DB69B3F5A02F6E
:102960003BD03B68DB69B3F5C02F36D03B68DB69F1
:10297000B3F5E02F31D03B68DB69B3F5002F2CD0E5
:102980003B68DB69B3F5102F27D03B68DB69B3F5F3
:10299000202F22D03B68DB69B3F5302F1DD03B6878
:1029A000DB69B3F5402F18D03B68DB69B3F5502FD6
:1029B00013D03B68DB69B3F5602F0ED03B68DB6951
:1029C000B3F5702F09D03B68DB69574A934204D0B6
:1029D00040F21D31534820F0B7F83B681B69002BCB
:1029E00003D03B681B69042B04D940F21E314D48CB
:1029F00020F0AAF83B689B69002B08D03B689B69D4
:102A0000012B04D040F21F31464820F09DF83B686E
:102A10005B69002B08D03B685B69012B04D04FF445
:102A20004871404820F090F87B681B685B6803F0B1
:102A30004073FB60FB68002B04D13B68DB68B3F597
:102A4000805F1DD3FB68B3F1807F04D13B68DB68F6
:102A5000B3F5806F14D3FB68B3F1007F03D13B68FB
:102A6000DB68FF2B0CD9FB68B3F1407F03D13B68D7
:102A7000DB683F2B04D94FF449712A4820F064F8F1
:102A80003B681B6A284A934217D03B681B6A002B9D
:102A900013D03B681B6AB3F5801F0ED03B681B6ADE
:102AA000B3F5001F09D03B681B6AB3F5401F04D083
:102AB00040F229311B4820F047F87B6893F83C30FE
:102AC000012B01D102237AE17B68012283F83C20AB
:102AD0003B681B68092B29D97B6819687B681B68D0
:102AE000D8683B681B689AB213465B0013441E3BD0
:102AF000072202FA03F3DB430340CB607B681968CB
:102B00007B681B68D8683B689C683B681B689AB206
:102B100013465B0013441E3B04FA03F30343CB60EC
:102B200026E000BFC465030801000F007B68196838
:102B30007B681B6818693B681B689AB213465B0088
:102B40001344072202FA03F3DB4303400B617B6863
:102B500019687B681B6818693B689C683B681B6840
:102B60009AB213465B00134404FA03F303430B6168
:102B70007B681B687A681268926B22F440129A6331
:102B80007B681B687A681268916B3A681269013A2F
:102B900012050A439A637B681A687B681B68996B05
:102BA0003B685B68D8B23B681B69DBB2C31ADBB217
:102BB0000333DBB2184603469B0003441F2000FA90
:102BC00003F3DB430B4093637B681A687B681B68E5
:102BD000996B3B681B6898B23B685B68DCB23B68EA
:102BE0001B69DBB2E31ADBB20333DBB21C462346BC
:102BF0009B00234400FA03F30B4393633B68DB69B8
:102C0000714A934222D07B681B687A681268926886
:102C100022F470229A607B681B687A681268916857
:102C20003A68D2690A439A607B681B687A681268BE
:102C3000926822F440129A607B681B687A68126876
:102C400091683A68126A0A439A600FE07B681B68D1
:102C50007A681268926822F470229A607B681B6816
:102C60007A681268926822F440129A603B689B6905
:102C7000002B08D07B681B687A681268526842F49F
:102C800080625A6007E07B681B687A681268526845
:102C900022F480625A603B685B69002B08D07B6835
:102CA0001B687A681268526842F480525A6007E0E2
:102CB0007B681B687A681268526822F480525A60F6
:102CC0003B685B68022B17D0032B29D0012B3BD12B
:102CD0007B681A687B681B685B6923F47F6323F059
:102CE0000F0353617B681B687A68126851693A6800
:102CF000D2680A435A613BE07B681A687B681B68AC
:102D00009B6923F47F6323F00F0393617B681B6847
:102D10007A68126891693A68D2680A439A6127E032
:102D20007B681A687B681B68DB6923F47F6323F088
:102D30000F03D3617B681B687A681268D1693A68AF
:102D4000D2680A43DA6113E07B681A687B681B6803
:102D50001B6A23F47F6323F00F0313627B681B68F5
:102D60007A681268116A3A68D2680A431A6200BF28
:102D70007B681B68154A934209D13B681B68122B7C
:102D800005D1134A124B5B6843F4800353607B68A0
:102D90001B680E4A93420DD13B681B68102B03D071
:102DA0003B681B68112B05D1094A094B5B6843F44A
:102DB000000353607B68002283F83C200023184600
:102DC0001437BD4690BD00BF01000F000020014038
:102DD0000023014080B582B000AF786039603B6865
:102DE0001B68002B34D03B681B68012B30D03B683C
:102DF0001B68022B2CD03B681B68052B28D03B6836
:102E00001B68062B24D03B681B68072B20D03B682F
:102E10001B68092B1CD03B681B68112B18D03B6822
:102E20001B68122B14D03B681B68152B10D03B6815
:102E30001B68162B0CD03B681B68172B08D03B680F
:102E40001B68192B04D040F2B13155481FF07CFEAD
:102E50003B685B68002B13D03B685B68B3F5804F21
:102E60000ED03B685B68B3F5004F09D03B685B68E8
:102E7000B3F5404F04D040F2B23149481FF064FE30
:102E80003B689B68002B4FD03B689B68B3F5807F05
:102E90004AD03B689B68B3F5007F45D03B689B6890
:102EA000B3F5407F40D03B689B68B3F5806F3BD063
:102EB0003B689B68B3F5A06F36D03B689B68B3F561
:102EC000C06F31D03B689B68B3F5E06F2CD03B6896
:102ED0009B68B3F5006F27D03B689B68B3F5106F14
:102EE00022D03B689B68B3F5206F1DD03B689B6880
:102EF000B3F5306F18D03B689B68B3F5406F13D0C3
:102F00003B689B68B3F5506F0ED03B689B68B3F588
:102F1000606F09D03B689B68B3F5706F04D040F2D6
:102F2000B3311F481FF010FE7B6893F83C30012B33
:102F300001D102232FE07B68012283F83C20194A4B
:102F4000184B5B6823F01F0353601649154B5A68F2
:102F50003B681B6813434B60124A124B5B6823F4B7
:102F6000404353600F490F4B5A683B685B681343FB
:102F70004B600C4A0B4B5B6823F470635360094948
:102F8000084B5A683B689B6813434B607B68002280
:102F900083F83C20002318460837BD4680BD00BF9B
:102FA000C46503080023014080B584B000AF786099
:102FB0007B689B6BFB60FB681B6C03F05003002B72
:102FC0003CD1FB681B6C43F40072FB681A64FB681D
:102FD0001B689B6803F04053002B2BD1FB689B6957
:102FE000002B27D1FB681B68DB6A03F47003002BFE
:102FF00006D0FB681B689B6803F48063002B19D123
:10300000FB681B68FA681268526822F020025A6056
:10301000FB681B6C23F48072FB681A64FB681B6CF2
:1030200003F48053002B05D1FB681B6C43F00102B5
:10303000FB681A64F8682DF0BFFB04E0FB689B6B2B
:103040009B6C7868984700BF1037BD4680BD00BFB5
:1030500080B584B000AF78607B689B6BFB60F868DC
:10306000FEF7A2FB00BF1037BD4680BD80B584B01F
:1030700000AF78607B689B6BFB60FB6840221A6442
:10308000FB685B6C43F00402FB685A64F868FEF767
:103090009FFB00BF1037BD4680BD00BF80B485B028
:1030A00000AF78607B6803F00703FB600C4BDB68C4
:1030B000BB60BA684FF6FF031340BB60FB681A029F
:1030C000BB68134343F0BF6343F40033BB60044A5F
:1030D000BB68D36000BF1437BD4680BC704700BFDB
:1030E00000ED00E080B400AF044BDB6803F4E06364
:1030F0001B0A1846BD4680BC704700BF00ED00E0CB
:1031000080B483B000AF0346FB71084997F90730DC
:103110005B09FA7902F01F02012000FA02F241F87D
:10312000232000BF0C37BD4680BC704700E100E0A3
:1031300080B483B000AF0346FB71094997F90730AB
:103140005B09FA7902F01F02012000FA02F2203333
:1031500041F8232000BF0C37BD4680BC704700BF3C
:1031600000E100E080B483B000AF0346FB71094A80
:1031700097F907305B09403352F82320FB7903F0BD
:103180001F0322FA03F303F0010318460C37BD4670
:1031900080BC704700E100E080B483B000AF03461C
:1031A000FB71094997F907305B09FA7902F01F02B0
:1031B000012000FA02F2403341F8232000BF0C370F
:1031C000BD4680BC704700BF00E100E080B483B022
:1031D00000AF0346FB71094997F907305B09FA799B
:1031E00002F01F02012000FA02F2603341F82320AE
:1031F00000BF0C37BD4680BC704700BF00E100E057
:1032000080B483B000AF0346FB71094A97F90730D9
:103210005B09803352F82320FB7903F01F0322FA65
:1032200003F303F0010318460C37BD4680BC70471A
:1032300000E100E080B483B000AF03463960FB7169
:1032400097F90730002B0BDA0D49FB7903F00F03D8
:10325000043B3A68D2B21201D2B20B441A7609E0AA
:10326000084997F907303A68D2B21201D2B20B443A
:1032700083F8002300BF0C37BD4680BC704700BFF9
:1032800000ED00E000E100E080B483B000AF034651
:10329000FB7197F90730002B0ADA0C4AFB7903F02F
:1032A0000F03043B13441B7EDBB21B09DBB208E0B7
:1032B000074A97F90730134493F80033DBB21B0930
:1032C000DBB218460C37BD4680BC704700ED00E00D
:1032D00000E100E080B489B000AFF860B9607A60C6
:1032E000FB6803F00703FB61FB69C3F10703042BD1
:1032F00028BF0423BB61FB690433062B02D9FB6999
:10330000033B00E000237B610122BB6902FA03F367
:103310005A1EBB681A407B699A4001217B6901FAF9
:1033200003F3591E7B680B40134318462437BD46F0
:1033300080BC704780B489B000AFF860B9607A6033
:103340003B60BB6803F00703FB61FB69C3F1070344
:10335000042B28BF0423BB61FB690433062B02D96D
:10336000FB69033B00E000237B61FA687B69DA407C
:103370000121BB6901FA03F3013B1A407B681A6023
:1033800001227B6902FA03F35A1EFB681A403B686C
:103390001A6000BF2437BD4680BC704780B400AFC0
:1033A000BFF34F8F0549054BDB6803F4E062044B24
:1033B0001343CB60BFF34F8F00BFFDE700ED00E08C
:1033C0000400FA0580B582B000AF78607B68013BED
:1033D000B3F1807F01D301230FE00A4A7B68013BF0
:1033E00053600F214FF0FF30FFF724FF054B002201
:1033F0009A60044B07221A60002318460837BD461E
:1034000080BD00BF10E000E080B582B000AF786002
:103410007B68072B0FD07B68062B0CD07B68052BB5
:1034200009D07B68042B06D07B68032B03D0A42132
:1034300004481FF089FB7868FFF730FE00BF0837AB
:10344000BD4680BDF865030880B586B000AF034671
:10345000B9607A60FB7300237B617B680F2B03D913
:10346000BC210E481FF070FBBB680F2B03D9BD2198
:103470000A481FF069FBFFF735FE78617A68B96882
:103480007869FFF727FF024697F90F301146184673
:10349000FFF7D0FE00BF1837BD4680BDF8650308B2
:1034A00080B582B000AF0346FB7197F90730002B5F
:1034B00003DAD02105481FF047FB97F9073018467B
:1034C000FFF71EFE00BF0837BD4680BDF865030844
:1034D00080B582B000AF0346FB7197F90730002B2F
:1034E00003DAE02105481FF02FFB97F90730184653
:1034F000FFF71EFE00BF0837BD4680BDF865030814
:1035000080B500AFFFF74AFF00BF80BD80B582B035
:1035100000AF78607868FFF755FF03461846083714
:10352000BD4680BD80B582B000AF78607B685B78B7
:10353000002B20D07B685B78012B1CD07B685B78EC
:10354000022B18D07B685B78032B14D07B685B78E8
:10355000042B10D07B685B78052B0CD07B685B78E4
:10356000062B08D07B685B78072B04D040F219113A
:1035700095481FF0E9FA7B681B78012B08D07B681F
:103580001B78002B04D04FF48D718F481FF0DCFAAC
:103590008E4A7B685B7893607B681B78002B00F019
:1035A00009817B681B7B002B08D07B681B7B012B70
:1035B00004D04FF4917184481FF0C6FA7B68DB7A1F
:1035C000002B18D07B68DB7A012B14D07B68DB7A68
:1035D000022B10D07B68DB7A032B0CD07B68DB7A64
:1035E000052B08D07B68DB7A062B04D040F2231130
:1035F00075481FF0A9FA7B689B7A002B0CD07B687A
:103600009B7A012B08D07B689B7A022B04D04FF465
:1036100092716D481FF098FA7B685B7B012B08D094
:103620007B685B7B002B04D040F2251166481FF0BD
:103630008BFA7B689B7B012B08D07B689B7B002BE4
:1036400004D04FF4937160481FF07EFA7B68DB7BF7
:10365000012B08D07B68DB7B002B04D040F22711C4
:1036600059481FF071FA7B685B7AFF2B04D14FF445
:10367000947155481FF068FA7B681B7A042B70D050
:103680007B681B7A052B6CD07B681B7A062B68D075
:103690007B681B7A072B64D07B681B7A082B60D071
:1036A0007B681B7A092B5CD07B681B7A0A2B58D06D
:1036B0007B681B7A0B2B54D07B681B7A0C2B50D069
:1036C0007B681B7A0D2B4CD07B681B7A0E2B48D065
:1036D0007B681B7A0F2B44D07B681B7A102B40D061
:1036E0007B681B7A112B3CD07B681B7A122B38D05D
:1036F0007B681B7A132B34D07B681B7A142B30D059
:103700007B681B7A152B2CD07B681B7A162B28D054
:103710007B681B7A172B24D07B681B7A182B20D050
:103720007B681B7A192B1CD07B681B7A1A2B18D04C
:103730007B681B7A1B2B14D07B681B7A1C2B10D048
:103740007B681B7A1D2B0CD07B681B7A1E2B08D044
:103750007B681B7A1F2B04D040F229111A481FF0F6
:10376000F3F91A4A7B685B68D36018497B681B7B56
:103770001A077B68DB7A1B061A437B689B7ADB049B
:103780001A437B685B7B9B041A437B689B7B5B04CF
:103790001A437B68DB7B1B041A437B685B7A1B0242
:1037A0001A437B681B7A5B0013437A6812781343D1
:1037B0000B6105E0054B0022DA60044B00221A6120
:1037C00000BF0837BD4680BDF865030890ED00E0F6
:1037D00080B500AFFFF786FC0346184680BD00BFEA
:1037E00080B584B000AFB9607A603B600346FB737C
:1037F000BB68072B10D0BB68062B0DD0BB68052B10
:103800000AD0BB68042B07D0BB68032B04D04FF44D
:10381000B07108481FF098F997F90F301846FFF774
:1038200033FD3B687A68B968FFF784FD00BF103745
:10383000BD4680BDF865030880B582B000AF034681
:10384000FB7197F90730002B04DA40F26F1106483C
:103850001FF07AF997F907301846FFF79DFC00BF73
:103860000837BD4680BD00BFF865030880B582B04B
:1038700000AF0346FB7197F90730002B04DA40F2E2
:10388000811106481FF060F997F907301846FFF7D5
:1038900069FC034618460837BD4680BDF865030835
:1038A00080B582B000AF0346FB7197F90730002B5B
:1038B00004DA40F2911106481FF046F997F90730F3
:1038C0001846FFF783FC00BF0837BD4680BD00BF28
:1038D000F865030880B582B000AF0346FB7197F925
:1038E0000730002B04DA4FF4D17106481FF02CF991
:1038F00097F907301846FFF783FC03461846083748
:10390000BD4680BDF865030880B582B000AF786021
:103910007B68042B07D07B68002B04D040F2B311E6
:103920000B481FF011F97B68042B06D1094A094B9B
:103930001B6843F00403136005E0064A054B1B684F
:1039400023F00403136000BF0837BD4680BD00BFED
:10395000F865030810E000E080B500AF00F002F861
:1039600000BF80BD80B400AF00BFBD4680BC7047C3
:1039700080B584B000AF78600023FB607B68002BCB
:1039800001D10123C4E17B681B68974A93424ED062
:103990007B681B68954A934249D07B681B68944AB0
:1039A000934244D07B681B68924A93423FD07B6825
:1039B0001B68914A93423AD07B681B688F4A9342B6
:1039C00035D07B681B688E4A934230D07B681B6879
:1039D0008C4A93422BD07B681B688B4A934226D03B
:1039E0007B681B68894A934221D07B681B68884AA0
:1039F00093421CD07B681B68864A934217D07B6831
:103A00001B68854A934212D07B681B68834A9342A5
:103A10000DD07B681B68824A934208D07B681B6884
:103A2000804A934203D0C5217F481FF08DF87B6800
:103A30005B68002B26D07B685B68B3F1007F21D0E8
:103A40007B685B68B3F1806F1CD07B685B68B3F107
:103A5000C06F17D07B685B68B3F1006F12D07B68D2
:103A60005B68B3F1206F0DD07B685B68B3F1406F8A
:103A700008D07B685B68B3F1606F03D0C6216A48E9
:103A80001FF062F87B689B68002B0BD07B689B68FB
:103A9000402B07D07B689B68802B03D0C7216248EE
:103AA0001FF052F87B68DB68B3F5007F07D07B68B6
:103AB000DB68002B03D0C8215B481FF045F87B680A
:103AC0001B69B3F5806F07D07B681B69002B03D09F
:103AD000C92155481FF038F87B685B69002B0DD071
:103AE0007B685B69B3F5006F08D07B685B69B3F5F1
:103AF000805F03D0CA214C481FF026F87B689B6981
:103B0000002B0DD07B689B69B3F5005F08D07B6804
:103B10009B69B3F5804F03D0CB2143481FF014F8C5
:103B20007B68DB69002B0CD07B68DB69B3F5807F99
:103B300007D07B68DB69202B03D0CC213A481FF0EB
:103B400003F87B681B6A002B12D07B681B6AB3F5F5
:103B5000803F0DD07B681B6AB3F5003F08D07B68BF
:103B60001B6AB3F5403F03D0CD212F481EF0ECFF78
:103B70007B685B6A002B07D07B685B6A042B03D0F1
:103B8000CE2129481EF0E0FF7B685B6A002B64D0E1
:103B90007B689B6A002B0FD07B689B6A012B0BD044
:103BA0007B689B6A022B07D07B689B6A032B03D040
:103BB000D3211D481EF0C8FF7B68DB6A002B35D07F
:103BC0007B68DB6AB3F5000F30D07B68DB6AB3F14A
:103BD000807F2BD07B68DB6AB3F1C07F26D0D421F5
:103BE00011481EF0B1FF21E0106002402860024041
:103BF00040600240586002407060024088600240AD
:103C0000A0600240B8600240106402402864024094
:103C1000406402405864024070640240886402407C
:103C2000A0640240B86402402C6603087B681B6BEA
:103C3000002B12D07B681B6BB3F5001F0DD07B6887
:103C40001B6BB3F5800F08D07B681B6BB3F5C00FFF
:103C500003D0D52130481EF077FF7B68022283F81D
:103C600035207B681B681B68FB60FA682B4B134090
:103C7000FB607B685A687B689B681A437B68DB68DB
:103C80001A437B681B691A437B685B691A437B682C
:103C90009B691A437B68DB691A437B681B6A134381
:103CA000FA681343FB607B685B6A042B07D17B686F
:103CB000DA6A7B681B6B1343FA681343FB607B680B
:103CC0001B68FA681A607B681B685B69FB60FB68AD
:103CD00023F00703FB607B685B6AFA681343FB60B1
:103CE0007B685B6A042B04D17B689B6AFA68134388
:103CF000FB607B681B68FA685A61786800F0E2FB39
:103D00007B680022DA647B68012283F83520002377
:103D100018461037BD4680BD2C6603083F8010F062
:103D200080B584B000AF78607B68002B01D101239F
:103D30003EE07B6893F83530DBB2022B01D10123E2
:103D400036E07B681B687A681268126822F001020C
:103D50001A607B681B6800221A607B681B6800225F
:103D60005A607B681B6800229A607B681B6800228F
:103D7000DA607B681B6800221A617B681B6821225D
:103D80005A61786800F09EFB0346FB607B685B6DC0
:103D90003F229A40FB689A607B680022DA647B6865
:103DA000002283F835207B68002283F8342000232A
:103DB00018461037BD4680BD80B584B000AFF860AE
:103DC000B9607A603B60FB6893F83430012B01D115
:103DD00002232AE0FB68012283F83420FB680222D8
:103DE00083F835203B68002B03D03B68B3F5803F58
:103DF00004D340F279110F481EF0A6FEFB681B6841
:103E0000FA681268126822F001021A603B687A6848
:103E1000B968F86800F028FBFB681B68FA6812684C
:103E2000126842F001021A60002318461037BD469E
:103E300080BD00BF2C66030880B584B000AFF86079
:103E4000B9607A603B60FB6893F83430012B01D194
:103E500002233AE0FB68012283F83420FB68022247
:103E600083F835203B68002B03D03B68B3F5803FD7
:103E700004D340F2991117481EF066FEFB681B68D8
:103E8000FA681268126822F001021A603B687A68C8
:103E9000B968F86800F0E8FAFB681B68FA6812680D
:103EA000126842F01E021A60FB681B68FA6812680A
:103EB000526942F080025A61FB681B68FA68126816
:103EC000126842F001021A60002318461037BD46FE
:103ED00080BD00BF2C66030880B584B000AF786059
:103EE0000023FB607B681B687A681268126822F006
:103EF00001021A60FCF788FBF86017E0FCF784FB0E
:103F00000246FB68D31AB3F57A7F0FD97B68DB6C66
:103F100043F020027B68DA647B68002283F8342057
:103F20007B68032283F8352003230FE07B681B683E
:103F30001B6803F00103002BE0D17B68002283F8AB
:103F400034207B68012283F835200023184610377F
:103F5000BD4680BD80B58AB000AFF860B9607A60B8
:103F600000233B62FB681B6DFB61BB68002B06D125
:103F7000FB685B6D202202FA03F37B6205E0FB68BD
:103F80005B6D102202FA03F37B62FCF73DFB3862A3
:103F900079E0FB691A68FB685B6D082101FA03F39D
:103FA0001340BB61FB691A68FB685B6D694901FAE4
:103FB00003F313407B61FB691A68FB685B6D66491C
:103FC00001FA03F313403B61BB69002B05D17B6908
:103FD000002B02D13B69002B36D0BB69002B0BD0E4
:103FE000FB68DB6C43F00102FB68DA64FB685B6D25
:103FF00008229A40FB699A607B69002B0BD0FB6812
:10400000DB6C43F00202FB68DA64FB685B6D514ACB
:104010009A40FB699A603B69002B0BD0FB68DB6C14
:1040200043F00402FB68DA64FB685B6D4A4A9A401D
:10403000FB699A60FB68042283F83520FB68002244
:1040400083F83420012380E07B68B3F1FF3F1AD06E
:104050007B68002B07D0FCF7D7FA02463B6AD21ADE
:104060007B689A420FD9FB68DB6C43F02002FB6847
:10407000DA64FB68032283F83520FB68002283F8AA
:104080003420032361E0FB691A687B6A1340002B2C
:104090003FF47FAFBB68002B2DD1FB685B6D3022F6
:1040A0009A40FB699A60FB681B681B6803F48023D5
:1040B000002B17D0FB681B681B6803F40023002B40
:1040C00004D1FB68112283F835200FE0FB681B68E0
:1040D0001B6803F40023002B08D0FB68212283F81F
:1040E000352003E0FB68112283F83520FB680022AD
:1040F00083F8342028E0FB685B6D10229A40FB694E
:104100009A60FB681B681B6803F48023002B17D0A0
:10411000FB681B681B6803F40023002B04D1FB68B9
:10412000312283F835200FE0FB681B681B6803F41D
:104130000023002B08D0FB68412283F8352003E0E0
:10414000FB68312283F83520002318462837BD4606
:1041500080BD00BF010080000400800080B584B0F5
:1041600000AF78607B681B6DFB60FB681A687B683A
:104170005B6D082101FA03F31340002B2AD07B6802
:104180001B681B6803F00403002B23D07B681B68AB
:104190007A681268126822F004021A607B685B6D0C
:1041A00008229A40FB689A607B68DB6C43F001024E
:1041B0007B68DA647B68042283F835207B68002200
:1041C00083F834207B689B6C002B03D07B689B6C4E
:1041D00078689847FB681A687B685B6D934901FAB9
:1041E00003F31340002B2AD07B681B685B6903F044
:1041F0008003002B23D07B681B687A6812685269A1
:1042000022F080025A617B685B6D884A9A40FB68A5
:104210009A607B68DB6C43F002027B68DA647B683F
:10422000042283F835207B68002283F834207B68E1
:104230009B6C002B03D07B689B6C78689847FB686D
:104240001A687B685B6D7A4901FA03F31340002B0F
:104250002AD07B681B681B6803F00203002B23D065
:104260007B681B687A681268126822F002021A6082
:104270007B685B6D6E4A9A40FB689A607B68DB6C7A
:1042800043F004027B68DA647B68042283F83520FB
:104290007B68002283F834207B689B6C002B03D062
:1042A0007B689B6C78689847FB681A687B685B6DD5
:1042B000102101FA03F31340002B4CD07B681B68DC
:1042C0001B6803F00803002B45D07B681B681B6844
:1042D00003F48023002B1DD07B685B6D10229A4075
:1042E000FB689A607B681B681B6803F40023002B43
:1042F00004D17B68312283F8352024E07B681B6879
:104300001B6803F40023002B1DD07B68412283F837
:10431000352018E07B681B681B6803F48073002B52
:1043200007D17B681B687A681268126822F008025D
:104330001A607B685B6D10229A40FB689A607B680C
:10434000312283F835207B681B6C002B03D07B68FF
:104350001B6C78689847FB681A687B685B6D202146
:1043600001FA03F31340002B5CD07B681B681B68C9
:1043700003F01003002B55D07B681B681B6803F407
:104380008023002B25D07B685B6D20229A40FB6840
:104390009A607B681B681B6803F40023002B08D11C
:1043A0007B685B6C002B3DD07B685B6C78689847C2
:1043B00038E07B681B681B6803F40023002B31D0B6
:1043C0007B68DB6B002B2DD07B68DB6B78689847B4
:1043D00028E07B681B681B6803F48073002B07D1FF
:1043E0007B681B687A681268126822F010021A60F3
:1043F0007B685B6D20229A40FB689A607B68DA6C70
:104400007B68DA647B68112283F835207B680022A0
:1044100083F834207B68DB6B002B03D07B68DB6B7D
:104420007868984700BF1037BD4680BD0100800006
:104430000400800080B483B000AF78607B6893F89C
:104440003530DBB218460C37BD4680BC704700BF24
:1044500080B483B000AF78607B68DB6C18460C37A3
:10446000BD4680BC704700BF80B485B000AFF86027
:10447000B9607A603B60FB681B68FA681268126872
:1044800022F480221A60FB681B683A685A60FB6855
:104490009B68402B08D1FB681B687A689A60FB68B0
:1044A0001B68BA68DA6007E0FB681B68BA689A6044
:1044B000FB681B687A68DA6000BF1437BD4680BCB1
:1044C000704700BF80B485B000AF78607B681B6820
:1044D000DBB2103B134AA2FB03231B09FB60124A09
:1044E000FB6813441B781A467B685A65FB68032BEC
:1044F00009D97B681B6823F47F7323F003031A1D1B
:104500007B681A6507E07B681B6823F47F7323F0E0
:1045100003037A6813657B681B6D18461437BD4624
:1045200080BC7047ABAAAAAA5C66030880B584B0B9
:1045300000AFF860B9607A603B60FB6893F8343094
:10454000012B01D1022348E0FB68012283F83420CB
:10455000FB681B681B6803F40023002B04D1FB6875
:10456000122283F835200AE0FB681B681B6803F4FD
:104570000023002B03D0FB68222283F83520BB697F
:10458000002B03D0BB69B3F5803F03D388211548C6
:104590001EF0DAFAFB681B68FA681268126822F0EB
:1045A00001021A60FB681B68FA681268126842F41C
:1045B00080221A60FB681B683A681A61BB697A68D6
:1045C000B968F86800F0B0F8FB681B68FA68126810
:1045D000126842F001021A60002318461037BD46E7
:1045E00080BD00BF6466030880B584B000AFF8608A
:1045F000B9607A603B60FB6893F83430012B01D1DD
:10460000022370E0FB68012283F83420FB681B68FA
:104610001B6803F40023002B04D1FB68122283F8EB
:1046200035200AE0FB681B681B6803F40023002B9D
:1046300003D0FB68222283F83520BB69002B03D00E
:10464000BB69B3F5803F03D3B72129481EF07CFA3C
:10465000FB681B68FA681268126822F001021A608F
:10466000FB681B68FA681268126842F480221A60BC
:10467000FB681B683A681A61BB697A68B968F868B0
:1046800000F052F8FB681B68FA681268126842F082
:1046900010021A60FB681B68FA681268126842F020
:1046A00008021A60FB681B68FA681268126842F018
:1046B00004021A60FB681B68FA681268526942F0CB
:1046C00080025A61FB681B68FA681268126842F03F
:1046D00002021A60FB681B68FA681268126842F0EE
:1046E00001021A60002318461037BD4680BD00BF86
:1046F0006466030880B485B000AFF860B960134603
:10470000FB71FB79002B04D1FB681B68BA68DA6087
:1047100003E0FB681B68BA681A6100231846143767
:10472000BD4680BC704700BF80B485B000AFF86064
:10473000B9607A603B60FB681B683A685A60FB6846
:104740009B68402B08D1FB681B687A689A60FB68FD
:104750001B68BA68DA6007E0FB681B68BA689A6091
:10476000FB681B687A68DA6000BF1437BD4680BCFE
:10477000704700BF80B586B000AFF860B960C7E988
:1047800000230123FB752B4B1B7E012B01D1022340
:104790004BE0284B01221A76FB68002B0CD0FB68FB
:1047A000012B09D0FB68022B06D0FB68032B03D03A
:1047B000B62121481EF0C8F94CF2503000F0C8F97B
:1047C0000346FB75FB7D002B2BD1FB68002B05D12D
:1047D0003B781946B86800F08FFA16E0FB68012BA9
:1047E00005D13B881946B86800F056FA0DE0FB6821
:1047F000022B05D13B681946B86800F01DFA04E0A9
:10480000D7E90023B86800F0E5F94CF2503000F029
:104810009FF90346FB75094A084B1B6923F0010306
:104820001361044B00221A76FB7D18461837BD46EB
:1048300080BD00BFE406002098660308003C0240EB
:1048400080B586B000AFF860B960C7E900230023E7
:10485000FB75284B1B7E012B01D1022345E0254B24
:1048600001221A76FB68002B0CD0FB68012B09D0C3
:10487000FB68022B06D0FB68032B03D0F0211E48F7
:104880001EF062F91D4A1D4B1B6943F080731361D2
:104890001A4A1A4B1B6943F000731361154B03222C
:1048A0001A70144ABB685361FB68002B05D13B7832
:1048B0001946B86800F020FA16E0FB68012B05D114
:1048C0003B881946B86800F0E7F90DE0FB68022B59
:1048D00005D13B681946B86800F0AEF904E0D7E9A5
:1048E0000023B86800F076F9FB7D18461837BD46FE
:1048F00080BD00BFE406002098660308003C02402B
:1049000080B582B000AF00237B604B4BDB6803F4C3
:10491000F973B3F5F97F20D1484B1B78DBB2012B3B
:1049200007D1464BDB687B60444B4FF0FF32DA60C7
:104930000BE0424B1B78DBB2022B03D13F4B1B69D0
:104940007B6002E03D4B5B697B6000F003FA7868B6
:1049500000F080F8394B00221A70374BDB6803F007
:104960000103002B4AD0344B0122DA60334B1B7811
:10497000DBB2012B2DD1314B5B68013B2F4A5360D9
:104980002E4B5B68002B15D02C4BDB687B60786866
:1049900000F056F8294BDB680133284AD360274BD7
:1049A000DB687B60254B1B7ADBB21946786800F028
:1049B00025FC23E04FF0FF337B60204A7B68D36007
:1049C0001E4B00221A7000F011FE786800F038F8D3
:1049D00014E01A4B1B78DBB2022B07D100F006FE65
:1049E000164B1B69184600F02BF804E0134B5B696B
:1049F000184600F025F8114B00221A700F4B1B7857
:104A0000DBB2002B14D10C4A0B4B1B6923F0FF03C4
:104A10001361094A084B1B6923F080731361064A2E
:104A2000054B1B6923F000731361044B00221A76B7
:104A300000BF0837BD4680BD003C0240E4060020B0
:104A400080B483B000AF786000BF0C37BD4680BC37
:104A5000704700BF80B483B000AF786000BF0C37F0
:104A6000BD4680BC704700BF80B400AF084B1B69D7
:104A7000002B07DA064B074A5A60054B064A5A6074
:104A8000002300E001231846BD4680BC704700BFEC
:104A9000003C024023016745AB89EFCD80B400AFF5
:104AA000054A054B1B6943F0004313610023184678
:104AB000BD4680BC704700BF003C024080B400AFE0
:104AC000094B5B6903F00103002B07D0064B074A33
:104AD0009A60054B064A9A60002300E001231846BD
:104AE000BD4680BC704700BF003C02403B2A19080D
:104AF0007F6E5D4C80B400AF054A054B5B6943F0A7
:104B00000103536100231846BD4680BC704700BFB7
:104B1000003C024080B500AF074A074B1B78DBB270
:104B200043F00203DBB213704CF2503000F010F887
:104B30000346184680BD00BF143C024080B400AF5D
:104B4000024BDB691846BD4680BC7047E406002076
:104B500080B584B000AF78600023FB601B4B00225F
:104B6000DA61FBF751FDF86010E07B68B3F1FF3FBD
:104B70000CD07B68002B07D0FBF746FD0246FB6894
:104B8000D21A7B689A4201D903231AE0104BDB68E2
:104B900003F48033002BE8D10D4BDB6803F00103F5
:104BA000002B02D00A4B0122DA60094BDB6803F4C8
:104BB000F973B3F5F97F03D100F0CCF8012300E0DD
:104BC000002318461037BD4680BD00BFE406002014
:104BD000003C024090B585B000AFF860C7E9002303
:104BE000FB68B3F1006F03D3FB68B3F1016F04D32B
:104BF0004FF41B710E481DF0A7FF0E4A0D4B1B69A9
:104C000023F4407313610B4A0A4B1B6943F440734E
:104C10001361084A074B1B6943F001031361FA68EB
:104C2000D7E90034C2E9003400BF1437BD4690BD57
:104C300098660308003C024080B582B000AF7860FF
:104C400039607B68B3F1006F03D37B68B3F1016F08
:104C500004D340F286210E481DF076FF0D4A0D4B1D
:104C60001B6923F4407313610A4A0A4B1B6943F41E
:104C700000731361074A074B1B6943F0010313617B
:104C80007B683A681A6000BF0837BD4680BD00BF28
:104C900098660308003C024080B582B000AF78609F
:104CA0000B467B807B68B3F1006F03D37B68B3F165
:104CB000016F04D340F29F210D481DF045FF0D4ABE
:104CC0000C4B1B6923F4407313610A4A094B1B699F
:104CD00043F480731361074A064B1B6943F00103D9
:104CE00013617B687A881A8000BF0837BD4680BD93
:104CF00098660308003C024080B582B000AF78603F
:104D00000B46FB707B68B3F1006F03D37B68B3F194
:104D1000016F04D34FF42E710C481DF015FF0C4A9F
:104D20000B4B1B6923F440731361094A084B1B6941
:104D30001361074A064B1B6943F0010313617B684B
:104D4000FA781A7000BF0837BD4680BD9866030820
:104D5000003C024080B400AF2F4BDB6803F010032F
:104D6000002B08D02D4BDB6943F010032B4AD36195
:104D7000294B1022DA60284BDB6803F02003002B5C
:104D800008D0264BDB6943F00803244AD361224B49
:104D90002022DA60204BDB6803F04003002B08D0B0
:104DA0001E4BDB6943F004031C4AD3611A4B4022BB
:104DB000DA60194BDB6803F08003002B08D0174B37
:104DC000DB6943F00203154AD361134B8022DA609A
:104DD000114BDB6803F48073002B09D00F4BDB69A8
:104DE00043F001030D4AD3610B4B4FF48072DA603C
:104DF000094BDB6803F00203002B08D0074BDB698B
:104E000043F02003054AD361034B0222DA6000BF5E
:104E1000BD4680BC704700BF003C0240E406002055
:104E200080B584B000AF786039600123FB73002344
:104E3000BB60404B1B7E012B01D1022376E03D4B32
:104E400001221A767B681B68002B07D07B681B68E1
:104E5000012B03D0BB2138481DF076FE4CF25030B8
:104E6000FFF776FE0346FB73FB7B002B5AD13B68B2
:104E70004FF0FF321A607B681B68012B15D17B68ED
:104E80001B69DAB27B685B681946104600F07AF954
:104E90004CF25030FFF75CFE0346FB73274A274B6A
:104EA0001B6923F0040313613AE07B68DA687B68CE
:104EB0009B681344002B06D07B68DA687B689B688C
:104EC00013440C2B03D9D3211B481DF03DFE7B68F6
:104ED0009B68BB601CE07B681B69DBB21946B86845
:104EE00000F08CF94CF25030FFF732FE0346FB73B2
:104EF000124A124B1B6923F0FA031361FB7B002B50
:104F000003D03B68BA681A600AE0BB680133BB6033
:104F10007B68DA687B689B681A44BB689A42DAD877
:104F200000F064FB034B00221A76FB7B1846103717
:104F3000BD4680BDE4060020C8660308003C024070
:104F400080B584B000AF78600023FB73354B1B7EC7
:104F5000012B01D1022360E0324B01221A767B68DB
:104F60001B68002B08D07B681B68012B04D040F223
:104F700001112D481DF0E8FD2C4A2C4B1B6943F014
:104F800080731361294A294B1B6943F00073136135
:104F9000264BF322DA607B681B68012B10D1214B72
:104FA00002221A707B685B681E4A13617B681B696A
:104FB000DAB27B685B681946104600F0E3F82BE034
:104FC0007B68DA687B689B681344002B06D07B689B
:104FD000DA687B689B6813440C2B04D940F21911E2
:104FE00011481DF0B1FD0F4B01221A707B68DB6880
:104FF0000C4A53607B689B680A4AD3607B681B69D4
:10500000DAB2084B1A727B689A687B681B69DBB25C
:105010001946104600F0F2F8FB7B18461037BD46E3
:1050200080BD00BFE4060020C8660308003C0240C3
:1050300080B584B000AF78600123FB733D4B1B7ECD
:10504000012B01D1022371E03A4B01221A767B68D1
:105050001B680F2B04D94FF49B7137481DF074FD6A
:105060007B681B6803F00103002B25D07B685B681D
:10507000002B08D07B685B68012B04D040F23B1109
:105080002D481DF061FD7B685B68012B0AD17B68B0
:105090009A687B68DB681946104600F03BF90346C6
:1050A000FB7309E07B689A687B68DB6819461046E9
:1050B00000F06CF90346FB737B681B6803F0020386
:1050C000002B07D07B681B69DBB2184600F09AF909
:1050D0000346FB737B681B6803F00403002B13D0AB
:1050E0007B681B7E03F02003D8B27B681B7E03F035
:1050F0004003D9B27B681B7E23F07F03DBB21A46E4
:1051000000F0AAF90346FB737B681B6803F00803F1
:10511000002B07D07B685B69DBB2184600F0EEF924
:105120000346FB73034B00221A76FB7B18461037AD
:10513000BD4680BDE4060020C866030880B582B085
:1051400000AF78607B680F221A6000F015FA034602
:105150001A467B689A6000F01BFA03461A467B6881
:105160001A6100F0FBF903461A467B681A7600F0D4
:105170002FFA03461A467B685A6100BF0837BD46BE
:1051800080BD00BF80B582B000AF03463960FB71BF
:10519000FB79002B0DD0FB79012B0AD0FB79022B78
:1051A00007D0FB79032B04D040F2C23111481DF027
:1051B000CBFC3B68012B04D040F2C3310D481DF0FD
:1051C000C3FC0D4A0C4B1B6923F4407313610A4A5C
:1051D000094B1B6943F0040313610749064B1A6925
:1051E000FB791B02134343F480330B6100BF083784
:1051F000BD4680BDC8660308003C024080B586B04D
:1052000000AF78600B46FB7000237B617B68002B4E
:1052100025D07B68012B22D07B68022B1FD07B68B6
:10522000032B1CD07B68042B19D07B68052B16D070
:105230007B68062B13D07B68072B10D07B68082B6C
:105240000DD07B68092B0AD07B680A2B07D07B68BE
:105250000B2B04D040F2E1312C481DF075FCFB789B
:10526000002B0DD0FB78012B0AD0FB78022B07D046
:10527000FB78032B04D040F2E23124481DF064FC9B
:10528000FB78002B02D100237B6110E0FB78012B1F
:1052900003D14FF480737B6109E0FB78022B03D1CB
:1052A0004FF400737B6102E04FF440737B61184A56
:1052B000174B1B6923F4407313611549144B1A698A
:1052C0007B6913430B61124A114B1B6923F0F803EE
:1052D0001361F8233B613B6993FAA3F3FB60FB681E
:1052E000B3FA83F37A6802FA03F343F0020308493E
:1052F000074A126913430B61054A054B1B6943F4C6
:105300008033136100BF1837BD4680BDC8660308EF
:10531000003C024080B584B000AF78603960002363
:10532000FB737B6823F47F6323F00F03002B02D110
:105330007B68002B04D140F2134112481DF004FC9D
:105340003B68012B04D040F214410E481DF0FCFBD9
:105350004CF25030FFF7FCFB0346FB73FB7B002B4A
:105360000AD10949084B1B889AB27B689BB2DB4380
:105370009BB213409BB20B80FB7B18461037BD4697
:1053800080BD00BFC8660308163C024080B584B0EB
:1053900000AF786039600023FB737B6823F47F6380
:1053A00023F00F03002B02D17B68002B04D140F2C5
:1053B000374112481DF0C8FB3B68012B04D04FF465
:1053C00087610E481DF0C0FB4CF25030FFF7C0FB68
:1053D0000346FB73FB7B002B0AD10949084B1B8852
:1053E0009BB21AB27B681BB213431BB29BB20B80F9
:1053F000FB7B18461037BD4680BD00BFC86603085A
:10540000163C024080B584B000AF0346FB71002318
:10541000FB73FB79AA2B0AD0FB79552B07D0FB79BC
:10542000CC2B04D040F2924109481DF08DFB4CF288
:105430005030FFF78DFB0346FB73FB7B002B02D143
:10544000044AFB791370FB7B18461037BD4680BDBC
:10545000C8660308153C024080B584B000AF03461F
:10546000FB710B46BB7113467B71FF23FB7300235B
:10547000BB73FB79202B07D0FB79002B04D040F2C3
:10548000B5411C481DF060FBBB79402B07D0BB79B0
:10549000002B04D040F2B64116481DF055FB7B7935
:1054A000802B07D07B79002B04D040F2B741114804
:1054B0001DF04AFB4CF25030FFF74AFB0346BB732A
:1054C000BB7B002B11D10C4B1B78DBB203F01F030D
:1054D000FB730949BA79FB7B1343DAB27B79134337
:1054E000DAB2FB791343DBB20B70BB7B1846103783
:1054F000BD4680BDC8660308143C024080B582B03A
:1055000000AF0346FB71FB79082B0DD0FB79042B10
:105510000AD0FB79002B07D0FB790C2B04D040F28A
:10552000D5410C481DF010FB0B4A0B4B1B78DBB22E
:1055300023F00C03DBB213700749074B1B78DAB278
:10554000FB791343DBB20B70002318460837BD46C6
:1055500080BD00BFC8660308143C024080B400AFA1
:10556000044B5B69DBB223F01F03DBB21846BD4678
:1055700080BC7047003C024080B400AF034B1B88E6
:105580009BB21846BD4680BC704700BF163C024027
:1055900080B483B000AFAA23FB710C4B1B78DBB245
:1055A000CC2B02D1CC23FB7109E0084B1B78DBB27A
:1055B000552B02D15523FB7101E0AA23FB71FB7926
:1055C00018460C37BD4680BC704700BF153C0240F2
:1055D00080B400AF044B1B78DBB203F00C03DBB2EA
:1055E0001846BD4680BC7047143C024080B400AFF2
:1055F0001F4B1B6803F40073002B17D01C4A1C4B75
:105600001B6823F400731360194A194B1B6843F499
:1056100000631360164A164B1B6823F40063136083
:10562000134A134B1B6843F400731360104B1B6841
:1056300003F48063002B17D00D4A0D4B1B6823F435
:10564000806313600A4A0A4B1B6843F4805313605B
:10565000074A074B1B6823F480531360044A044B2A
:105660001B6843F48063136000BFBD4680BC704775
:10567000003C024080B588B000AF786039600023FC
:105680007B6100233B610023BB617B683E4A934200
:1056900023D07B683D4A93421FD07B683C4A9342AB
:1056A0001BD07B683B4A934217D07B683A4A9342AF
:1056B00013D07B68394A93420FD07B68384A9342B3
:1056C0000BD07B68374A934207D07B68364A9342B7
:1056D00003D0C52135481DF037FA3B681B689BB2E3
:1056E000002B03D1C62131481DF02EFA3B685B68C0
:1056F000002B35D03B685B68012B31D03B685B6881
:10570000112B2DD03B685B68022B29D03B685B686E
:10571000122B25D03B685B68254A934220D03B681A
:105720005B68244A93421BD03B685B68224A9342E1
:1057300016D03B685B68214A934211D03B685B6896
:105740001F4A93420CD03B685B681E4A934207D0C5
:105750003B685B68032B03D0C72114481DF0F4F9A4
:105760003B689B68002B0BD03B689B68012B07D0E4
:105770003B689B68022B03D0C8210C481DF0E4F95C
:105780000023FB6157E200BF00000240000402401A
:1057900000080240000C02400010024000140240C9
:1057A00000180240001C024000200240FC66030872
:1057B0000000111000002110000031100000121034
:1057C00000002210000032100122FB6902FA03F3EC
:1057D0007B613B681A687B6913403B613A697B696E
:1057E0009A4240F025823B685B68022B04D03B68FC
:1057F0005B68122B40F0BC803B681B69002B00F0FB
:1058000093803B681B69092B00F08E803B681B6905
:10581000002B00F089803B681B69002B00F084801E
:105820003B681B69002B7FD03B681B69002B7BD03A
:105830003B681B69012B77D03B681B69012B73D038
:105840003B681B69022B6FD03B681B69022B6BD036
:105850003B681B69022B67D03B681B69032B63D035
:105860003B681B69042B5FD03B681B69042B5BD032
:105870003B681B69042B57D03B681B69052B53D031
:105880003B681B69052B4FD03B681B69092B4BD02C
:105890003B681B69062B47D03B681B69092B43D02B
:1058A0003B681B69072B3FD03B681B69072B3BD02C
:1058B0003B681B69072B37D03B681B69082B33D02B
:1058C0003B681B69082B2FD03B681B69082B2BD02A
:1058D0003B681B69092B27D03B681B69092B23D028
:1058E0003B681B690A2B1FD03B681B690A2B1BD026
:1058F0003B681B690B2B17D03B681B690C2B13D023
:105900003B681B690C2B0FD03B681B690D2B0BD020
:105910003B681B690C2B07D03B681B690F2B03D01E
:10592000D92185481DF010F9FB69DA087B68083237
:1059300053F82230BB61FB6903F007039B000F2281
:1059400002FA03F3DB43BA691340BB613B681A698F
:10595000FB6903F007039B0002FA03F3BA691343E0
:10596000BB61FB69DA087B680832B96943F8221029
:105970007B681B68BB61FB695B00032202FA03F3CF
:10598000DB43BA691340BB613B685B6803F0030209
:10599000FB695B0002FA03F3BA691343BB617B68DE
:1059A000BA691A603B685B68012B0BD03B685B6887
:1059B000022B07D03B685B68112B03D03B685B6808
:1059C000122B44D13B68DB68002B0FD03B68DB68AF
:1059D000012B0BD03B68DB68022B07D03B68DB68F0
:1059E000032B03D0EC2154481DF0AEF87B689B6874
:1059F000BB61FB695B00032202FA03F3DB43BA6974
:105A00001340BB613B68DA68FB695B0002FA03F391
:105A1000BA691343BB617B68BA699A607B685B684B
:105A2000BB610122FB6902FA03F3DB43BA6913404D
:105A3000BB613B685B681B0903F00102FB6902FA6A
:105A400003F3BA691343BB617B68BA695A607B6828
:105A5000DB68BB61FB695B00032202FA03F3DB43F3
:105A6000BA691340BB613B689A68FB695B0002FA44
:105A700003F3BA691343BB617B68BA69DA603B68B8
:105A80005B6803F08053002B00F0D2800023FB60A2
:105A90002A4A2A4B5B6C43F480435364274B5B6C6C
:105AA00003F48043FB60FB68254AFB699B080233D3
:105AB00052F82330BB61FB6903F003039B000F2204
:105AC00002FA03F3DB43BA691340BB617B681D4AEA
