:020000040800F2
:1000000000000220B9020008F58C0008F98C0008F5
:10001000FD8C0008018D0008058D0008000000001F
:10002000000000000000000000000000098D000832
:100030000D8D000800000000118D0008158D0008CE
:10004000E9030008E9030008E9030008E9030008E0
:10005000E9030008E9030008E9030008E9030008D0
:10006000E9030008E9030008E9030008E9030008C0
:10007000E9030008E9030008E9030008E9030008B0
:10008000E9030008E9030008218D0008E9030008DE
:10009000E9030008E9030008E9030008E903000890
:1000A000E9030008E9030008E9030008E903000880
:1000B000318D0008E9030008418D0008E9030008BC
:1000C000E9030008E9030008E9030008E903000860
:1000D000E9030008E9030008E9030008518D00085E
:1000E000E9030008E9030008E9030008E903000840
:1000F000E9030008E9030008E9030008E903000830
:10010000E9030008E9030008E9030008E90300081F
:10011000E9030008E9030008E9030008E90300080F
:10012000E9030008E9030008E9030008E9030008FF
:10013000E9030008E9030008E9030008E9030008EF
:10014000E9030008E9030008E9030008E9030008DF
:10015000E9030008E9030008E9030008E9030008CF
:10016000E9030008E9030008E9030008E9030008BF
:10017000E9030008E9030008E903000800000000A3
:10018000E9030008E903000800B583B004F0B2F900
:10019000384B394A1360394A136039490CE00A6810
:1001A0004B6801F10C04886803E01168196004339E
:1001B00004329842F9D82146324B9942EFD32E4B64
:1001C0001A68314B9A4204D12C4B1A682F4B9A4231
:1001D00000D0FEE7274B2E4A13602E4A13602E4BA9
:1001E0000AE0194651F8082B5B6802E00020106015
:1001F00004329A42FAD30B46284A9342F1D3244B55
:100200001B6813B9234B1B6803B1FEE704F07EF9AA
:10021000694601A804F0FEF8214C224B1C1BA410D7
:10022000002504E01E4B53F8253098470135AC42B9
:10023000F8DC1D4C1D4B1C1BA410002504E01A4BC0
:1002400053F8253098470135AC42F8DC0099019805
:1002500008F0EEFA0546164C164B1C1BA41004E0E1
:10026000013C134B53F824309847002CF8DC284607
:1002700004F0A2F8BABADECA00000020BC000020D8
:10028000EC030008040400087856341232547698BF
:10029000C0000020BC4A0020040400081404000828
:1002A00014040008140400081404000814040008CE
:1002B000140400081404000808B5FFF765FF00BF28
:1002C00000BEFEE71EF0040F0CBFEFF30880EFF353
:1002D00009807146414A10472DE9F04182B0044639
:1002E0008846134B5E6B9F6B9D6A1B6B13F0020F6E
:1002F0000DD00F4BDB6A002B09DA4BF6AB6104F033
:1003000081F920B14FF00042094BDA620CE0094854
:1003100004F092F8CDF800803B463246294620464C
:1003200004F0F8F800BEFEE702B0BDE8F08100BFBF
:1003300000ED00E040BF000800BEFEE71EF0040F25
:100340000CBFEFF30880EFF309807146244A104791
:100350002DE9F04182B004468846084B5E6B9F6BE6
:100360009D6A074804F068F8CDF800803B463246A5
:100370002946204604F0CEF800BEFEE700ED00E07E
:1003800050BF00081EF0040F0CBFEFF30880EFF31E
:1003900009807146134A10472DE9F04182B00446A6
:1003A0008846084B5E6B9F6B9D6A074804F044F8D3
:1003B000CDF800803B4632462946204604F0AAF894
:1003C00000BEFEE700ED00E05CBF000800BEFEE7F7
:1003D00000BEFEE700BEFEE770470000D90200083D
:0C03E000510300089903000800BEFEE76E
:1003EC008CC5000800000020C00000208CC500084F
:1003FC000000001000000010C0000020C04A0020C7
:08040C000000001000000010C8
:1004200010B5044601F014FB064BA3FB0030800915
:1004300000F0A6FC002221464FF0FF3000F036FC11
:10044000002010BDD34D621008B50B4B1A6842F462
:1004500000721A601A6842F480621A601A6842F4E4
:1004600080721A60032000F003FC0020FFF7D8FF21
:1004700008F00EFB002008BD003C0240024A136851
:1004800001331360704700BF94030020014B1868CC
:10049000704700BF9403002010B582B00190FFF7B1
:1004A000F5FF0446FFF7F2FF001B019B9842F9D3CA
:1004B00002B010BD10B50446504B5A6822F44032C9
:1004C0005A60596842680A435A600268536823F4C4
:1004D0008073536002685368016943EA01235360E3
:1004E0000268536823F04073536002685168836860
:1004F0000B4353600268936823F4006393600268BF
:100500009168C3680B439360826A3D4B9A4214D052
:100510000268936823F07063936002689168836A4D
:100520000B4393600268936823F040539360026822
:100530009168C36A0B43936009E00268936823F0F3
:10054000706393600268936823F04053936022685D
:10055000936823F00203936022689368A16943EAD9
:1005600041039360236A03B3636A013B072B04D9F9
:1005700040F20461234803F055FF2268536843F4B6
:10058000006353602268536823F460435360636AD6
:10059000013B4FF4604292FAA2F2B2FA82F2934027
:1005A00021684A6813434B6004E02268536823F4CF
:1005B000006353602268D36A23F47003D362216816
:1005C000CA6AE369013B42EA0353CB62226893683B
:1005D00023F40073936022689368216B43EA4123FC
:1005E00093602268936823F4806393602268936821
:1005F000616943EA8123936010BD00BF002301407D
:100600000100000F4CBB0008002800F0DE8010B590
:10061000044603686E4A93420CD002F580729342FE
:1006200008D002F58072934204D040F20D1169485F
:1006300003F0F8FE63686BB1B3F5803F0AD0B3F501
:10064000003F07D0B3F5403F04D04FF487716148B5
:1006500003F0E8FEA3686BB1B3F1807F0AD0B3F179
:10066000007F07D0B3F1407F04D040F20F1159480A
:1006700003F0D8FE2369012B04D94FF48871554843
:1006800003F0D0FEA369012B04D940F211115148A7
:1006900003F0C8FEA36AA3B3B3F1807F31D0B3F1F6
:1006A000007F2ED0B3F1407F2BD0B3F1806F28D0E4
:1006B000B3F1A06F25D0B3F1C06F22D0B3F1E06FDA
:1006C0001FD0B3F1006F1CD0B3F1106F19D0B3F18C
:1006D000206F16D0B3F1306F13D0B3F1406F10D04C
:1006E000B3F1506F0DD0B3F1606F0AD0B3F1706FFA
:1006F00007D0394A934204D04FF48971354803F04A
:1007000091FEE3683BB1B3F5006F04D040F21311E2
:10071000304803F087FEE369013B0F2B04D94FF407
:100720008A712C4803F07EFE236B012B04D940F222
:100730001511284803F076FE6369022B04D94FF4A3
:100740008B71244803F06EFE236A012B04D940F21A
:100750001711204803F066FEA26A1F4B9A420FD081
:10076000E36A6BB1B3F1805F0AD0B3F1005F07D0E9
:10077000B3F1405F04D040F21B11164803F052FE63
:10078000236C2BB9636484F83C30204608F0B0F940
:10079000236C13F0100F13D1236C23F4885323F030
:1007A000020343F0020323642046FFF783FE002088
:1007B0006064236C23F0030343F00103236400E02F
:1007C0000120002384F83C3010BD0120704700BF99
:1007D000002001404CBB00080100000F10B582B0A2
:1007E0000446002301938369012B04D940F2DD21E3
:1007F000454803F017FEE36A6BB1B3F1805F0AD09E
:10080000B3F1005F07D0B3F1405F04D040F2DE21C6
:100810003D4803F007FE94F83C30012B68D00123DB
:1008200084F83C3023689A6812F0010F13D19A685B
:1008300042F001029A60354B1B68354AA2FB032344
:100840009B0C03EB4303019302E0019B013B0193EB
:10085000019B002BF9D12268936813F0010F49D056
:10086000236C23F4E06323F0010343F480732364D7
:10087000536813F4806F05D0236C23F4405343F482
:1008800080532364236C13F4805F04D0636C23F0E3
:100890000603636401E000236364002384F83C30B2
:1008A0006FF0020313602268536843F0806343F0E3
:1008B00020035360174B5B6813F01F0F0AD12368A6
:1008C0009A6812F0405F17D19A6842F080429A60AD
:1008D000002016E02368104A93420FD19A6812F064
:1008E000405F0DD19A6842F080429A60002008E093
:1008F000022006E0002004E0002002E0002000E0EA
:10090000002002B010BD00BF4CBB00080C0000204E
:1009100083DE1B4300230140002001400368D86CA4
:10092000704700BF704700BF704700BF38B504462E
:100930008369012B04D940F269315B4803F072FDF1
:10094000E369013B0F2B04D940F26A31564803F0AA
:1009500069FD6369022B04D940F26B31524803F000
:1009600061FD22681168536803F0200311F0020F43
:100970002DD063B3236C13F0100F03D1236C43F419
:1009800000732364936813F0405F19D1A369BBB966
:10099000D36A13F4700F03D0936813F4806F0FD1F0
:1009A000536823F020035360236C23F48073236483
:1009B000236C13F4805F03D1236C43F001032364A1
:1009C000204607F05DFF23686FF012021A6023686B
:1009D00019685A6802F0800211F0040F36D0002A1C
:1009E00034D0226C12F0100F03D1226C42F400526A
:1009F00022649A6812F4401F21D19A6B12F4401FAE
:100A000003D09A6812F4806F19D15A6812F4806F7B
:100A100015D19A6812F0405F11D1A2697AB95A686B
:100A200022F080025A60236C23F480532364236CE9
:100A300013F4807F03D1236C43F001032364204629
:100A400000F014F923686FF00C021A602268116834
:100A5000536803F0400311F0010F0FD073B1136816
:100A600013F0010F0AD0236C43F480332364204633
:100A7000FFF758FF23686FF001021A6022681168BF
:100A8000536803F0806311F0200F0CD05BB1636CEE
:100A900043F0020363646FF0200515602046FFF702
:100AA00043FF23681D6038BD4CBB000830B583B0E0
:100AB00005460C46002301930B68122B04D940F223
:100AC000FE41664803F0AEFC6368013B0F2B04D97E
:100AD00040F2FF41614803F0A5FCA368072B04D94D
:100AE0004FF4A0615D4803F09DFC95F83C30012B6C
:100AF00000F0B180012385F83C302368092B17D919
:100B00002868C2689BB203EB43031E3B072101FA2E
:100B100003F322EA0303C3602968C868A268238834
:100B200003EB43031E3B02FA03F30343CB6013E0E2
:100B3000286802699BB203EB4303072101FA03F320
:100B400022EA0303036129680869A368228802EB8B
:100B50004202934003430B616368062B16D8286852
:100B6000426B03EB8303053B1F2101FA03F322EAE7
:100B7000030343632968486B2288636803EB83039C
:100B8000053B02FA03F303434B632EE00C2B16D80C
:100B90002868026B03EB8303233B1F2101FA03F355
:100BA00022EA030303632968086B2288636803EB66
:100BB0008303233B02FA03F303430B6315E0286826
:100BC000C26A03EB8303413B1F2101FA03F322EACC
:100BD0000303C3622968C86A2288636803EB83033E
:100BE000413B02FA03F30343CB622A681C4B9A424F
:100BF00007D12368122B04D11A4A536843F48003A7
:100C000053602A68164B9A4221D12368103B012B6E
:100C10001DD8144A536843F4000353602368102B13
:100C200015D1114B1B6802F1467202F52E3202F209
:100C30008332A2FB03239B0C03EB83035A00019234
:100C400002E0019B013B0193019B002BF9D10020A5
:100C500085F83C0000E0022003B030BD4CBB00082A
:100C600000200140002301400C000020704700BF1D
:100C700010B50446C31E042B03D9A421094803F070
:100C8000D1FB094AD36823F4E0631B041B0C240244
:100C900004F4E064234343F0BF6343F40033D360C0
:100CA00010BD00BF7CBB000800ED00E070B504463D
:100CB0000E4615460F2A03D9BC211A4803F0B2FB91
:100CC0000F2E03D9BD21174803F0ACFB164BDA6891
:100CD000C2F30222C2F10701042928BF0421131D17
:100CE000062B01D9033A00E00022012303FA01F1A7
:100CF00001393140914003FA02F2013A2A400A4395
:100D0000002C06DA04F00F041201D2B2074B1A5578
:100D100070BD1201D2B204F1604404F5614484F85C
:100D2000002370BD7CBB000800ED00E014ED00E086
:100D300010B5041E03DAD021064803F073FB6209E4
:100D400004F01F04012303FA04F4034B43F8224088
:100D500010BD00BF7CBB000800E100E0BFF34F8F77
:100D60000549CA6802F4E062044B1343CB60BFF349
:100D70004F8F00BFFDE700BF00ED00E00400FA0563
:100D80000138B0F1807F0AD2064B5860F021064A44
:100D900082F823100020986007221A607047012013
:100DA000704700BF10E000E000ED00E010B5044621
:100DB000042805D020B140F2B311084803F032FBFB
:100DC000042C05D1064A136843F00403136010BDD8
:100DD000034A136823F00403136010BD7CBB0008B2
:100DE00010E000E0704700BF08B5FFF7FBFF08BD4B
:100DF0002DE9F04782B080460F46A44B984223D09D
:100E000003F5806398421FD003F5806398421BD09E
:100E100003F58063984217D003F58063984213D09E
:100E200003F5806398420FD003F5806398420BD09E
:100E300003F58063984207D003F58063984203D09E
:100E4000C521934803F0EEFA3B881BB9C6219048B0
:100E500003F0E8FA7B68012B22D9112B20D0022B5A
:100E60001ED0122B1CD08B4A934219D002F580124F
:100E7000934215D002F58012934211D0A2F5F812D8
:100E800093420DD002F58012934209D002F58012F0
:100E9000934205D0032B03D0C7217D4803F0C2FA4B
:100EA000BB68022B03D9C821794803F0BBFA00259F
:100EB0002CE10124AC403E682640B44240F025813C
:100EC0007B68022B01D0122B4AD13B69C3B3092B9B
:100ED00036D0ABB3A3B39BB393B3012B30D02FD099
:100EE000022B2DD02CD02BD0032B29D0042B27D094
:100EF00026D025D0052B23D022D0092B20D0062B9D
:100F00001ED0092B1CD0072B1AD019D018D0082BB3
:100F100016D015D014D0092B12D011D00A2B0FD017
:100F20000ED00B2B0CD00C2B0AD009D00D2B07D0D8
:100F30000C2B05D00F2B03D0D921554803F072FAA2
:100F4000EA08083258F8220005F0070399000F2339
:100F50008B4020EA03003B698B40034348F8223072
:100F6000D8F800304FEA450A4FF0030909FA0AF9A8
:100F70006FEA090903EA09027B6803F0030303FA35
:100F80000AF31343C8F800307B685A1E012A03D9BC
:100F9000112B01D0122B1BD1FB68032B03D9EC21A1
:100FA0003B4803F03FFAD8F8083009EA0302FB682F
:100FB00003FA0AF31343C8F80830D8F8043023EAD8
:100FC00004047B68C3F30013AB401C43C8F804401F
:100FD000D8F80C3009EA0309BB6803FA0AF349EAB6
:100FE0000303C8F80C307B6813F0805F00F08D803D
:100FF00000230193284B5A6C42F480425A645B6C84
:1010000003F480430193019BA9088A1C234B53F8E6
:10101000220005F003039B000F229A4020EA020001
:101020001A4A904521D002F5806290451FD002F502
:10103000806290451DD002F5806290451BD002F57C
:101040008062904519D002F58062904517D002F574
:101050008062904515D002F58062904513D002F56C
:10106000806290451CD108221BE0002219E0012279
:1010700017E0022215E0032213E0042211E005220A
:101080000FE006220DE007220BE000BF0000024047
:10109000B0BB0008000011100038024000380140C9
:1010A000092202FA03F3034302311B4A42F82130BA
:1010B0001A4B1A68F34302EA0301786810F4803F80
:1010C00001D046EA0201154A1160526803EA0201A2
:1010D000786810F4003F01D046EA02010F4A5160DF
:1010E000926803EA0201786810F4801F01D046EA92
:1010F00002010A4A9160D2681340796811F4001F16
:1011000001D046EA0203054AD36001350F2D7FF670
:10111000D0AE02B0BDE8F08700380140003C01408D
:1011200070B5064615460C4621B940F2B111084883
:1011300003F078F9012D04D94FF4D971044803F074
:1011400071F90DB1B46170BD2404B46170BD00BF0C
:10115000B0BB0008002800F0E38038B504460368FF
:10116000704A93420CD002F58062934208D002F597
:101170008062934204D04FF4B1716B4803F052F98E
:101180006368013B694A934204D940F2631166489F
:1011900003F048F9A3683BB1B3F5804F04D04FF496
:1011A000B271614803F03EF9E36823F47F7323F0E2
:1011B000030323B140F265115B4803F033F923695F
:1011C000B3F5804F07D0B3F5404F04D04FF4B3715F
:1011D000554803F027F96369012B04D940F26711E0
:1011E000514803F01FF9A36933F0FE0304D04FF414
:1011F000B4714D4803F016F9E36933B1402B04D0C4
:1012000040F26911484803F00DF9236A33B1802B8D
:1012100004D04FF4B571444803F004F994F83D301C
:1012200013F0FF0F05D1002384F83C30204607F06F
:101230008BFC242384F83D302268136823F00103DB
:10124000136000F01FFC3A4BA3FB00239B0C2268A9
:10125000536021686568374A954201D8013308E038
:101260004FF4967202FB03F3334AA2FB03239B095C
:1012700001330B62216863682E4A934208D85B00F1
:10128000B0FBF3F0C0F30B03032B2BD8042029E0B1
:10129000A5684DB903EB4302B0FBF2F2C2F30B02B7
:1012A000B2FA82F252090AE003EB830202EB8202F5
:1012B000B0FBF2F2C2F30B02B2FA82F2520982B927
:1012C00035B903EB4303B0FBF3F040F4004009E011
:1012D00003EB830303EB8303B0FBF3F040F44040E4
:1012E00000E00120C8612268E169236A0B431360B2
:1012F00022682169E3680B43936022686169A369EE
:101300000B43D3602268136843F00103136000208D
:101310002064202384F83D30206384F83E0038BDEB
:101320000120704700540040E0BB00087F1A06000F
:1013300083DE1B43A0860100D34D621030B583B01D
:10134000044603680F2B03D9F6219C4803F06AF882
:10135000236813F0010F45D06368012B05D9052BD5
:1013600003D0FB21954803F05DF8954B9B6803F093
:101370000C03042B0AD0924B9B6803F00C03082B40
:101380000CD18F4B5B6813F4800F07D08C4B1B681C
:1013900013F4003F26D0636823BBCCE12279894B4C
:1013A0001A7063687BB1FFF771F8054605E0FFF737
:1013B0006DF8401B642800F2C081814B1B6813F458
:1013C000003FF4D00EE0FFF761F8054605E0FFF7B7
:1013D0005DF8401B642800F2B281794B1B6813F45E
:1013E000003FF4D1236813F0020F6AD0E368012BA9
:1013F00004D940F22D11714803F014F823691F2B12
:1014000004D94FF497716D4803F00CF86C4B9B684E
:1014100013F00C0F0AD06A4B9B6803F00C03082BE7
:101420001BD1674B5B6813F4800F16D1644B1B68AC
:1014300013F0020F03D0E368012B40F08281604873
:10144000036823F0F8012369F82292FAA2F2B2FAB3
:1014500082F293400B43036033E0E368FBB1012267
:10146000594B1A60FFF712F8054605E0FFF70EF832
:10147000401B022800F26781514B1B6813F0020FDA
:10148000F4D04F48036823F0F8012369F82292FA58
:10149000A2F2B2FA82F293400B43036011E0002201
:1014A000494B1A60FEF7F2FF054605E0FEF7EEFF36
:1014B000401B022800F24981414B1B6813F0020FC8
:1014C000F4D1236813F0080F2ED06369012B04D9DF
:1014D0004FF4B771394802F0A5FF636993B1012257
:1014E0003A4B1A60FEF7D2FF054605E0FEF7CEFF45
:1014F000401B022800F22B81314B5B6F13F0020F6F
:10150000F4D011E00022314B1A60FEF7BFFF054610
:1015100005E0FEF7BBFF401B022800F21A81284BB2
:101520005B6F13F0020FF4D1236813F0040F60D047
:10153000A368012B06D9052B04D04FF4CC711F48AA
:1015400002F070FF002301931D4B1A6C42F0805291
:101550001A641B6C03F080530193019B1C4A1368AF
:1015600043F480731360FEF791FF054605E0FEF734
:101570008DFF401B022800F2EE80154B1B6813F410
:10158000807FF4D0227A134B1A70A3688BB1FEF7D8
:101590007DFF054607E0FEF779FF401B41F28833E7
:1015A000984200F2DA80064B1B6F13F0020FF2D064
:1015B0001FE0FEF76BFF054616E000BF20BC0008E9
:1015C000003802400238024000004742800E474285
:1015D0000070004070380240FEF758FF401B41F297
:1015E0008833984200F2BB80634B1B6F13F0020FED
:1015F000F2D1A369022B04D940F2CD115F4802F069
:1016000011FFA369002B00F0AC805B4A926802F0E6
:101610000C02082A00F0A780022B79D1E3693BB1C4
:10162000B3F5800F04D04FF4EB71544802F0FAFE8A
:10163000236A3F2B04D940F2D711504802F0F2FE42
:10164000636A323BB3F5BF7F04D94FF4EC714B486A
:1016500002F0E8FEA36A022B0AD0042B08D0062B66
:1016600006D0082B04D040F2D911444802F0DAFE2B
:10167000E36A043B0B2B04D94FF4ED713F4802F0B1
:10168000D1FE00223E4B1A60FEF700FF054604E043
:10169000FEF7FCFE401B022867D8374B1B6813F08F
:1016A000007FF5D1E169236A1943636A47F6C07286
:1016B00092FAA2F2B2FA82F293401943A36A5B084B
:1016C0005A1E4FF4403393FAA3F3B3FA83F302FAAA
:1016D00003F30B43E26A4FF0706191FAA1F1B1FAA2
:1016E00081F18A401343244A53600122244B1A603B
:1016F000FEF7CCFE044604E0FEF7C8FE001B0228FD
:1017000035D81D4B1B6813F0007FF5D0002031E069
:1017100000221B4B1A60FEF7B9FE044604E0FEF7F8
:10172000B5FE001B022824D8134B1B6813F0007F62
:10173000F5D100201EE001201CE003201AE0032068
:1017400018E0012016E0032014E0032012E003203B
:1017500010E003200EE003200CE003200AE0032049
:1017600008E0002006E0012004E0032002E003205E
:1017700000E0032003B030BD0038024020BC000868
:101780006000474270B504460D460368013B0E2BCE
:1017900004D94FF40E71834802F044FE072D04D99A
:1017A00040F239217F4802F03DFE7F4B1B6803F079
:1017B0000F039D4208D9EBB27B4A1370136803F004
:1017C0000F039D4240F0DB80236813F0020F1DD011
:1017D000A368A3B1802B12D0902B10D0A02B0ED0D9
:1017E000B02B0CD0C02B0AD0D02B08D0E02B06D0C9
:1017F000F02B04D04FF414716A4802F013FE6B49C9
:101800008B6823F0F002A36813438B60236813F006
:10181000010F64D06368032B04D940F2572161485B
:1018200002F000FE6268012A05D1604B1B6813F4C8
:10183000003F0FD1A5E0931E012B05D85B4B1B6821
:1018400013F0007F06D19EE0584B1B6813F0020F87
:1018500000F09B8055498B6823F0030313438B6092
:10186000FEF714FE06466368012B0FD107E0FEF772
:101870000DFE801B41F28833984200F288804B4B6A
:101880009B6803F00C03042BF1D128E0022B0ED14E
:1018900006E0FEF7FBFD801B41F28833984278D8C2
:1018A000424B9B6803F00C03082BF2D117E0032B8B
:1018B00010D13E4B9B68FEF7E9FD801B41F2883357
:1018C0009842F6D967E0FEF7E1FD801B41F28833CC
:1018D000984262D8354B9B6813F00C0FF3D1324B12
:1018E0001B6803F00F039D4207D2EAB22E4B1A7019
:1018F0001B6803F00F039D4251D1236813F0040FBE
:1019000019D0E36883B1B3F5805F0DD0B3F5A05F64
:101910000AD0B3F5C05F07D0B3F5E05F04D040F262
:10192000B521204802F07EFD20498B6823F4E05267
:10193000E36813438B60236813F0080F1AD0236900
:1019400083B1B3F5805F0DD0B3F5A05F0AD0B3F5D6
:10195000C05F07D0B3F5E05F04D04FF42F7111489A
:1019600002F060FD114A936823F46043216943EA61
:10197000C10393600020FEF753FD002070BD0120DD
:1019800070BD012070BD012070BD012070BD03201D
:1019900070BD032070BD032070BD032070BD012009
:1019A00070BD00BF20BC0008003C0240003802406F
:1019B000244B9B6803F00C03042B3FD0082B01D071
:1019C0002148704710B41F4B586800F03F005B6817
:1019D00013F4800F10D01D4BB3FBF0F0194B5A6875
:1019E00047F6C0710A4091FAA1F3B3FA83F322FAE1
:1019F00003F303FB00F310E0134BB3FBF0F0114BC8
:101A00005A6847F6C07402EA040194FAA4F2B2FAE2
:101A100082F221FA02F202FB00F30A4A506800F453
:101A200040324FF4403090FAA0F0B0FA80F022FA41
:101A300000F001304000B3FBF0F001E003487047D4
:101A400010BC7047003802400024F40000127A00F5
:101A500008B5FFF7ADFF084B9B6803F0F002F023D9
:101A600093FAA3F3B3FA83F322FA03F3034AD35CA2
:101A7000D840034B186008BD0038024010BC000875
:101A80000C00002008B5FFF7E3FF084B9B6803F448
:101A9000E0524FF4E05393FAA3F3B3FA83F322FA3C
:101AA00003F3034AD35CD84008BD00BF00380240AE
:101AB00010BC000808B5FFF7CBFF084B9B6803F488
:101AC00060424FF4604393FAA3F3B3FA83F322FA2C
:101AD00003F3034AD35CD84008BD00BF003802407E
:101AE00010BC000830B583B005460368013B062BE7
:101AF00004D940F21661624802F094FC2B6813F09E
:101B0000010F4AD0AB68023B052B04D940F21C619F
:101B10005B4802F087FC6B68323BB3F5BF7F04D9AA
:101B200040F21D61564802F07DFC0022554B1A60C0
:101B3000FEF7ACFC044605E0FEF7A8FC001B0228FB
:101B400000F29180504B1B6813F0006FF4D16A686B
:101B500047F6C07393FAA3F3B3FA83F302FA03F1DF
:101B6000AB684FF0E04292FAA2F2B2FA82F29340EE
:101B70000B43454AC2F884300122424B1A60FEF7FB
:101B800085FC044604E0FEF781FC001B02286CD8AB
:101B90003D4B1B6813F0006FF5D02B6813F0020F5C
:101BA00065D000230193384B1A6C42F080521A64BE
:101BB0001B6C03F080530193019B344A136843F478
:101BC00080731360FEF762FC044604E0FEF75EFCDF
:101BD000001B02284DD82D4B1B6813F4807FF5D0D5
:101BE000294B1A6FEB68534013F4407F43D0264AC9
:101BF000136F23F44070264901240C6000240C600C
:101C0000106713F0020F0FD0FEF740FC044606E009
:101C1000FEF73CFC001B41F2883398422DD81A4B4A
:101C20001B6F13F0020FF3D0EB6803F44072B2F5B0
:101C3000407F0AD114498A6822F4F81223F07043D5
:101C400023F4407313438B6004E00F4A936823F43A
:101C5000F81393600C4A116FEB68C3F30B030B434B
:101C6000136700200AE0032008E0032006E00020BC
:101C700004E0032002E0002000E0032003B030BDB8
:101C800050BC000868004742003802400070004025
:101C9000400E474238B50368DA6812F0400F14D19D
:101CA00004464FF0FF32DA60FEF7F0FB054605E030
:101CB000FEF7ECFB401BB0F57A7F08D82368DB68A1
:101CC00013F0400FF4D0002038BD002038BD0320B1
:101CD00038BD00BF002800F0858038B50446436851
:101CE000402B04D01BB1D421414802F09BFBA368D8
:101CF0007F2B03D9D5213E4802F094FBE368B3F56E
:101D0000004F03D3D6213A4802F08CFB236963B11C
:101D1000B3F5001F09D0B3F5800F06D0B3F5C00F9F
:101D200003D0D721324802F07DFB636933B1B3F5AC
:101D3000801F03D0D8212E4802F074FBA36933B171
:101D4000B3F5802F03D0D921294802F06BFB637FC4
:101D500013F0FF0F04D100232377204606F01EFF67
:101D6000022363772368CA225A62236853225A6285
:101D70002046FFF78FFF024630B12368FF225A62E8
:101D800004236377012230E021688B6823F4E003A9
:101D900023F040038B6020688568636821691943DC
:101DA00063690B432B4383602368E16819612168F1
:101DB0000B69A06843EA00430B612168CB6823F0FC
:101DC0008003CB6021680B6C23F480230B642168B3
:101DD000086CA36903430B642368FF215962012344
:101DE000637702E0012210467047104638BD00BFFD
:101DF00084BC000801684B6BC3F3C0134FF48032FE
:101E000003E04B6BC3F3C013013A0AB1002BF8D0C7
:101E100022B140F2FF538B630020704703207047CC
:101E200001684B6B13F0450F14BF012200224FF4E1
:101E3000803306E04A6B12F0450F14BF01220022E6
:101E4000013B0AB9002BF5D14A6B02F0040203B141
:101E50001AB104238B63032070474B6B13F0400FC0
:101E600003D040238B63002070472920704700BFB8
:101E700003685A6B12F0450FFAD05A6B12F0040F38
:101E800003D004229A630320704740F2FF529A6302
:101E90000020704703685A6B12F0450FFAD05A6B56
:101EA00012F0040F03D004229A63032070475A6B88
:101EB00012F0010F02D001209863704740F2FF52E8
:101EC0009A630020704700BF38B503685A6B12F060
:101ED000450FFAD05A6B12F0040F03D004229A6314
:101EE000032038BD5A6B12F0010F02D00120986315
:101EF00038BD0D460446184602F0E0F9A84243D129
:101F0000236840F2FF529A63002002F0DBF9334B62
:101F10000340DBB300283BDB10F0804F3AD110F0D8
:101F2000005F39D110F0805F38D110F0006F37D1E9
:101F300010F0806F36D110F0807F35D110F4000F93
:101F400034D110F4800F33D110F4001F32D110F4CB
:101F5000801F31D110F4002F30D110F4802F2FD1F9
:101F600010F4003F2ED110F4803F2DD110F4004F1B
:101F70002CD110F4804F2BD110F4005F2AD110F037
:101F8000080F29D01A2038BD102038BD002038BDD8
:101F90001C2038BD092038BD0A2038BD0B2038BDB3
:101FA0000C2038BD0D2038BD0E2038BD0F2038BDA7
:101FB000102038BD112038BD122038BD132038BD87
:101FC000142038BD152038BD162038BD172038BD67
:101FD000182038BD192038BD002038BD08E0FFFDAD
:101FE0002DE9F04186B0044600258DF803505B4E84
:101FF0003560006802F018F90120FEF74DFA012360
:10200000336001950295039504954FF48063059321
:1020100001A9206802F010F92046FFF7EBFE8DF8C9
:1020200003009DF8033013F0FF0F03D09DF8030069
:10203000C0B28FE04FF4D57301930823029340237D
:10204000039301A9206802F0F7F82046FFF7E8FEA5
:102050008DF803009DF8033013F0FF0F04D1012326
:1020600023624FF0804801E04FF000080023019305
:102070003725029501A9206802F0DEF8294620469E
:10208000FFF722FF8DF803009DF8033013F0FF0FD8
:1020900045D05CE00023019337260296402203924C
:1020A00004934FF48063059301A9206802F0C4F8FB
:1020B00031462046FFF708FF8DF803009DF80330F6
:1020C00013F0FF0F03D09DF80300C0B242E048F0C8
:1020D000004343F480130193292302934023039385
:1020E000002304934FF48063059301A9206802F054
:1020F000A3F82046FFF7BCFE8DF803009DF80330DF
:1021000013F0FF0F03D09DF80300C0B222E00020BF
:1021100002F0D8F8002800DA0127013502E0002794
:102120003D4638461FB94FF6FE739D42B2D94FF671
:10213000FE739D4206D91B238DF803309DF80300E2
:10214000C0B207E010F0804F01D0022323629DF857
:102150000300C0B206B0BDE8F08100BFA0802542F8
:1021600030B587B0044601920725029540230393BA
:10217000002304934FF48063059301A9006802F0E3
:102180005BF829462046FFF79FFE07B030BD00BF31
:10219000F1B170B586B00E460446436A1B04019344
:1021A0000D25029540230393002304934FF480638D
:1021B000059301A9006802F03FF829462046FFF781
:1021C00083FE044630B902F07DF83060204601E01D
:1021D0002620704706B070BD00B583B002A9002369
:1021E00041F8043DFFF7D4FF18B90198C0F343202C
:1021F00000E0FF2003B05DF804FB00BF70B503688A
:102200005C6B14F0450FFAD05C6B14F0040F03D034
:1022100004229A63032070BD5C6B14F0010F02D09E
:102220000120986370BD16460D460446184602F01C
:1022300045F8A84218D1236840F2FF529A63002063
:1022400002F040F810F4604F03D1000C3080002001
:1022500070BD10F4005F09D110F4804F08D110F464
:10226000004F07D00F2070BD102070BD132070BD2F
:10227000102070BD002070BD30B587B004460D46FB
:1022800000220092436A1B0401930D230293402312
:10229000039304924FF48063059301A9006801F051
:1022A000CBFF2068436B13F0450FFAD0436B13F05C
:1022B000040F03D004238363032092E0436B13F0E5
:1022C000010F03D00123836318468AE001F0F6FF73
:1022D0000D285DD1236840F2FF529A63002001F07F
:1022E000F1FF0090009BC3F343232B70009A3E4BF9
:1022F0001340002B4ED0009B002B4DDB009B13F0B6
:10230000804F4BD1009B13F0005F49D1009B13F02D
:10231000805F47D1009B13F0006F45D1009B13F005
:10232000806F43D1009B13F0807F41D1009B13F459
:10233000000F3FD1009B13F4800F3DD1009B13F49D
:10234000001F3BD1009B13F4801F39D1009B13F475
:10235000002F37D1009B13F4802F35D1009B13F44D
:10236000003F33D1009B13F4803F31D1009B13F425
:10237000004F2FD1009B13F4804F2DD1009B13F4FD
:10238000005F2BD1009B13F0080F29D01A2028E002
:10239000102026E0002024E01C2022E0092020E07C
:1023A0000A201EE00B201CE00C201AE00D2018E093
:1023B0000E2016E00F2014E0102012E0112010E093
:1023C00012200EE013200CE014200AE0152008E093
:1023D000162006E0172004E0182002E0192000E093
:1023E000002007B030BD00BF08E0FFFD30B587B06A
:1023F00004460123ADF80230006801F019FF0028FF
:1024000064D0236A042B23D000230193022202927A
:10241000C022039204934FF48063059301A92068BE
:1024200001F00AFF2046FFF735FD054600284FD191
:1024300001F048FFA063042001F044FFE06308209E
:1024400001F040FF20640C2001F03CFF606400E0DC
:102450000025236A012B03D9062B01D0022B0FD1B3
:10246000032502954023039301A9206801F0E4FEAF
:102470000DF1020229462046FFF7C0FE054640BB8B
:10248000236A042B26D0BDF8023063621B0401933B
:1024900009230293C023039301A9206801F0CCFE15
:1024A0002046FFF7F7FC0546B0B901F00BFFA0622C
:1024B000042001F007FFE062082001F003FF206321
:1024C0000C2001F0FFFE6063284605E0252003E0B4
:1024D00002E001E02846FFE707B030BDF0B58FB05D
:1024E00004460E4600230193029308220992102508
:1024F0000A9540220B920C934FF480630D9309A927
:10250000006801F099FE29462046FFF7DDFC00280F
:102510007FD1636AAB40099337250A9509A92068E2
:1025200001F08AFE29462046FFF7CEFC002871D133
:102530004FF0FF33039308230493302305930223C2
:102540000693002507950123089303A9206801F04D
:10255000D5FE099533250A9509A9206801F06CFE7E
:1025600029462046FFF7B0FC0546002853D1002736
:1025700009E0436B13F4001F05D001F04BFE01ABE3
:1025800043F8270001372068426B40F22A631A4261
:10259000EFD0436B13F0080F03D0082383630420AC
:1025A00039E0436B13F0020F03D002238363184614
:1025B00031E0436B13F0200F03D020238363062008
:1025C00029E0436B13F4007F04D04FF4007383635E
:1025D000072020E040F2FF53836301990B0203F4CC
:1025E0007F0343EA01630A0A02F47F42134343EA8A
:1025F0001163736002990B0203F47F0343EA0163E2
:102600000A0A02F47F42134343EA11633360284607
:1026100001E000E0FFE70FB0F0BD00BF30B589B0CA
:10262000044600200190029001F04CFE10F0007F63
:102630002AD101A92046FFF751FF38BB029B13F4B2
:10264000802F24D0636A1B0403933725049540230D
:102650000593002306934FF48063079303A9206832
:1026600001F0EAFD29462046FFF72EFC88B9022337
:1026700003930625049503A9206801F0DDFD294692
:102680002046FFF721FC04E00E2002E001E02520B7
:10269000FFE709B030BD00BF30B589B00446002067
:1026A0000190029001F00EFE10F0007F2AD101A9E6
:1026B0002046FFF713FF38BB029B13F4803F24D062
:1026C000636A1B0403933725049540230593002375
:1026D00006934FF48063079303A9206801F0ACFDD3
:1026E00029462046FFF7F0FB88B90023039306250F
:1026F000049503A9206801F09FFD29462046FFF7B5
:10270000E3FB04E00E2002E001E02520FFE709B032
:1027100030BD00BF2DE9F003034690F8202081F87A
:102720005620828CA1F85420826A900F0870C2F360
:1027300083604870C2F301628A7093F82A20CA70DD
:1027400093F829200A7193F828204A7193F82F20D2
:102750001201CA80D88DCA8892B2C0F303142243F2
:10276000CA8000F00F00087293F82D20D00948723B
:10277000C2F380108872C2F34010C872C2F3001016
:10278000087300204873186A012840D8920202F4A6
:1027900040620A61DA6A0869920002F47F720243B9
:1027A0000A611A6B086940EA92700861C2F3C2605C
:1027B0000875C2F302624A755A8ED0B244098C750C
:1027C000C0F38200C875520002F006020A7693F840
:1027D0003120087E40EAD21008760C69651C002082
:1027E0008D64C8640C7E0234012707FA04F4A4FB4C
:1027F0000545C1E912450E7AF6B207FA06F60E65EE
:10280000A6FB048906FB0599C1E9128924E0022888
:1028100021D1DA6A120402F47C120A6193F83300BF
:102820000A6942EA00220A6193F832000A69024307
:102830000A6193F831200C690025013445F1000547
:10284000E80440EA5430E4048C64C8644FF4007037
:102850000865002000E02920C2F380144C76520065
:1028600002F07E028A761A6B8D7EC2F3C0142C436E
:102870008C7602F07F02CA765A6B140ED50F0D7754
:10288000C2F341754D77C2F382628A77A20002F0EB
:102890000C02CA77DA8ED4B2CD7F45EA9415CD7793
:1028A000C4F3401481F82040002481F8214002F054
:1028B000010281F822205C6B240AE2B2D50981F87A
:1028C0002350C2F3801581F82450C2F3401581F8DB
:1028D0002550C2F3001581F82650C2F3810281F819
:1028E000272004F0030481F828405A6BC2F3460203
:1028F00081F82920012481F82A4093F83B2081F8AF
:102900002C2093F83A201202CA8593F83950CA8DC8
:1029100092B22A43CA859A6B12060A6393F83F5013
:102920000A6B42EA05420A63DA8F0D6B120202F467
:102930007F422A430A6393F83D500A6B2A430A6395
:1029400093F83C2081F8342093F8432081F8352017
:10295000B3F8422012068A631A6C120A8D6B1204B5
:1029600002F47F022A438A631A6C8D6B120202F40E
:102970007F422A438A6393F847508A6B2A438A63CB
:1029800093F8462091F83C5045EA121581F83C50E6
:10299000120202F47062CA8793F84550CA8F92B24D
:1029A0002A43CA875B6CC3F3460381F8403081F841
:1029B0004140BDE8F003704770B58CB005460E4647
:1029C00000248DF82F40047706F0F4F8059406945F
:1029D00007940894099476230A9308AB93E80700B8
:1029E0008DE8070005AB0ECB286801F0ADFB28464B
:1029F000FFF7F6FA8DF82F009DF82F3013F0FF0F38
:102A000003D09DF82F00C0B231E02846FFF7EEFC5E
:102A10008DF82F009DF82F3013F0FF0F03D09DF895
:102A20002F00C0B223E031462846FFF773FE8DF831
:102A30002F009DF82F3013F0FF0F08D1B6F8542067
:102A4000120400232846FFF78BFB8DF82F002B463E
:102A500053F8104B93E807008DE80700043595E81C
:102A60000E00204601F070FB9DF82F00C0B20CB0A4
:102A700070BD00BF036A032B30D0022B30D870B575
:102A80008AB00E460446B1F5805F0BD0B1F5006FF9
:102A900003D1FFF7C3FD054607E029B9FFF7FCFDA9
:102AA000054602E0272500E02625DDB9636804938A
:102AB000A3680593E3680693079663690893A3697F
:102AC000099324680AAB13E907008DE8070004ABFB
:102AD0000ECB204601F038FB284604E02720704743
:102AE0000020704728460AB070BD00BF30B587B0DF
:102AF0000446002301930C2502954022039204937F
:102B00004FF48063059301A9006801F095FB294605
:102B10002046FFF7D9F907B030BD00BF2DE9F047D7
:102B20008CB004460E469146149FDDF854A002680E
:102B30000021D162026A022A05D14FEA592242EAF3
:102B4000C3594FF400770797102508954023099340
:102B500000230A934FF480630B9307A9206801F0C8
:102B60006BFB29462046FFF7AFF9002840F0A9800B
:102B70004FF0FF3301930AFB07F302939023039373
:102B800002230493002305930123069301A92068DF
:102B900001F0B4FBBAF1010F02D91223089301E04E
:102BA000112308930CA941F8149D206801F044FBFF
:102BB000BAF1010F20D912212046FFF785F9054609
:102BC00098B17FE05B6B13F4004F0ED007E02068F4
:102BD00001F020FB46F8280008F1010801E04FF061
:102BE0000008B8F1070FF2D920362368596B40F27C
:102BF0002A321142E6D01FE011212046FFF764F986
:102C0000054698B15FE05B6B13F4004F0ED007E010
:102C1000206801F0FFFA46F8280008F1010801E0F9
:102C20004FF00008B8F1070FF2D920362368596B2E
:102C300040F22A621142E6D023685B6B13F4807F76
:102C400009D0BAF1010F06D9236A022B03D8204616
:102C5000FFF74CFF054623685A6B12F0080F03D0AC
:102C600008229A6304202EE05A6B12F0020F03D060
:102C700002259D63284626E05A6B12F0200F03D0F0
:102C800020229A6306201EE05A6B12F4007F0AD0BD
:102C90004FF400729A63072015E001F0BBFA46F882
:102CA000040B013F01E04FF0FF372068436B13F442
:102CB000001F01D0002FF0D140F2FF53836328465C
:102CC00001E000E0FFE70CB0BDE8F0872DE9F04738
:102CD0008CB004460D469146149E159F00228DF837
:102CE00003200168CA62026A022A05D14FEA59220A
:102CF00042EAC3594FF4007607964FF01008CDF81A
:102D000020804023099300230A934FF480630B93A0
:102D100007A9206801F090FA41462046FFF7D4F851
:102D2000002840F0E980012F02D91923089301E01F
:102D3000182308930CA941F8149D206801F07CFA2F
:102D4000012F04D919212046FFF7BEF803E018210E
:102D50002046FFF7B9F8002840F0CE8007FB06F6C2
:102D60004FF0FF33019302969023039300230493C3
:102D700005930123069301A9206801F0BFFA012FF2
:102D800035D84FF000086DE05B6B13F4804F30D006
:102D9000C8EB060ABAF11F0F20D81AF0030F02D1B0
:102DA0004FEA9A0A03E04FEA9A0A0AF1010A4FF041
:102DB000000908E02946206801F030FA043508F1DE
:102DC000040809F10109D145F4D312E005EB8901AA
:102DD000206801F023FA09F1010901E04FF0000930
:102DE000B9F1070FF2D9203508F1200801E04FF0C2
:102DF00000082368596B40F21A321142C4D037E000
:102E00005B6B13F4804F2DD0C8EB060ABAF11F0F8D
:102E100020D81AF0030F02D14FEA9A0A03E04FEAD2
:102E20009A0A0AF1010A4FF0000908E029462068D1
:102E300001F0F4F9043508F1040809F10109D1455C
:102E4000F4D30FE005EB8901206801F0E7F909F1FF
:102E5000010901E04FF00009B9F1070FF2D920355F
:102E600008F120082368596B40F21A621142C7D05A
:102E700023685B6B13F4807F07D0012F05D9236A89
:102E8000022B02D82046FFF731FE23685A6B12F05E
:102E9000080F03D008229A6304202DE05A6B12F029
:102EA000020F02D00220986326E05A6B12F0100F36
:102EB00003D010229A6305201EE05A6B12F4007FA3
:102EC00004D04FF400729A63072015E040F2FF52DD
:102ED0009A630DF103012046FFF7CEF904E00DF1EE
:102EE00003012046FFF7C8F930B99DF80330063BCF
:102EF000DBB2012BF3D9FFE70CB0BDE8F08700BFD0
:102F000008B5FFF769F9042803D0FF2803D1022090
:102F100008BD002008BD012008BD00BF10B4036A31
:102F2000046A24F001040462846924F0F00444EA91
:102F3000021223F00A0319438261016210BC704738
:102F400010B4036A23F0100303628469036A24F453
:102F5000704444EA023223F0A00343EA0111826183
:102F6000016210BC704700BF836823F0700341F01A
:102F7000070119438160704710B4846824F47F44CA
:102F800042EA0323194344EA0103836010BC7047FB
:102F900010B504460368244A934237D0B3F1804FFA
:102FA00034D0A2F57C42934230D002F58062934245
:102FB0002CD002F58062934228D002F580629342C1
:102FC00024D002F58062934220D002F570429342F1
:102FD0001CD002F57052934218D002F580629342E1
:102FE00014D002F58062934210D0A2F59832934239
:102FF0000CD002F58062934208D002F580629342C1
:1030000004D04FF49A71094801F00CFA022384F8B5
:1030100039302268136843F001031360012384F8F8
:103020003930002010BD00BF00000140B4BC0008D2
:1030300038B590F83830012B00F0CE820D460446AA
:10304000012380F83830022380F839300B68B3F55B
:10305000805F16D0B3F5005F13D093B1102B10D062
:10306000202B0ED0302B0CD0402B0AD0502B08D068
:10307000602B06D0702B04D040F66D71B24801F081
:10308000D1F92268936823F47F4323F07703936098
:103090002B68402B00F0A1810ED8102B00F01B8272
:1030A00003D8002B00F0EE818FE2202B00F03C8251
:1030B000302B00F0628288E2702B51D006D8502B62
:1030C00000F0EC80602B00F043817EE2B3F5805F7E
:1030D00004D0B3F5005F00F0928076E223689B4A4B
:1030E000934237D0B3F1804F34D0A2F57C42934263
:1030F00030D002F5806293422CD002F58062934278
:1031000028D002F58062934224D002F58062934277
:1031100020D002F5704293421CD002F570529342C7
:1031200018D002F58062934214D002F58062934277
:1031300010D0A2F5983293420CD002F580629342EF
:1031400008D002F58062934204D040F679717E483F
:1031500001F068F92268936823F00703936034E272
:1031600023687A4A934217D0B3F1804F14D0A2F566
:103170007C42934210D002F5806293420CD002F55B
:103180008062934208D002F57842934204D040F620
:1031900082716D4801F046F96B68B3F5004F0AD0B3
:1031A0004BB143B1022B06D00A2B04D040F68471F8
:1031B000654801F037F9AB686BB1B3F5805F0AD0B1
:1031C000B3F5005F07D0B3F5405F04D040F68571DA
:1031D0005D4801F027F9EB680F2B04D940F68671A2
:1031E000594801F01FF9EB686A68A9682068FFF781
:1031F000C3FE2268936843F077039360E5E1236898
:10320000524A934217D0B3F1804F14D0A2F57C42BA
:10321000934210D002F5806293420CD002F5806296
:10322000934208D002F57842934204D040F69A7156
:10323000454801F0F7F86B68B3F5004F0AD04BB181
:1032400043B1022B06D00A2B04D040F69C713E48B5
:1032500001F0E8F8AB686BB1B3F5805F0AD0B3F565
:10326000005F07D0B3F5405F04D040F69D7136484B
:1032700001F0D8F8EB680F2B04D940F69E71324864
:1032800001F0D0F8EB686A68A9682068FFF774FE5F
:103290002268936843F48043936096E123682B4A45
:1032A00093422FD0B3F1804F2CD0A2F57C429342B1
:1032B00028D002F58062934224D002F580629342C6
:1032C00020D002F5784293421CD002F5705293420E
:1032D00018D002F58062934214D002F580629342C6
:1032E00010D0A2F5983293420CD002F5806293423E
:1032F00008D002F58062934204D040F6AC711248C7
:1033000001F090F86B68B3F5004F0AD04BB143B1B0
:10331000022B06D00A2B04D040F6AF710A4801F008
:1033200081F8EB680F2B04D94FF47B61064801F05C
:1033300079F8EA6869682068FFF7F0FD5021206895
:10334000FFF712FE41E100BFB4BC000800000140DD
:103350002368A24A93421FD0B3F1804F1CD0A2F53C
:103360007C42934218D002F58062934214D002F559
:103370008062934210D002F5784293420CD002F55D
:103380007052934208D0A2F59432934204D040F692
:10339000BA71934801F046F86B68B3F5004F0AD054
:1033A0004BB143B1022B06D00A2B04D040F6BD71BD
:1033B0008B4801F037F8EB680F2B04D940F6BE714B
:1033C000874801F02FF8EA6869682068FFF7B8FDC0
:1033D00060212068FFF7C8FDF7E023687F4A934229
:1033E0002FD0B3F1804F2CD0A2F57C42934228D04D
:1033F00002F58062934224D002F58062934220D08D
:1034000002F5784293421CD002F57052934218D0D4
:1034100002F58062934214D002F58062934210D08C
:10342000A2F5983293420CD002F58062934208D004
:1034300002F58062934204D040F6C871684800F0FB
:10344000F1FF6B68B3F5004F0AD04BB143B1022BCB
:1034500006D00A2B04D040F6CB71614800F0E2FFA1
:10346000EB680F2B04D940F6CC715D4800F0DAFF11
:10347000EA6869682068FFF751FD40212068FFF77E
:1034800073FDA2E02368554A93421FD0B3F1804FE9
:103490001CD0A2F57C42934218D002F58062934280
:1034A00014D002F58062934210D002F57842934224
:1034B0000CD002F57052934208D0A2F59432934298
:1034C00004D040F6D671464800F0ACFF00212068D9
:1034D000FFF74AFD79E02368404A93421FD0B3F1D9
:1034E000804F1CD0A2F57C42934218D002F5806236
:1034F000934214D002F58062934210D002F57842D4
:1035000093420CD002F57052934208D0A2F5943247
:10351000934204D040F6DC71314800F083FF102163
:103520002068FFF721FD50E023682C4A93421FD00A
:10353000B3F1804F1CD0A2F57C42934218D002F523
:103540008062934214D002F58062934210D002F55B
:10355000784293420CD002F57052934208D0A2F503
:103560009432934204D040F6E2711D4800F05AFFB5
:1035700020212068FFF7F8FC27E02368174A9342D0
:103580001FD0B3F1804F1CD0A2F57C42934218D0DB
:1035900002F58062934214D002F58062934210D00B
:1035A00002F5784293420CD002F57052934208D053
:1035B000A2F59432934204D040F6E871084800F036
:1035C00031FF30212068FFF7CFFC012384F8393028
:1035D000002084F8380038BD022038BD00000140CA
:1035E000B4BC0008704700BF704700BF704700BF01
:1035F000704700BF704700BF10B5044603681A69E2
:1036000012F0020F17D0DA6812F0020F13D06FF029
:1036100002021A610123037603689B6913F0030F0A
:1036200002D0FFF7E3FF04E0FFF7DEFF2046FFF7DD
:10363000DFFF0023237623681A6912F0040F19D0E4
:10364000DA6812F0040F15D06FF004021A61022339
:10365000237623689B6913F4407F03D02046FFF74D
:10366000C5FF05E02046FFF7BFFF2046FFF7C0FF7C
:103670000023237623681A6912F0080F19D0DA683C
:1036800012F0080F15D06FF008021A610423237698
:103690002368DB6913F0030F03D02046FFF7A6FF72
:1036A00005E02046FFF7A0FF2046FFF7A1FF00231B
:1036B000237623681A6912F0100F19D0DA6812F015
:1036C000100F15D06FF010021A61082323762368BB
:1036D000DB6913F4407F03D02046FFF787FF05E046
:1036E0002046FFF781FF2046FFF782FF0023237665
:1036F00023681A6912F0010F09D0DA6812F0010F7D
:1037000005D06FF001021A612046FFF76BFF2368B6
:103710001A6912F0800F09D0DA6812F0800F05D014
:103720006FF080021A61204600F09EF923681A6942
:1037300012F0400F09D0DA6812F0400F05D06FF098
:1037400040021A612046FFF755FF23681A6912F0FC
:10375000200F09D0DA6812F0200F05D06FF0200298
:103760001A61204600F07EF910BD00BF0368454A8B
:10377000904214D0B0F1804F13D0A2F57C42904219
:1037800011D002F5806290420FD002F58062904223
:103790000DD002F5784290420BD101220AE00122BD
:1037A00008E0012206E0012204E0012202E00122F9
:1037B00000E000221AB123F070034A681343314A33
:1037C00090422CD0B0F1804F2BD0A2F57C42904299
:1037D00029D002F58062904227D002F580629042A3
:1037E00025D002F57842904223D002F570529042E3
:1037F00021D002F5806290421FD002F58062904293
:103800001DD0A2F5983290421BD002F58062904202
:1038100019D002F58062904217D1012216E00122F0
:1038200014E0012212E0012210E001220EE0012248
:103830000CE001220AE0012208E0012206E0012258
:1038400004E0012202E0012200E000221AB123F488
:103850004073CA68134303608B68C3620B6883625A
:10386000084B984205D003F58063984203D10123A9
:1038700002E0012300E000230BB10B690363012385
:10388000436170470000014000286DD010B5044628
:103890000368364A934236D0B3F1804F33D0A2F555
:1038A0007C4293422FD002F5806293422BD002F5E6
:1038B0008062934227D002F58062934223D002F5C2
:1038C000806293421FD002F5704293421BD002F5F2
:1038D0007052934217D002F58062934213D002F5E2
:1038E000806293420FD0A2F5983293420BD002F53A
:1038F0008062934207D002F58062934203D0D921BF
:103900001B4800F08FFDA3685BB1102B09D0202B62
:1039100007D0402B05D0602B03D0DA21144800F0EB
:1039200081FD23694BB1B3F5807F06D0B3F5007FED
:1039300003D0DB210E4800F075FD94F8393013F008
:10394000FF0F05D1002384F83830204605F068F9D0
:10395000022384F83930211D2068FFF707FF012377
:1039600084F83930002010BD01207047000001406C
:10397000B4BC000838B504460D460368374A934284
:1039800027D0B3F1804F24D0A2F57C42934220D0BF
:1039900002F5806293421CD002F58062934218D0F7
:1039A00002F58062934214D002F58062934210D0F7
:1039B00002F5704293420CD002F57052934208D047
:1039C000A2F59432934204D04FF4CB61244800F026
:1039D00029FD2B6893B1102B10D0202B0ED0302B4B
:1039E0000CD0402B0AD0502B08D0602B06D0702B67
:1039F00004D040F259611A4800F014FD6B68802B26
:103A000005D023B140F25A61154800F00BFD94F83F
:103A10003830012B1FD0012284F83820022384F88B
:103A2000393021684B6823F070034B602168486887
:103A30002B6803434B6021688B6823F080038B6005
:103A4000216888686B6803438B6084F83920002004
:103A500084F8380038BD022038BD00BF00000140A6
:103A6000E4BC0008704700BF704700BF90F83930D1
:103A7000DBB2212B2AD18368B3F5805F0FD1036AB3
:103A800002681B88C3F30803536003691BB9036A08
:103A90000233036209E0036A0133036205E002684E
:103AA000036A591C01621B785360C38C013B9BB2B3
:103AB000C3846BB90268D36823F08003D3600268C3
:103AC000D36843F04003D360002070470220704762
:103AD000002070472DE9F84304464268B14B9A42F2
:103AE00004D940F2DD61B04800F09CFCE3683BB1D2
:103AF000B3F5005F04D040F2DE61AB4800F092FC09
:103B0000236953B1B3F5806F07D0B3F5C06F04D00C
:103B100040F2DF61A44800F085FC63694FF6F37260
:103B2000134200D123B94FF4DC619F4800F07AFCC6
:103B300021680B6923F44052E36813430B6120684A
:103B4000C36823F4164222F00C02A16823691943CA
:103B500063691943E3690B431343C36021684B69ED
:103B600023F44072A36913434B61E369B3F5004F3B
:103B700040F0BB80276803F1804303F510439F4268
:103B800003D003F580639F4257D1FDF793FF00EB0D
:103B9000800000EB800065686D00B0FBF5F5834E9A
:103BA000A6FB05356D092D01FDF784FF00EB8000B4
:103BB00000EB800063685B00B0FBF3F9FDF77AFF70
:103BC00000EB800000EB800063685B00B0FBF3F368
:103BD000A6FB03235B094FF0640808FB1393DB008B
:103BE0003233A6FB03235B095B0003F4F8731D4427
:103BF000FDF760FF00EB800000EB800063685B0076
:103C0000B0FBF3F9FDF756FF00EB800000EB8000FE
:103C100063685B00B0FBF3F3A6FB03235B0908FBBF
:103C200013984FEAC80808F13208A6FB0836C6F315
:103C300042163544BD60BDE8F883FDF723FF00EB75
:103C4000800000EB800065686D00B0FBF5F5574E15
:103C5000A6FB05356D092D01FDF714FF00EB800073
:103C600000EB800063685B00B0FBF3F9FDF70AFF2F
:103C700000EB800000EB800063685B00B0FBF3F3B7
:103C8000A6FB03235B094FF0640808FB1393DB00DA
:103C90003233A6FB03235B095B0003F4F8731D4476
:103CA000FDF7F0FE00EB800000EB800063685B0036
:103CB000B0FBF3F9FDF7E6FE00EB800000EB8000BF
:103CC00063685B00B0FBF3F3A6FB03235B0908FB0F
:103CD00013984FEAC80808F13208A6FB0836C6F365
:103CE00042163544BD60BDE8F8832668304B9E42DD
:103CF00003D003F580639E425CD1FDF7DBFE00EB51
:103D0000800000EB80006568AD00B0FBF5F5274F43
:103D1000A7FB05356D092D01FDF7CCFE00EB8000FA
:103D200000EB800063689B00B0FBF3F8FDF7C2FE78
:103D300000EB800000EB800063689B00B0FBF3F3B6
:103D4000A7FB03235B094FF0640909FB13831B01E5
:103D50003233A7FB03235B0903F0F0031D44FDF797
:103D6000A9FE00EB800000EB800063689B00B0FBC5
:103D7000F3F8FDF79FFE00EB800000EB8000636826
:103D80009B00B0FBF3F3A7FB03235B0909FB138341
:103D90001B013233A7FB0323C3F343131D44B56058
:103DA000BDE8F883A037A00018BD00081F85EB51BF
:103DB00000100140FDF766FE00EB800000EB800084
:103DC0006568AD00B0FBF5F5254FA7FB05356D091E
:103DD0002D01FDF757FE00EB800000EB80006368CB
:103DE0009B00B0FBF3F8FDF74DFE00EB800000EB0D
:103DF000800063689B00B0FBF3F3A7FB03235B0920
:103E00004FF0640909FB13831B013233A7FB032323
:103E10005B0903F0F0031D44FDF734FE00EB800066
:103E200000EB800063689B00B0FBF3F8FDF72AFE0F
:103E300000EB800000EB800063689B00B0FBF3F3B5
:103E4000A7FB03235B0909FB13831B013233A7FB89
:103E50000323C3F343131D44B560BDE8F88300BFDB
:103E60001F85EB51002800F0868010B50446836959
:103E70001BB30368414A93420FD0A2F54C429342D0
:103E80000BD002F58062934207D002F54C42934278
:103E900003D0FB213A4800F0C5FAA36953B3B3F548
:103EA000807F27D0B3F5007F24D0B3F5407F21D0A9
:103EB000FC21334800F0B6FA1CE003682F4A934215
:103EC00018D0A2F54C42934214D002F5806293427E
:103ED00010D002F5806293420CD002F580629342CA
:103EE00008D002F54442934204D04FF48071244834
:103EF00000F098FAA3683BB1B3F5805F04D04FF4AB
:103F000081711F4800F08EFAE3693BB1B3F5004FB1
:103F100004D040F203111A4800F084FA94F83930C2
:103F200013F0FF0F05D1002384F83830204604F049
:103F3000AFFE242384F839302268D36823F4005379
:103F4000D3602046FFF7C6FD2268136923F490432F
:103F500013612268536923F02A0353612268D368EE
:103F600043F40053D3600020E063202384F8393009
:103F700084F83A3010BD0120704700BF00100140A6
:103F800018BD0008704700BF08B50168CB6823F072
:103F90004003CB60202380F83930FFF7F3FF002087
:103FA00008BD00BF704700BF08B590F83A30DBB2DB
:103FB000222B43D18368B3F5805F13D1826A0369F2
:103FC00043B903685B68C3F308031380836A023351
:103FD000836218E003685B68DBB21380836A013395
:103FE000836210E0036933B9836A5A1C82620268F3
:103FF00052681A7007E0826A531C836203685B6828
:1040000003F07F031370C38D013B9BB2C385BBB923
:104010000268D36823F02003D3600268D36823F4D6
:104020008073D3600268536923F001035361202336
:1040300080F83A30FFF7B6FF002008BD022008BD27
:10404000002008BD704700BF10B584B00446036867
:104050001968DA6811F0010F0DD002F4807252B1C4
:10406000002200921A6800925A680092009AC26B6D
:1040700042F00102C26319685A6902F0010211F0AC
:10408000020F0BD052B1002201921A6801925A68B5
:104090000192019AE26B42F00402E26319685A69E4
:1040A00002F0010211F0040F0BD052B10022029273
:1040B0001A6802925A680292029AE26B42F0020275
:1040C000E26319685A6902F0010211F0080F0BD07F
:1040D00052B1002203921A6803925A680392039A1B
:1040E000E26B42F00802E2631A68DB6803F0200327
:1040F00012F0200F03D013B12046FFF755FF2368BD
:104100001A68DB6803F0800312F0800F03D013B14C
:104110002046FFF7ABFC23681A68DB6803F0400316
:1041200012F0400F03D013B12046FFF72DFFE36BD1
:104130003BB1202384F8393084F83A302046FFF729
:1041400081FF04B010BD00BF84B02DE9F0470546E3
:1041500009A880E80E002D4B9D4203D0DD212C489C
:1041600000F060F9DDF824A0BAF1000F06D0BAF52E
:10417000005F03D0DE21264800F054F90A9C34B1D8
:10418000B4F5806F03D0DF21214800F04BF9DDF852
:104190002C90B9F1000F06D0B9F5007F03D0E021D3
:1041A0001B4800F03FF90C9E4EB1B6F5006F06D0EB
:1041B000B6F5805F03D0E121154800F033F9DDF852
:1041C0003480B8F1000F06D0B8F5804F03D0E2215B
:1041D0000F4800F027F90E9FFF2F03D9E3210C4869
:1041E00000F020F94AEA040349EA0303334348EAAA
:1041F00003033B436A6822F4FD4222F07F0213432B
:104200006B600020BDE8F04704B07047002C01400F
:1042100048BD0008D0F88000704700BF0B68C0F8A8
:1042200080300020704700BF0323036000207047E8
:10423000006800F00300704738B505460C464B682F
:104240003F2B04D94FF4B4711B4800F0EBF8A3687E
:1042500043B1402B06D0C02B04D040F26911164860
:1042600000F0E0F8E36853B1B3F5807F07D0B3F511
:10427000007F04D04FF4B5710F4800F0D3F82369E4
:104280003BB1B3F5806F04D040F26B110A4800F0E7
:10429000C9F82368AB606168A3681943E3680B43FE
:1042A000226943EA0201EA6822F47F6323F00F03E4
:1042B0000B43EB60002038BD48BD00080069C0B268
:1042C000704700BF10B582B000230193044650B17F
:1042D000042808D0082806D00C2804D04FF4CB714D
:1042E000044800F09FF8044B23440193019B186895
:1042F00002B010BD48BD0008142C014038B5054679
:104300000C464B68B3F1007F04D340F2AB1129484F
:1043100000F088F8A36803B3102B1ED0202B1CD00C
:10432000302B1AD0402B18D0502B16D0602B14D025
:10433000702B12D0802B10D0902B0ED0A02B0CD035
:10434000B02B0AD0C02B08D0D02B06D0E02B04D045
:104350004FF4D671174800F065F8E36833B1022BCB
:1043600004D040F2AD11134800F05CF8236933B17A
:10437000042B04D04FF4D7710E4800F053F8636952
:10438000012B04D940F2AF110A4800F04BF8236822
:104390006B626368AB62A268E3681A4323691343E4
:1043A00062691A43EB6A23F0F7031343EB620020C0
:1043B00038BD00BF48BD0008FEE700BF08B5034890
:1043C00000F052F80120FFF7F7FF00BF78BD0008AA
:1043D00008B50D4B1B6813B90C4A0B4B1A600A4BFE
:1043E0001A68C31C23F00303134409498B4206D9FE
:1043F00004F03EFF0C2303604FF0FF3008BD02497C
:104400000B60104608BD00BFC4000020C04A002059
:1044100000FC012001230360014B0B60704700BFCB
:104420000400002008B50A460146024800F004F8DE
:10443000FFF7C4FFCCBD00080FB400B583B004ABD8
:1044400053F8042B01938021064805F0BDFE002897
:1044500003DD0146034800F049F803B05DF804EBC2
:1044600004B07047CC00002010B5044605F02AF8CF
:104470000146204600F03AF80121024800F036F8E3
:1044800010BD00BFBCBE00082DE9F04385B0044656
:104490000F46435613BB042528462146ABBE0446AF
:1044A0001FE03546102E28BF1025002306E014F922
:1044B000011B04AA1A4402F8101C0133AB42F6D3C4
:1044C00004AA1344002203F8102CE9464FF0040814
:1044D00040464946ABBE8046761B00E00E46002EA5
:1044E000DFD1384605B0BDE8F08300BF08B5FFF75F
:1044F000CBFF08BD08B500F095F8024B024A9A6060
:1045000008BD00BF00ED00E00000000808B500F0A5
:10451000A9F808BDF8B504460D4617461E462648BC
:10452000FFF78AFF21682548FFF786FF6168244866
:10453000FFF782FFA1682348FFF77EFFE16822486A
:10454000FFF77AFF21692148FFF776FF616920486C
:10455000FFF772FFA1691F48FFF76EFFE1691E4870
:10456000FFF76AFF1D48FFF767FF29461C48FFF762
:1045700063FF1C4CE16A1C48FFF75EFF216B1B4880
:10458000FFF75AFFE16B1A48FFF756FF15F0800F4F
:1045900003D039461748FFF74FFF15F4004F03D0FB
:1045A00031461548FFF748FF1448FFF745FF0699C5
:1045B0001348FFF741FFF8BD24BE000834BE0008D1
:1045C00044BE000854BE000864BE000874BE000863
:1045D00084BE000894BE0008A4BE0008B4BE000853
:1045E000C0BE000800ED00E0D0BE0008E0BE00083C
:1045F000F0BE000800BF000810BF000820BF000880
:1046000028BF000883691A888A4207D10268033AE2
:10461000012A05D8023383610120704700207047CA
:10462000002070470C4B1A6842F001021A6000210A
:1046300099601A6822F0847222F480321A60074A64
:104640005A601A6822F480221A60D9604FF0006222
:10465000034B9A60704700BF0038024010300024BE
:1046600000ED00E0224B9B6803F00C03042B07D005
:10467000082B09D0002B2DD11E4A1F4B1A602CE0AD
:104680001E4A1D4B1A6028E0194B5A685B6803F0FC
:104690003F0312F4800F09D0184AB2FBF3F2144B17
:1046A0005B68C3F3881303FB02F208E0114AB2FB14
:1046B000F3F30F4A5168C1F3881101FB03F20C4B6D
:1046C0005B68C3F3014301335B00B2FBF3F30A4AB7
:1046D000136002E0074A084B1A60054B9B68C3F35E
:1046E0000313074AD15C044A1368CB401360704738
:1046F000003802400024F4000C00002000127A0070
:104700006CBF0008C3B2A3F13002D2B2092A01D8AB
:1047100030387047A3F16102D2B2052A01D8573868
:104720007047413BDBB2052B01D8373870474FF05B
:10473000FF30704790F9003083B32DE9F04190F9D4
:1047400001406CB390F902606EB390F903706FB3DF
:104750000D461846FFF7D6FF80462046FFF7D2FFEA
:1047600004463046FFF7CEFF06463846FFF7CAFF3D
:10477000B8F1FF3F1DD0B4F1FF3F1DD0B6F1FF3FB0
:104780001DD0B0F1FF3F1DD0230243EA083343EAB6
:104790000613184328600120BDE8F081002070470F
:1047A0000020BDE8F0810020BDE8F0810020BDE8D8
:1047B000F0810020BDE8F0810020BDE8F0810020FC
:1047C000BDE8F0810020BDE8F08100BF00F14003AA
:1047D000DBB2012B16D9F42816D800F0C003802BC9
:1047E00014D010F0800F13D000F0E003C02B11D0D4
:1047F00000F0F003E02B0FD000F0F800F0280DD10E
:104800000420704700207047002070470020704748
:104810000120704702207047032070470020704736
:1048200038B504460D460078FFF7D0FF2860012810
:1048300001D1237846E002280CD1627802F0C0034F
:10484000802B07D1237803F01F0302F03F0242EAD6
:10485000831337E0032815D1637803F0C002802A60
:1048600010D1A27802F0C00180290BD1217801F08B
:104870000F0103F03F0343EA811302F03F0242EAD3
:1048800083131FE0042835D1637803F0C002802A27
:1048900032D1A17801F0C002802A2FD1E27802F053
:1048A000C005802D2CD1247804F0070403F03F03C9
:1048B00043EA841301F03F0141EA831302F03F020F
:1048C00042EA83137F2B01D801281BDCB3F5006F6C
:1048D00001D2022818DCB3F5803F01D2032815DC91
:1048E000B3F5881F14D2A3F55843B3F5006F11D266
:1048F000002038BD002038BD002038BD002038BD64
:10490000002038BD002038BD002038BD002038BD53
:10491000002038BD012038BD30B583B004460023E7
:104920000193451807E001A92046FFF779FF0346E8
:1049300020B1019B1C44AC42F5D30123184603B0BF
:1049400030BD00BF10B50446064B1B6814209847C5
:1049500030B104600022426082600261C26010BD1A
:10496000002010BD1400002010B50446064B1B6843
:104970001020984728B1046000224260C260826023
:1049800010BD002010BD00BF1400002010B504466B
:10499000064B1B681020984728B1002202600222B3
:1049A0004260846010BD002010BD00BF14000020D4
:1049B000036893F90020222A16D1013303600AE02C
:1049C000ABB15C2B04D1531C036092F901308BB165
:1049D000036801330360026892F90030222BEFD1A3
:1049E00001320260002070474FF0FF3070474FF0F7
:1049F000FF3070474FF0FF30704700BF2DE9F043A4
:104A000083B0074688460E68D0F8009009F101058A
:104A100001A92846FFF78EFE00286FD0019C7F2C4D
:104A200001D8347064E0B4F5006F0CD2C4F3841480
:104A300064F03F043470019B03F03F0363F07F0395
:104A40007370013654E0A4F55843B3F5006F14D3E6
:104A5000C4F3033464F01F04324602F8024B019B96
:104A6000C3F3851363F07F037370019B03F03F036F
:104A700063F07F03B37016463AE0B3F5806F40D21F
:104A800099F905305C2B3FD109F1070599F90630FA
:104A9000752B3CD169462846FFF74CFE002839D0DB
:104AA000009BB3F55C4F38D3B3F5604F38D21F4A43
:104AB00002EA8424C3F30903234303F580330193FB
:104AC000C3F3824363F00F033370019BC3F30533D9
:104AD00063F07F037370019BC3F3851363F07F035F
:104AE000B370019B03F03F0363F07F03F370033661
:104AF0000335C8F800603D60002013E04FF0FF3040
:104B000010E04FF0FF300DE04FF0FF300AE04FF0C3
:104B1000FF3007E04FF0FF3004E04FF0FF3001E0DE
:104B20004FF0FF3003B0BDE8F08300BF00FC0F0082
:104B300070B582B005460C460190494B1B68481C75
:104B400098470646009067E05C2B5AD1531C0193AE
:104B500092F90130223B532B7BD8DFE803F02A7A0D
:104B60007A7A7A7A7A7A7A7A7A7A7A327A7A7A7AED
:104B70007A7A7A7A7A7A7A7A7A7A7A7A7A7A7A7A95
:104B80007A7A7A7A7A7A7A7A7A7A7A7A7A7A7A7A85
:104B90007A7A7A7A7A7A7A7A2E7A7A7A7A7A367A05
:104BA0007A7A3A7A7A7A7A7A7A7A3E7A7A7A427A19
:104BB000464A2222009B1A7028E05C22009B1A7051
:104BC00024E02F22009B1A7020E00822009B1A701C
:104BD0001CE00C22009B1A7018E00A22009B1A703D
:104BE00014E00D22009B1A7010E00922009B1A703D
:104BF0000CE0694601A8FFF701FFB0F1FF3F05D1C6
:104C000027E0DAB21F2A24D9009A1370009B0133DF
:104C10000093019B01330193019A92F9003013B183
:104C2000511B8C4290D80022009B1A70009DAD1B36
:104C300001350B4B1B6828469847044648B12A4665
:104C4000314604F02BFB074B1B6830469847204643
:104C500004E0044B1B6830469847002002B070BD4A
:104C6000140000201000002038B504460568FFF746
:104C70009FFE30B92168491B0239681CFFF758FFB5
:104C800038BD002038BD00BF10B5FFF7EDFF48B1BB
:104C90000446FFF77BFE38B9044B1B682046984753
:104CA000002010BD002010BD10BD00BF100000206E
:104CB000436813B98268002A3DD113B18368002B81
:104CC0003CD000293DD02DE9F0410D460446204B53
:104CD0001B688E00304698470746002834D01C4B8E
:104CE0001B6830469847804638B91A4B1B683846CF
:104CF00098474FF0FF30BDE8F081616869B1A36863
:104D00005BB1E2684AB19200384604F0C7FAE26843
:104D10009200A168404604F0C1FA0E4E3368606804
:104D200098473368A06898476760C4F80880256191
:104D30000020BDE8F0814FF0FF3070474FF0FF30AA
:104D400070474FF0FF3070474FF0FF30BDE8F08103
:104D50001400002010000020B9B170B50E460446C2
:104D60000D4B1B6888009847054688B1616821B1E2
:104D7000A26812B1920004F091FA084B1B686068B7
:104D800098476560E660002070BD4FF0FF307047C7
:104D90004FF0FF3070BD00BF140000201000002055
:104DA00070B506460D46084B1B68481C984740B135
:104DB0000446002343552A46314604F0A0FB204612
:104DC00070BD002070BD00BF1400002010B5044667
:104DD00004F078FB01462046FFF7E2FF10BD00BF5C
:104DE00070B506460C46012907D990F90030302BE2
:104DF00003D190F901302E2B18D1022C11D90222A7
:104E00000D49304604F066FB034650B996F902207E
:104E10002E2A0ED105E07157084804F033FB2C46CA
:104E200030B9651E002CF6D1012302E0002300E01A
:104E30000023184670BD00BF7CBF000880BF00087B
:104E400008B518B9084604F03DFB08BD0A460249FA
:104E500004F0F4FA08BD00BF84BF0008F8B50446AA
:104E60000F460026354609E008492046FFF7E8FFCF
:104E7000002807DB04B1044406440135BD42F3DBDE
:104E80003046F8BD4FF0FF30F8BD00BF88BF0008C6
:104E90002DE9F04180460D4604F014FB0746954984
:104EA0002846FFF7CDFF061EC0F2208205B135442B
:104EB00000240EE218F904305C2B00F20582DFE8D2
:104EC00013F0B500C000CB00D600E100EC00F70005
:104ED00002017E00AA0094000D0189009F003D019F
:104EE000480153015E01690174017F018A01950146
:104EF000A001AB01B601C101CC01D701E201ED0176
:104F0000F801030203025D0003020302030203022D
:104F10000302030203020302030203020302030269
:104F200073000302030203020302030203020302EB
:104F30000302030203020302030203020302030249
:104F40000302030203020302030203020302030239
:104F50000302030203020302030203020302030229
:104F60000302030203020302030203020302030219
:104F70000302030203020302030268005E4928469B
:104F8000FFF75EFF0028C0F2B58105B10544064475
:104F90009EE15A492846FFF753FF0028C0F2AE8130
:104FA00005B10544064493E155492846FFF748FFFB
:104FB0000028C0F2A78105B10544064488E15149A3
:104FC0002846FFF73DFF0028C0F2A08105B1054447
:104FD00006447DE14C492846FFF732FF0028C0F225
:104FE000998105B10544064472E148492846FFF716
:104FF00027FF0028C0F2928105B10544064467E10D
:1050000043492846FFF71CFF0028C0F28B8105B1F9
:10501000054406445CE13F492846FFF711FF00289C
:10502000C0F2848105B10544064451E13A4928465D
:10503000FFF706FF0028C0F27D8105B10544064454
:1050400046E136492846FFF7FBFE0028C0F276818C
:1050500005B1054406443BE131492846FFF7F0FE1F
:105060000028C0F26F8105B10544064430E12D49A6
:105070002846FFF7E5FE0028C0F2688105B1054427
:10508000064425E128492846FFF7DAFE0028C0F249
:10509000618105B1054406441AE124492846FFF719
:1050A000CFFE0028C0F25A8105B1054406440FE145
:1050B0001F492846FFF7C4FE0028C0F2538105B1FE
:1050C0000544064404E11B492846FFF7B9FE0028C1
:1050D000C0F24C8105B105440644F9E01649284662
:1050E000FFF7AEFE0028C0F2458105B10544064435
:1050F000EEE000BF90BF000894BF000898BF000812
:105100009CBF0008A0BF0008A4BF0008A8BF0008FB
:10511000ACBF0008B0BF0008B4BF0008BCBF0008A7
:10512000C4BF0008CCBF0008D4BF0008DCBF000823
:10513000E4BF0008ECBF0008F4BF0008B5492846EA
:10514000FFF77EFE0028C0F2198105B10544064430
:10515000BEE0B1492846FFF773FE0028C0F2128175
:1051600005B105440644B3E0AC492846FFF768FEA4
:105170000028C0F20B8105B105440644A8E0A84907
:105180002846FFF75DFE0028C0F2048105B1054402
:1051900006449DE0A3492846FFF752FE0028C0F2CE
:1051A000FD8005B10544064492E09F492846FFF77B
:1051B00047FE0028C0F2F68005B10544064487E0AA
:1051C0009A492846FFF73CFE0028C0F2EF8005B15F
:1051D000054406447CE096492846FFF731FE002846
:1051E000C0F2E88005B10544064471E091492846C3
:1051F000FFF726FE0028C0F2E18005B10544064411
:1052000066E08D492846FFF71BFE0028C0F2DA80D1
:1052100005B1054406445BE088492846FFF710FEC7
:105220000028C0F2D38005B10544064450E084490B
:105230002846FFF705FE0028C0F2CC8005B10544E2
:10524000064445E07F492846FFF7FAFD0028C0F2F2
:10525000C58005B1054406443AE07B492846FFF77E
:10526000EFFD0028C0F2BE8005B1054406442FE0E2
:1052700076492846FFF7E4FD0028C0F2B78005B163
:105280000544064424E072492846FFF7D9FD00286A
:10529000C0F2B08005B10544064419E06D492846C6
:1052A000FFF7CEFD0028C0F2A98005B105440644F1
:1052B0000EE069492846FFF7C3FD0028C0F2A2802E
:1052C00005B10544064403E00DB105F8013B013684
:1052D0000134BC42FFF4EEAD60492846FFF7B0FD53
:1052E0000028C0F293803044BDE8F0814FF0FF30D9
:1052F000BDE8F0814FF0FF30BDE8F0814FF0FF30A6
:10530000BDE8F0814FF0FF30BDE8F0814FF0FF3095
:10531000BDE8F0814FF0FF30BDE8F0814FF0FF3085
:10532000BDE8F0814FF0FF30BDE8F0814FF0FF3075
:10533000BDE8F0814FF0FF30BDE8F0814FF0FF3065
:10534000BDE8F0814FF0FF30BDE8F0814FF0FF3055
:10535000BDE8F0814FF0FF30BDE8F0814FF0FF3045
:10536000BDE8F0814FF0FF30BDE8F0814FF0FF3035
:10537000BDE8F0814FF0FF30BDE8F0814FF0FF3025
:10538000BDE8F0814FF0FF30BDE8F0814FF0FF3015
:10539000BDE8F0814FF0FF30BDE8F0814FF0FF3005
:1053A000BDE8F0814FF0FF30BDE8F0814FF0FF30F5
:1053B000BDE8F0814FF0FF30BDE8F0814FF0FF30E5
:1053C000BDE8F0814FF0FF30BDE8F0814FF0FF30D5
:1053D000BDE8F0814FF0FF30BDE8F0814FF0FF30C5
:1053E000BDE8F0814FF0FF30BDE8F0814FF0FF30B5
:1053F000BDE8F0814FF0FF30BDE8F0814FF0FF30A5
:10540000BDE8F0814FF0FF30BDE8F0814FF0FF3094
:10541000BDE8F081FCBF000804C000080CC0000813
:1054200014C000081CC0000824C000082CC00008DC
:1054300034C000083CC0000844C000084CC000084C
:1054400054C000085CC0000864C000086CC00008BC
:1054500074C000087CC0000884C0000890BF000829
:1054600008B1C06870470020704700BF2DE9F843BD
:10547000064689461746002415E073684FEA8408FB
:1054800053F82450284604F01DF8B8420AD13A4691
:105490004946284604F01EF820B9B36853F80800BE
:1054A000BDE8F88301343046FFF7DAFF8442E4D3E5
:1054B0000020BDE8F88300BF60B138B561B1054692
:1054C0000C46084603F0FEFF024621462846FFF739
:1054D000CDFF38BD00207047002038BD50B138B531
:1054E00005460C46FFF7BCFFA04205D96B6853F890
:1054F000240038BD00207047002038BD0068704788
:1055000098B32DE9F041044691B3AAB316460D466F
:10551000FFF7D2FFA0BBE26823699A420CD359007F
:105520000F2938BF0F21B1F5707F2DD82046FFF726
:10553000BFFBB0F1FF3F2DD0E768D4F804802846C8
:10554000FFF744FC48F82700636853F82730FBB1A5
:105550002046FFF7D3FF3060A36843F82760E36875
:105560000133E3600020BDE8F0814FF0FF30704769
:105570004FF0FF30BDE8F0814FF0FF30BDE8F08123
:105580004FF0FF30BDE8F0814FF0FF30BDE8F08113
:105590004FF0FF30BDE8F08108B18068704700200F
:1055A000704700BF50B138B505460C46FFF7F4FF11
:1055B000A04205D96B6853F8240038BD002070471D
:1055C000002038BD0068704738B504460D46836832
:1055D000C1688B420BD349000F2938BF0F21B1F5A9
:1055E000F03F11D8FFF7B8FBB0F1FF3F0ED02046D7
:1055F000FFF7E8FF28606368A26843F82250A368B9
:105600000133A360002038BD4FF0FF3038BD00BF2C
:1056100008B1406870474FF0FF30704710B504463E
:10562000FFF7F6FF042801D1A06810BD002010BDCF
:1056300010B50446FFF7ECFF052801D1A06810BDA6
:10564000002010BD10B50446FFF7E2FF022801D18B
:10565000A06810BD002010BD08B5FFF72DFFFFF7B3
:10566000F1FF08BD10B50446FFF7D2FF032802D1B1
:10567000D4E9020110BD0020002110BD08B5FFF7DC
:105680001BFFFFF7EFFF08BD10B50446FFF7C0FF93
:10569000062801D1A06810BD4FF0FF3010BD00BF3B
:1056A0002DE9F04F85B006460C4617461D46DDF83D
:1056B0003890FFF7ADFF0138052800F29681DFE84A
:1056C00010F08B010F013601770006001E013046F5
:1056D000FFF7AEFF8346FFF75FFF8246B1492046E2
:1056E000FFF7AEFB061EC0F2838104B13444BAF169
:1056F000000F0AD04DB1AC492046FFF7A1FB0028AE
:10570000C0F2798104B1044406444FF0000836E049
:105710004DB1791C2046FFF7A1FB0028C0F26E8135
:1057200004B10444064441465846FFF73BFFCDF818
:1057300000902B467A1C2146FFF7B2FF0028C0F2EA
:10574000608104B1044406440AF1FF33984509D24C
:1057500096492046FFF774FB0028C0F2558104B13A
:10576000044406444DB190492046FFF769FB0028E8
:10577000C0F24D8104B10444064408F10108D0454B
:10578000C6D3BAF1000F0AD04DB139462046FFF713
:1057900065FB0028C0F23E8104B1044406448449FC
:1057A0002046FFF74DFB0028C0F2378130445DE111
:1057B0003046FFF733FF0390FFF752FE83467D49E3
:1057C0002046FFF73DFB061EC0F22A8104B1344497
:1057D000BBF1000F0AD04DB173492046FFF730FBF3
:1057E0000028C0F2208104B1044406444FF00008B0
:1057F0005DE041460398FFF771FE8246002800F005
:1058000015814DB1791C2046FFF728FB0028C0F216
:10581000108104B10444064421465046FFF738FB8A
:105820000028C0F2098104B10444064462492046BC
:10583000FFF706FB0028C0F2028104B104440644CD
:105840004DB15E492046FFF7FBFA0028C0F2FA800E
:1058500004B10444064451460398FFF72DFECDF8E9
:1058600000902B467A1C2146FFF71AFF0028C0F251
:10587000EC8004B1044406440BF1FF33984509D28F
:105880004A492046FFF7DCFA0028C0F2E18004B163
:10589000044406444DB144492046FFF7D1FA00289C
:1058A000C0F2D98004B10444064408F10108D84587
:1058B0009FD3BBF1000F0AD04DB139462046FFF708
:1058C000CDFA0028C0F2CA8004B1044406443C4921
:1058D0002046FFF7B5FA0028C0F2C3803044C5E087
:1058E0003046FFF7AFFE002800F0BE802146FFF7EC
:1058F000CFFA002880F2BA804FF0FF30B6E0304691
:10590000FFF7C2FE48B12F492046FFF799FA002859
:1059100080F2AC804FF0FF30A8E02B492046FFF723
:105920008FFA002880F2A2804FF0FF309EE03046D0
:10593000FFF798FE06460F4604B1A14630463946A9
:1059400003F04EFC044603F05DFB02460B46304676
:10595000394603F013FC28B122461C49484603F09F
:105960006DFD19E03046394603F062FC044603F051
:1059700039FB02460B463046394603F0FFFB28B19F
:1059800022461349484603F059FD05E032463B469E
:105990001049484603F052FD002867DA4FF0FF3007
:1059A00064E000BF8CC00008BCBE000890C00008C6
:1059B00094C0000898C000089CC00008A0C000085F
:1059C000A4C00008A8C00008B0C00008B8C0000803
:1059D000BCC00008C0C0000826492046FFF730FAC6
:1059E000002843DA4FF0FF3040E04FF0FF303DE059
:1059F0004FF0FF303AE04FF0FF3037E04FF0FF302C
:105A000034E04FF0FF3031E04FF0FF302EE04FF048
:105A1000FF302BE04FF0FF3028E04FF0FF3025E063
:105A20004FF0FF3022E04FF0FF301FE04FF0FF302B
:105A30001CE04FF0FF3019E04FF0FF3016E04FF060
:105A4000FF3013E04FF0FF3010E04FF0FF300DE07B
:105A50004FF0FF300AE04FF0FF3007E04FF0FF302B
:105A600004E04FF0FF3001E04FF0FF3005B0BDE83B
:105A7000F08F00BFC4C0000810B50446FFF7C8FD92
:105A8000042804D005280BD002280CD103E0A0681C
:105A900000F010F807E0064B1B68A068984702E08A
:105AA000A06800F029F8024B1B682046984710BDFB
:105AB0001000002038B504460BE061680D4B1B68F0
:105AC00051F822009847A368E26853F82200FFF7D4
:105AD000D3FFE3685A1EE260002BEED1054D2B6820
