:020000040800F2
:10000000000002205D02000855880008578800089B
:10001000598800085B8800085D880008000000001F
:100020000000000000000000000000005F880008E1
:1000300061880008000000006388000865880008E7
:10004000E9020008E9020008E9020008E9020008E4
:10005000E9020008E9020008E9020008E9020008D4
:10006000E9020008E9020008E9020008E9020008C4
:10007000E9020008E9020008E9020008E9020008B4
:10008000E9020008E902000875880008E902000892
:10009000E9020008E9020008E9020008E902000894
:1000A000E9020008E9020008E9020008E902000884
:1000B00081880008E90200088D880008E90200082C
:1000C000E9020008E9020008E9020008E902000864
:1000D000E9020008E9020008E9020008998800081E
:1000E000E9020008E9020008E9020008E902000844
:1000F000E9020008E9020008E9020008E902000834
:10010000E9020008E9020008E9020008E902000823
:10011000E9020008E9020008E9020008E902000813
:10012000E9020008E9020008E9020008E902000803
:10013000E9020008E9020008E9020008E9020008F3
:10014000E9020008E9020008E9020008E9020008E3
:10015000E9020008E9020008E9020008E9020008D3
:10016000E9020008E9020008E9020008E9020008C3
:10017000E9020008E9020008E902000800000000A6
:10018000E9020008E902000807B502F0ADFE294BBC
:10019000294883420BD293E806000C3353F8044CF1
:1001A0009442F6D951F8045B42F8045BF8E7234B1C
:1001B000234900208B4208D253F8082B53F8044CF3
:1001C000A242F7D242F8040BFAE702F099FE01A925
:1001D000684602F081FE1B4C1B4BE41AA41000255C
:1001E0001E46AC4204DD56F8253098470135F8E745
:1001F000164B174CE41AA41000251E46AC4204DD31
:1002000056F8253098470135F8E79DE8030007F0D8
:1002100039FC104C104BE41A0646A4101D46002C65
:1002200004DD013C55F824309847F8E7304602F0E9
:1002300030FE00BFEC0200080403000804030008BD
:100240001403000814030008140300081403000832
:100250001403000814030008140300081E48004794
:10026000FEE71EF0040F0CBFEFF30880EFF30980E8
:1002700071461A4A104710B5084C236B9B070BD5E3
:10028000E36A002B08DA4BF6AB6102F04DFE18B1C1
:100290004FF00043E36210BDFEE700BF00ED00E059
:1002A000FEE71EF0040F0CBFEFF30880EFF30980A8
:1002B00071460B4A1047FEE71EF0040F0CBFEFF328
:1002C0000880EFF309807146064A1047FEE7FEE713
:1002D000FEE7FEE77047000089010008770200088A
:0A02E000B7020008CD020008FEE797
:1002EC00BCC0000800000020D8000020BCC00008E2
:1002FC000000001000000010D8000020E4A0012035
:08030C000000001000000010C9
:1003200010B5044600F0B0FE4FF47A73B0FBF3F062
:1003300000F0E4FA002221464FF0FF3000F08CFA82
:10034000002010BD08B50B4B1A6842F400721A6009
:100350001A6842F480621A601A6842F480721A6065
:10036000032000F067FA0020FFF7DAFF08F048F9F1
:10037000002008BD003C0240024A136801331360AC
:10038000704700BF2C030020014B1868704700BF66
:100390002C03002013B50190FFF7F6FF0446FFF78A
:1003A000F3FF019B001B9842F9D302B010BD00007F
:1003B00010B50446002800F09E80036C23B9436406
:1003C00080F83C3008F04CF9236CDB0600F18E809D
:1003D000236C23F4885323F0020343F002032364C5
:1003E000464B5A6822F440325A60596862680A43A0
:1003F0005A60236821695A68A06A22F480725A60A0
:100400005A6842EA01225A605A6822F040725A60E1
:100410005968A2680A435A609A6822F400629A6096
:100420009968E2680A439A60354A90420ED099680A
:1004300021F0706199609A6802439A609A6822F08C
:1004400040529A609968E26A0A4306E09A6822F08C
:1004500070629A609A6822F040529A609A68A16924
:1004600022F002029A609A6842EA41029A60226A85
:100470009AB15A6842F400625A605A6822F46042A3
:100480005A604FF4604292FAA2F2B2FA82F1626AC2
:100490005868013A8A40024302E05A6822F4006236
:1004A0005A60DA6A22F47002DA62E269D96A013AC1
:1004B00041EA0252DA629A68216B22F400729A6071
:1004C0009A6842EA41229A609A68616922F48062DD
:1004D0009A609A68002042EA81229A606064236CE4
:1004E00023F0030343F00103236400E00120002311
:1004F00084F83C3010BD012010BD00BF0023014036
:100500000100000F82B00023019390F83C30012BD2
:1005100053D0012380F83C3003689A68D10703D593
:100520009A68D20712D43DE09A68254942F0010248
:100530009A60244A1268B2FBF1F202EB4202019285
:10054000019A002AECD0019A013AF8E7026C22F4F1
:10055000E06222F0010242F4807202645A6851059E
:1005600041BF026C22F4405242F480520264026C99
:1005700012F480521CBF426C22F006024264002238
:1005800080F83C206FF002021A605A6842F08062E4
:1005900042F020025A600C4A5268D20604D00B4A3C
:1005A000934201D0002009E0986810F04050F9D142
:1005B0009A6842F080429A6000E0022002B07047E0
:1005C00040420F00080000200023014000200140AD
:1005D0000368D86C70477047704738B5036819686E
:1005E0005A688D0704462BD5900629D5226CD10672
:1005F0005EBF226C42F4007222649A6812F0405F7F
:1006000017D1A269AAB9DA6A12F4700F02D09A68F7
:1006100052050ED45A6822F020025A60236C23F44B
:1006200080732364236CDB045EBF236C43F00103FF
:100630002364204607F000FB23686FF012021A6063
:10064000236819685A684D0732D5100630D5226CD8
:10065000D1065EBF226C42F4005222649A6812F402
:10066000401F1ED19A6B12F4401F02D09A685205A7
:1006700017D45A68550514D49A6812F0405F10D107
:10068000A26972B95A6822F080025A60236C23F47E
:1006900080532364236CD8055EBF236C43F00103B1
:1006A0002364204600F0C4F823686FF00C021A603F
:1006B000236819685A68C9070FD555060DD51B68F8
:1006C000D8070AD5236C43F4803323642046FFF710
:1006D00082FF23686FF001021A60236819685A6864
:1006E00089060DD552010BD5626C6FF0200542F0E2
:1006F0000202626420461D60FFF76EFF23681D60E2
:1007000038BD0000F7B50023019390F83C30012B71
:1007100069D00D6804688F680123092D80F83C308A
:10072000AEB210D906EB4602D4F80CE0A2F11E03DB
:1007300007229A402EEA0202E260E26807FA03F317
:100740001343E3600EE0226905EB45034FF0070E0B
:100750000EFA03FE22EA0E022261226907FA03F36F
:10076000134323614B68062B4FEA83020DD81344D1
:10077000676B591F1F238B4027EA03036363626B78
:1007800006FA01F1114361631DE00C2B0ED81344EE
:10079000216BA3F123021F23934021EA0303236368
:1007A000236B06FA02F21A4322630CE01344E76A51
:1007B000413B1F229A4027EA0202E262E16A06FAFE
:1007C00003F20A43E262164B9C4204D0002380F8F5
:1007D0003C30184622E0122D07D1124A536843F4E8
:1007E0008003536001E0022018E0A5F11003012B03
:1007F000ECD80C4A5368102D43F400035360E5D144
:10080000094B0A4A1B68B3FBF2F20A2353430193D4
:10081000019B002BDAD0019B013BF8E703B0F0BD50
:1008200000200140002301400800002040420F004A
:1008300070470000074AD36823F4E0631B041B0CD5
:1008400043F0BF63000243F4003300F4E06003436D
:10085000D360704700ED00E0174BDB68C3F3022361
:1008600030B5C3F107041D1D042C28BF0424062D38
:100870004FF0010505FA04F404F1FF348CBF033B8B
:1008800000230C409C4005FA03F3013B1A4000286A
:1008900042EA04024FEA0212AFBF00F1604000F0EA
:1008A0000F00064BD2B2A5BF00F56140D2B21A5478
:1008B00080F8002330BD00BF00ED00E014ED00E043
:1008C0004209012300F01F0003FA00F0014B43F836
:1008D0002200704700E100E0BFF34F8F0549064B4F
:1008E000CA6802F4E0621343CB60BFF34F8F00BFCE
:1008F000FDE700BF00ED00E00400FA050138B0F1AB
:10090000807F0AD2064B074A5860F02182F82310F4
:100910000020072298601A6070470120704700BFCE
:1009200010E000E000ED00E0044B1A6804280CBF62
:1009300042F0040222F004021A60704710E000E066
:10094000704708B5FFF7FCFF08BD00002DE9F04F28
:100950006D4F0B68DFF8B8C1DFF8B88185B00022B1
:100960000193BE460124019B944034EA030340F006
:10097000C3804D6825F0100ABAF1020F14D14FEA76
:10098000D20900EB890902F0070BD9F820604FEA81
:100990008B0B0F2303FA0BF326EA03060B6903FA0A
:1009A0000BF33343C9F820304FEA420B4FF00309F1
:1009B000036809FA0BF96FEA090905F0030603EA6F
:1009C000090306FA0BF60AF1FF3A3343BAF1010FB5
:1009D00003600FD88368CE6809EA030306FA0BF6B2
:1009E0001E4386604368C5F3001623EA040396405D
:1009F00033434360C36809EA03098B6803FA0BF3C6
:100A000043EA0903C360EB0076D500230393DCF8C7
:100A100044603E4B46F48046CCF84460DCF84460C9
:100A200022F0030909F1804906F4804609F59C3952
:100A3000039602F0030A039ED9F808B04FEA8A0A27
:100A40000F2606FA0AF698422BEA060620D003F58E
:100A5000806398421ED003F5806398421CD003F552
:100A6000806398421AD003F58063984218D04045BD
:100A700018D003F50063984216D003F580639842BE
:100A800014D003F58063984214BF092308230EE0B5
:100A900000230CE001230AE0022308E0032306E020
:100AA000042304E0052302E0062300E0072303FA01
:100AB0000AF33343C9F808303B68E64315F4803F36
:100AC0000CBF33402343CEF80030DEF8043015F479
:100AD000003F0CBF334023437B60BB6815F4801F8D
:100AE0000CBF33402343CEF80830DEF80C30AD02A3
:100AF00054BF33402343FB600132102A7FF432AFEE
:100B000005B0BDE8F08F00BF003C0140000002408E
:100B1000003802400014024002B9090481617047A4
:100B200070B50446002863D090F83D3003F0FF0212
:100B30001BB980F83C2007F0BFFD22682D4D24230F
:100B400084F83D30136823F00103136000F0B6FA17
:100B5000636822682849B0FBF1F1AB422E4688BF9A
:100B60004FF49675516082BF69434FF47A75B1FBBB
:100B7000F5F1B34201F10101116208D85B00B0FB4D
:100B8000F3F0C0F30B03032B98BF042016E0A16819
:100B900049B903EB4303B0FBF3F0C0F30B0363B1BC
:100BA00040F400400AE019214B43B0FBF3F0C0F3DE
:100BB0000B0313B140F4404000E00120E169236AD7
:100BC000D0610B4313602169E3680B439360616953
:100BD000A3690B43D360136843F001031360002043
:100BE0002023206484F83D30206384F83E0070BDEB
:100BF000012070BDA086010040420F0003682DE96E
:100C0000F3410446D80703D42368990737D487E013
:100C1000A74B9A6802F00C02042A07D09A6802F0E7
:100C20000C02082A0BD15B685A0208D5A04B1B683E
:100C30009B03E9D56368002BE6D1012034E19D4B8D
:100C400022791A7063686BB1FFF79EFB984D0646D8
:100C50002B689F03D8D4FFF797FB801B6428F7D934
:100C6000032021E1FFF790FB914D06462B68980386
:100C7000CAD5FFF789FB801B6428F7D9F0E78C4BB6
:100C80009A6812F00C0F07D09A6802F00C02082A3A
:100C900017D15B68590214D4854B1A68920702D5A4
:100CA000E268012AC9D11A68F82191FAA1F12069F4
:100CB000B1FA81F100FA01F122F0F8020A431A6058
:100CC0002EE0E2687C4BEAB101221A60FFF75CFB80
:100CD000774D06462B6876489B0705D4FFF754FBF3
:100CE000801B0228F6D9BBE70368F82292FAA2F229
:100CF0002169B2FA82F201FA02F223F0F8031343F7
:100D000003600DE01A60FFF73FFB694D06462B6854
:100D10009F0705D5FFF738FB801B0228F7D99FE70F
:100D200023681E0703D423685D0745D51FE0626969
:100D3000624B72B101221A60FFF726FB5C4D06463A
:100D40006B6F9807EFD4FFF71FFB801B0228F7D9C2
:100D500086E71A60FFF718FB554D06466B6F99073B
:100D6000E1D5FFF711FB801B0228F7D978E70023B4
:100D700001934F4B524D1A6C42F080521A641B6C17
:100D800003F080530193019B2B6843F480732B6025
:100D9000FFF7FAFA06462B68DA0510D5494B227A96
:100DA0001A70A368BBB1FFF7EFFA414D064641F256
:100DB00088372B6F9B0708D5A269DAB959E0FFF78E
:100DC000E3FA801B0228E6D94AE7FFF7DDFA801B29
:100DD000B842EED944E7FFF7D7FA354D064641F25F
:100DE00088372B6F9807E7D5FFF7CEFA801BB842FC
:100DF000F7D935E72E4DAB6803F00C03082B3FF411
:100E00001CAF314E0023022A336041D1FFF7BCFAF8
:100E100080462B68264F99012DD447F6C07292FA6E
:100E2000A2F24FF44033B2FA82FE93FAA3F34FF0EA
:100E30007062B3FA83F592FAA2F2E069236AB2FA19
:100E400082F1626A034302FA0EF243EA0200A36AE5
:100E50005A08013A02FA05F3E26A03438A4013434F
:100E60007B6001233360FFF78FFA04463B689A01E9
:100E700008D5002018E0FFF787FAC8EB0000022829
:100E8000C7D9EDE6FFF780FA001B0228EED9E7E6A6
:100E9000FFF77AFA04462B689B01EAD5FFF774FA4C
:100EA000001B0228F7D9DBE602B0BDE8F08100BFE5
:100EB000003802400238024000004742800E47429C
:100EC0000070004070380240600047424D4B1A6885
:100ED00002F00F028A422DE9F04105460E460AD380
:100EE0002968880711D54848836823F0F002AB6869
:100EF0001343836009E0CAB21A701B6803F00F0342
:100F00009942EDD00120BDE8F081C90706D43D4BE0
:100F10001A6802F00F02964253D359E06B683A4ABE
:100F2000012B03D1126812F4003F08E0991E012939
:100F3000126802D812F0007F01E012F0020FE1D037
:100F4000314CA26822F003021343A360FFF71CFA9E
:100F50006B68012B07460ED141F28838A36803F075
:100F60000C03042BD3D0FFF70FFAC01B4045F5D973
:100F70000320BDE8F081022B0CD141F28838A36830
:100F800003F00C03082BC2D0FFF7FEF9C01B40454D
:100F9000F5D9EDE7032B08D141F28835A368FFF7B7
:100FA000F3F9C01BA842F9D9E2E741F28838A368F7
:100FB00013F00C0FABD0FFF7E7F9C01B4045F6D993
:100FC000D6E7F2B21A701B6803F00F039E4299D164
:100FD00029684A0706D50C48836823F4E052EB6879
:100FE000134383600B0707D5074A2969936823F4E5
:100FF000604343EAC10393600020FFF791F90020AA
:10100000BDE8F081003C0240003802401B498B687B
:1010100003F00C03042B2CD0082B2CD148684B6810
:1010200000F03F0013F4800F47F6C0724B6892FA4D
:10103000A2F247F6C071B2FA82F201EA030121FA84
:1010400002F114BF0E4A0F4AB2FBF0F00B4A00FB4C
:1010500001F352684FF4403090FAA0F002F44032AD
:10106000B0FA80F022FA00F001304000B3FBF0F05B
:101070007047034870470348704700BF003802407C
:10108000001BB7000024F40008B5FFF7BFFF084BB2
:10109000F0229B6892FAA2F2B2FA82F203F0F00315
:1010A000D340044AD35CD840034B186008BD00BF4E
:1010B000003802404CB800080800002008B5FFF7CF
:1010C000E3FF074B4FF4E0529B6892FAA2F2B2FAA8
:1010D00082F203F4E053D340024AD35CD84008BD07
:1010E000003802404CB8000808B5FFF7CDFF074BA9
:1010F0004FF460429B6892FAA2F2B2FA82F203F4D1
:101100006043D340024AD35CD84008BD0038024057
:101110004CB8000803682DE9F341D907044618D4F8
:1011200023689A0740F18B8000230193464B474D7B
:101130001A6C42F080521A641B6C03F080530193C6
:10114000019B2B6843F480732B60FFF71DF9064663
:1011500039E03F4E3C4F00233360FFF715F98046DE
:101160003B68394D1B0107D5FFF70EF9C8EB0000AE
:101170000228F5D9032063E047F6C07191FAA1F186
:101180004FF0E043B1FA81F193FAA3F3B3FA83F29B
:10119000636803FA01F1A36893400B43C5F88430F8
:1011A00001233360FFF7F0F806462B681801B7D427
:1011B000FFF7EAF8801B0228F7D9DBE7FFF7E4F82E
:1011C000801B0228D6D82B68D905F7D51E4DE368B9
:1011D0002A6F534013F4407F31D01E4A2B6F0120F9
:1011E00010600020106023F440719A0729670FD423
:1011F000E26802F44073B3F5407F134B16D199684F
:1012000021F4F81022F0704121F44071014310E004
:10121000FFF7BAF841F2883706462B6F9B07E7D4F1
:10122000FFF7B2F8801BB842F7D9A3E7996821F419
:10123000F8119960196FC2F30B020A431A67002074
:1012400002B0BDE8F08100BF0038024000700040ED
:1012500068004742400E4742026838B5D36823F021
:10126000A003D3600446FFF78FF805462368DB68C8
:101270009B0607D4FFF788F8401BB0F57A7FF5D9B5
:10128000032038BD002038BD38B50368DA6852063F
:10129000044601D5002038BD4FF0FF32DA60FFF779
:1012A00073F805462368DB685B06F3D4FFF76CF838
:1012B000401BB0F57A7FF5D9032038BD10B5044640
:1012C00000283DD0437F03F0FF0213B9027707F0F7
:1012D0001BFA022363772368CA225A6253225A6296
:1012E0002046FFF7D1FF236820B1FF225A62042372
:1012F000637725E09A6822F4E00222F040029A60C7
:101300009968626811432269114362690A439A60CD
:10131000E2681A611A69A16842EA01421A61DA6850
:1013200022F08002DA601A6C22F480221A64196CAE
:10133000A2690A431A64FF225A620123637710BD2F
:10134000012010BD0023092803D90A380133C0B297
:10135000F9E740EA0310C0B27047F8B5037F012BEC
:1013600006460F464FF0020564D001230377036859
:1013700045770878BD7849789B68AAB913F040038F
:1013800008BFFB70FFF7DEFF04460846FFF7DAFFF1
:1013900002462846FFF7D6FFFB7840EA034040EAC2
:1013A000044040EA02240AE013F0400308BFFB7047
:1013B000090241EA0044F878254345EA00443368CD
:1013C000CA225A6253225A623046FFF75DFF3368E1
:1013D000054630B1FF225A62042373770023337726
:1013E0001FE004F07F3020F0FE4018609A6822F47D
:1013F00080229A609968FA6811433A690A439A60B0
:10140000DA6822F08002DA609B689B060BD43046D3
:10141000FFF722FF38B13368FF225A620423737743
:101420003577012506E03368FF225A62012373777E
:10143000002333772846F8BDF8B5037F012B064615
:101440004FF0020557D00123037745774B78C878D2
:101450008D780F78002A47D1DA0603D523F01002E1
:101460000A324A70FFF76EFF04464878FFF76AFFBA
:1014700002462846FFF766FF40EA473040EA04404C
:1014800040EA02243368CA225A6253225A62304622
:10149000FFF7FAFE3368054630B1FF225A62042393
:1014A00073770023337715E024F07F4020F0C000ED
:1014B0005860DA6822F08002DA609B689B060BD4E1
:1014C0003046FFF7C9FE38B13368FF225A62042361
:1014D0007377357701250EE03368FF225A620123C6
:1014E00073770023337706E01B0243EA004028436A
:1014F00040EA4734C6E72846F8BD00F00F0300096C
:1015000000EB800003EB4000C0B270470368986AAC
:10151000486070B518691D6805F07F3323F0FE43FD
:10152000C0F30E001E0C8860C3F3062406F03F00D3
:1015300005F07F0506F0400608704C708D70CE7087
:1015400052B9FFF7DAFF08702046FFF7D6FF487060
:101550002846FFF7D2FF8870002070BD38B50368B9
:101560005C6824F07F4323F0C003180CC3F3042508
:1015700004F03F04C3F34233C8704D708C700B709D
:1015800052B9FFF7BAFFC8702846FFF7B6FF487098
:101590002046FFF7B2FF8870002038BD03685A6B01
:1015A00012F0450FFBD05A6B520703D504229A6301
:1015B00003207047586B10F0010015BF012040F266
:1015C000FF5298639A63704770B5436A86B01B04F4
:1015D00001930D23054602934023002203930E46F8
:1015E0004FF4806301A9006800920492059301F012
:1015F0001AFC2868436B13F0450FFBD0436B5B0765
:1016000003D50423836303207CE0436B13F00104C0
:1016100003D001238363184674E001F017FC0D2802
:1016200001D010206EE02B6840F2FF529A632046F2
:1016300001F010FC0090009B3348C3F34323337048
:10164000009B184000285DD0009B002B39DB009BDD
:101650005D0038D4009B9C0037D4009BD90036D461
:10166000009B1A0135D4009B5B0134D4009BDE0142
:1016700033D4009B1D0232D4009B5C02D1D4009B6A
:1016800099022ED4009BDA022DD4009B1B032CD48C
:10169000009B5E032BD4009B9D032AD4009BDC039C
:1016A00029D4009B190428D4009B5A0427D4009BFA
:1016B0009B0426D4009B13F0080F0CBF00201A20B7
:1016C00020E01C201EE009201CE00A201AE00B206C
:1016D00018E00C2016E00D2014E00E2012E00F2080
:1016E00010E011200EE012200CE013200AE014207C
:1016F00008E0152006E0162004E0172002E018207C
:1017000000E0192006B070BD08E0FFFD70B5054689
:1017100000680E46436B13F0450FFBD0436B5B072D
:1017200003D504238363032070BD436B13F00104CE
:1017300002D00123836339E001F088FBB04201D07D
:10174000102070BD2B6840F2FF529A63204601F0D2
:1017500081FB284B03404BB3002829DB450029D4EB
:10176000840029D4C10029D4020129D4430129D4F9
:10177000C60129D4050229D44402E1D4810227D428
:10178000C20227D4030327D4460327D4850327D4D2
:10179000C40327D4010427D4420427D4830427D4C4
:1017A00010F0080F0CBF00201A2070BD184670BD45
:1017B0001C2070BD092070BD0A2070BD0B2070BDBB
:1017C0000C2070BD0D2070BD0E2070BD0F2070BDAF
:1017D000112070BD122070BD132070BD142070BD8B
:1017E000152070BD162070BD172070BD182070BD6B
:1017F000192070BD08E0FFFDF0B58FB0002305464D
:10180000019302931024402206930E464FF4806306
:1018100003A908270068039704940592079301F031
:1018200002FB21462846FFF771FF002861D16B6A51
:101830002868A34003A937240393049401F0F3FA22
:1018400021462846FFF762FF0446002851D14FF099
:10185000FF33089330230A9302230B930C90012348
:1018600008A928680D93099701F000FB039403A9C8
:1018700033242868049401F0D6FA21462846FFF75D
:1018800045FF002835D16C462868426B40F22A6338
:1018900013403BB9436B9F02F7D501F0B4FA44F80B
:1018A000040FF1E7436B190703D508238363042072
:1018B0001FE0436B9A0702D50223836318E0436B52
:1018C0009B0603D520238363062012E0436B13F4A9
:1018D000007304D04FF400738363072009E040F2E3
:1018E000FF528263019A12BA7260029A12BA32608F
:1018F00018460FB0F0BD026A81F85620426AA1F87E
:101900005420826A0346900F0870C2F38360C2F3CA
:10191000016248708A7093F82A20CA7093F82920CF
:101920000A7193F828204A71DA6A100E0001C88003
:10193000C888F0B580B2C2F303542043C2F3034217
:10194000C8800A7293F82D20D0094872C2F3801023
:101950008872C2F34010C872C2F3001008730020EE
:1019600048731C6A012C3CD8920202F440620A615E
:10197000DA6A0C69920002F47F7222430A610C69F0
:101980001A6B44EA92740C61C2F3C264C2F302623D
:101990000C754A755A8ED4B25200650902F00602DF
:1019A000C4F382048D75CC750A760C7E93F83120D1
:1019B00044EAD2140C760C6991F818E0661C0C7A93
:1019C000012505FA04F40EF1020E05FA0EFE0C656F
:1019D000A6FB0445AEFB04670EFB0577C1E9126761
:1019E00023E0022C20D1DA6A120402F47C120A618C
:1019F0001A6B0C69150E44EA05240C610C69C2F3DC
:101A000007452C430C610C690025013445F10005A4
:101A1000ED0445EA5435E4048C644FF40074C2F3D9
:101A20000722CD640C6500E02920C2F38014520027
:101A300002F07E024C768A761A6B8D7EC2F3C01459
:101A40002C4302F07F028C76CA765A6BD40F0C7747
:101A5000C2F341744C77C2F38264920D02F00C021F
:101A60008C77CA77DA8ECD7FD4B245EA9415C4F369
:101A70004014CD7702F0010281F82040002481F863
:101A8000214081F822205C6B240AE2B2D50981F85A
:101A90002350C2F3801581F82450C2F3401581F819
:101AA000255004F00304C2F30015C2F3810281F84B
:101AB000265081F8272081F828405A6B0124C2F370
:101AC000460281F8292081F82A4093F83B2081F8CA
:101AD0002C209A6BC2F307452D02CD85CD8DAEB279
:101AE000C2F3072535431206CD850A63DA6B0D6B09
:101AF000160E45EA06450D630E6B150A05F47F4583
:101B000035430D630D6BC2F307263543D2B20D6327
:101B100081F8342093F8432081F835201A6C150C95
:101B20002D068D638E6B150205F47F0535438D639D
:101B30008D6B120202F47F422A438A638D6B5A6CCA
:101B400045EA12658D6391F83C50C2F3074245EABD
:101B50001215120202F4706281F83C50CA875B6C65
:101B6000CA8F95B2C3F307222A43C3F34603CA8739
:101B700081F8403081F84140F0BD00002DE9F04F80
:101B8000002591B0057704460E468DF8125006F0F8
:101B9000C7FD76230F930D950E9510AB13E9070043
:101BA0008DE807000A950B950C959E4F20680AABAF
:101BB0000ECB01F00DF98DF8135020683D6001F057
:101BC0002AF90120FEF7E6FB01233B6005A94FF44B
:101BD000806320680993059506950795089501F09F
:101BE00022F92068436B4FF48032C3F3C013002BFB
:101BF00040F07E81436B013AC3F3C013F7D1032356
:101C00008DF813309DF8133003F0FF05002B40F0E2
:101C1000A3804FF4D57305930823069305A94023A9
:101C2000079301F000F92068436B13F0450F14BFD0
:101C3000012200224FF4803342B93BB1426B12F0D3
:101C4000450F14BF01220022013BF5E7426B0BB1A7
:101C5000570703D504238363032505E0436B590627
:101C600046BF4023836329258DF813509DF8132028
:101C7000002322B9012222624FF0804500E01D4678
:101C8000372705A90593069701F0CDF83946204678
:101C9000FFF73CFD8DF813009DF8133003F0FF08AB
:101CA000002B59D145F00045C14645F48015372732
:101CB00005A94FF0400B4FF4806A20680697CDF8D5
:101CC0001490CDF81CB0CDF82090CDF824A001F0F0
:101CD000AAF839462046FFF719FD8DF813009DF844
:101CE000133003F0FF07002B36D1292305A9206804
:101CF00006930595CDF81CB00897CDF824A001F007
:101D000092F823685A6B12F0450FFBD05A6B5207BA
:101D100045BF0422032740F2FF529A6358BF9A63DB
:101D20008DF813709DF8133003F0FF00A3B901F094
:101D300091F8002808F101084FF6FF7302DB98457F
:101D4000B5D101E0984503D11B238DF8133003E092
:101D5000430044BF022323629DF81330DBB28DF8A9
:101D600012309DF8123003F0FF05002B40F0BA80CE
:101D7000206801F054F8002800F08080236A042BCA
:101D800020D002230693C023079305A94FF4806354
:101D9000206805950895099301F045F82046FFF75E
:101DA000FDFB00286CD101F055F8A063042001F080
:101DB00051F8E063082001F04DF820640C2001F098
:101DC00049F86064236A022B01D9062B32D1032320
:101DD000069305A940232068079301F024F82068A2
:101DE000436B13F0450FFBD0436B5F0703D5042310
:101DF0008363032545E0436B13F0010702D00125FF
:101E000085633EE001F022F8032876D1236840F292
:101E1000FF529A63384601F01DF810F4604F03D169
:101E2000000C08E0A0802542810468D4420464D4F8
:101E3000030466D40120236A042B22D060620923A4
:101E400000040590069305A9C0232068079300F0BD
:101E5000EAFF2046FFF7A2FB054690B900F0FAFF23
:101E6000A062042000F0F6FFE062082000F0F2FF1C
:101E700020630C2000F0EEFF606302E0252500E007
:101E800005468DF812509DF812305BBB3146204656
:101E9000FFF731FD8DF812009DF8123003F0FF02BC
:101EA000ABB9B6F85430206808921B040593402360
:101EB0000725079305A94FF480630993069500F061
:101EC000B2FF29462046FFF721FC8DF8120004F1ED
:101ED000100393E807008DE80700231D0ECB206850
:101EE00000F076FF9DF81200C0B211B0BDE8F08F8F
:101EF00040F2FF538363002382E61025C1E71325D8
:101F0000BFE70F25BDE700BFF0B5036A032B8DB017
:101F100005460E4600F08480022B00F28380B1F566
:101F2000805F00F08180B1F5006F29D1002004901E
:101F3000059000F08FFF80016ED404A92846FFF7BA
:101F40005BFC0446002872D1059B590366D56B6A79
:101F500009901B04069340233727089306A94FF4E2
:101F6000806328680A93079700F05DFF394628468A
:101F7000FFF7CCFB0446002859D10223069329E041
:101F8000002953D108460491059100F063FF8201B6
:101F900042D404A92846FFF72FFC0446002846D166
:101FA000059BDB033AD56B6A09901B04069340231B
:101FB0003727089306A94FF4806328680A93079788
:101FC00000F031FF39462846FFF7A0FB0446002801
:101FD0002DD10690062406A92868079400F023FF57
:101FE00021462846FFF792FB044600BB6B68069328
:101FF000AB680793EB6808936B690A93AB690B9323
:1020000009960CAB13E907008DE8070006AB0ECB71
:10201000286800F0DDFE0AE00E2408E0252406E032
:10202000272005E0002003E0272400E026242046A6
:102030000DB0F0BD30B587B00023402204460193B7
:102040000C25049301A94FF4806300680392059363
:10205000029500F0E8FE29462046FFF757FB07B03F
:1020600030BD2DE9F0430446006817460022C262E5
:10207000226A022A8DB004BF7F0A47EAC3574FF095
:10208000400303934FF00003DDF85080049308BF32
:102090004FF4007810264FF480630D4601A9029694
:1020A0000593DDF85490CDF8048000F0BCFE314675
:1020B0002046FFF72BFB0646002840F090804FF0AB
:1020C000FF33069309FB08F3079390230893022339
:1020D00009930A90012306A920680B9300F0C6FE1D
:1020E000B9F1010F8CBF1223112301A920680293BB
:1020F000019700F098FEB9F1010F1AD9122120467C
:10210000FFF704FB00286BD12268516B40F22A33A1
:102110000B404BBB536B1804F7D52F1F05F11C0860
:10212000206800F070FE47F8040FB845F8D120355C
:10213000EAE711212046FFF7E9FA002850D122688A
:10214000516B40F22A630B4073B9536B1904F7D5F6
:102150002F1F05F11C08206800F055FE47F8040FFA
:10216000B845F8D12035EAE723685B6BDB0509D574
:10217000B9F1010F06D9236A022B03D82046FFF7D5
:1021800059FF064623685A6B170703D508229A633E
:10219000042025E05A6B900702D5022098631FE0C7
:1021A0005A6B910603D520229A63062018E05A6BD9
:1021B000920502D44FF0FF370AE04FF400729A63A1
:1021C00007200DE047B100F01EFE45F8040B013F6B
:1021D0002068436B9B02F5D440F2FF538363304683
:1021E0000DB0BDE8F0832DE9F04705468CB00068DE
:1021F000DDF85080159F144600228DF80320C2623E
:102200002A6A022A04BF640A44EAC3544FF0400316
:1022100003934FF0000308BF4FF400784FF010090C
:1022200004930E464FF4806301A9CDF80480CDF8E5
:102230000890059300F0F7FD49462846FFF766FA37
:10224000002840F0C380012F8CBF1923182301A957
:1022500028680293019400F0E6FD012F8CBF19213C
:1022600018212846FFF752FA0446002840F0AE80B5
:102270004FF0FF3306939023089309900A900123AF
:1022800007FB08F806A92868CDF81C800B9300F01E
:10229000EDFD012F40D92B68596B40F21A320A40EC
:1022A0009ABB596B4904F7D5C4EB08031F2B13D80D
:1022B00013F0030F4FEA930318BF01334FEA83096A
:1022C00006EB090A564505D03146286800F09EFD08
:1022D0000436F7E74C440DE0914606EB0901286807
:1022E00009F1040900F092FDB9F1200FF5D106F1D2
:1022F000200A20345646CEE7596B49040ED4596B58
:1023000040F21A620A40002AF6D02B685B6BD805AF
:1023100029D430E04C4456462B68F0E7C4EB080360
:102320001F2B11D813F0030F4FEA930318BF01338B
:102330004FEA830906EB090A5645EBD03146286877
:1023400000F064FD0436F7E7914606EB09012868C2
:1023500009F1040900F05AFDB9F1200FF5D106F199
:10236000200A2034D7E7012F05D92B6A022B02D887
:102370002846FFF75FFE2B685A6B140703D5082227
:102380009A63042022E05A6B900702D502209863DA
:102390001CE05A6BD10603D510229A63052015E084
:1023A0005A6B920504D54FF400729A6307200DE032
:1023B00040F2FF529A630DF103012846FFF704F93A
:1023C00020B99DF80330063B012BF4D90CB0BDE8D1
:1023D000F08730B5436A87B01B0401934023039311
:1023E000002304460D25049301A94FF4806300687F
:1023F0000295059300F017FD29462046FFF786F960
:1024000038B900F027FDC0F34320043818BF01207D
:1024100000E0022007B030BD0268022380F83930A6
:10242000136843F001031360012380F83930002062
:1024300070470368DA6842F00102DA601A6842F015
:1024400001021A600020704790F83830012B70B5F7
:102450004FF0020300F0B08080F8393003680122A9
:1024600080F838209A6822F47F4222F077029A603E
:102470000A68402A77D018D8102A00F08B8008D834
:10248000002A40F093809A6822F0700242F007021E
:102490008BE0202A00F08480302A40F087809A6800
:1024A00022F0700242F037027FE0702A35D01BD84C
:1024B000502A41D0602A79D11C6A4D68CE6824F038
:1024C00010041C6299691A6A21F4704122F0A0027A
:1024D00042EA051241EA063199611A629A6822F0CD
:1024E000700242F0670260E0B2F5805F11D0B2F591
:1024F000005F5BD19C688D684A68C9682A4324F4F0
:102500007F44224342EA01229A609A6842F4804260
:102510004BE09A6822F0070247E09C688D684A68A1
:10252000C9682A4324F47F44224342EA01229A6084
:102530009A6842F0770238E01A6A1C6A4D68CE68E1
:1025400024F001041C62996922F00A0221F0F001D2
:102550002A4341EA061199611A629A6822F07002D0
:1025600042F0570221E01A6A1C6A4D68CE6824F0D6
:1025700001041C62996922F00A0221F0F0012A4349
:1025800041EA061199611A629A6822F0700242F0DB
:1025900047020AE09A6822F0700242F0170204E053
:1025A0009A6822F0700242F027029A60012380F8B4
:1025B0003930002380F83830184670BD70477047B6
:1025C0007047704703681A69910710B5044614D51F
:1025D000DA68920711D56FF002021A619B69012235
:1025E0009B07027602D0FFF7EAFF04E0FFF7E6FF61
:1025F0002046FFF7E5FF0023237623681A6950077A
:1026000016D5DA68510713D56FF004021A619B6979
:10261000022213F4407F2276204602D0FFF7CFFF3C
:1026200004E0FFF7CBFF2046FFF7CAFF0023237625
:1026300023681A69120715D5DA68100712D56FF0EA
:1026400008021A61DB69042299072276204602D02B
:10265000FFF7B5FF04E0FFF7B1FF2046FFF7B0FF3B
:102660000023237623681A69D20616D5DA68D006C5
:1026700013D56FF010021A61DB69082213F4407F52
:102680002276204602D0FFF79AFF04E0FFF796FF7C
:102690002046FFF795FF0023237623681A69D107A8
:1026A00008D5DA68D20705D56FF001021A61204615
:1026B00005F090FA23681A69100608D5DA68110641
:1026C00005D56FF080021A61204600F0BEF823683D
:1026D0001A69520608D5DA68500605D56FF040022F
:1026E0001A612046FFF76DFF23681A6991060AD523
:1026F000DA68920607D56FF0200220461A61BDE81D
:10270000104000F0A1B810BD2E4A0368904212D0CC
:10271000B0F1804F0FD0A2F57C4290420BD002F571
:102720008062904207D002F58062904203D002F5A9
:102730007842904218D14A6823F070031343214A2B
:10274000904237D0B0F1804F34D01F4A904231D000
:1027500002F5806290422DD002F58062904229D02D
:1027600002F57842904225D0184A904222D002F5D4
:10277000806290421ED002F5806290421AD0A2F58B
:102780009832904216D002F58062904212D002F543
:10279000806290420ED003608B68C3620B688362D4
:1027A000084B98420BD003F58063984207D0012371
:1027B00043617047CA6823F440731343EBE70B6926
:1027C0000363F4E7000001400004004000400140C2
:1027D00010B50446A0B190F8393003F0FF021BB9E0
:1027E00080F8382005F0D0FF022384F839302068C3
:1027F000211DFFF789FF012384F83930002010BD27
:10280000012010BD90F83830012B10B54FF00203B5
:1028100018D080F8393003685A6822F070025A6084
:102820005C680A6822435A609A6822F080029A60C3
:102830009C684A6822439A60012380F8393000235B
:1028400080F83830184610BD704770472DE9F047C2
:1028500007683B69044623F44052C368A168C06915
:10286000134322693B61FB681143626923F41643F9
:102870000A43024323F00C031343FB607B6923F4F8
:102880004072A369B0F5004F43EA02037B617C4BC1
:102890007CD19F4203D003F580639F4231D1FEF784
:1028A00023FC636819254FEA43086843B0FBF8F836
:1028B000FEF71AFC666868437600B0FBF6F6FEF792
:1028C00013FC63684FF064095B006843B0FBF3F0EE
:1028D000B0FBF9F009FB1066FEF706FCB8FBF9F84F
:1028E0006168F6003236B6FBF9F6760068434900B7
:1028F0004FEA081806F4F876B0FBF1FAFEF7F4FB9D
:1029000030E0FEF7DBFB636819254FEA43086843B4
:10291000B0FBF8F8FEF7D2FB666868437600B0FBC0
:10292000F6F6FEF7CBFB63684FF064095B00684383
:10293000B0FBF3F0B0FBF9F009FB1066FEF7BEFB4D
:10294000B8FBF9F8F60061683236B6FBF9F67600A6
:10295000684349004FEA081806F4F876B0FBF1FA2C
:10296000FEF7ACFB454360684000B5FBF0F0B0FB00
:10297000F9F009FB10A2D2003232B2FBF9F303F0F6
:10298000070343441E44BE60BDE8F0879F4202D067
:102990003C4B9F4230D1FEF7A7FB636819254FEAF5
:1029A00083086843B0FBF8F8FEF79EFB666868434F
:1029B000B600B0FBF6F6FEF797FB63684FF06409CC
:1029C0009B006843B0FBF3F0B0FBF9F009FB106625
:1029D000FEF78AFBB8FBF9F86168360168438900A5
:1029E0004FEA08183236B0FBF1FAB6FBF9F606F0FA
:1029F000F006FEF779FB2FE0FEF760FB6368192510
:102A00004FEA83086843B0FBF8F8FEF757FB6668A7
:102A10006843B600B0FBF6F6FEF750FB63684FF074
:102A200064099B006843B0FBF3F0B0FBF9F009FBCD
:102A30001066FEF743FBB8FBF9F8616836013236E1
:102A40006843B6FBF9F689004FEA081806F0F0066D
:102A5000B0FBF1FAFEF732FB454360688000B5FB3E
:102A6000F0F0B0FBF9F009FB10A212013232B2FB18
:102A7000F9F303F00F0333444344BB60BDE8F08730
:102A80000010014000140140F8B504460E461546FA
:102A9000FDF77AFC07462268136836EA030323D061
:102AA0006B1CF9D0D5B92368DA6822F08002DA60AD
:102AB000DA6822F02002DA60DA6822F48072DA60E2
:102AC0005A6922F001025A61202384F8393084F8CF
:102AD0003A30002384F838300320F8BDFDF754FC69
:102AE000C01B8542D7D2DEE70020F8BD10B50446F2
:102AF00040B390F8393003F0FF021BB980F838205A
:102B000005F078FE2268242384F83930D36823F452
:102B10000053D3602046FFF799FE23681A6922F418
:102B200090421A615A6922F02A025A61DA6842F424
:102B30000052DA6000202023E06384F8393084F802
:102B40003A3010BD012010BD70B51E4690F83930E6
:102B5000202B04460D4643D100293FD0002A3DD00A
:102B600090F83830012B3BD0012380F83830002317
:102B7000C363212380F839308284C284E28C02B39B
:102B8000A368013AB3F5805FE2844FF080013246DA
:102B900020460DD1FFF778FF08B1032070BD2B88C8
:102BA0002268C3F308035360236943B90235E5E79C
:102BB000FFF76AFF0028F0D123682A785A600135B0
:102BC000DCE7324640212046FFF75EFF0028E4D1D3
:102BD000202384F8393084F8380070BD012070BD9E
:102BE000022070BD90F83A30202B20D1E9B1E2B13B
:102BF00090F83830012B1AD08285C285002322221A
:102C0000C36380F83A2002688162D16841F4807120
:102C1000D160516941F001015161D16880F83830CB
:102C200041F02001D1601846704701207047022012
:102C3000704770471FB503681968DA68C90704460A
:102C40000CD5D0050AD5002200921A6800925A6865
:102C50000092009AE26B42F00102E26319685A693D
:102C600089070CD5D0070AD5002201921A68019273
:102C70005A680192019AE26B42F00402E263196819
:102C80005A6949070CD5D0070AD5002202921A6862
:102C900002925A680292029AE26B42F00202E263E6
:102CA00019685A6909070CD5D0070AD50022039282
:102CB0001A6803925A680392039AE26B42F0080280
:102CC000E2631968DA6889063AD5900638D594F82F
:102CD0003A20222A34D1A2682169B2F5805FA26A23
:102CE0000BD15B6821B9C3F3080322F8023B02E071
:102CF000DBB222F8013BA2620AE019B9511CA162C1
:102D00005B6804E05B68511CA16203F07F031370F1
:102D1000E38D013B9BB2E38593B92368DA6822F027
:102D20002002DA60DA6822F48072DA605A6922F0EE
:102D300001025A61202384F83A30204604F026FF2D
:102D400023681968DA68090626D5100624D594F890
:102D50003920212A20D1A268B2F5805F226A0AD1E7
:102D60001188C1F308015960216909B9023200E0F4
:102D70000132226203E0511C216212785A60E28C17
:102D8000013A92B2E2843AB9DA6822F08002DA605B
:102D9000DA6842F04002DA601968DA6849060BD551
:102DA000520609D5DA6822F04002DA60202384F85E
:102DB00039302046FFF73DFFE36B3BB1202384F819
:102DC0003930204684F83A3004F020FF04B010BDBA
:102DD00084B010B503AC84E80E00049B426819432C
:102DE000059B1943069B1943079B1943089BBDE8A4
:102DF0001040194322F4FD4323F07F030B4343604B
:102E000004B000207047D0F8800070470B68C0F80D
:102E10008030002070470323036000207047006863
:102E200000F0030070470B6810B583604C688B6836
:102E3000C2681C43CB6809692343194322F47F63AA
:102E400023F00F030B43C360002010BD0069C0B224
:102E50007047000082B000230193034B03440193A9
:102E6000019B186802B07047142C014010B5CA6865
:102E70008C680B68436214434B680A698362C36AB7
:102E800014434A6923F0F70322431343C36200202B
:102E900010BD08B500F036F808B50C4B1A680AB931
:102EA0000B4A1A601A680B49C31C23F0030313442E
:102EB0008B4206D905F082FF0C2303604FF0FF30F0
:102EC00008BD024910460B6008BD00BFD8000020B5
:102ED000E4A0012000FC012001230360014B0B60F2
:102EE000704700BF0000002008B500F02BF8024B2F
:102EF000024A9A6008BD00BF00ED00E00000000833
:102F000000F040B8BFF34F8F0549064BCA6802F482
:102F1000E0621343CB60BFF34F8F00BFFDE700BFFC
:102F200000ED00E00400FA0583691A888A4207D19F
:102F30000268033A012A03D80233836101207047F3
:102F4000002070470C4B1A68002142F001021A6001
:102F500099601A6822F0847222F480321A60074A5B
:102F60005A601A6822F480221A60D960044B4FF02C
:102F700000629A60704700BF0038024010300024A1
:102F800000ED00E0174A1849936803F00C03042B86
:102F900003D0082B03D0154B18E0154B16E05068F2
:102FA000536810F4800F03F03F03506814BF104AB9
:102FB0000E4AB2FBF3F30B4A5268C2F30142C0F36C
:102FC0008810013243435200B3FBF2F30B60054B10
:102FD000084A9B68C3F30313D25C0B68D3400B60B1
:102FE000704700BF00380240080000200024F400B1
:102FF000001BB7005CB8000808B50449104606F08D
:1030000060F810B1024B01221A7008BD6CB80008BC
:10301000DE0000204FF4967303600023436083605A
:1030200080F838317047000010B590F8A822D2B26D
:10303000012A0C4607D1002380F8A8320649D0F8AF
:10304000A402FFF7CFFDA06863689842C3BF22685F
:10305000101AC018181A10BD1C07002010B50C4B10
:103060000C4C5A6893F838019918013208731968A2
:103070005A608A4204BF00225A600749D4F8A40269
:103080000122FFF7AFFD10B1012384F8A83210BD73
:10309000E4050020340300201C070020826803465A
:1030A0008118013291F90C0019689A608A4204BFB4
:1030B00000229A60704737B502AC054604F8011D3E
:1030C000052301222146D5F8A402FFF73DFD002883
:1030D000F6D103B030BD2DE9F041804608460D46DB
:1030E00005F0BFFF00240646B44205EB040710D0EC
:1030F000C4F3090313B9C820FDF74CF901231A469C
:103100003946D8F8A402FFF71FFD0028F6D1013494
:10311000EAE7BDE8F08110B50023FF2403700373D4
:1031200043738373046104244361C0F8A422C3641D
:10313000C0F84C31C0F8503180F85431C0F85831E3
:10314000C0F85C31C0F86031C0F8903280F8944229
:10315000C0F8983280F89C3280F89D32C0F8A012F6
:1031600080F8A83280F8A93210BD0000024601485C
:10317000FFF7D1BF3403002070B5044608460D4662
:1031800005F06FFF4FF48071064690FBF1F1204689
:1031900049B2FFF790FF094931400029BEBF01F154
:1031A000FF3161F0FF010131204649B2FFF783FF93
:1031B00029462046BDE87040FFF78DBFFF00008024
:1031C00038B505460C467F2C06DD64F07F012846A5
:1031D000FFF771FFE411F6E761B22846BDE8384019
:1031E000FFF769BF037B10B50446D3B1FDF7CCF8F8
:1031F000D4F89822D4F8A0124FF47A73821A4B4371
:103200009A420ED3C4F898026FF03F012046FFF7B0
:1032100052FF00212046FFF7D3FF024A1378013303
:10322000137010BDDF0000202DE9F3471F46FF2378
:1032300003618A461021904606469DF93490FFF7B7
:103240003AFF3C4B186800901B798DF804306846B3
:1032500005F007FF0446504605F003FF0444B9F1AA
:10326000000F01D1083409E0109805F0FAFE054678
:10327000119805F0F6FE0C342C440444B8F1000F0C
:103280000AD00A9805F0EDFE0234044427B10B98E9
:1032900005F0E7FE0234044421463046FFF790FF74
:1032A00069463046FFF768FF96F89412304649B2F7
:1032B000FFF701FF9DF93C3007EB480103EB4101AB
:1032C0009DF9383003EB81019DF9303009EB410164
:1032D00003EB4101490049B23046FFF7ECFED6F856
:1032E000A012304641F30721FFF7E5FED6F8A01201
:1032F000304649B2FFF7DFFE51463046FFF73CFF4C
:10330000B9F1000F07D010993046FFF735FF11993A
:103310003046FFF731FFB8F1000F08D00A99304668
:10332000FFF72AFF1FB10B993046FFF725FF02B0C8
:10333000BDE8F08777B8000800B589B00023084AD7
:103340000792012106920291019200920593049343
:1033500003931A460349FFF767FF09B05DF804FBC2
:1033600065BD0008286F002006312DE9F84302EB07
:10337000810103EB4101DDF824800A9E089F49B2D8
:1033800015460446FFF797FE404605F06AFE002DFD
:1033900000F102093046C8BF09F1020905F061FEDB
:1033A00009EB00012046FFF70BFF41462046FFF7DF
:1033B000E3FE002D08DD47F307212046FFF77BFEE3
:1033C00079B22046FFF777FE31462046BDE8F84344
:1033D000FFF781BE38B504460D464021FFF76BFE6E
:1033E00020460221FFF7ECFE45F307212046FFF7B8
:1033F00062FE69B22046BDE83840FFF75CBE38B5D2
:1034000004460D465021FFF756FE20460221FFF7E5
:10341000D7FE45F307212046FFF74DFE69B220464F
:10342000BDE83840FFF747BE38B5C90062310446F1
:1034300049B21546FFF73FFE20460221FFF7C0FEC6
:1034400045F307212046FFF736FE69B22046BDE866
:103450003840FFF730BE38B504460D467021FFF7FF
:103460002AFE20460221FFF7ABFE45F30721204646
:10347000FFF721FE69B22046BDE83840FFF71BBECA
:10348000F8B5C90082311D4649B2164604469DF979
:103490001870FFF710FE284605F0E3FD411D204699
:1034A000FFF78EFE46F307212046FFF704FE71B2B8
:1034B0002046FFF700FE29462046FFF75DFE39460D
:1034C0002046BDE8F840FFF7F6BD10B56FF01F01CC
:1034D0000446FFF7F0FD00212046FFF771FE0023B0
:1034E000237310BDD0F890124FF6FE72914203463E
:1034F00095BFD0F890020022421CC3F8902294BFDE
:10350000C3F89022D3F890027047000030B59FB006
:1035100005AD04461249284605F09BFD1149284691
:1035200005F070FD1049284605F06CFD2046FFF7B8
:10353000D9FF0E4B029500228DE8090011460123A8
:103540002046FFF711FF2046FFF7CCFF002102467F
:103550000091074B2046FFF793FF1FB030BD00BF1F
:103560007CB80008286F00208CB800089FB80008BD
:10357000A8B80008807B70472DE9F843AA4DAB49F5
:10358000A948A94CFFF750FD002800F0F6812B78E0
:10359000A648002B40F0A780FFF780FDD5F85831F2
:1035A000C72B07D8D5F858315A1C2B44C5F85821D9
:1035B00083F864010A28E2D1D4F858319C492344A5
:1035C000002283F864219B4B012601F5B1701E7027
:1035D00005F077FD002845D0974998486E7005F0B2
:1035E00070FD08B1022305E09549944805F069FD96
:1035F00010B103236B7070E09249904805F061FDB3
:1036000018B13046FCF7C6FE04E08F498B4805F040
:1036100058FD08B10423EDE78C49884805F051FDB9
:1036200020B98B49854805F04CFD08B1052317E00A
:103630008849824805F045FD08B10623DAE7864946
:103640007E4805F03EFD50B984497C4805F039FDBF
:1036500028B98349794805F034FD00283DD0072377
:1036600063703AE07F49754805F02BFD10B17E4B41
:103670001E7032E07D49714805F023FD08B1022239
:1036800005E02E216D4805F0CCFC18B10322764BE5
:103690001A7022E07149694805F013FD804608B1AF
:1036A0000522F4E77249654805F00BFD074650B165
:1036B0006D4B5D482E7004221A70FFF73DFE2E738D
:1036C00085F80D8009E06B495C4805F0FAFC20B1F3
:1036D000654B2F7004221A70AF730023C4F8583161
:1036E00084F864314BE7FFF7D9FC102690FBF6F61F
:1036F00006F00F06731E0D2B07463FF640AF002362
:103700000220C5F85C31C5F86031FCF743FE4FF08C
:103710000108A1462378002B4BD044494248FFF7CB
:1037200083FC0028F6D04148FFF7B8FCFBB2432BDE
:1037300002D1C3B24C2B03E02B2B29D1C3B2502BA7
:1037400026D1D9F85C311BBB0023C4F85831D4F81A
:103750005821B2F5967F07D93348FFF7B6FE3248B5
:10376000BDE8F843FFF7E8BDD5F85821511C2A44BD
:10377000C5F8581182F86471D5F85821511C2A44B3
:10378000C5F8581182F864012B70AB732B73C1E735
:103790000028D4F85C3108DA00F07F0008FB003024
:1037A000C4F85C014FEAC818B4E708FB0030C4F85D
:1037B0005C01D4F85C31C4F860312378002B3FF40D
:1037C000DEAE0023C5F85831D4F85C315A1EC4F877
:1037D0005C2113B9022E4FD115E014491248FFF7AE
:1037E00023FC0028F6D0D5F85881104808F10103D1
:1037F000C5F85831FFF752FCA84488F8640101204D
:10380000FCF7C8FDE0E794F9642194F9653103EB16
:1038100002232361236923B901230348AB73FFF714
:1038200075FE2369ABE600BF34030020E4050020E9
:1038300036030020DD000020AEB800089804002008
:10384000B7B80008BEB80008C8B80008D1B800086A
:10385000D9B80008E4B80008F4B8000800B90008B6
:103860000DB90008FDB80008E000002017B90008F5
:103870001DB90008DDB80008032E57D194F9653151
:1038800094F9640103EB0020002363610223821C8E
:10389000934209D26269511C6161E118224491F995
:1038A000641111760133F2E763692344002119762C
:1038B000C7F341076369E36461614FB12A442B1880
:1038C00092F9641193F96731021D03EB012100E0C5
:1038D0003946D4F8603131489A420AD26B69581C93
:1038E000686150192B4490F9640183F8500001324B
:1038F000EFE743690344002283F85020012F436916
:10390000C0F84C3102D1FFF765FD03E0022F01D171
:10391000FFF775FD224AE16CD4F84C31A2F1380072
:10392000FFF76AFB0123C4F8503128E6052E0AD1BF
:1039300094F9642194F96531184803EB02220021BF
:10394000FFF772FD1BE6062E09D194F9641194F974
:103950006531124803EB0121FFF77DFD0FE60B2EC9
:103960000DD84FF42963F340DB073FF508AE0D2E69
:1039700004BF012384F8A93201E6BDE8F8830C2EC8
:10398000F5D100264FF47A63064A074903482670AA
:10399000267300F02FF884F85461F0E5340300201A
:1039A0008403002025B9000827B900082DE9F0415B
:1039B000054688461646FCF7E7FC0C4C0C490746C2
:1039C000A81C05F046FB0023414628462370FFF75C
:1039D00082FBFCF7D9FC23782BB9C01BB04202D282
:1039E000FFF7CAFDF5E758B2BDE8F081E00000201E
:1039F00034B90008F8B504460F46023011461D469A
:103A000005F027FBFCF7C0FC00230646637039462F
:103A10002046FFF760FBFCF7B7FC63782BB9801BEF
:103A2000A84202D2FFF7A8FDF5E7607840B2F8BDE2
:103A300038B590F8A932044603F0FF05B3B940F257
:103A4000DC520C49FFF7B2FF4FF47A720A49204664
:103A5000FFF7ACFF41F28833084A09492046FFF7D7
:103A6000C9FF84F89C022570A5732573002384F890
:103A7000A93238BD39B900083DB9000842B900087B
:103A800048B9000870B590F854315BB294B0044660
:103A9000032B00F2FC80DFE803F00214245540F20F
:103AA000DC527C49FFF782FF40F6B8327A49204663
:103AB000FFF77CFF012802D184F8540101E00023C4
:103AC0000CE040F6B83275492046FFF76FFF012839
:103AD00003D1022384F8543103E0012384F85431E4
:103AE000D5E041F288336E4A6E492046FFF782FFE7
:103AF000012825D14FF4FA60FCF74CFC4FF4FA6230
:103B000069492046FFF752FF4FF4FA6267492046A1
:103B1000FFF74CFF4FF47A63654A66492046FFF78A
:103B200069FF012805D04FF4FA6263492046FFF788
:103B30003DFF032384F85431022384F89C3201E0D2
:103B40000223CBE76378072B27D04FF4FA60FCF70A
:103B500021FC41F28833594A59492046FFF74AFF70
:103B600084F89C0294F89D3294F89C229A420DD1DC
:103B7000637B01335BB26373637B5BB2092B0CDD48
:103B800000236373072384F89C3206E094F89C3288
:103B90005BB284F89D320023637394F89C325BB26D
:103BA00084F89D3294F89C325BB2023B052B6ED8B0
:103BB000DFE803F0030F161E4D6042492046FFF771
:103BC0008AFA41492046FFF786FA41F288323F4996
:103BD00002E03F4941F288322046FFF7E7FE56E017
:103BE0004FF47A633B4A3C492046FFF703FF4EE01F
:103BF0003A49684605F02DFA3949684605F002FA57
:103C00003849684605F0FEF93749684605F0FAF983
:103C10002E49684605F0F6F942F2107269462046D0
:103C2000FFF7C4FE012832D1FCF7AEFB0546FCF7D6
:103C3000ABFB2E4E44F61F643378042B27D0401B79
:103C4000A04224D8FFF798FCFCF79EFBF4E7FCF7B2
:103C50009BFB0546FCF798FB244E44F61F64337823
:103C6000042B14D0401BA04211D8FFF785FCFCF7B1
:103C70008BFBF4E74FF47A631D4A1E492046FFF799
:103C8000B9FE002384F85431022384F89C3214B026
:103C900070BD00BF39B900083DB9000857B9000828
:103CA0005EB9000862B900086DB900087BB9000868
:103CB0008AB900088EB900089AB9000842B900080C
:103CC00048B90008A7B90008096F002062BD0008C4
:103CD000B1B9000825B90008BCB90008C7B9000887
:103CE000D26E0020D7B90008046F0020E000002049
:103CF000FDB8000827B9000810B5012204460A499A
:103D0000D0F8A402FEF76EFF10B1012384F8A832A8
:103D1000204640F6B8320549FFF748FE2046BDE888
:103D20001040FFF7AFBE00BF1C0700203DB90008E0
:103D300038B50378044603F0FF0213B98273FFF726
:103D4000A1FE084B084D93F85F202B789A4204D8C7
:103D50002046FFF76DFE00232B702046BDE838405B
:103D6000FFF740BAC86E0020DF0000200023037078
:103D70004370704730B5037845785A1CD4B2A542D9
:103D80001FBF1B1899700270002008BF4FF0FF3052
:103D900030BD437802789A421FBF1B189B780B7086
:103DA00043781DBF0133437000200120704700009D
:103DB00038B5044609480D46FFF72CF9084B002298
:103DC0001A705A702046012229469A70FFF7CEF9E0
:103DD0000448BDE83840FFF78FBF00BFE40500206E
:103DE000E0050020340300202DE9F04F85B0914616
:103DF0000191039000F0C8FE054600F0C3FC0446A4
:103E000000F0E6FE064600F0CCFC32464949824608
:103E1000204601F004FA00F0B7FE009000F0B2FC7A
:103E2000454A4649074601F02AFA454A4549384677
:103E300001F025FA00F0CCFE804600F0B2FC4246CC
:103E400041490646384601F0EAF900F09DFE8346F6
:103E500000F098FC074600F0BBFE804600F0A1FC95
:103E60003A49029001F0C3F9029A3949104601F02B
:103E7000BEF94246DFF808813649384601F01AFAA1
:103E8000354A4146384601F05FFA5946304601F05E
:103E9000A5F900F079FE834600F074FC039B074609
:103EA000184604F041FE0B4602462C49384601F004
:103EB00065FA2B4A4146384601F046FA59463046E3
:103EC00001F08CF90099274E504601F087F9264AF7
:103ED0002649204601F038FA00F056FE074600F069
:103EE00051FC019A314601F0CAF93A462049204670
:103EF00001F0E0F900F048FE074600F043FC1D4ADF
:103F00001D49804601F0BBF94A463146404601F062
:103F1000B6F93A461949204601F0CCF9284601F095
:103F200043F90446284600F0E7FD204605B0BDE809
:103F3000F08F00BFDBB90008E9B90008ECB9000850
:103F4000ADBA00080BBA000813BA0008B6BA0008E8
:103F5000BBBA0008C0BA0008D0BA000826BA0008E8
:103F6000D5BA000858BA00080C00002040BA000872
:103F70005EBA000874BA00087DBA000884BA000866
:103F800035BA00082DE9FF41074618480D46FFF7EE
:103F9000F1FA40B3164C9DB1144894F9015094F9CC
:103FA000006094F90280FFF79DFA124B0293124BC6
:103FB00032468DE80900294643460C48FFF7D4F9FC
:103FC0000A4894F9015094F9006094F90240FFF70F
:103FD00089FA0A4B02978DE80900324623462946A2
:103FE0000248FFF7C1F904B0BDE8F08134030020B6
:103FF000E0050020DEBA0008F3BA0008FCBA0008A9
:1040000008B506490648FFF70FF810B1FFF7B4FAF4
:10401000F7E70348BDE80840FFF78ABEE405002043
:1040200034030020C3B2A3F13002092A01D830388A
:104030007047A3F16102052A01D857387047413B08
:10404000052B94BF37384FF0FF3070472DE9F04112
:10405000034690F9000098B393F9017037B393F9D0
:10406000026036B393F9034034B3FFF7DBFF8046B9
:104070003846FFF7D7FF05463046FFF7D3FF064621
:104080002046FFF7CFFFB8F1FF3F18D06C1C16D0C9
:10409000721C14D0431C12D02D0245EA0835284367
:1040A00040EA061008600120BDE8F0813846BDE80E
:1040B000F0813046BDE8F0812046BDE8F081002067
:1040C000BDE8F081064B10B51B68044610209847E8
:1040D00020B10022022380E80C00846010BD00BFE4
:1040E000180000202DE9F04F026892F90030222BD1
:1040F00087B040F0FA80571C0760036893F90010FE
:1041000022290FD0002900F0F0805C2903D0036839
:1041100001330360F1E7591C016093F90130002B72
:10412000F5D1E2E001330360724C981A831E0193CB
:1041300001382368984702940646002800F0D18091
:1041400004463B464FF00C094FF00D0A4FF0090BA7
:1041500093F90020AAB900232370029BA41B013409
:104160001B68204698470546002800F0BA80224682
:10417000314604F053FE604B30461B689847284692
:10418000B4E00198D91B8842E5D95C2A40F0A180AF
:1041900093F90110662903F101021CD00CDC2F29D0
:1041A00017D002DC222914D09BE05C2911D06229AF
:1041B00040F09780082311E0722911D004DC6E29A9
:1041C00040F08F800A2309E074290CD075290DD0A6
:1041D00087E0217082E084F800907FE023707DE02A
:1041E00084F800A07AE084F800B077E003F10208D8
:1041F00004A940460393FFF729FF002871D0049DCE
:10420000039B7F2D01D8257060E0B5F5006F0BD2C0
:10421000AD0965F03F052570049B03F03F0363F093
:104220007F036370013451E0A5F55841B1F5006F8B
:1042300014D32146C5F3033565F01F0501F8025B71
:10424000049BC3F3851363F07F036370049B03F047
:104250003F0363F07F03A3700C4637E0B1F5806F36
:104260003FD293F906205C2A3BD103F1080893F969
:104270000730752B35D105A94046FFF7E7FE80B31F
:104280000599A1F55C43B3F5806F2AD21B4BAD02B3
:104290002B40C1F309010B4303F5803304939B0CBE
:1042A00063F00F032370049BC3F3053363F07F03B4
:1042B0006370049BC3F3851363F07F03A370049BB7
:1042C00003F03F0363F07F03E370033408F103025C
:1042D00004E0D1B21F2904D922701A460134531CBC
:1042E00036E7054B30461B689847002007B0BDE80D
:1042F000F08F00BF180000201400002000FC0F0009
:10430000426883682DE9F04104460E460AB90BB1B4
:1043100016E0ABB1A6B1DFF86C80B700D8F800307A
:1043200038469847054658B1D8F80030DFF858802D
:1043300038469847074638B9D8F800302846984795
:104340004FF0FF30BDE8F081616869B1A3685BB1EF
:10435000E2684AB19200284604F060FDE268A16874
:104360009200384604F05AFDD8F80030606898474B
:10437000A068D8F8003098476560A76026610020E3
:10438000BDE8F081180000201400002070B504463C
:104390000D4611B94FF0FF3070BD0B4B88001B6804
:1043A000984706460028F5D0616821B1A26812B18D
:1043B000920004F033FD054B60681B689847666007
:1043C000E560002070BD00BF180000201400002030
:1043D00038B50D468368C1688B42044609D223680C
:1043E0002B606268A36842F823500133A360002069
:1043F00038BD49000F2938BF0F21B1F5F03F02D970
:104400004FF0FF3038BDFFF7C1FF0130E7D1F7E7CC
:10441000084B70B51B680646481C0C469847054675
:1044200028B1002303552246314604F037FE2846C2
:1044300070BD00BF1800002010B5044604F011FE46
:1044400001462046BDE81040FFF7E2BF2DE9F843E2
:104450000446884616460025E4B1E3689D4216D21C
:10446000636853F82570384604F0FBFDB0424FEA0C
:1044700085090AD132464146384604F0FAFD20B992
:10448000A36853F80900BDE8F8830135E4E700208C
:10449000BDE8F8832046BDE8F88300000A4610B95D
:1044A000084604F0DEBD014904F088BD06BB0008E3
:1044B000F8B5002405460F462646BE420ADA0849EA
:1044C0002846FFF7EBFF002806DB05B1054404444E
:1044D0000136F2E72046F8BD4FF0FF30F8BD00BFCF
:1044E00041BC0008F8B50C46064604F0BAFD514937
:1044F00007462046FFF7D2FF051E02DA4FF0FF30D5
:10450000F8BD04B12C443744BE4200F0898016F94E
:10451000013B5C2B7FD8DFE803F03F41434547492F
:104520004B4D353D394F373B51535557595B5D5FC7
:1045300061636567696B6D6F71737E7E2F7E7E7EB2
:104540007E7E7E7E7E7E7E7E7E337E7E7E7E7E7ED6
:104550007E7E7E7E7E7E7E7E7E7E7E7E7E7E7E7E7B
:104560007E7E7E7E7E7E7E7E7E7E7E7E7E7E7E7E6B
:104570007E7E7E7E7E7E31002F4942E02F4940E0E4
:104580002F493EE02F493CE02F493AE02F4938E0DF
:104590002F4936E02F4934E02F4932E02F4930E0EF
:1045A0002F492EE02F492CE02F492AE02F4928E0FF
:1045B0002F4926E02F4924E02F4922E02F4920E00F
:1045C0002F491EE02F491CE02F491AE02F4918E01F
:1045D0002F4916E02F4914E02F4912E02F4910E02F
:1045E0002F490EE02F490CE02F490AE02F4908E03F
:1045F0002F4906E02F4904E02F4902E02F4900E04F
:104600002F492046FFF74AFF0028FFF677AF04B195
:104610000444054478E70CB104F8013B013573E725
:1046200004492046FFF73AFF0028FFF667AF284409
:10463000F8BD00BFD9B9000809BB00080CBB0008D1
:104640000FBB000812BB000815BB000818BB000810
:104650001BBB00081EBB000821BB000828BB0008CC
:104660002FBB000836BB00083DBB000844BB000858
:104670004BBB000852BB000859BB000860BB0008D8
:1046800067BB00086EBB000875BB00087CBB000858
:1046900083BB00088ABB000891BB000898BB0008D8
:1046A0009FBB0008A6BB0008ADBB0008B4BB000858
:1046B000BBBB0008C2BB0008C9BB0008D0BB0008D8
:1046C000D7BB000838B50C46054650B149B108467D
:1046D00004F0C7FC214602462846BDE83840FFF7F3
:1046E000B5BE002038BD2DE9F0410F461646044600
:1046F00018B94FF0FF30BDE8F0810029F9D0002A49
:10470000F7D0FFF7DFFF0028F3D12169E3688B4280
:1047100017D23846E568D4F80480FFF78DFE48F8D4
:104720002500636853F82530002BE2D023683360FE
:10473000A36843F82560E3680133E3600020BDE827
:10474000F08149000F2938BF0F21B1F5707FD0D813
:104750002046FFF7D5FD0130DBD1CAE738B1C36889
:104760008B4203D9436853F82100704700207047FB
:1047700038B183688B4203D9436853F821007047EE
:104780000020704728B14368042B01D1806870472E
:104790000020704708B5FFF795FFBDE80840FFF718
:1047A000F1BF28B14368052B01D180687047002014
:1047B000704728B14368022B01D180687047002000
:1047C000704708B5FFF77EFFBDE80840FFF7F1BF6F
:1047D00028B14368032B02D1D0E9020170470020C1
:1047E0000021704708B5FFF76DFFBDE80840FFF7EF
:1047F000EFBF20B14368062B01D1806870474FF0AE
:10480000FF3070472DE9F04F85B00C4603921E46ED
:104810000E9F002800F04E814368013B052B00F2FB
:104820004981DFE813F04501000113016F00060024
:104830000901FFF7B6FF824610B1D0F8089000E0FA
:1048400081469F492046FFF729FE051EC0F23281AE
:1048500004B12C44B9F1000F52D04EB19949204611
:10486000FFF71CFE0028C0F2258104B10444054472
:10487000039B4FF0000803F1010B4EB1594620464F
:10488000FFF716FE0028C0F2158104B10444054468
:1048900041465046FFF76CFF009733465A46214683
:1048A000FFF7B0FF0028C0F2058104B1044409F10C
:1048B000FF334345054409D983492046FFF7EEFD00
:1048C0000028C0F2F78004B1044405444EB17D498C
:1048D0002046FFF7E3FD0028C0F2EC8004B1044459
:1048E000054408F10108C845C7D14EB103992046D7
:1048F000FFF7DEFD0028C0F2DD8004B1044405446A
:10490000724989E0FFF73EFF814610B1D0F80CA054
:1049100000E082466E492046FFF7C0FD051EC0F24A
:10492000C98004B12C44BAF1000F74D04EB165496E
:104930002046FFF7B3FD0028C0F2BC8004B1044458
:1049400005444FF0000841464846FFF707FF8346FD
:10495000002800F0AF8056B1039B2046591CFFF79A
:10496000A7FD0028C0F2A68004B1044405442146F6
:104970005846FFF7B7FD0028C0F29C8004B10444FC
:10498000054454492046FFF789FD0028C0F2928073
:1049900004B1044405444EB14F492046FFF77EFD63
:1049A0000028C0F2878004B10444054459464846B3
:1049B000FFF788FE039A0097334601322146FFF73E
:1049C00021FF002876DB04B104440AF1FF3343459C
:1049D000054408D93C492046FFF760FD002869DB03
:1049E00004B10444054446B136492046FFF756FD5C
:1049F00000285FDB04B10444054408F10108C24506
:104A0000A1D146B103992046FFF752FD002851DBA2
:104A100004B10444054431492046FFF73FFD002816
:104A200048DB284448E0FFF7C4FE002842D0FFF7E7
:104A300059FD002840DA3DE0FFF7DBFE08B12849C8
:104A400000E028492046FFF729FDF2E7FFF7C0FE06
:104A50008946804604F066F9002C18BF27460446B4
:104A600004F072F802460B464046494604F028F925
:104A700010B122461C490FE04946404604F07AF93D
:104A8000044604F051F802460B464046494604F0FD
:104A900017F928B115492246384604F08FFA05E087
:104AA00042464B461249384604F088FA0028C1E7CE
:104AB0001049C7E74FF0FF3005B0BDE8F08F00BFE9
:104AC000DEBB000864BD0008E0BB000854BC000861
:104AD000E2BB0008E4BB000844BC0008E6BB0008D9
:104AE000E8BB0008EDBB0008F3BB0008F6BB0008FC
:104AF000F9BB0008FCBB00082DE9F0410446002882
:104B00003AD04368042B07D0052B22D0022B33D197
:104B10001C4B80681B682EE08568DFF868800026E3
:104B2000EB68184F9E420CD26B6853F82600D8F8F9
:104B300000309847AB6853F82600FFF7DDFF0136D9
:104B4000EEE73B68686898473B68A86898473B6809
:104B500010E085680026AB689E4206D26B6853F869
:104B60002600FFF7C9FF0136F5E7064E686833688F
:104B70009847336828469847024B20461B68BDE893
:104B8000F04118471400002070B50F4D10202B681D
:104B9000984700260446A0B10423436006602B68B2
:104BA00014209847054620B180E8500086600661D1
:104BB000C660A5602DB9054B20461B68984728465E
:104BC00070BD204670BD00BF1800002014000020FA
:104BD00070B50E4D10202B6898470026044698B1FA
:104BE0000523436006602B6810209847054618B1DE
:104BF00080E85000C6608660A5602DB9044B204651
:104C00001B689847284670BD204670BD18000020DC
:104C100014000020F8B5044608B90020F8BD04F0DF
:104C200020FA474E014625462018A8421AD92B786B
:104C300003F14002D2B2012AEFD9F42BEDD803F0F0
:104C4000C002802AE9D01A061CD503F0E002C02A6F
:104C500037D003F0F002E02A1CD003F0F802F02A6B
:104C6000DBD14BE02046FFF7D3FB05460028D4D02C
:104C7000FFF728FA044618B9324B28461B689847B4
:104C80002046F8BD0122A3F55843B3F5006FC4D305
:104C90001544CAE76F7807F0C002802ABDD1AA7810
:104CA00002F0C00EBEF1800FB7D103F00F0307F082
:104CB0003F0702F03F0247EA831342EA83130322CD
:104CC0000BE06A7802F0C007802FA6D102F03F0205
:104CD00003F01F0342EA831302227F2B9DD9B3F511
:104CE000006F02D2022A98D1CDE7B3F5803F02D2FD
:104CF000042A92D0C7E7B3428FD8C4E795F801E001
:104D00000EF0C002802A88D1AF7807F0C002802A56
:104D100083D1EA7802F0C00CBCF1800F7FF47DAF44
:104D200003F007030EF03F0E4EEA831307F03F0730
:104D300002F03F0247EA831342EA83130422CCE7DE
:104D4000FFFF10001400002038B5074B04461B6815
:104D500010200D46984728B10022032380E80C005C
:104D6000C0E9024538BD00BF18000020074B10B550
:104D70001B6804461020984738B1002206230034EF
:104D800080E80C0018BF0124846010BD18000020CA
:104D900008B5054B10201B68984718B10022012365
:104DA00080E80C0008BD00BF180000202DE9F04F7E
:104DB0000F46AD4985B005462C680A6894F9003065
:104DC000A94E1A44527812F0080F02D001342C6018
:104DD000F2E75B2B00F0C9800CDC2D2B00F04C813E
:104DE00003DC222B00F01A8185E1303B092B40F2D5
:104DF000438180E16E2B00F0738103DC662B00F0B1
:104E00001D8178E1742B00F019817B2B40F07381B8
:104E1000FFF7BAFE0446FFF7B5FC8046002C00F011
:104E20006A812B6893F900207B2A40F0648101336A
:104E30002B602B68326893F900100A4452781007EF
:104E4000F5D47D2900F08E807B1CDFF820B2009322
:104E50002B6893F90030002B5DD02846FFF742F90C
:104E600081462B68326893F900100A44527802F0A8
:104E7000080202F0FF00019012B101332B60F0E74D
:104E8000B9F1000F0DD03A290BD101332B60009BF3
:104E9000DFF8D8A1B3F5006F07D9DAF8003048463B
:104EA00098472046FFF728FE25E100992846FFF79E
:104EB0007DFF07460028F0D0024649464046FFF7EE
:104EC00012FC01300BD1DAF80020484690473846F2
:104ED000FFF712FE2046FFF70FFE019815E1DBF801
:104EE0000030484698472B68316893F900201144F8
:104EF0004978090702D501332B60F4E72C2A15D134
:104F000001332B602B68316893F900200A445278F2
:104F10001207F5D49CE72B68316893F900201144FF
:104F200049780F0702D501332B60F4E77D2AB8D109
:104F3000B8F1000F02D0D8F80C1000E0414640460E
:104F4000FFF7DEF90BE02C2A50D05D2AA9D1B8F189
:104F5000000F61D0D8F808104046FFF717FA01306B
:104F60009FD02B6801332B60C7E0FFF731FE04466A
:104F7000FFF717FC8046002C00F0BD802B6893F9EA
:104F800000205B2A40F0B78001332B602B68326829
:104F900093F900100A4452781007F5D45D29E1D046
:104FA00001372B6893F900305BB3B7F5006F3FF61C
:104FB00078AF39462846FFF7F9FE814600283FF4CE
:104FC00070AF01464046FFF703FA013003D148466F
:104FD000FFF792FD65E72B68316893F900201144D3
:104FE00049780907AFD501332B60F4E701332B6013
:104FF0002B68316893F900200A4452781007F5D4E1
:10500000CFE72B68316893F90020114449780907EC
:105010009BD501332B60F4E741469DE72846FFF717
:1050200061F80546002866D0FFF74CF804460028D2
:1050300063D10E4B28461B6898475EE00422214648
:105040000B4804F016F818B904342C60012008E06D
:1050500005222146074804F00CF800284BD10534FE
:105060002C60FFF783FE50E0380000201400002081
:10507000E8BB0008EDBB000803F0A0FE00240460BC
:1050800003A9286804F054FE06460F4603F096FE76
:10509000006890BBDDF80C802C68C4EB0803012B82
:1050A00013D994F90020302A03D194F901202E2A33
:1050B0002BD1022B09D002221549204603F0D9FF3B
:1050C00018B994F902302E2B1FD1C1464C4516D089
:1050D00019F9011D0F4803F0A4FF0028F6D00AE0DB
:1050E000042221460C4803F0C4FF20B904342C608C
:1050F000FFF74EFE09E0002007E0204605E0C5F876
:10510000008030463946FFF71FFE05B0BDE8F08F3E
:1051100001BC000804BC0008FCBB000807B50190F6
:1051200088B190F90030113309D190F9013045333D
:1051300005D190F90230413304BF033001900021C2
:1051400001A8FFF733FE03B05DF804FB00B5ADF234
:105150005C4D03AB0022009311460123FFF752FB85
:105160000028ACBF013000200DF25C4D5DF804FB5F
:1051700073B504460D461646FFF7E8FF50B1B0423E
:1051800008D800220092012329462046FFF73AFB67
:10519000C01701E04FF0FF3002B070BD014B1B683B
:1051A000184700BF1400002070B50546FFF7CEFF7A
:1051B000064670B1084B1B689847044648B1014643
:1051C00032462846FFF7D4FF0130204603D1FFF7CF
:1051D000E5FF002070BD70BD1800002020B119B19E
:1051E0000B680BB9FFF7F4B84FF0FF30704738B5D4
:1051F00004460846FFF70EFD054650B1014620461D
:10520000FFF7ECFF431C044606D12846FFF774FC69
:1052100003E04FF0FF3400E00024204638BD2DE9C4
:10522000F8430F461646054628B321B31AB314684F
:105230000CBBFFF747FA30B9324639462846BDE87D
:10524000F843FFF750BAFFF757FCD5F80C804445F8
:10525000F2D06B68394653F824004FEA840903F012
:10526000EEFE30B92B683360AB6843F80960BDE8E7
:10527000F8830134EBE74FF0FF30BDE8F88338B531
:10528000044610460D46FFF7C5FC29460246204657
:10529000BDE83840FFF7C3BF38B504460D46104699
:1052A0001946FFF751FD294602462046BDE8384021
:1052B000FFF7B5BF2DE9F047DFF8889005460C46AB
:1052C0009046B8F1000F39D0C4B32E21204603F028
:1052D000A8FE074630B9424621462846BDE8F047B9
:1052E000FFF79DBF011B2046FFF792F801460446D9
:1052F0002846FFF74FFADFF84CA00646B8B9FFF78B
:1053000043FC064648B1024621462846FFF7EBF922
:10531000013007D13046FFF7EFFBDAF800302046C6
:1053200098470BE021462846FFF734FA0646204608
:10533000D9F8003098477C1C3546C2E74FF0FF3063
:10534000BDE8F0871400002070B5044610460E46F4
:10535000FFF760FC054658B1024631462046FFF78C
:10536000A9FF431C044606D12846FFF7C5FB03E00E
:105370004FF0FF3400E00024204670BD70B50446B5
:105380000E4610461946FFF7DFFC054658B10246A7
:1053900031462046FFF78EFF431C044606D12846BF
:1053A000FFF7AAFB03E04FF0FF3400E000242046A3
:1053B00070BDFFF7E7B90000034B1A1803EB800339
:1053C000107A5B685B6818470C030020064B1A5C78
:1053D00042B901221A541A1803EB8003107A5B6851
:1053E0001B681847002070470C03002030B4054CA0
:1053F000251804EB800460688468287AA44630BCD1
:10540000604700BF0C03002030B4054C251804EBA6
:1054100080046068C468287AA44630BC604700BF36
:105420000C030020044B10B41C1803EB8003207AFB
:105430005B6810BC1B6918470C03002001380A4444
:10544000914204D011F8013B00F8013FF8E77047A2
:105450000244904202D000F8011BFAE770470000B6
:1054600070B5194A0024234652F8045C75B1D0F88F
:105470000062B5420BD11668D0F80852AE4206D190
:105480009688B0F80652AE4201D106E001240133FD
:10549000032B02F10C02E7D10DE051B90B4A0C21AC
:1054A00001FB03235B89B3F5807F14BF002010202C
:1054B00070BD102070BD24B902290CBF002012203D
:1054C00070BD002070BD00BFE8020020E402002093
:1054D00070B5244AD0F80062002352F8044CB4425C
:1054E00009D11568D0F80842A54204D19588B0F8D2
:1054F0000642A5420DD00133032B02F10C02ECD180
:10550000194A136873B1D3685BB1936943BB022333
:1055100008E0A1B114490C2202FB03125289FAB926
:1055200015E001230C245C4315191651D0F808220C
:105530006A60B0F806222A8100226A8139B90A49D4
:105540000C2202FB03125289013292B201E04FF4A5
:10555000807205480C2101FB0301581C4A8170BD73
:10556000002070BDE8020020E402002010B5441EB7
:10557000022C11D80A4A0C2303FB0421498921F487
:10558000807080B208B1013988B263431A445081F7
:1055900020B9034AD05010BD022010BD002010BD1C
:1055A000E4020020D0F82432D0F800220433490A63
:1055B00092F80202B1FBF0F1186830B1814202D3D7
:1055C000091A0833F8E75B68C818704700F10B0147
:1055D0000023DA0142EA530310F8012B52FA83F355
:1055E0008842DBB2F5D118467047026830B59AB1EF
:1055F00011460B4611F9014BE5B21F2D0AD93A2C81
:10560000F7D1511C8B4207D192F90020302A03D1E7
:1056100001330360002030BD4FF0FF3030BD08B5CE
:1056200090B1D0F800327BB193F8002262B1B3F8A8
:105630000612B0F80422914206D193F80102FFF756
:10564000BBFE10F0010000D0092008BDCA7E8B7E91
:10565000032843EA022301BF487D0A7D42EA002273
:1056600043EA02431846704770B5D0F82C520446FE
:10567000014601232A4690F80102FFF7C5FED0B982
:10568000D4F82032D4F8182284F80402EB1A93429A
:1056900001D3002070BD94F80362012EF9D9D4F82B
:1056A000183294F801021D442A4601232146FFF7CF
:1056B000ABFE013EF1E7012070BD90F804320BB162
:1056C000FFF7D2BF1846704738B50446FFF7F5FF1D
:1056D0000546002852D194F80032032B45D194F8A6
:1056E0000532012B41D101464FF400722046FFF7ED
:1056F000AFFE552284F8FE21AA2284F8FF2152220F
:10570000227062706122A27084F8E721D4F810221E
:1057100084F8E8214121E17084F8E611111284F83F
:10572000E911110C120E84F8EB21D4F80C2284F844
:10573000EA11111284F8EC2184F8ED11110C120E0B
:1057400084F8EF21D4F81C2284F8EE117220013283
:1057500084F8E40184F8E501C4F82C22214694F889
:105760000102FFF751FE84F805520022114694F819
:105770000102FFF757FE003018BF012038BDD0F8F6
:105780002C328B4270B506460D4612D0FFF795FFBE
:10579000044678B92A460123314696F80102FFF7FC
:1057A00025FE00281CBF4FF0FF350124C6F82C52FF
:1057B00000E00024204670BD002310B580F80432BC
:1057C0004FF0FF33C0F82C320446FFF7D8FFC0B9C2
:1057D00094F8FF2194F8FE3143EA02234AF6552259
:1057E000934210D1D4F83630084A23F07F439342D5
:1057F0000AD0D4F8520020F07F40801A18BF012050
:1058000010BD032010BD022010BD00BF4641540052
:105810002DE9FF4100230360074608461546FFF7C0
:10582000E4FE061EC0F228819D4B53F82640002C52
:1058300000F024813C6094F800328BB194F80102AE
:10584000FFF7BAFDC1070BD4002D00F0198100F05D
:10585000040303F0FF00002B00F01E810A201BE16F
:105860000023F0B284F8003284F80102FFF7AEFDA5
:10587000C20700F107810DB14307EFD40021204694
:10588000FFF79AFF01281CD104F5E371002211F8FB
:10589000043C03B10B684DF822300132042A01F1B7
:1058A0001001F4D100265DF826502DB1294620467E
:1058B000FFF782FF08B90BE002200136042EF2D177
:1058C000E2E0032800F0E38008B10D20E4E00546A3
:1058D000227BE37A43EA0223B3F5007FF5D1A37D6F
:1058E00094F810C0E07D84F803C253EA00200CF164
:1058F000FF3308BF606AC4F81802012BE5D8637B48
:1059000084F80232002BE0D05A1E1A42DDD194F8FE
:1059100012E0627C42EA0E2E1EF00F0FA4F808E29D
:10592000D3D1217DE27CE67B52EA0122A17B08BF34
:10593000226A51EA0621C8D000FB0CFC01EB1E17BD
:105940006744BA42C1D3D21BB2FBF3F3002BBCD0E5
:1059500040F6F572934203F1020601EB05022F4473
:1059600016D94FF6F5718B4240F29380C4F8146259
:10597000C4F81C52C4F82022C4F82872BEF1000FEB
:10598000A3D1E36AC4F824324FF00308B3001DE04A
:105990004FF00108C4F81462C4F81C52C4F8202265
:1059A000C4F82872BEF1000F8FD0B8F1020F4FEA91
:1059B000460318BF9B19624418BF06F00106C4F8DD
:1059C00024221CBF06EB53034FF0010803F2FF1320
:1059D000B0EB532FFFF479AF4FF0FF33C4F8103220
:1059E000C4F80C32B8F1030F4FF0800384F805328D
:1059F0002DD194F8312094F8303043EA0223012B62
:105A000025D1691C2046FFF7BAFE00BB94F8FF21A0
:105A100094F8FE3184F8050243EA02234AF655223F
:105A2000934214D122681F4B9A4210D103F1FF53C5
:105A3000D4F8E42103F5005320339A4201BFD4F88F
:105A4000E831C4F81032D4F8EC31C4F80C32164AFC
:105A500084F80082138801339BB21380A4F80632C5
:105A6000124A002319469858844208BF99500C33B3
:105A7000242BF8D100200FE00B200DE00C200BE0D0
:105A8000284609E0032007E003287FF41EAF012029
:105A900002E04FF002087DE704B0BDE8F08100BFEE
:105AA0000803002052526141E2000020E40200207D
:105AB000D0F814320239023B99423DBF90F80232CD
:105AC000D0F8280201FB0300002070470129F8B537
:105AD00006460D4659D9D0F81432994255D290F85D
