:020000040800F2
:10000000000002205D020008659900086799000859
:100010006F990008719900087399000800000000AA
:1000200000000000000000000000000075990008BA
:100030007799000800000000799900087B99000872
:10004000E9020008E9020008E9020008E9020008E4
:10005000E9020008E9020008E9020008E9020008D4
:10006000E9020008E9020008E9020008E9020008C4
:10007000E9020008E9020008E9020008E9020008B4
:10008000E9020008E902000889990008E90200086D
:10009000E9020008E9020008E9020008E902000894
:1000A000E9020008E9020008E9020008E902000884
:1000B00095990008E9020008A1990008E9020008E2
:1000C000E9020008E9020008E9020008E902000864
:1000D000E9020008E9020008AD990008E9020008F9
:1000E000E9020008E9020008E9020008E902000844
:1000F000E9020008E9020008E9020008E902000834
:10010000E9020008E9020008E9020008E902000823
:10011000E9020008E9020008E9020008E902000813
:10012000E9020008E9020008E9020008E902000803
:10013000E9020008E9020008E9020008E9020008F3
:10014000E9020008E9020008E9020008E9020008E3
:10015000E9020008E9020008E9020008E9020008D3
:10016000E9020008E9020008E9020008E9020008C3
:10017000E9020008E9020008E902000800000000A6
:10018000E9020008E902000807B503F009FC294B61
:10019000294883420BD293E806000C3353F8044CF1
:1001A0009442F6D951F8045B42F8045BF8E7234B1C
:1001B000234900208B4208D253F8082B53F8044CF3
:1001C000A242F7D242F8040BFAE703F0F5FB01A9CB
:1001D000684603F0DDFB1B4C1B4BE41AA410002502
:1001E0001E46AC4204DD56F8253098470135F8E745
:1001F000164B174CE41AA41000251E46AC4204DD31
:1002000056F8253098470135F8E79DE8030008F0D7
:1002100075FB104C104BE41A0646A4101D46002C2A
:1002200004DD013C55F824309847F8E7304603F0E8
:100230008CFB00BFEC020008040300080403000864
:100240001403000814030008140300081403000832
:100250001403000814030008140300081E48004794
:10026000FEE71EF0040F0CBFEFF30880EFF30980E8
:1002700071461A4A104710B5084C236B9B070BD5E3
:10028000E36A002B08DA4BF6AB6103F0A9FB18B167
:100290004FF00043E36210BDFEE700BF00ED00E059
:1002A000FEE71EF0040F0CBFEFF30880EFF30980A8
:1002B00071460B4A1047FEE71EF0040F0CBFEFF328
:1002C0000880EFF309807146064A1047FEE7FEE713
:1002D000FEE7FEE77047000089010008770200088A
:0A02E000B7020008CD020008FEE797
:1002EC0084E9000800000020E800002084E90008F0
:1002FC000000001000000010E80000204CA10120BC
:08030C000000001000000010C9
:1003200010B5044601F0C6F84FF47A73B0FBF3F051
:1003300000F0E4FA002221464FF0FF3000F08CFA82
:10034000002010BD08B50B4B1A6842F400721A6009
:100350001A6842F480621A601A6842F480721A6065
:10036000032000F067FA0020FFF7DAFF09F0A0F998
:10037000002008BD003C0240024A136801331360AC
:10038000704700BF3C030020014B1868704700BF56
:100390003C03002013B50190FFF7F6FF0446FFF77A
:1003A000F3FF019B001B9842F9D302B010BD00007F
:1003B00010B50446002800F09E80036C23B9436406
:1003C00080F83C3009F0A4F9236CDB0600F18E8044
:1003D000236C23F4885323F0020343F002032364C5
:1003E000464B5A6822F440325A60596862680A43A0
:1003F0005A60236821695A68A06A22F480725A60A0
:100400005A6842EA01225A605A6822F040725A60E1
:100410005968A2680A435A609A6822F400629A6096
:100420009968E2680A439A60354A90420ED099680A
:1004300021F0706199609A6802439A609A6822F08C
:1004400040529A609968E26A0A4306E09A6822F08C
:1004500070629A609A6822F040529A609A68A16924
:1004600022F002029A609A6842EA41029A60226A85
:100470009AB15A6842F400625A605A6822F46042A3
:100480005A604FF4604292FAA2F2B2FA82F1626AC2
:100490005868013A8A40024302E05A6822F4006236
:1004A0005A60DA6A22F47002DA62E269D96A013AC1
:1004B00041EA0252DA629A68216B22F400729A6071
:1004C0009A6842EA41229A609A68616922F48062DD
:1004D0009A609A68002042EA81229A606064236CE4
:1004E00023F0030343F00103236400E00120002311
:1004F00084F83C3010BD012010BD00BF0023014036
:100500000100000F82B00023019390F83C30012BD2
:1005100053D0012380F83C3003689A68D10703D593
:100520009A68D20712D43DE09A68254942F0010248
:100530009A60244A1268B2FBF1F202EB4202019285
:10054000019A002AECD0019A013AF8E7026C22F4F1
:10055000E06222F0010242F4807202645A6851059E
:1005600041BF026C22F4405242F480520264026C99
:1005700012F480521CBF426C22F006024264002238
:1005800080F83C206FF002021A605A6842F08062E4
:1005900042F020025A600C4A5268D20604D00B4A3C
:1005A000934201D0002009E0986810F04050F9D142
:1005B0009A6842F080429A6000E0022002B07047E0
:1005C00040420F00080000200023014000200140AD
:1005D0000368D86C70477047704738B5036819686E
:1005E0005A688D0704462BD5900629D5226CD10672
:1005F0005EBF226C42F4007222649A6812F0405F7F
:1006000017D1A269AAB9DA6A12F4700F02D09A68F7
:1006100052050ED45A6822F020025A60236C23F44B
:1006200080732364236CDB045EBF236C43F00103FF
:100630002364204608F044FA23686FF012021A601F
:10064000236819685A684D0732D5100630D5226CD8
:10065000D1065EBF226C42F4005222649A6812F402
:10066000401F1ED19A6B12F4401F02D09A685205A7
:1006700017D45A68550514D49A6812F0405F10D107
:10068000A26972B95A6822F080025A60236C23F47E
:1006900080532364236CD8055EBF236C43F00103B1
:1006A0002364204600F0C4F823686FF00C021A603F
:1006B000236819685A68C9070FD555060DD51B68F8
:1006C000D8070AD5236C43F4803323642046FFF710
:1006D00082FF23686FF001021A60236819685A6864
:1006E00089060DD552010BD5626C6FF0200542F0E2
:1006F0000202626420461D60FFF76EFF23681D60E2
:1007000038BD0000F7B50023019390F83C30012B71
:1007100069D00D6804688F680123092D80F83C308A
:10072000AEB210D906EB4602D4F80CE0A2F11E03DB
:1007300007229A402EEA0202E260E26807FA03F317
:100740001343E3600EE0226905EB45034FF0070E0B
:100750000EFA03FE22EA0E022261226907FA03F36F
:10076000134323614B68062B4FEA83020DD81344D1
:10077000676B591F1F238B4027EA03036363626B78
:1007800006FA01F1114361631DE00C2B0ED81344EE
:10079000216BA3F123021F23934021EA0303236368
:1007A000236B06FA02F21A4322630CE01344E76A51
:1007B000413B1F229A4027EA0202E262E16A06FAFE
:1007C00003F20A43E262164B9C4204D0002380F8F5
:1007D0003C30184622E0122D07D1124A536843F4E8
:1007E0008003536001E0022018E0A5F11003012B03
:1007F000ECD80C4A5368102D43F400035360E5D144
:10080000094B0A4A1B68B3FBF2F20A2353430193D4
:10081000019B002BDAD0019B013BF8E703B0F0BD50
:1008200000200140002301400800002040420F004A
:1008300070470000074AD36823F4E0631B041B0CD5
:1008400043F0BF63000243F4003300F4E06003436D
:10085000D360704700ED00E0174BDB68C3F3022361
:1008600030B5C3F107041D1D042C28BF0424062D38
:100870004FF0010505FA04F404F1FF348CBF033B8B
:1008800000230C409C4005FA03F3013B1A4000286A
:1008900042EA04024FEA0212AFBF00F1604000F0EA
:1008A0000F00064BD2B2A5BF00F56140D2B21A5478
:1008B00080F8002330BD00BF00ED00E014ED00E043
:1008C0004209012300F01F0003FA00F0014B43F836
:1008D0002200704700E100E0BFF34F8F0549064B4F
:1008E000CA6802F4E0621343CB60BFF34F8F00BFCE
:1008F000FDE700BF00ED00E00400FA050138B0F1AB
:10090000807F0AD2064B074A5860F02182F82310F4
:100910000020072298601A6070470120704700BFCE
:1009200010E000E000ED00E0044B1A6804280CBF62
:1009300042F0040222F004021A60704710E000E066
:10094000704708B5FFF7FCFF08BD00002DE9F04F28
:100950006D4F0B68DFF8B8C1DFF8B88185B00022B1
:100960000193BE460124019B944034EA030340F006
:10097000C3804D6825F0100ABAF1020F14D14FEA76
:10098000D20900EB890902F0070BD9F820604FEA81
:100990008B0B0F2303FA0BF326EA03060B6903FA0A
:1009A0000BF33343C9F820304FEA420B4FF00309F1
:1009B000036809FA0BF96FEA090905F0030603EA6F
:1009C000090306FA0BF60AF1FF3A3343BAF1010FB5
:1009D00003600FD88368CE6809EA030306FA0BF6B2
:1009E0001E4386604368C5F3001623EA040396405D
:1009F00033434360C36809EA03098B6803FA0BF3C6
:100A000043EA0903C360EB0076D500230393DCF8C7
:100A100044603E4B46F48046CCF84460DCF84460C9
:100A200022F0030909F1804906F4804609F59C3952
:100A3000039602F0030A039ED9F808B04FEA8A0A27
:100A40000F2606FA0AF698422BEA060620D003F58E
:100A5000806398421ED003F5806398421CD003F552
:100A6000806398421AD003F58063984218D04045BD
:100A700018D003F50063984216D003F580639842BE
:100A800014D003F58063984214BF092308230EE0B5
:100A900000230CE001230AE0022308E0032306E020
:100AA000042304E0052302E0062300E0072303FA01
:100AB0000AF33343C9F808303B68E64315F4803F36
:100AC0000CBF33402343CEF80030DEF8043015F479
:100AD000003F0CBF334023437B60BB6815F4801F8D
:100AE0000CBF33402343CEF80830DEF80C30AD02A3
:100AF00054BF33402343FB600132102A7FF432AFEE
:100B000005B0BDE8F08F00BF003C0140000002408E
:100B100000380240001402400369194214BF01204A
:100B20000020704702B90904816170472DE9F04146
:100B30000E461D4604469046FFF726FC330C07463A
:100B4000B8F1000F35D15FFA83F82368B8F1010FCF
:100B50000CBF5B699B69DB439BB2334214BF01232B
:100B60000023C3B16A1CF0D0CDB1FFF70DFCC01B50
:100B70008542EAD213E06B1C10D12368B8F1010F53
:100B80000CBF5B699B69DB439BB233420CBF012303
:100B90000023002BEFD10020BDE8F08165B90023D0
:100BA0002022236384F83C3084F83D200320BDE8F4
:100BB000F0815FFA83F8E0E7FFF7E6FBC01B8542B0
:100BC000DBD2ECE72DE9F0410D4604461646FFF76F
:100BD000DBFBC5F3074807462368B8F1010F0CBFDC
:100BE00058699869C04380B2284214BF0120002090
:100BF00040B35A69520512D51A6842F400721A605D
:100C00006FF480625A61042323642022002323634B
:100C100084F83C3084F83D200120BDE8F081731C4D
:100C2000DAD04EB900232022236384F83C3084F8C4
:100C30003D200320BDE8F081FFF7A6FBC01B8642E4
:100C4000CAD2EFE7BDE8F081C36A042BF7B50446CA
:100C50000D46174609D0C36A012B06D0C36A13F5A7
:100C6000803F02D0036B112B08D123681A6842F42D
:100C700080621A601A6842F480721A603B46002251
:100C80004FF001112046FFF751FFD0B92369B3F5AA
:100C9000804F236804D145F00105EDB21D6134E0B9
:100CA000EE1106F0060646F0F0021A611B493A46BC
:100CB0002046FFF787FF30B1236C042B01D10120C0
:100CC0002AE0032028E023681549EDB23A461D6169
:100CD0002046FFF777FF02460028EDD123680190F8
:100CE00059690191996901910199196841F48071DB
:100CF000196020463B464FF00111FFF717FF00280F
:100D0000DFD1236846F0F1061E613A4604492046C9
:100D1000FFF758FF0028CFD103B0F0BD0800010055
:100D20000200010070B504460D46FFF72DFB064694
:100D30002268536913F0400321D15169C9060BD5CC
:100D40006FF0100151612022236484F83C3023634A
:100D5000012084F83D2070BD5DB9236C43F0200371
:100D60002364202384F83D30002384F83C300320A2
:100D700070BDFFF709FB801B8542D9D2EDE700204B
:100D800070BD000070B50446002863D090F83D3077
:100D900003F0FF021BB980F83C2008F0E5FC226854
:100DA0002D4D242384F83D30136823F00103136094
:100DB00000F09AFB636822682849B0FBF1F1AB426E
:100DC0002E4688BF4FF49675516082BF69434FF439
:100DD0007A75B1FBF5F1B34201F10101116208D856
:100DE0005B00B0FBF3F0C0F30B03032B98BF0420B0
:100DF00016E0A16849B903EB4303B0FBF3F0C0F37D
:100E00000B0363B140F400400AE019214B43B0FBEF
:100E1000F3F0C0F30B0313B140F4404000E00120B5
:100E2000E169236AD0610B4313602169E3680B43D6
:100E300093606169A3690B43D360136843F00103B6
:100E4000136000202023206484F83D30206384F860
:100E50003E0070BD012070BDA086010040420F0021
:100E60002DE9F0431D4690F83D30202B85B0044617
:100E70000F46164601D00227CCE042F21073012241
:100E80006649FFF753FE80460028F4D194F83C30C1
:100E9000012BF0D0226813684FF0010923F400639E
:100EA00084F83C901360222384F83D30102384F8AA
:100EB0003E305B4B20643946E3620C9A2046FFF7D4
:100EC000C3FE074630B1236C84F83C80042B44D128
:100ED0004F469FE0236855B900905A6900929A697D
:100EE0000092009A1A6842F400721A608AE0012D9A
:100EF0001A680DD122F480621A6001905A69019239
:100F00009A690192019A1A6842F400721A6018E014
:100F1000022D0DD122F480621A601A6842F4006238
:100F20001A6002905A6902929B690293029B08E040
:100F300042F480621A6003905A6903929B6903939A
:100F4000039B032D45D8012D0FD10C992046FFF7A7
:100F5000E9FE30B1236C202B01D103275AE0012791
:100F600058E023681B6933704CE0022D0C9B2D491F
:100F70004FF0000220460ED1FFF7D8FD0028ECD13B
:100F800023681A6842F400721A601B693370236880
:100F90001B69737036E0FFF7C9FD02460028DCD1FB
:100FA0002368196821F4806119601B6933701D4939
:100FB0000C9B2046FFF7BAFD0028CED123681A68A3
:100FC00042F400721A601B69737023681B69B37066
:100FD00018E00C992046FFF7A5FE0028BAD1236837
:100FE0001B69337023685A69520751BF05F1FF35F9
:100FF000023D1B69737055BFADB2ADB2013602360A
:10100000002D9ED1202384F83D30002384F83E300B
:1010100084F83C30384605B0BDE8F083020010008B
:101020000000FFFF0400010003682DE9F3410446BE
:10103000D80703D42368990737D487E0A74B9A6869
:1010400002F00C02042A07D09A6802F00C02082A67
:101050000BD15B685A0208D5A04B1B689B03E9D5EE
:101060006368002BE6D1012034E19D4B22791A7090
:1010700063686BB1FFF788F9984D06462B689F03AC
:10108000D8D4FFF781F9801B6428F7D9032021E128
:10109000FFF77AF9914D06462B689803CAD5FFF7FA
:1010A00073F9801B6428F7D9F0E78C4B9A6812F02B
:1010B0000C0F07D09A6802F00C02082A17D15B685F
:1010C000590214D4854B1A68920702D5E268012AA6
:1010D000C9D11A68F82191FAA1F12069B1FA81F118
:1010E00000FA01F122F0F8020A431A602EE0E268E9
:1010F0007C4BEAB101221A60FFF746F9774D0646AC
:101100002B6876489B0705D4FFF73EF9801B022821
:10111000F6D9BBE70368F82292FAA2F22169B2FA83
:1011200082F201FA02F223F0F803134303600DE0A8
:101130001A60FFF729F9694D06462B689F0705D508
:10114000FFF722F9801B0228F7D99FE723681E07C3
:1011500003D423685D0745D51FE06269624B72B115
:1011600001221A60FFF710F95C4D06466B6F980775
:10117000EFD4FFF709F9801B0228F7D986E71A6038
:10118000FFF702F9554D06466B6F9907E1D5FFF75A
:10119000FBF8801B0228F7D978E7002301934F4B17
:1011A000524D1A6C42F080521A641B6C03F080534B
:1011B0000193019B2B6843F480732B60FFF7E4F8E5
:1011C00006462B68DA0510D5494B227A1A70A368B7
:1011D000BBB1FFF7D9F8414D064641F288372B6F76
:1011E0009B0708D5A269DAB959E0FFF7CDF8801B53
:1011F0000228E6D94AE7FFF7C7F8801BB842EED9C4
:1012000044E7FFF7C1F8354D064641F288372B6FAA
:101210009807E7D5FFF7B8F8801BB842F7D935E74C
:101220002E4DAB6803F00C03082B3FF41CAF314E7E
:101230000023022A336041D1FFF7A6F880462B68CD
:10124000264F99012DD447F6C07292FAA2F24FF4BC
:101250004033B2FA82FE93FAA3F34FF07062B3FA0E
:1012600083F592FAA2F2E069236AB2FA82F1626A25
:10127000034302FA0EF243EA0200A36A5A08013A53
:1012800002FA05F3E26A03438A4013437B600123B9
:101290003360FFF779F804463B689A0108D50020CF
:1012A00018E0FFF771F8C8EB00000228C7D9EDE697
:1012B000FFF76AF8001B0228EED9E7E6FFF764F8AB
:1012C00004462B689B01EAD5FFF75EF8001B022855
:1012D000F7D9DBE602B0BDE8F08100BF003802407C
:1012E0000238024000004742800E47420070004032
:1012F00070380240600047424D4B1A6802F00F02FE
:101300008A422DE9F04105460E460AD3296888072E
:1013100011D54848836823F0F002AB68134383601B
:1013200009E0CAB21A701B6803F00F039942EDD0AE
:101330000120BDE8F081C90706D43D4B1A6802F0D0
:101340000F02964253D359E06B683A4A012B03D1FE
:10135000126812F4003F08E0991E0129126802D8B1
:1013600012F0007F01E012F0020FE1D0314CA268D0
:1013700022F003021343A360FFF706F86B68012B0A
:1013800007460ED141F28838A36803F00C03042B02
:10139000D3D0FEF7F9FFC01B4045F5D90320BDE8C7
:1013A000F081022B0CD141F28838A36803F00C03C2
:1013B000082BC2D0FEF7E8FFC01B4045F5D9EDE78A
:1013C000032B08D141F28835A368FEF7DDFFC01B6F
:1013D000A842F9D9E2E741F28838A36813F00C0F6C
:1013E000ABD0FEF7D1FFC01B4045F6D9D6E7F2B22D
:1013F0001A701B6803F00F039E4299D129684A07AF
:1014000006D50C48836823F4E052EB6813438360ED
:101410000B0707D5074A2969936823F4604343EA19
:10142000C10393600020FEF77BFF0020BDE8F08140
:10143000003C0240003802401B498B6803F00C035B
:10144000042B2CD0082B2CD148684B6800F03F00AF
:1014500013F4800F47F6C0724B6892FAA2F247F677
:10146000C071B2FA82F201EA030121FA02F114BF5B
:101470000E4A0F4AB2FBF0F00B4A00FB01F3526830
:101480004FF4403090FAA0F002F44032B0FA80F00D
:1014900022FA00F001304000B3FBF0F0704703483F
:1014A00070470348704700BF00380240001BB70078
:1014B0000024F40008B5FFF7BFFF084BF0229B683B
:1014C00092FAA2F2B2FA82F203F0F003D340044A95
:1014D000D35CD840034B186008BD00BF0038024001
:1014E000E4E000080800002008B5FFF7E3FF074B21
:1014F0004FF4E0529B6892FAA2F2B2FA82F203F43D
:10150000E053D340024AD35CD84008BD00380240C3
:10151000E4E0000808B5FFF7CDFF074B4FF4604249
:101520009B6892FAA2F2B2FA82F203F46043D340CB
:10153000024AD35CD84008BD00380240E4E000080D
:1015400003682DE9F341D907044618D423689A07A4
:1015500040F18B8000230193464B474D1A6C42F0BB
:1015600080521A641B6C03F080530193019B2B681B
:1015700043F480732B60FEF707FF064639E03F4EC9
:101580003C4F00233360FEF7FFFE80463B68394D39
:101590001B0107D5FEF7F8FEC8EB00000228F5D9BD
:1015A000032063E047F6C07191FAA1F14FF0E043E8
:1015B000B1FA81F193FAA3F3B3FA83F2636803FA01
:1015C00001F1A36893400B43C5F8843001233360D5
:1015D000FEF7DAFE06462B681801B7D4FEF7D4FEF4
:1015E000801B0228F7D9DBE7FEF7CEFE801B02281E
:1015F000D6D82B68D905F7D51E4DE3682A6F53401E
:1016000013F4407F31D01E4A2B6F01201060002060
:10161000106023F440719A0729670FD4E26802F43E
:101620004073B3F5407F134B16D1996821F4F8103D
:1016300022F0704121F44071014310E0FEF7A4FE56
:1016400041F2883706462B6F9B07E7D4FEF79CFED6
:10165000801BB842F7D9A3E7996821F4F811996083
:10166000196FC2F30B020A431A67002002B0BDE8EB
:10167000F08100BF0038024000700040680047421F
:10168000400E4742026838B5D36823F0A003D36008
:101690000446FEF779FE05462368DB689B0607D4FF
:1016A000FEF772FE401BB0F57A7FF5D9032038BDF6
:1016B000002038BD38B50368DA685206044601D503
:1016C000002038BD4FF0FF32DA60FEF75DFE0546C0
:1016D0002368DB685B06F3D4FEF756FE401BB0F5CB
:1016E0007A7FF5D9032038BD10B5044600283DD0D7
:1016F000437F03F0FF0213B9027708F05DF802237D
:1017000063772368CA225A6253225A622046FFF73F
:10171000D1FF236820B1FF225A620423637725E0BA
:101720009A6822F4E00222F040029A6099686268A6
:1017300011432269114362690A439A60E2681A619F
:101740001A69A16842EA01421A61DA6822F080024D
:10175000DA601A6C22F480221A64196CA2690A43B6
:101760001A64FF225A620123637710BD012010BD65
:101770000023092803D90A380133C0B2F9E740EA47
:101780000310C0B27047F8B5037F012B06460F4621
:101790004FF0020564D0012303770368457708788A
:1017A000BD7849789B68AAB913F0400308BFFB7065
:1017B000FFF7DEFF04460846FFF7DAFF0246284639
:1017C000FFF7D6FFFB7840EA034040EA044040EAD6
:1017D00002240AE013F0400308BFFB70090241EA4B
:1017E0000044F878254345EA00443368CA225A6227
:1017F00053225A623046FFF75DFF3368054630B129
:10180000FF225A6204237377002333771FE004F02A
:101810007F3020F0FE4018609A6822F480229A609F
:101820009968FA6811433A690A439A60DA6822F0C3
:101830008002DA609B689B060BD43046FFF722FFDC
:1018400038B13368FF225A62042373773577012554
:1018500006E03368FF225A6201237377002333774F
:101860002846F8BDF8B5037F012B06464FF0020568
:1018700057D00123037745774B78C8788D780F7858
:10188000002A47D1DA0603D523F010020A324A7043
:10189000FFF76EFF04464878FFF76AFF02462846C6
:1018A000FFF766FF40EA473040EA044040EA02247E
:1018B0003368CA225A6253225A623046FFF7FAFE50
:1018C0003368054630B1FF225A6204237377002340
:1018D000337715E024F07F4020F0C0005860DA68CC
:1018E00022F08002DA609B689B060BD43046FFF73B
:1018F000C9FE38B13368FF225A6204237377357703
:1019000001250EE03368FF225A620123737700231A
:10191000337706E01B0243EA0040284340EA47349D
:10192000C6E72846F8BD00F00F03000900EB800071
:1019300003EB4000C0B270470368986A486070B516
:1019400018691D6805F07F3323F0FE43C0F30E00D5
:101950001E0C8860C3F3062406F03F0005F07F05E7
:1019600006F0400608704C708D70CE7052B9FFF7CB
:10197000DAFF08702046FFF7D6FF48702846FFF7C9
:10198000D2FF8870002070BD38B503685C6824F011
:101990007F4323F0C003180CC3F3042504F03F0475
:1019A000C3F34233C8704D708C700B7052B9FFF79F
:1019B000BAFFC8702846FFF7B6FF48702046FFF709
:1019C000B2FF8870002038BD03685A6B12F0450FD3
:1019D000FBD05A6B520703D504229A630320704749
:1019E000586B10F0010015BF012040F2FF529863C0
:1019F0009A63704770B5436A86B01B0401930D2348
:101A0000054602934023002203930E464FF4806361
:101A100001A9006800920492059301F060FF286814
:101A2000436B13F0450FFBD0436B5B0703D50423D7
:101A3000836303207CE0436B13F0010403D0012394
:101A40008363184674E001F05DFF0D2801D010207B
:101A50006EE02B6840F2FF529A63204601F056FF79
:101A60000090009B3348C3F343233370009B18401E
:101A700000285DD0009B002B39DB009B5D0038D433
:101A8000009B9C0037D4009BD90036D4009B1A01E0
:101A900035D4009B5B0134D4009BDE0133D4009B22
:101AA0001D0232D4009B5C02D1D4009B99022ED43B
:101AB000009BDA022DD4009B1B032CD4009B5E03F9
:101AC0002BD4009B9D032AD4009BDC0329D4009BCC
:101AD000190428D4009B5A0427D4009B9B0426D4C5
:101AE000009B13F0080F0CBF00201A2020E01C20E0
:101AF0001EE009201CE00A201AE00B2018E00C2050
:101B000016E00D2014E00E2012E00F2010E011204E
:101B10000EE012200CE013200AE0142008E015204B
:101B200006E0162004E0172002E0182000E019204B
:101B300006B070BD08E0FFFD70B5054600680E46B2
:101B4000436B13F0450FFBD0436B5B0703D50423B6
:101B50008363032070BD436B13F0010402D00123A3
:101B6000836339E001F0CEFEB04201D0102070BD99
:101B70002B6840F2FF529A63204601F0C7FE284BC3
:101B800003404BB3002829DB450029D4840029D425
:101B9000C10029D4020129D4430129D4C60129D482
:101BA000050229D44402E1D4810227D4C20227D4F9
:101BB000030327D4460327D4850327D4C40327D49B
:101BC000010427D4420427D4830427D410F0080F3B
:101BD0000CBF00201A2070BD184670BD1C2070BDBF
:101BE000092070BD0A2070BD0B2070BD0C2070BD97
:101BF0000D2070BD0E2070BD0F2070BD112070BD76
:101C0000122070BD132070BD142070BD152070BD52
:101C1000162070BD172070BD182070BD192070BD32
:101C200008E0FFFDF0B58FB0002305460193029355
:101C30001024402206930E464FF4806303A9082720
:101C40000068039704940592079301F048FE21462B
:101C50002846FFF771FF002861D16B6A2868A3400E
:101C600003A937240393049401F039FE2146284642
:101C7000FFF762FF0446002851D14FF0FF3308936D
:101C800030230A9302230B930C90012308A92868A0
:101C90000D93099701F046FE039403A933242868A5
:101CA000049401F01CFE21462846FFF745FF00285A
:101CB00035D16C462868426B40F22A6313403BB929
:101CC000436B9F02F7D501F0FAFD44F8040FF1E7EA
:101CD000436B190703D50823836304201FE0436B7C
:101CE0009A0702D50223836318E0436B9B0603D552
:101CF00020238363062012E0436B13F4007304D0A7
:101D00004FF400738363072009E040F2FF528263BF
:101D1000019A12BA7260029A12BA326018460FB073
:101D2000F0BD026A81F85620426AA1F85420826A06
:101D30000346900F0870C2F38360C2F301624870DB
:101D40008A7093F82A20CA7093F829200A7193F8B0
:101D500028204A71DA6A100E0001C880C888F0B5E0
:101D600080B2C2F303542043C2F30342C8800A7214
:101D700093F82D20D0094872C2F380108872C2F304
:101D80004010C872C2F300100873002048731C6A28
:101D9000012C3CD8920202F440620A61DA6A0C69B2
:101DA000920002F47F7222430A610C691A6B44EAC2
:101DB00092740C61C2F3C264C2F302620C754A757C
:101DC0005A8ED4B25200650902F00602C4F38204AE
:101DD0008D75CC750A760C7E93F8312044EAD214C6
:101DE0000C760C6991F818E0661C0C7A012505FA4E
:101DF00004F40EF1020E05FA0EFE0C65A6FB044576
:101E0000AEFB04670EFB0577C1E9126723E0022CE5
:101E100020D1DA6A120402F47C120A611A6B0C698E
:101E2000150E44EA05240C610C69C2F307452C43E6
:101E30000C610C690025013445F10005ED0445EA0B
:101E40005435E4048C644FF40074C2F30722CD646B
:101E50000C6500E02920C2F38014520002F07E02DB
:101E60004C768A761A6B8D7EC2F3C0142C4302F036
:101E70007F028C76CA765A6BD40F0C77C2F341740A
:101E80004C77C2F38264920D02F00C028C77CA7711
:101E9000DA8ECD7FD4B245EA9415C4F34014CD77E1
:101EA00002F0010281F82040002481F8214081F8ED
:101EB00022205C6B240AE2B2D50981F82350C2F3D8
:101EC000801581F82450C2F3401581F8255004F0A4
:101ED0000304C2F30015C2F3810281F8265081F891
:101EE000272081F828405A6B0124C2F3460281F86A
:101EF000292081F82A4093F83B2081F82C209A6B06
:101F0000C2F307452D02CD85CD8DAEB2C2F30725B4
:101F100035431206CD850A63DA6B0D6B160E45EA62
:101F200006450D630E6B150A05F47F4535430D63B9
:101F30000D6BC2F307263543D2B20D6381F834200E
:101F400093F8432081F835201A6C150C2D068D630B
:101F50008E6B150205F47F0535438D638D6B120280
:101F600002F47F422A438A638D6B5A6C45EA1265FC
:101F70008D6391F83C50C2F3074245EA12151202F4
:101F800002F4706281F83C50CA875B6CCA8F95B2CC
:101F9000C3F307222A43C3F34603CA8781F84030BC
:101FA00081F84140F0BD00002DE9F04F002591B0CF
:101FB000057704460E468DF8125007F009FC76238B
:101FC0000F930D950E9510AB13E907008DE80700F0
:101FD0000A950B950C959E4F20680AAB0ECB01F02D
:101FE00053FC8DF8135020683D6001F070FC012017
:101FF000FEF7D0F901233B6005A94FF48063206808
:102000000993059506950795089501F068FC2068E9
:10201000436B4FF48032C3F3C013002B40F07E813A
:10202000436B013AC3F3C013F7D103238DF8133088
:102030009DF8133003F0FF05002B40F0A3804FF410
:10204000D57305930823069305A94023079301F050
:1020500046FC2068436B13F0450F14BF0122002299
:102060004FF4803342B93BB1426B12F0450F14BFBD
:1020700001220022013BF5E7426B0BB1570703D564
:1020800004238363032505E0436B590646BF4023C1
:10209000836329258DF813509DF81320002322B95E
:1020A000012222624FF0804500E01D46372705A936
:1020B0000593069701F013FC39462046FFF73CFDD7
:1020C0008DF813009DF8133003F0FF08002B59D151
:1020D00045F00045C14645F48015372705A94FF066
:1020E000400B4FF4806A20680697CDF81490CDF825
:1020F0001CB0CDF82090CDF824A001F0F0FB3946BB
:102100002046FFF719FD8DF813009DF8133003F0FA
:10211000FF07002B36D1292305A9206806930595D2
:10212000CDF81CB00897CDF824A001F0D8FB2368A7
:102130005A6B12F0450FFBD05A6B520745BF042271
:10214000032740F2FF529A6358BF9A638DF81370C9
:102150009DF8133003F0FF00A3B901F0D7FB00286E
:1021600008F101084FF6FF7302DB9845B5D101E095
:10217000984503D11B238DF8133003E0430044BF7F
:10218000022323629DF81330DBB28DF812309DF8E4
:10219000123003F0FF05002B40F0BA80206801F0F8
:1021A0009AFB002800F08080236A042B20D00223B1
:1021B0000693C023079305A94FF480632068059513
:1021C0000895099301F08BFB2046FFF7FDFB0028E3
:1021D0006CD101F09BFBA063042001F097FBE0634E
:1021E000082001F093FB20640C2001F08FFB606459
:1021F000236A022B01D9062B32D10323069305A9AA
:1022000040232068079301F06AFB2068436B13F0BA
:10221000450FFBD0436B5F0703D50423836303257E
:1022200045E0436B13F0010702D0012585633EE0D2
:1022300001F068FB032876D1236840F2FF529A63CD
:10224000384601F063FB10F4604F03D1000C08E046
:10225000A0802542810468D4420464D4030466D477
:102260000120236A042B22D0606209230004059018
:10227000069305A9C0232068079301F030FB204690
:10228000FFF7A2FB054690B901F040FBA0620420D5
:1022900001F03CFBE062082001F038FB20630C20D9
:1022A00001F034FB606302E0252500E005468DF86F
:1022B00012509DF812305BBB31462046FFF731FDCE
:1022C0008DF812009DF8123003F0FF02ABB9B6F89A
:1022D0005430206808921B04059340230725079378
:1022E00005A94FF480630993069501F0F8FA294691
:1022F0002046FFF721FC8DF8120004F1100393E84B
:1023000007008DE80700231D0ECB206801F0BCFA02
:102310009DF81200C0B211B0BDE8F08F40F2FF533B
:102320008363002382E61025C1E71325BFE70F254D
:10233000BDE700BFF0B5036A032B8DB005460E461E
:1023400000F08480022B00F28380B1F5805F00F002
:102350008180B1F5006F29D100200490059001F033
:10236000D5FA80016ED404A92846FFF75BFC044629
:10237000002872D1059B590366D56B6A09901B042E
:10238000069340233727089306A94FF480632868F3
:102390000A93079701F0A3FA39462846FFF7CCFBCA
:1023A0000446002859D10223069329E0002953D17D
:1023B00008460491059101F0A9FA820142D404A9CA
:1023C0002846FFF72FFC0446002846D1059BDB0377
:1023D0003AD56B6A09901B0406934023372708936C
:1023E00006A94FF4806328680A93079701F077FAEB
:1023F00039462846FFF7A0FB044600282DD1069059
:10240000062406A92868079401F069FA214628469F
:10241000FFF792FB044600BB6B680693AB6807931B
:10242000EB6808936B690A93AB690B9309960CAB45
:1024300013E907008DE8070006AB0ECB286801F012
:1024400023FA0AE00E2408E0252406E0272005E010
:10245000002003E0272400E0262420460DB0F0BD34
:1024600030B587B000234022044601930C25049325
:1024700001A94FF48063006803920593029501F06F
:102480002EFA29462046FFF757FB07B030BD2DE94D
:10249000F0430446006817460022C262226A022AFC
:1024A0008DB004BF7F0A47EAC3574FF04003039340
:1024B0004FF00003DDF85080049308BF4FF400781C
:1024C00010264FF480630D4601A902960593DDF8AE
:1024D0005490CDF8048001F002FA31462046FFF70F
:1024E0002BFB0646002840F090804FF0FF33069308
:1024F00009FB08F3079390230893022309930A909A
:10250000012306A920680B9301F00CFAB9F1010F21
:102510008CBF1223112301A920680293019701F0B7
:10252000DEF9B9F1010F1AD912212046FFF704FB99
:1025300000286BD12268516B40F22A330B404BBB11
:10254000536B1804F7D52F1F05F11C08206801F004
:10255000B6F947F8040FB845F8D12035EAE711215C
:102560002046FFF7E9FA002850D12268516B40F26B
:102570002A630B4073B9536B1904F7D52F1F05F16C
:102580001C08206801F09BF947F8040FB845F8D102
:102590002035EAE723685B6BDB0509D5B9F1010F4C
:1025A00006D9236A022B03D82046FFF759FF0646B7
:1025B00023685A6B170703D508229A63042025E085
:1025C0005A6B900702D5022098631FE05A6B910660
:1025D00003D520229A63062018E05A6B920502D494
:1025E0004FF0FF370AE04FF400729A6307200DE0C6
:1025F00047B101F064F945F8040B013F2068436BD3
:102600009B02F5D440F2FF53836330460DB0BDE822
:10261000F0832DE9F04705468CB00068DDF8508066
:10262000159F144600228DF80320C2622A6A022AEE
:1026300004BF640A44EAC3544FF0400303934FF0CD
:10264000000308BF4FF400784FF0100904930E46C2
:102650004FF4806301A9CDF80480CDF8089005936C
:1026600001F03DF949462846FFF766FA002840F098
:10267000C380012F8CBF1923182301A92868029356
:10268000019401F02CF9012F8CBF19211821284643
:10269000FFF752FA0446002840F0AE804FF0FF33B7
:1026A00006939023089309900A90012307FB08F8EA
:1026B00006A92868CDF81C800B9301F033F9012F8F
:1026C00040D92B68596B40F21A320A409ABB596BB9
:1026D0004904F7D5C4EB08031F2B13D813F0030FDD
:1026E0004FEA930318BF01334FEA830906EB090A47
:1026F000564505D03146286801F0E4F80436F7E77E
:102700004C440DE0914606EB0901286809F10409E3
:1027100001F0D8F8B9F1200FF5D106F1200A2034E4
:102720005646CEE7596B49040ED4596B40F21A62F3
:102730000A40002AF6D02B685B6BD80529D430E01C
:102740004C4456462B68F0E7C4EB08031F2B11D806
:1027500013F0030F4FEA930318BF01334FEA8309C5
:1027600006EB090A5645EBD03146286801F0AAF875
:102770000436F7E7914606EB0901286809F10409D8
:1027800001F0A0F8B9F1200FF5D106F1200A2034AC
:10279000D7E7012F05D92B6A022B02D82846FFF76D
:1027A0005FFE2B685A6B140703D508229A63042036
:1027B00022E05A6B900702D5022098631CE05A6B06
:1027C000D10603D510229A63052015E05A6B9205B5
:1027D00004D54FF400729A6307200DE040F2FF52D7
:1027E0009A630DF103012846FFF704F920B99DF81B
:1027F0000330063B012BF4D90CB0BDE8F08730B5AF
:10280000436A87B01B0401934023039300230446CB
:102810000D25049301A94FF4806300680295059388
:1028200001F05DF829462046FFF786F938B901F036
:102830006DF8C0F34320043818BF012000E00220E7
:1028400007B030BD4368B3F5827F0BD18368B3F521
:10285000004F02D0B3F5806F04D10268136823F0F3
:1028600040031360002070472DE9F041069D0446A7
:10287000884617461E462368986800EA0800B84252
:1028800033D0721CF8D04EB923685A6822F0E002A7
:102890005A606268B2F5827F11D105E0FDF774FDE0
:1028A000401B8642E7D8EFE7A268B2F5004F02D09E
:1028B000B2F5806F03D11A6822F040021A60A26A52
:1028C000B2F5005F08D119684DF6FF720A401A6030
:1028D0001A6842F400521A60012384F85130002330
:1028E00084F850300320BDE8F0810020BDE8F0817D
:1028F00013B50B460092802100220446FFF7B4FF77
:1029000020B1636D43F020036365032002B010BD66
:1029100038B50446002839D090F8513003F0FF0252
:102920001BB980F8502006F087FFA1686068A56A8F
:102930000843E16808432169022384F851300843C1
:10294000236861691A680843E16922F0400208437C
:10295000216A1A60A2690143294302F4007001430D
:102960001960120C616A02F004020A43B5F5005FB7
:102970005A6004BFE26A1A61DA6922F40062DA611D
:1029800000200123606584F8513038BD012038BD36
:102990002DE9F3411D4690F85030012B04460E46B8
:1029A000904600F09D80012380F85030FDF7ECFC4C
:1029B000074694F85100C0B2012840F08980002EEB
:1029C00000F08780B8F1000F00F08380032384F8C3
:1029D000513000236365A363A387E38763642364A3
:1029E000A36820682663B3F5004F08BF0368A4F806
:1029F000348008BF43F48043A4F8368008BF0360E6
:102A0000A36AB3F5005F08D102684DF6FF73134067
:102A10000360036843F40053036003685B065EBF12
:102A2000036843F040030360E368B3F5006F20D10F
:102A3000E38E0BB322689168880705D536F8021B30
:102A4000D160013BE386F3E70DB9032041E0691C47
:102A5000EED0FDF799FCC01B8542E9D8F5E7236865
:102A60009A68920712D516F8012B1A73E38E013B70
:102A7000E386E38E002BF2D1A36AB3F5005F0FD19A
:102A80002268136843F48053136009E0002DDCD002
:102A90006B1CEED0FDF778FCC01B8542E9D8D4E76B
:102AA0003A4629462046FFF723FF18B1636D43F0ED
:102AB00020036365A36833B901932368DA68019240
:102AC0009B680193019B606D003018BF012000E0FE
:102AD0000220012384F85130002384F8503000E0B4
:102AE000022002B0BDE8F0812DE9F04385B099469F
:102AF0000023ADF80E3090F850300C9F012B0446A7
:102B00000D46164600F0F180012380F85030FDF7A5
:102B10003BFC94F85130012B80460DD06368B3F52F
:102B2000827F40F0D780A368002B40F0D38094F8D8
:102B30005130042B40F0CE80002D00F0CD80002ECF
:102B400000F0CA80B9F1000F00F0C68094F851304F
:102B5000A663012B04BF052384F85130002363656D
:102B600023646364A36AA4F83E90B3F5005FA4F8FD
:102B70003C902563A4F83690A4F83490236808D1DB
:102B800019684DF6FF720A401A601A6842F4005242
:102B90001A601A6852065EBF1A6842F040021A6054
:102BA000E368B3F5006F42D1E38EE18F33B322685F
:102BB000906880070ED5013B35F8020BD0609BB2C0
:102BC000E3863BB9A36AB3F5005F02BF136843F421
:102BD0008053136049B123689A68D20705D5DB6832
:102BE00026F8023BE38F013BE387781CDCD0FDF73E
:102BF000CBFBC8EB00008742D6D84AE00029E9D1D8
:102C0000A36AB3F5005F4DD136E023689A68910757
:102C10001ED52A781A73E38E013B9BB205F1010998
:102C2000E38643B1E38FABB97B1C1ED14D46E38EE7
:102C3000002BEAD109E0A36AB3F5005FF2D1226864
:102C4000136843F480531360ECE7E38F002BD7D075
:102C5000A946E7E723689A68D207E5D5DB683370B1
:102C6000E38F013BE3870136DEE7FDF78DFBC8EB21
:102C700000008742DAD80CE00122CDF800803B4604
:102C800011462046FFF7F0FD28B1636D43F00203C3
:102C90006365032521E02368DB689BB2ADF80E3045
:102CA000BDF80E302268956815F0100507D0636DE9
:102CB00043F0020363654FF6EF73936001254246CC
:102CC00039462046FFF714FE38B1636D43F0200308
:102CD000636501E0022500E00125012384F85130FD
:102CE000002384F85030284600E0022005B0BDE8FB
:102CF000F0832DE9FF411D460023ADF80E304368F7
:102D0000B3F5827F04460E4617460AD1836843B95D
:102D1000042380F85130134600950A46FFF7E4FE7D
:102D2000D2E094F85030012B00F0CD80012384F8DC
:102D30005030FDF729FB94F85130012B804640F0CC
:102D4000BA80002E00F0B580002F00F0B28004237E
:102D500084F85130002363652363A386E3862364EC
:102D60006364A36AA663B3F5005FA787E78721685A
:102D70000AD10A684DF6FF7313400B600B68013FE0
:102D800043F400530B60E787A368B3F5004F02BF1D
:102D90000B6823F480430B600B685B065EBF0B6817
:102DA00043F040030B60E36813BBE38F002B2ED08E
:102DB00023689A68D70706D51B7B06F8013BE38F8B
:102DC000013BE387F1E7002D4AD0681CEDD0FDF709
:102DD000DBFAC8EB00008542E7D841E023689A6837
:102DE000D10709D5DB6826F8023BE38F013BE38777
:102DF000E38F002BF2D10AE0002D31D06A1CF7D00E
:102E0000FDF7C2FAC8EB00008542F1D828E0A36ABA
:102E1000B3F5005F2DD12268136843F4805313602B
:102E20000122CDF800802B4611462046FFF71CFDFD
:102E3000B0B9E368B3F5006F23684FF001020BBF30
:102E4000DB681B7B33803370CDF800802B46114646
:102E50002046FFF709FD28B1636D43F00203636567
:102E6000032029E02368DB689BB2ADF80E30BDF883
:102E70000E302046FFF7E6FC18B1636D43F02003E7
:102E80006365424629462046FFF732FD20B1636D57
:102E900043F020036365012022689368DB0606D5B2
:102EA000636D43F0020363654FF6EF739360636DE8
:102EB00013B1012000E00220012384F851300023E7
:102EC00084F8503000E0022004B0BDE8F0810268D0
:102ED000022380F83930136843F0010313600123A3
:102EE00080F83930002070470368DA6842F0010248
:102EF000DA601A6842F001021A600020704790F808
:102F00003830012B70B54FF0020300F0B08080F82C
:102F100039300368012280F838209A6822F47F4211
:102F200022F077029A600A68402A77D018D8102ACF
:102F300000F08B8008D8002A40F093809A6822F035
:102F4000700242F007028BE0202A00F08480302AD1
:102F500040F087809A6822F0700242F037027FE0EA
:102F6000702A35D01BD8502A41D0602A79D11C6AEA
:102F70004D68CE6824F010041C6299691A6A21F425
:102F8000704122F0A00242EA051241EA063199613D
:102F90001A629A6822F0700242F0670260E0B2F5AD
:102FA000805F11D0B2F5005F5BD19C688D684A6884
:102FB000C9682A4324F47F44224342EA01229A60EA
:102FC0009A6842F480424BE09A6822F0070247E098
:102FD0009C688D684A68C9682A4324F47F44224368
:102FE00042EA01229A609A6842F0770238E01A6A4F
:102FF0001C6A4D68CE6824F001041C62996922F0B5
:103000000A0221F0F0012A4341EA061199611A628D
:103010009A6822F0700242F0570221E01A6A1C6A94
:103020004D68CE6824F001041C62996922F00A02FE
:1030300021F0F0012A4341EA061199611A629A6867
:1030400022F0700242F047020AE09A6822F0700211
:1030500042F0170204E09A6822F0700242F0270260
:103060009A60012380F83930002380F83830184600
:1030700070BD704770477047704703681A699107C1
:1030800010B5044614D5DA68920711D56FF0020224
:103090001A619B6901229B07027602D0FFF7EAFFC3
:1030A00004E0FFF7E6FF2046FFF7E5FF0023237665
:1030B00023681A69500716D5DA68510713D56FF0DF
:1030C00004021A619B69022213F4407F2276204693
:1030D00002D0FFF7CFFF04E0FFF7CBFF2046FFF75A
:1030E000CAFF0023237623681A69120715D5DA6808
:1030F000100712D56FF008021A61DB6904229907E4
:103100002276204602D0FFF7B5FF04E0FFF7B1FFBB
:103110002046FFF7B0FF0023237623681A69D20602
:1031200016D5DA68D00613D56FF010021A61DB6984
:10313000082213F4407F2276204602D0FFF79AFF40
:1031400004E0FFF796FF2046FFF795FF0023237664
:1031500023681A69D10708D5DA68D20705D56FF058
:1031600001021A61204605F079FC23681A691006ED
:1031700008D5DA68110605D56FF080021A6120467D
:1031800000F0BFF823681A69520608D5DA685006BD
:1031900005D56FF040021A612046FFF76DFF2368E6
:1031A0001A6991060AD5DA68920607D56FF02002EF
:1031B00020461A61BDE8104000F0A2B810BD000022
:1031C0002E4A0368904212D0B0F1804F0FD0A2F582
:1031D0007C4290420BD002F58062904207D002F50B
:1031E0008062904203D002F57842904218D14A683A
:1031F00023F070031343214A904237D0B0F1804F3F
:1032000034D01F4A904231D002F5806290422DD0D6
:1032100002F58062904229D002F57842904225D092
:10322000184A904222D002F5806290421ED002F5E8
:10323000806290421AD0A2F59832904216D002F5E0
:103240008062904212D002F5806290420ED00360FC
:103250008B68C3620B688362084B98420BD003F5FE
:103260008063984207D0012343617047CA6823F402
:1032700040731343EBE70B690363F4E7000001407D
:10328000000400400040014010B50446A0B190F891
:10329000393003F0FF021BB980F8382006F0FCFA41
:1032A000022384F839302068211DFFF789FF0123AC
:1032B00084F83930002010BD012010BD90F838305E
:1032C000012B10B54FF0020318D080F83930036895
:1032D0005A6822F070025A605C680A6822435A6099
:1032E0009A6822F080029A609C684A6822439A6039
:1032F000012380F83930002380F83830184610BD9B
:10330000704770472DE9F04707683B69044623F48E
:103310004052C368A168C069134322693B61FB68DE
:103320001143626923F416430A43024323F00C035A
:103330001343FB607B6923F44072A369B0F5004F2F
:1033400043EA02037B617C4B7CD19F4203D003F5AF
:1033500080639F4231D1FEF7DDF8636819254FEA9B
:1033600043086843B0FBF8F8FEF7D4F86668684392
:103370007600B0FBF6F6FEF7CDF863684FF064090F
:103380005B006843B0FBF3F0B0FBF9F009FB10669B
:10339000FEF7C0F8B8FBF9F86168F6003236B6FB04
:1033A000F9F67600684349004FEA081806F4F87603
:1033B000B0FBF1FAFEF7AEF830E0FEF795F863687F
:1033C00019254FEA43086843B0FBF8F8FEF78CF87C
:1033D000666868437600B0FBF6F6FEF785F863682A
:1033E0004FF064095B006843B0FBF3F0B0FBF9F009
:1033F00009FB1066FEF778F8B8FBF9F8F60061688B
:103400003236B6FBF9F67600684349004FEA0818F1
:1034100006F4F876B0FBF1FAFEF766F8454360680B
:103420004000B5FBF0F0B0FBF9F009FB10A2D200B0
:103430003232B2FBF9F303F0070343441E44BE608B
:10344000BDE8F0879F4202D03C4B9F4230D1FEF74F
:1034500061F8636819254FEA83086843B0FBF8F800
:10346000FEF758F866686843B600B0FBF6F6FEF75C
:1034700051F863684FF064099B006843B0FBF3F0B8
:10348000B0FBF9F009FB1066FEF744F8B8FBF9F859
:1034900061683601684389004FEA08183236B0FB8C
:1034A000F1FAB6FBF9F606F0F006FEF733F82FE076
:1034B000FEF71AF8636819254FEA83086843B0FBE2
:1034C000F8F8FEF711F866686843B600B0FBF6F648
:1034D000FEF70AF863684FF064099B006843B0FB8D
:1034E000F3F0B0FBF9F009FB1066FDF7FDFFB8FB48
:1034F000F9F86168360132366843B6FBF9F689009F
:103500004FEA081806F0F006B0FBF1FAFDF7ECFF01
:10351000454360688000B5FBF0F0B0FBF9F009FBB3
:1035200010A212013232B2FBF9F303F00F0333445D
:103530004344BB60BDE8F087001001400014014027
:10354000F8B504460E461546FCF71EFF07462268EE
:10355000136836EA030323D06B1CF9D0D5B923686E
:10356000DA6822F08002DA60DA6822F02002DA609B
:10357000DA6822F48072DA605A6922F001025A6134
:10358000202384F8393084F83A30002384F8383026
:103590000320F8BDFCF7F8FEC01B8542D7D2DEE75A
:1035A0000020F8BD10B5044640B390F8393003F060
:1035B000FF021BB980F8382006F0A4F92268242302
:1035C00084F83930D36823F40053D3602046FFF7E2
:1035D00099FE23681A6922F490421A615A6922F00E
:1035E0002A025A61DA6842F40052DA60002020238D
:1035F000E06384F8393084F83A3010BD012010BD02
:1036000070B51E4690F83930202B04460D4643D144
:1036100000293FD0002A3DD090F83830012B3BD014
:10362000012380F838300023C363212380F8393028
:103630008284C284E28C02B3A368013AB3F5805F4E
:10364000E2844FF08001324620460DD1FFF778FF2B
:1036500008B1032070BD2B882268C3F308035360B0
:10366000236943B90235E5E7FFF76AFF0028F0D187
:1036700023682A785A600135DCE73246402120462B
:10368000FFF75EFF0028E4D1202384F8393084F866
:10369000380070BD012070BD022070BD90F83A3036
:1036A000202B20D1E9B1E2B190F83830012B1AD0AB
:1036B0008285C28500232222C36380F83A200268F3
:1036C0008162D16841F48071D160516941F001019A
:1036D0005161D16880F8383041F02001D16018463E
:1036E0007047012070470220704770471FB503687C
:1036F0001968DA68C90704460CD5D0050AD5002236
:1037000000921A6800925A680092009AE26B42F0A6
:103710000102E26319685A6989070CD5D0070AD5F6
:10372000002201921A6801925A680192019AE26B92
:1037300042F00402E26319685A6949070CD5D007C0
:103740000AD5002202921A6802925A680292029ADC
:10375000E26B42F00202E26319685A6909070CD56C
:10376000D0070AD5002203921A6803925A6803927E
:10377000039AE26B42F00802E2631968DA6889068C
:103780003AD5900638D594F83A20222A34D1A26846
:103790002169B2F5805FA26A0BD15B6821B9C3F3DE
:1037A000080322F8023B02E0DBB222F8013BA262EE
:1037B0000AE019B9511CA1625B6804E05B68511C06
:1037C000A16203F07F031370E38D013B9BB2E3859D
:1037D00093B92368DA6822F02002DA60DA6822F40A
:1037E0008072DA605A6922F001025A61202384F85B
:1037F0003A30204605F00EF923681968DA680906A0
:1038000026D5100624D594F83920212A20D1A26883
:10381000B2F5805F226A0AD11188C1F308015960AC
:10382000216909B9023200E00132226203E0511C31
:10383000216212785A60E28C013A92B2E2843AB97B
:10384000DA6822F08002DA60DA6842F04002DA6078
:103850001968DA6849060BD5520609D5DA6822F0EC
:103860004002DA60202384F839302046FFF73DFF1C
:10387000E36B3BB1202384F83930204684F83A309A
:1038800005F008F904B010BD84B010B503AC84E8AD
:103890000E00049B42681943059B1943069B19437C
:1038A000079B1943089BBDE81040194322F4FD43D0
:1038B00023F07F030B43436004B000207047D0F82F
:1038C000800070470B68C0F88030002070470323E9
:1038D000036000207047006800F0030070470B6829
:1038E00010B583604C688B68C2681C43CB6809695B
:1038F0002343194322F47F6323F00F030B43C36078
:10390000002010BD0069C0B27047000082B00023E3
:103910000193034B03440193019B186802B0704765
:10392000142C014010B5CA688C680B6843621443BC
:103930004B680A698362C36A14434A6923F0F70338
:1039400022431343C362002010BD08B500F036F8CF
:1039500008B50C4B1A680AB90B4A1A601A680B4969
:10396000C31C23F0030313448B4206D906F070FFF7
:103970000C2303604FF0FF3008BD024910460B6076
:1039800008BD00BFE80000204CA1012000FC012080
:1039900001230360014B0B60704700BF0000002053
:1039A00008B500F02BF8024B024A9A6008BD00BF30
:1039B00000ED00E00000000800F040B8BFF34F8FBA
:1039C0000549064BCA6802F4E0621343CB60BFF3BB
:1039D0004F8F00BFFDE700BF00ED00E00400FA05D7
:1039E00083691A888A4207D10268033A012A03D8F8
:1039F0000233836101207047002070470C4B1A6826
:103A0000002142F001021A6099601A6822F0847263
:103A100022F480321A60074A5A601A6822F480221F
:103A20001A60D960044B4FF000629A60704700BF83
:103A3000003802401030002400ED00E0174A184919
:103A4000936803F00C03042B03D0082B03D0154B11
:103A500018E0154B16E05068536810F4800F03F01F
:103A60003F03506814BF104A0E4AB2FBF3F30B4AEF
:103A70005268C2F30142C0F388100132434352003E
:103A8000B3FBF2F30B60054B084A9B68C3F30313C7
:103A9000D25C0B68D3400B60704700BF0038024017
:103AA000080000200024F400001BB700F4E0000828
:103AB00008B50449104607F0BEFC10B1024B0122C4
:103AC0001A7008BD04E10008EE0000204FF4967360
:103AD000036000234360836080F838317047000042
:103AE00010B590F8A822D2B2012A0C4607D10023C3
:103AF00080F8A8320649D0F8A402FFF7CFFDA068ED
:103B000063689842C3BF2268101AC018181A10BD03
:103B10002C07002010B50C4B0C4C5A6893F8380158
:103B200099180132087319685A608A4204BF00224A
:103B30005A600749D4F8A4020122FFF7AFFD10B183
:103B4000012384F8A83210BDF405002044030020AE
:103B50002C070020826803468118013291F90C007D
:103B600019689A608A4204BF00229A60704737B58C
:103B700002AC054604F8011D052301222146D5F8B3
:103B8000A402FFF73DFD0028F6D103B030BD2DE9BA
:103B9000F0410D468046D220FCF7FCFB284607F09A
:103BA0001AFC00240646B44205EB040710D0C4F307
:103BB000090313B9D220FCF7EDFB05230122394696
:103BC000D8F8A402FFF71CFD0028F6D10134EAE77B
:103BD000C820BDE8F041FCF7DDBB10B50023FF2491
:103BE0000370037343738373046104244361A0F877
:103BF000AA32C364C0F8A422C0F84C31C0F85031D6
:103C000080F85431C0F85831C0F85C31C0F86031E8
:103C1000C0F8903280F89442C0F8983280F89C3214
:103C200080F89D32C0F8A01280F8A83280F8A9323E
:103C300010BD000002460148FFF7CFBF440300203B
:103C400070B5044608460D4607F0C5FB4FF4807179
:103C5000064690FBF1F1204649B2FFF788FF09497B
:103C600031400029BEBF01F1FF3161F0FF01013198
:103C7000204649B2FFF77BFF29462046BDE8704049
:103C8000FFF785BFFF00008038B505460C467F2C46
:103C900006DD64F07F012846FFF769FFE411F6E7CF
:103CA00061B22846BDE83840FFF761BF037B10B51D
:103CB0000446D3B1FCF768FBD4F89822D4F8A012DC
:103CC0004FF47A73821A4B439A420ED3C4F8980287
:103CD0006FF03F012046FFF74AFF00212046FFF723
:103CE000D3FF024A13780133137010BDEF00002098
:103CF0002DE9F3471F46FF2303618A4610219046B2
:103D000006469DF93490FFF732FF3C4B186800904F
:103D10001B798DF80430684607F05DFB0446504679
:103D200007F059FB0444B9F1000F01D1083409E050
:103D3000109807F050FB0546119807F04CFB0C3427
:103D40002C440444B8F1000F0AD00A9807F043FB52
:103D50000234044427B10B9807F03DFB02340444BD
:103D600021463046FFF790FF69463046FFF768FF6F
:103D700096F89412304649B2FFF7F9FE9DF93C30AF
:103D800007EB480103EB41019DF9383003EB81015A
:103D90009DF9303009EB410103EB4101490049B283
:103DA0003046FFF7E4FED6F8A012304641F3072173
:103DB000FFF7DDFED6F8A012304649B2FFF7D7FE76
:103DC00051463046FFF73CFFB9F1000F07D010997C
:103DD0003046FFF735FF11993046FFF731FFB8F154
:103DE000000F08D00A993046FFF72AFF1FB10B9940
:103DF0003046FFF725FF02B0BDE8F0870FE100086D
:103E000000B589B00023084A079201210692029169
:103E1000019200920593049303931A460349FFF716
:103E200067FF09B05DF804FB21E60008906F0020F1
:103E300006312DE9F84302EB810103EB4101DDF886
:103E400024800A9E089F49B215460446FFF78FFE5C
:103E5000404607F0C0FA002D00F102093046C8BF05
:103E600009F1020907F0B7FA09EB00012046FFF754
:103E70000BFF41462046FFF7E3FE002D08DD47F328
:103E800007212046FFF773FE79B22046FFF76FFE49
:103E900031462046BDE8F843FFF779BE38B5044601
:103EA0000D464021FFF763FE20460221FFF7ECFE9E
:103EB00045F307212046FFF75AFE69B22046BDE8C8
:103EC0003840FFF754BE38B504460D465021FFF781
:103ED0004EFE20460221FFF7D7FE45F3072120467C
:103EE000FFF745FE69B22046BDE83840FFF73FBE08
:103EF00038B5C9006231044649B21546FFF737FEAE
:103F000020460221FFF7C0FE45F307212046FFF7B8
:103F10002EFE69B22046BDE83840FFF728BE38B50E
:103F200004460D467021FFF722FE20460221FFF7CE
:103F3000ABFE45F307212046FFF719FE69B2204684
:103F4000BDE83840FFF713BEF8B5C90082311D4601
:103F500049B2164604469DF91870FFF708FE284638
:103F600007F039FA411D2046FFF78EFE46F3072180
:103F70002046FFF7FCFD71B22046FFF7F8FD294609
:103F80002046FFF75DFE39462046BDE8F840FFF7C2
:103F9000EEBD10B56FF01F010446FFF7E8FD0021EC
:103FA0002046FFF771FE0023237310BDD0F8901256
:103FB0004FF6FE729142034695BFD0F89002002260
:103FC000421CC3F8902294BFC3F89022D3F8900209
:103FD0007047000030B59FB005AD04461249284631
:103FE00007F0F1F91149284607F0C6F910492846AB
:103FF00007F0C2F92046FFF7D9FF0E4B02950022C9
:104000008DE80900114601232046FFF711FF2046E5
:10401000FFF7CCFF002102460091074B2046FFF737
:1040200093FF1FB030BD00BF14E10008906F002067
:1040300024E1000837E1000840E10008807B704778
:104040002DE9F84F9A4D9B499948994CFFF748FD47
:10405000002800F012822B789648002B40F0A780B1
:10406000FFF778FDD5F85831C72B07D8D5F8583168
:104070005A1C2B44C5F8582183F864010A28E2D160
:10408000D4F858318C492344002283F864218B4BA7
:10409000012601F5B1701E7007F0CDF9002845D05A
:1040A000874988486E7007F0C6F908B1022305E019
:1040B0008549844807F0BFF910B103236B7070E0A5
:1040C0008249804807F0B7F918B13046FCF762F929
:1040D00004E07F497B4807F0AEF908B10423EDE71F
:1040E0007C49784807F0A7F920B97B49754807F063
:1040F000A2F908B1052317E07849724807F09BF947
:1041000008B10623DAE776496E4807F094F950B90A
:1041100074496C4807F08FF928B97349694807F06A
:104120008AF900283DD0072363703AE06F4965485B
:1041300007F081F910B16E4B1E7032E06D49614895
:1041400007F079F908B1022205E02E215D4807F059
:1041500022F918B10322664B1A7022E061495948CE
:1041600007F069F9804608B10522F4E7624955482D
:1041700007F061F9074650B15D4B4D482E7004229F
:104180001A70FFF73DFE2E7385F80D8009E05B493C
:104190004C4807F050F920B1554B2F7004221A708B
:1041A000AF730023C4F8583184F864314BE7FFF74C
:1041B000D1FC102690FBF6F606F00F06731E0D2BB1
:1041C00007463FF640AF00230220C5F85C31C5F832
:1041D0006031FCF7DFF8FCF7D7F84FF001088246B2
:1041E000A1464FF47A7B23785BB9D4F85C31C4F8EC
:1041F00060312378002B3FF426AF0023C5F85831F7
:1042000097E0FCF7C1F8D5F8A032CAEB00000BFB31
:1042100003F39842E9D227492548FFF761FC0028BB
:10422000E1D02448FFF796FCFBB2432B02D1C3B286
:104230004C2B03E02B2B29D1C3B2502B26D1D9F81C
:104240005C311BBB0023C4F85831D4F85821B2F5B7
:10425000967F07D31648FFF79CFE1548BDE8F84F38
:10426000FFF7CEBDD5F85821511C2A44C5F8581186
:1042700082F86471D5F85821511C2A44C5F85811A8
:1042800082F864012B70AB732B73AAE70028D4F873
:104290005C3108DA00F07F0008FB0030C4F85C01F4
:1042A0004FEAC8189DE708FB0030C4F85C019CE7A2
:1042B00044030020F405002046030020ED00002008
:1042C00046E10008A80400204FE1000856E100087C
:1042D00060E1000869E1000871E100087CE1000884
:1042E0008CE1000898E10008A5E1000895E10008CC
:1042F000F0000020AFE10008B5E1000875E100081A
:1043000066496748FFF7ECFBD0B1D5F85831B3F5F3
:10431000967F9FD2D5F85881604808F10103C5F80F
:104320005831FFF717FCA84488F864010120FCF716
:1043300031F8D4F85C315A1EC4F85C21002BDFD16F
:10434000022E0FD194F9642194F9653103EB022315
:104350002361236923B901235148AB73FFF73AFE68
:10436000236970E6032E61D194F9653194F96401F3
:1043700003EB0020002363610223821C93420ED2D0
:10438000D4F85821312A3FF665AF6A69511C69613A
:1043900059192A4491F9641111760133EDE76369E3
:1043A000234400211976C7F341076369E36461611F
:1043B0004FB12A442B1892F9641193F96731021D09
:1043C00003EB012110E039460EE0D5F85831F92B06
:1043D0003FF640AF6B69581C686150192B4490F947
:1043E000640183F850000132D4F860312C489A42BD
:1043F000EBD343690344002283F85020012F436923
:10440000C0F84C3102D1FFF749FD03E0022F01D182
:10441000FFF759FD234AE16CD4F84C31A2F1380082
:10442000FFF746FB0123C4F850310CE6052E0AD1F4
:1044300094F9642194F96531194803EB02220021B3
:10444000FFF756FDFFE5062E09D194F9641194F9A2
:104450006531134803EB0121FFF761FDF3E50B2EF6
:104460000DD84FF42963F340DB073FF5ECAD0D2E7B
:1044700004BF012384F8A932E5E5BDE8F88F0C2ECE
:10448000F5D100264FF47A63074A0849044826709C
:10449000267300F031F884F85461D4E5F405002067
:1044A0004403002094030020BDE10008BFE10008A0
:1044B0002DE9F041054688461646FBF765FF0C4C92
:1044C0000C490746A81C06F07EFF002341462846FB
:1044D0002370FFF75CFBFBF757FF23782BB9C01B5A
:1044E000B04202D2FFF7ACFDF5E758B2BDE8F0816B
:1044F000F0000020CCE10008F8B504460F46023079
:1045000011461D4606F05FFFFBF73EFF00230646FF
:10451000637039462046FFF73AFBFBF735FF6378B7
:104520002BB9801BA84202D2FFF78AFDF5E760781D
:1045300040B2F8BD38B590F8A932044603F0FF0543
:10454000B3B940F2DC520C49FFF7B2FF4FF47A7274
:104550000A492046FFF7ACFF41F28833084A09496F
:104560002046FFF7C9FF84F89C022570A5732573C8
:10457000002384F8A93238BDD1E10008D5E1000854
:10458000DAE10008E0E1000870B590F854315BB260
:1045900094B00446032B00F20781DFE803F0021415
:1045A000246040F2DC528149FFF782FF40F6B832C6
:1045B0007F492046FFF77CFF012802D184F854018F
:1045C00001E000230CE040F6B8327A492046FFF7BC
:1045D0006FFF012803D1022384F8543103E0012343
:1045E00084F85431E0E041F28833734A734920463D
:1045F000FFF782FF01282BD14FF4FA60FBF7CAFEC8
:104600004FF4FA626E492046FFF752FF4FF4FA6208
:104610006C492046FFF74CFF4FF4FA626A49204686
:10462000FFF746FF4FF47A63684A69492046FFF76F
:1046300063FF012805D04FF4FA6266492046FFF770
:1046400037FF032384F85431022384F89C3206E0B8
:10465000B4F8AA320133A4F8AA320223C0E763787F
:10466000072B27D04FF4FA60FBF794FE41F2883312
:10467000594A5A492046FFF73FFF84F89C0294F8B4
:104680009D3294F89C229A420DD1637B01335BB238
:104690006373637B5BB2092B0CDD00236373072319
:1046A00084F89C3206E094F89C325BB284F89D3228
:1046B0000023637394F89C325BB284F89D3294F8C3
:1046C0009C325BB2023B052B6ED8DFE803F0030F90
:1046D000161E4D6042492046FFF759FA41492046CF
:1046E000FFF755FA41F288323F4902E03F4941F273
:1046F00088322046FFF7DCFE56E04FF47A633C4AEE
:104700003C492046FFF7F8FE4EE03B49684606F07C
:104710005AFE3A49684606F02FFE3949684606F0C7
:104720002BFE3849684606F027FE2F49684606F0FA
:1047300023FE42F2107269462046FFF7B9FE0128B7
:1047400032D1FBF721FE0546FBF71EFE2E4E44F646
:104750001F643378042B27D0401BA04224D8FFF7D6
:104760006FFCFBF711FEF4E7FBF70EFE0546FBF7C7
:104770000BFE254E44F61F643378042B14D0401BE7
:10478000A04211D8FFF75CFCFBF7FEFDF4E74FF405
:104790007A631E4A1E492046FFF7AEFE002384F8C6
:1047A0005431022384F89C3214B070BDD1E100086A
:1047B000D5E10008EFE10008F6E10008FAE10008A1
:1047C00005E2000813E2000822E2000844E20008C3
:1047D00048E2000854E20008DAE10008E0E10008DD
:1047E00061E20008716F00201EE600086BE200081D
:1047F000BDE1000876E2000881E200083A6F00207F
:1048000091E200086C6F0020F000002095E10008A4
:10481000BFE1000810B5012204460A49D0F8A402FD
:10482000FEF73CFF10B1012384F8A832204640F681
:10483000B8320549FFF73CFE2046BDE81040FFF7BF
:10484000A3BE00BF2C070020D5E1000838B50378CF
:10485000044603F0FF0213B98273FFF795FE084B7D
:10486000084D93F85F202B789A4204D82046FFF732
:1048700061FE00232B702046BDE83840FFF716BAD2
:10488000306F0020EF00002000230370437070475A
:1048900030B5037845785A1CD4B2A5421FBF1B1807
:1048A00099700270002008BF4FF0FF3030BD437890
:1048B00002789A421FBF1B189B780B7043781DBF6C
:1048C00001334370002001207047000038B50446D2
:1048D00009480D46FFF7FAF8084B00221A705A7083
:1048E0002046012229469A70FFF7A4F90448BDE842
:1048F0003840FFF78FBF00BFF4050020F00500200F
:10490000440300202DE9F04FADF2D44D91460793BA
:104910000691DDF8F8A4059000F0C2FF064600F00D
:10492000BDFD044600F0E0FF054600F0C6FD2A4646
:104930005E498046204601F0FEFA00F0B1FF049087
:1049400000F0ACFD5A4A5B49074601F024FB5A4A85
:104950005A49384601F01FFB00F0C6FF834600F0BD
:10496000ACFD5A4605465649384601F0E4FA00F0D7
:1049700097FF834600F092FD079B0746184605F017
:104980007FF90B4602464F49384601F083FB4E4AF9
:104990004E49384601F064FB5946284601F0AAFA10
:1049A00000F07EFF834600F079FD0746504605F093
:1049B00067F90B4602464349384601F06BFB444A0F
:1049C0004249384601F04CFB5946284601F092FA1C
:1049D00000F066FF824600F061FD0746484605F09C
:1049E0004FF90B4602463749384601F053FB394A26
:1049F0003649384601F034FB5146284601F07AFA30
:104A00000499404601F076FA334A3449204601F0D1
:104A100027FB00F045FF054600F040FD059A3049B0
:104A200001F0B9FA2A462F49204601F0CFFA00F0EA
:104A300037FF054600F032FD2B4A2C49074601F0AE
:104A4000AAFA069A2649384601F0A5FA2A462849C4
:104A5000204601F0BBFA304601F032FA0146044626
:104A600008A806F0B0FC2348FFF7E8FA98B1224BFB
:104A7000204893F9015093F9007093F90280FFF7F1
:104A800095FA1E4B02948DE809003A4643462946A2
:104A90001848FFF7CDF9204601F00CFA30460DF228
:104AA000D44DBDE8F04F00F0B3BE00BF95E2000862
:104AB000A3E20008A6E20008BCE20008C5E2000884
:104AC000CDE20008E0E2000815000020EFE2000857
:104AD000190000200C0000201D000020FAE2000850
:104AE00012E3000818E300082EE3000837E300088B
:104AF0003EE3000844030020F00500205AE30008CC
:104B00002DE9F04F85B091460191039000F0C8FE69
:104B1000054600F0C3FC044600F0E6FE064600F041
:104B2000CCFC324649498246204601F004FA00F0A6
:104B3000B7FE009000F0B2FC454A4649074601F036
:104B40002AFA454A4549384601F025FA00F0CCFEDC
:104B5000804600F0B2FC424641490646384601F024
:104B6000EAF900F09DFE834600F098FC074600F04D
:104B7000BBFE804600F0A1FC3A49029001F0C3F967
:104B8000029A3949104601F0BEF94246DFF8088121
:104B90003649384601F01AFA354A4146384601F09E
:104BA0005FFA5946304601F0A5F900F079FE8346D8
:104BB00000F074FC039B0746184605F03FF80B46CF
:104BC00002462C49384601F065FA2B4A41463846E0
:104BD00001F046FA5946304601F08CF90099274E0B
:104BE000504601F087F9264A2649204601F038FA56
:104BF00000F056FE074600F051FC019A314601F0E4
:104C0000CAF93A462049204601F0E0F900F048FE92
:104C1000074600F043FC1D4A1D49804601F0BBF9E0
:104C20004A463146404601F0B6F93A46194920460F
:104C300001F0CCF9284601F043F90446284600F07B
:104C4000E7FD204605B0BDE8F08F00BF95E2000803
:104C5000A3E20008A6E2000867E30008C5E2000836
:104C6000CDE2000870E3000875E300087AE300086D
:104C70008AE30008E0E200088FE3000812E300087E
:104C800010000020FAE2000818E300082EE30008F4
:104C900037E300083EE30008EFE200082DE9FF419A
:104CA000074618480D46FFF7C9F940B3164C9DB1A9
:104CB000144894F9015094F9006094F90280FFF7C8
:104CC00075F9124B0293124B32468DE809002946C2
:104CD00043460C48FFF7ACF80A4894F9015094F9A0
:104CE000006094F90240FFF761F90A4B02978DE8E2
:104CF00009003246234629460248FFF799F804B0D6
:104D0000BDE8F08144030020F005002098E300088E
:104D1000ADE30008B6E3000808B506490648FEF70B
:104D2000DFFE10B1FFF78CF9F7E70348BDE8084054
:104D3000FFF78CBDF405002044030020C3B2A3F1AB
:104D40003002092A01D830387047A3F16102052AE0
:104D500001D857387047413B052B94BF37384FF087
:104D6000FF3070472DE9F041034690F9000098B3F9
:104D700093F9017037B393F9026036B393F90340A6
:104D800034B3FFF7DBFF80463846FFF7D7FF054611
:104D90003046FFF7D3FF06462046FFF7CFFFB8F1B6
:104DA000FF3F18D06C1C16D0721C14D0431C12D0BC
:104DB0002D0245EA0835284340EA06100860012024
:104DC000BDE8F0813846BDE8F0813046BDE8F081AD
:104DD0002046BDE8F0810020BDE8F081064B10B50B
:104DE0001B6804461020984720B10022022380E867
:104DF0000C00846010BD00BF280000202DE9F04F9A
:104E0000026892F90030222B87B040F0FA80571CDC
:104E10000760036893F9001022290FD0002900F0E1
:104E2000F0805C2903D0036801330360F1E7591C6B
:104E3000016093F90130002BF5D1E2E0013303600A
:104E4000724C981A831E0193013823689847029484
:104E50000646002800F0D18004463B464FF00C097E
:104E60004FF00D0A4FF0090B93F90020AAB9002367
:104E70002370029BA41B01341B68204698470546FB
:104E8000002800F0BA802246314605F011FD604B43
:104E900030461B6898472846B4E00198D91B8842E1
:104EA000E5D95C2A40F0A18093F90110662903F14D
:104EB00001021CD00CDC2F2917D002DC222914D0CF
:104EC0009BE05C2911D0622940F09780082311E013
:104ED000722911D004DC6E2940F08F800A2309E08A
:104EE00074290CD075290DD087E0217082E084F8F8
:104EF00000907FE023707DE084F800A07AE084F8E1
:104F000000B077E003F1020804A940460393FFF7DD
:104F100029FF002871D0049D039B7F2D01D82570A7
:104F200060E0B5F5006F0BD2AD0965F03F05257067
:104F3000049B03F03F0363F07F036370013451E08F
:104F4000A5F55841B1F5006F14D32146C5F30335DB
:104F500065F01F0501F8025B049BC3F3851363F042
:104F60007F036370049B03F03F0363F07F03A37030
:104F70000C4637E0B1F5806F3FD293F906205C2AEA
:104F80003BD103F1080893F90730752B35D105A9FA
:104F90004046FFF7E7FE80B30599A1F55C43B3F502
:104FA000806F2AD21B4BAD022B40C1F309010B438A
:104FB00003F5803304939B0C63F00F032370049B71
:104FC000C3F3053363F07F036370049BC3F385135E
:104FD00063F07F03A370049B03F03F0363F07F0340
:104FE000E370033408F1030204E0D1B21F2904D9AD
:104FF00022701A460134531C36E7054B30461B68B5
:105000009847002007B0BDE8F08F00BF28000020BF
:105010002400002000FC0F00426883682DE9F04165
:1050200004460E460AB90BB116E0ABB1A6B1DFF8E3
:105030006C80B700D8F8003038469847054658B11C
:10504000D8F80030DFF8588038469847074638B916
:10505000D8F80030284698474FF0FF30BDE8F0817F
:10506000616869B1A3685BB1E2684AB19200284601
:1050700005F01EFCE268A1689200384605F018FCB5
:10508000D8F8003060689847A068D8F80030984792
:105090006560A76026610020BDE8F081280000203F
:1050A0002400002070B504460D4611B94FF0FF30C2
:1050B00070BD0B4B88001B68984706460028F5D04A
:1050C000616821B1A26812B1920005F0F1FB054BB5
:1050D00060681B6898476660E560002070BD00BF8F
:1050E000280000202400002038B50D468368C168E0
:1050F0008B42044609D223682B606268A36842F899
:1051000023500133A360002038BD49000F2938BF68
:105110000F21B1F5F03F02D94FF0FF3038BDFFF756
:10512000C1FF0130E7D1F7E7084B70B51B680646B1
:10513000481C0C469847054628B1002303552246D3
:10514000314606F065F9284670BD00BF28000020F2
:1051500010B5044606F03FF901462046BDE8104070
:10516000FFF7E2BF2DE9F8430446884616460025BE
:10517000E4B1E3689D4216D2636853F8257038465F
:1051800006F029F9B0424FEA85090AD13246414674
:10519000384606F028F920B9A36853F80900BDE89D
:1051A000F8830135E4E70020BDE8F8832046BDE838
:1051B000F88300000A4610B9084606F00CB9014908
:1051C00006F0B6B8C0E30008F8B5002405460F465F
:1051D0002646BE420ADA08492846FFF7EBFF0028B8
:1051E00006DB05B1054404440136F2E72046F8BD6C
:1051F0004FF0FF30F8BD00BFFBE40008F8B50C46E7
:10520000064606F0E8F8514907462046FFF7D2FF68
:10521000051E02DA4FF0FF30F8BD04B12C443744CC
:10522000BE4200F0898016F9013B5C2B7FD8DFE895
:1052300003F03F41434547494B4D353D394F373BDF
:1052400051535557595B5D5F61636567696B6D6F5E
:1052500071737E7E2F7E7E7E7E7E7E7E7E7E7E7ED5
:105260007E337E7E7E7E7E7E7E7E7E7E7E7E7E7EA9
:105270007E7E7E7E7E7E7E7E7E7E7E7E7E7E7E7E4E
:105280007E7E7E7E7E7E7E7E7E7E7E7E7E7E310009
:105290002F4942E02F4940E02F493EE02F493CE0B2
:1052A0002F493AE02F4938E02F4936E02F4934E0C2
:1052B0002F4932E02F4930E02F492EE02F492CE0D2
:1052C0002F492AE02F4928E02F4926E02F4924E0E2
:1052D0002F4922E02F4920E02F491EE02F491CE0F2
:1052E0002F491AE02F4918E02F4916E02F4914E002
:1052F0002F4912E02F4910E02F490EE02F490CE012
:105300002F490AE02F4908E02F4906E02F4904E021
:105310002F4902E02F4900E02F492046FFF74AFFBE
:105320000028FFF677AF04B10444054478E70CB1D8
:1053300004F8013B013573E704492046FFF73AFFC3
:105340000028FFF667AF2844F8BD00BF93E20008CD
:10535000C3E30008C6E30008C9E30008CCE3000883
:10536000CFE30008D2E30008D5E30008D8E3000843
:10537000DBE30008E2E30008E9E30008F0E30008EB
:10538000F7E30008FEE3000805E400080CE4000869
:1053900013E400081AE4000821E4000828E40008E7
:1053A0002FE4000836E400083DE4000844E4000867
:1053B0004BE4000852E4000859E4000860E40008E7
:1053C00067E400086EE4000875E400087CE4000867
:1053D00083E400088AE4000891E4000838B50C462C
:1053E000054650B149B1084605F0F5FF2146024691
:1053F0002846BDE83840FFF7B5BE002038BD2DE98E
:10540000F0410F461646044618B94FF0FF30BDE88C
:10541000F0810029F9D0002AF7D0FFF7DFFF00283C
:10542000F3D12169E3688B4217D23846E568D4F896
:105430000480FFF78DFE48F82500636853F8253097
:10544000002BE2D023683360A36843F82560E3684B
:105450000133E3600020BDE8F08149000F2938BF27
:105460000F21B1F5707FD0D82046FFF7D5FD013070
:10547000DBD1CAE738B1C3688B4203D9436853F81C
:10548000210070470020704738B183688B4203D9F0
:10549000436853F8210070470020704728B14368E3
:1054A000042B01D1806870470020704708B5FFF7D2
:1054B00095FFBDE80840FFF7F1BF28B14368052B11
:1054C00001D1806870470020704728B14368022BE3
:1054D00001D1806870470020704708B5FFF77EFF54
:1054E000BDE80840FFF7F1BF28B14368032B02D1A4
:1054F000D0E90201704700200021704708B5FFF78E
:105500006DFFBDE80840FFF7EFBF20B14368062BF1
:1055100001D1806870474FF0FF3070472DE9F04FA0
:1055200085B00C4603921E460E9F002800F04E8167
:105530004368013B052B00F24981DFE813F0450188
:10554000000113016F0006000901FFF7B6FF824654
:1055500010B1D0F8089000E081469F492046FFF73F
:1055600029FE051EC0F2328104B12C44B9F1000FAE
:1055700052D04EB199492046FFF71CFE0028C0F2D8
:10558000258104B104440544039B4FF0000803F156
:10559000010B4EB159462046FFF716FE0028C0F217
:1055A000158104B10444054441465046FFF76CFFA1
:1055B000009733465A462146FFF7B0FF0028C0F255
:1055C000058104B1044409F1FF334345054409D979
:1055D00083492046FFF7EEFD0028C0F2F78004B1B2
:1055E000044405444EB17D492046FFF7E3FD002801
:1055F000C0F2EC8004B10444054408F10108C84538
:10560000C7D14EB103992046FFF7DEFD0028C0F256
:10561000DD8004B104440544724989E0FFF73EFF90
:10562000814610B1D0F80CA000E082466E492046B9
:10563000FFF7C0FD051EC0F2C98004B12C44BAF1C9
:10564000000F74D04EB165492046FFF7B3FD002826
:10565000C0F2BC8004B1044405444FF00008414648
:105660004846FFF707FF8346002800F0AF8056B199
:10567000039B2046591CFFF7A7FD0028C0F2A68017
:1056800004B10444054421465846FFF7B7FD0028FD
:10569000C0F29C8004B10444054454492046FFF7FD
:1056A00089FD0028C0F2928004B1044405444EB143
:1056B0004F492046FFF77EFD0028C0F2878004B1E5
:1056C0000444054459464846FFF788FE039A00976C
:1056D000334601322146FFF721FF002876DB04B173
:1056E00004440AF1FF334345054408D93C492046A8
:1056F000FFF760FD002869DB04B10444054446B1AE
:1057000036492046FFF756FD00285FDB04B104440C
:10571000054408F10108C245A1D146B103992046CC
:10572000FFF752FD002851DB04B104440544314920
:105730002046FFF73FFD002848DB284448E0FFF7FC
:10574000C4FE002842D0FFF759FD002840DA3DE0B2
:10575000FFF7DBFE08B1284900E028492046FFF7A3
:1057600029FDF2E7FFF7C0FE8946804604F076FD8A
:10577000002C18BF2746044604F070FA02460B4678
:105780004046494604F038FD10B122461C490FE05E
:105790004946404604F08AFD044604F04FFA0246AA
:1057A0000B464046494604F027FD28B115492246DC
:1057B000384605F0BDFD05E042464B4612493846E5
:1057C00005F0B6FD0028C1E71049C7E74FF0FF30EC
:1057D00005B0BDE8F08F00BF98E4000820E600089F
:1057E0009AE400080EE500089CE400089EE4000826
:1057F000FEE40008A0E40008A2E40008A7E4000812
:10580000ADE40008B0E40008B3E40008B6E4000822
:105810002DE9F041044600283AD04368042B07D014
:10582000052B22D0022B33D11C4B80681B682EE045
:105830008568DFF868800026EB68184F9E420CD21E
:105840006B6853F82600D8F800309847AB6853F8D7
:105850002600FFF7DDFF0136EEE73B6868689847F2
:105860003B68A86898473B6810E085680026AB68ED
:105870009E4206D26B6853F82600FFF7C9FF013637
:10588000F5E7064E686833689847336828469847B6
:10589000024B20461B68BDE8F04118472400002059
:1058A00070B50F4D10202B68984700260446A0B114
:1058B0000423436006602B6814209847054620B1F6
:1058C00080E8500086600661C660A5602DB9054B72
:1058D00020461B689847284670BD204670BD00BF13
:1058E000280000202400002070B50E4D10202B68E9
:1058F00098470026044698B10523436006602B684C
:1059000010209847054618B180E85000C6608660B0
:10591000A5602DB9044B20461B689847284670BDEA
:10592000204670BD2800002024000020F8B5044661
:1059300008B90020F8BD05F04EFD474E014625464A
:105940002018A8421AD92B7803F14002D2B2012ABA
:10595000EFD9F42BEDD803F0C002802AE9D01A0663
:105960001CD503F0E002C02A37D003F0F002E02A91
:105970001CD003F0F802F02ADBD14BE02046FFF701
:10598000D3FB05460028D4D0FFF728FA044618B9FF
:10599000324B28461B6898472046F8BD0122A3F5E4
:1059A0005843B3F5006FC4D31544CAE76F7807F0C6
:1059B000C002802ABDD1AA7802F0C00EBEF1800FCD
:1059C000B7D103F00F0307F03F0702F03F0247EAA9
:1059D000831342EA831303220BE06A7802F0C007C4
:1059E000802FA6D102F03F0203F01F0342EA831387
:1059F00002227F2B9DD9B3F5006F02D2022A98D1E3
:105A0000CDE7B3F5803F02D2042A92D0C7E7B34274
:105A10008FD8C4E795F801E00EF0C002802A88D143
:105A2000AF7807F0C002802A83D1EA7802F0C00C78
:105A3000BCF1800F7FF47DAF03F007030EF03F0E43
:105A40004EEA831307F03F0702F03F0247EA831351
:105A500042EA83130422CCE7FFFF10002400002059
:105A600038B5074B04461B6810200D46984728B1EF
:105A70000022032380E80C00C0E9024538BD00BFC6
:105A800028000020074B10B51B68044610209847DB
:105A900038B100220623003480E80C0018BF01242E
:105AA000846010BD2800002008B5054B10201B683D
:105AB000984718B10022012380E80C0008BD00BF00
:105AC000280000202DE9F04F0F46AD4985B005466E
:105AD0002C680A6894F90030A94E1A44527812F0E2
