:020000040800F2
:1000000000000220F1020008B5160108C51601081B
:10001000CD160108D5160108DD1601080000000004
:10002000000000000000000000000000E5160108CC
:10003000F516010800000000051701081517010852
:10004000E5030008E5030008E5030008E5030008F0
:10005000E5030008E5030008E5030008E5030008E0
:10006000E5030008E5030008E5030008E5030008D0
:10007000E5030008E5030008E5030008E5030008C0
:10008000E5030008E503000825170108E50300085B
:10009000E5030008E5030008E5030008E5030008A0
:1000A000E5030008E5030008E5030008E503000890
:1000B00039170108E50300084D170108E50300089A
:1000C000E5030008E5030008E5030008E503000870
:1000D000E5030008E503000861170108E5030008CF
:1000E000E5030008E5030008E5030008E503000850
:1000F000E5030008E5030008E5030008E503000840
:10010000E5030008E5030008E5030008E50300082F
:10011000E5030008E5030008E5030008E50300081F
:10012000E5030008E5030008E5030008E50300080F
:10013000E5030008E5030008E5030008E5030008FF
:10014000E5030008E5030008E5030008E5030008EF
:10015000E5030008E5030008E5030008E5030008DF
:10016000E5030008E5030008E5030008E5030008CF
:10017000E5030008E5030008E503000800000000AF
:10018000E5030008E503000880B596B000AF06F06F
:1001900009FD4D4B7B6523E07B6D1A1D7A651B685D
:1001A000FB647B6D1A1D7A651B68BB647B6D1A1D31
:1001B0007A651B687B64FB6C3B63BB6CFB627B6C8E
:1001C000BB62FB6A7B6207E07B6A1A1D7A623A6B4C
:1001D000111D396312681A60BA6A7B6A9A42F3D8B1
:1001E0007B6D3A4A9342D7D3394B3B6519E03B6D5F
:1001F0001A1D3A651B68FB633B6D1A1D3A651B6847
:10020000BB63FB6B3B64BB6B3B623B6CFB6104E021
:10021000FB691A1DFA6100221A603A6AFB699A4268
:10022000F6D83B6D2B4A9342E1D306F0D1FC3A1D40
:1002300007F108031146184606F0A0FC264A274B92
:10024000D31A9B103B610023FB6007E0234AFB6845
:1002500052F823309847FB680133FB603A69FB682A
:100260009A42F3DC1E4A1F4BD31A9B103B610023BA
:10027000FB6007E01B4AFB6852F823309847FB6895
:100280000133FB603A69FB689A42F3DCBB687A6829
:10029000114618460BF092FE7863134A134BD31A9B
:1002A0009B10BB61BB697B6108E07B69013B0F4A26
:1002B00052F8233098477B69013B7B617B69002BB7
:1002C000F3DC786B06F020FCEC0300080404000863
:1002D00004040008140400081404000814040008AE
:1002E000140400081404000814040008140400088E
:1002F0003848004700BF00BF80B400AFFEE700BF32
:100300001EF0040F0CBFEFF30880EFF30980714675
:10031000314A104700BF00BF80B582B000AF78609F
:1003200039600D4B1B6B03F00203002B10D00A4BFE
:10033000DB6A002B0CDA4BF6AB61786806F066FCE2
:100340000346002B04D0044B4FF00042DA6200E079
:10035000FEE70837BD4680BD00ED00E080B400AF89
:10036000FEE700BF1EF0040F0CBFEFF30880EFF3B1
:1003700009807146194A104700BF00BF80B483B09E
:1003800000AF78603960FEE71EF0040F0CBFEFF39A
:100390000880EFF309807146114A104700BF00BF83
:1003A00080B483B000AF78603960FEE780B400AFFE
:1003B000FEE700BF80B400AFFEE700BF80B400AF2F
:1003C000FEE700BF80B400AF00BFBD465DF8047B10
:1003D0007047000089010008190300087D03000828
:0C03E000A103000880B400AFFEE700BFDE
:1003EC006C63010800000020100100206C63010800
:1003FC0000000010000000101001002064220120F9
:08040C000000001000000010C8
:1004200080B500AF0E4A0E4B1B6843F40073136097
:100430000B4A0B4B1B6843F480631360084A084B5C
:100440001B6843F480731360032000F0AFFD0020AD
:1004500000F008F810F07EFF0023184680BD00BFB2
:10046000003C024080B582B000AF786001F0E8FF48
:100470000246094BA3FB02239B09184600F0D2FD5C
:10048000002279684FF0FF3000F09CFD00231846F1
:100490000837BD4680BD00BFD34D621080B400AFA9
:1004A000044B1B680133034A136000BFBD465DF86F
:1004B000047B70473C04002080B400AF034B1B68F2
:1004C0001846BD465DF8047B704700BF3C04002021
:1004D00080B584B000AF78600023FB60FFF7ECFFCD
:1004E000F86000BFFFF7E8FF0246FB68D21A7B689E
:1004F0009A42F7D300BF1037BD4680BD80B584B0A7
:1005000000AF78600023FB737B68002B01D10123CF
:1005100033E07B681B6C002B09D17B6800225A6496
:100520007B68002283F83C20786810F045FF7B68E8
:100530001B6C03F01003002B18D17B681B6C23F499
:10054000885323F0020343F002027B681A64786840
:1005500000F042FB7B6800225A647B681B6C23F02E
:10056000030343F001027B681A6401E00123FB737B
:100570007B68002283F83C20FB7B18461037BD4681
:1005800080BD00BF80B485B000AF78600023FB6001
:100590007B6893F83C30012B01D1022391E07B680A
:1005A000012283F83C207B681B689B6803F00103F1
:1005B000002B18D17B681B687A681268926842F039
:1005C00001029A60424B1B68424AA2FB03239A0C29
:1005D00013465B001344FB6002E0FB68013BFB60D9
:1005E000FB68002BF9D17B681B689B6803F0010353
:1005F000002B65D07B681B6C23F4E06323F00103C0
:1006000043F480727B681A647B681B685B6803F440
:100610008063002B07D07B681B6C23F4405343F4AA
:1006200080527B681A647B681B6C03F48053002B38
:1006300006D07B685B6C23F006027B685A6402E09C
:100640007B6800225A647B68002283F83C207B6828
:100650001B686FF002021A607B681A687B681B686F
:100660005B6843F0806343F0200353601A4B5B6880
:1006700003F01F03002B0FD17B681B689B6803F0FE
:100680004053002B1CD17B681B687A681268926803
:1006900042F080429A6013E07B681B680F4A9342E5
:1006A0000ED17B681B689B6803F04053002B07D179
:1006B0007B681B687A681268926842F080429A6090
:1006C000002318461437BD465DF8047B704700BF11
:1006D0000800002083DE1B4300230140002001406E
:1006E00080B584B000AF78600023FB600023BB605E
:1006F0007B681B681B6803F00203002B14BF0123F7
:100700000023DBB2FB607B681B685B6803F020039F
:10071000002B14BF01230023DBB2BB60FB68002B5E
:1007200049D0BB68002B46D07B681B6C03F01003DC
:10073000002B05D17B681B6C43F400727B681A6444
:100740007B681B689B6803F04053002B2BD17B68B0
:100750009B69002B27D17B681B68DB6A03F470035D
:10076000002B06D07B681B689B6803F48063002B1A
:1007700019D17B681B687A681268526822F02002DF
:100780005A607B681B6C23F480727B681A647B68F8
:100790001B6C03F48053002B05D17B681B6C43F06A
:1007A00001027B681A6478680BF022FE7B681B6884
:1007B0006FF012021A607B681B681B6803F0040369
:1007C000002B14BF01230023DBB2FB607B681B6896
:1007D0005B6803F08003002B14BF01230023DBB20E
:1007E000BB60FB68002B57D0BB68002B54D07B68E4
:1007F0001B6C03F01003002B05D17B681B6C43F4CA
:1008000000527B681A647B681B689B6803F4401382
:10081000002B39D17B681B689B6B03F44013002BC2
:1008200006D07B681B689B6803F48063002B2BD188
:100830007B681B685B6803F48063002B24D17B68B2
:100840001B689B6803F04053002B1DD17B689B699C
:10085000002B19D17B681B687A681268526822F0F5
:1008600080025A607B681B6C23F480527B681A6498
:100870007B681B6C03F48073002B05D17B681B6CB9
:1008800043F001027B681A64786800F0A7FA7B687D
:100890001B686FF00C021A607B681B681B6803F012
:1008A0000103002B14BF01230023DBB2FB607B6834
:1008B0001B685B6803F04003002B14BF0123002377
:1008C000DBB2BB60FB68002B17D0BB68002B14D0D9
:1008D0007B681B681B6803F00103002B0DD07B684D
:1008E0001B6C43F480327B681A64786800F046F829
:1008F0007B681B686FF001021A607B681B681B68CD
:1009000003F02003002B14BF01230023DBB2FB60A4
:100910007B681B685B6803F08063002B14BF0123B6
:100920000023DBB2BB60FB68002B15D0BB68002B3B
:1009300012D07B685B6C43F002027B685A647B6870
:100940001B686FF020021A60786800F021F87B685D
:100950001B686FF020021A6000BF1037BD4680BDD3
:1009600080B483B000AF78607B681B68DB6C18468E
:100970000C37BD465DF8047B704700BF80B483B080
:1009800000AF786000BF0C37BD465DF8047B704750
:1009900080B483B000AF786000BF0C37BD465DF80F
:1009A000047B704790B484B000AF78603960002356
:1009B000FB607B6893F83C30012B01D10223FEE001
:1009C0007B68012283F83C203B681B68092B24D9F3
:1009D0007B6819687B681B68D8683B681B689AB29B
:1009E00013465B0013441E3B072202FA03F3DB436A
:1009F0000340CB607B6819687B681B68D8683B68DC
:100A00009C683B681B689AB213465B0013441E3B0C
:100A100004FA03F30343CB6021E07B6819687B6829
:100A20001B6818693B681B689AB213465B00134445
:100A3000072202FA03F3DB4303400B617B6819686A
:100A40007B681B6818693B689C683B681B689AB2A6
:100A500013465B00134404FA03F303430B613B6842
:100A60005B68062B23D87B6819687B681B68586B0A
:100A70003B685A6813469B001344053B1F2202FA49
:100A800003F3DB4303404B637B6819687B681B6897
:100A9000586B3B681B689CB23B685A6813469B00C6
:100AA0001344053B04FA03F303434B634AE03B68FA
:100AB0005B680C2B23D87B6819687B681B68186BF4
:100AC0003B685A6813469B001344233B1F2202FADB
:100AD00003F3DB4303400B637B6819687B681B6887
:100AE000186B3B681B689CB23B685A6813469B00B6
:100AF0001344233B04FA03F303430B6322E07B68B4
:100B000019687B681B68D86A3B685A6813469B0063
:100B10001344413B1F2202FA03F3DB430340CB6241
:100B20007B6819687B681B68D86A3B681B689CB245
:100B30003B685A6813469B001344413B04FA03F395
:100B40000343CB627B681B681F4A934209D13B6811
:100B50001B68122B05D11D4A1C4B5B6843F48003B4
:100B600053607B681B68184A934223D13B681B681B
:100B7000102B03D03B681B68112B1BD1134A134B5E
:100B80005B6843F4000353603B681B68102B11D172
:100B90000F4B1B680F4AA2FB03239A0C13469B00C2
:100BA00013445B00FB6002E0FB68013BFB60FB68F9
:100BB000002BF9D17B68002283F83C2000231846E3
:100BC0001037BD4690BC7047002001400023014013
:100BD0000800002083DE1B4380B485B000AF78603E
:100BE0007C4A7C4B5B6823F4403353607949794BF2
:100BF0005A687B685B6813434B607B681B687A6844
:100C00001268526822F480725A607B681B687A68A6
:100C1000126851687A68126912020A435A607B6846
:100C20001B687A681268526822F040725A607B68CA
:100C30001B687A68126851687A6892680A435A6039
:100C40007B681B687A681268926822F400629A6076
:100C50007B681B687A68126891687A68D2680A4370
:100C60009A607B689B6A5C4A934222D07B681B68CF
:100C70007A681268926822F070629A607B681B68DA
:100C80007A68126891687A68926A0A439A607B6807
:100C90001B687A681268926822F040529A607B68FA
:100CA0001B687A68126891687A68D26A0A439A6007
:100CB0000FE07B681B687A681268926822F07062A5
:100CC0009A607B681B687A681268926822F04052CA
:100CD0009A607B681B687A681268926822F0020248
:100CE0009A607B681B687A68126891687A68926972
:100CF00052000A439A607B681B6A002B25D07B68F0
:100D00001B687A681268526842F400625A607B6815
:100D10001B687A681268526822F460425A607B68E5
:100D20005B6A5A1E4FF46043FB60FB6893FAA3F3BF
:100D3000BB60BB68B3FA83F39A407B681B68796831
:100D4000096849680A435A6007E07B681B687A684B
:100D50001268526822F400625A607B681B687A68E5
:100D60001268D26A22F47002DA627B681B687A68C1
:100D70001268D16A7A68D269013A12050A43DA62C6
:100D80007B681B687A681268926822F400729A6025
:100D90007B681B687A68126891687A68126B5202E5
:100DA0000A439A607B681B687A681268926822F42A
:100DB00080629A607B681B687A68126891687A68BA
:100DC000526992020A439A6000BF1437BD465DF82B
:100DD000047B7047002301400100000F80B483B002
:100DE00000AF786000BF0C37BD465DF8047B7047EC
:100DF00080B485B000AF78607B6803F00703FB60C8
:100E00000C4BDB68BB60BA684FF6FF031340BB6056
:100E1000FB681A02BB68134343F0BF6343F400331B
:100E2000BB60044ABB68D36000BF1437BD465DF8A1
:100E3000047B704700ED00E080B400AF044BDB683A
:100E400003F4E0631B0A1846BD465DF8047B704757
:100E500000ED00E080B483B000AF0346FB710949A8
:100E600097F907305B09FA7902F01F02012000FAB6
:100E700002F241F8232000BF0C37BD465DF8047B29
:100E8000704700BF00E100E080B483B000AF0346CC
:100E90003960FB7197F90730002B0BDA0D49FB79AC
:100EA00003F00F03043B3A68D2B21201D2B20B44F2
:100EB0001A7609E0084997F907303A68D2B2120168
:100EC000D2B20B4483F8002300BF0C37BD465DF857
:100ED000047B704700ED00E000E100E080B489B0E1
:100EE00000AFF860B9607A60FB6803F00703FB614C
:100EF000FB69C3F10703042B28BF0423BB61FB6913
:100F00000433062B02D9FB69033B00E000237B611D
:100F10000122BB6902FA03F35A1EBB681A407B69BF
:100F20009A4001217B6901FA03F3591E7B680B404B
:100F3000134318462437BD465DF8047B704700BF55
:100F400080B400AFBFF34F8F0549054BDB6803F456
:100F5000E062044B1343CB60BFF34F8F00BFFDE74C
:100F600000ED00E00400FA0580B582B000AF7860C3
:100F70007B68013BB3F1807F01D301230FE00A4A74
:100F80007B68013B53600F214FF0FF30FFF77CFF80
:100F9000054B00229A60044B07221A600023184672
:100FA0000837BD4680BD00BF10E000E080B582B0CC
:100FB00000AF78607868FFF71BFF00BF0837BD46B9
:100FC00080BD00BF80B586B000AF0346B9607A60CF
:100FD000FB7300237B61FFF72FFF78617A68B968A4
:100FE0007869FFF77BFF024697F90F3011461846E4
:100FF000FFF74AFF00BF1837BD4680BD80B582B0FD
:1010000000AF0346FB7197F907301846FFF722FF40
:1010100000BF0837BD4680BD80B500AFFFF790FF29
:1010200000BF80BD80B582B000AF78607868FFF700
:101030009BFF034618460837BD4680BD80B483B089
:1010400000AF78607B68042B06D1094A084B1B6807
:1010500043F00403136005E0054A054B1B6823F0C9
:101060000403136000BF0C37BD465DF8047B704776
:1010700010E000E080B500AF00F002F800BF80BDD6
:1010800080B400AF00BFBD465DF8047B704700BF71
:1010900080B489B000AF7860396000237B610023A1
:1010A0003B610023BB610023FB6171E10122FB690D
:1010B00002FA03F37B613B681A687B6913403B616A
:1010C0003A697B699A4240F060813B685B68022B19
:1010D00003D03B685B68122B23D1FB69DA087B687D
:1010E000083253F82230BB61FB6903F007039B0011
:1010F0000F2202FA03F3DB43BA691340BB613B687A
:101100001A69FB6903F007039B0002FA03F3BA694B
:101110001343BB61FB69DA087B680832B96943F89D
:1011200022107B681B68BB61FB695B00032202FA2B
:1011300003F3DB43BA691340BB613B685B6803F0B0
:101140000302FB695B0002FA03F3BA691343BB6154
:101150007B68BA691A603B685B68012B0BD03B68FF
:101160005B68022B07D03B685B68112B03D03B68A0
:101170005B68122B30D17B689B68BB61FB695B00AD
:10118000032202FA03F3DB43BA691340BB613B68F5
:10119000DA68FB695B0002FA03F3BA691343BB61C7
:1011A0007B68BA699A607B685B68BB610122FB69F6
:1011B00002FA03F3DB43BA691340BB613B685B6827
:1011C0001B0903F00102FB6902FA03F3BA69134336
:1011D000BB617B68BA695A607B68DB68BB61FB698D
:1011E0005B00032202FA03F3DB43BA691340BB61DD
:1011F0003B689A68FB695B0002FA03F3BA69134320
:10120000BB617B68BA69DA603B685B6803F0805356
:10121000002B00F0BA800023FB60624A614B5B6CDC
:1012200043F4804353645F4B5B6C03F48043FB6087
:10123000FB685D4AFB699B08023352F82330BB61AF
:10124000FB6903F003039B000F2202FA03F3DB4365
:10125000BA691340BB617B68544A934231D07B68C2
:10126000534A93422BD07B68524A934225D07B68E5
:10127000514A93421FD07B68504A934219D07B68F1
:101280004F4A934213D07B684E4A93420DD07B68FD
:101290004D4A934207D07B684C4A934201D10823C0
:1012A00010E009230EE007230CE006230AE00523E3
:1012B00008E0042306E0032304E0022302E0012304
:1012C00000E00023FA6902F0030292009340BA6939
:1012D0001343BB613449FB699B080233BA6941F887
:1012E00023203B4B1B68BB613B69DB43BA6913405E
:1012F000BB613B685B6803F48033002B03D0BA69A1
:101300003B691343BB61324ABB691360304B5B6876
:10131000BB613B69DB43BA691340BB613B685B68F7
:1013200003F40033002B03D0BA693B691343BB615C
:10133000274ABB695360264B9B68BB613B69DB4313
:10134000BA691340BB613B685B6803F48013002BF0
:1013500003D0BA693B691343BB611D4ABB69936003
:101360001B4BDB68BB613B69DB43BA691340BB6164
:101370003B685B6803F40013002B03D0BA693B6938
:101380001343BB61124ABB69D360FB690133FB6144
:10139000FB690F2B7FF68AAE00BF2437BD465DF890
:1013A000047B7047003802400038014000000240D2
:1013B0000004024000080240000C024000100240FD
:1013C0000014024000180240001C024000200240AD
:1013D000003C014080B483B000AF78600B467B8056
:1013E00013467B707B78002B03D07A887B689A61E8
:1013F00003E07B881A047B689A6100BF0C37BD4606
:101400005DF8047B704700BF80B584B000AF7860A2
:101410000023FB600023BB607B68002B01D101230C
:10142000C8E07B6893F83D30DBB2002B06D17B68C7
:10143000002283F83C2078680FF0F4FF7B682422B8
:1014400083F83D207B681B687A681268126822F076
:1014500001021A6001F01CF8B860BB68574AA2FB91
:1014600003239B0CFB607B681B68FA685A607B68EF
:101470001A687B685B6852498B4202D8FB6801336B
:1014800009E0FB684FF4967101FB03F34D49A1FBA2
:1014900003139B09013313627B6819687B685B68DF
:1014A000474A934212D87B685B685B00BA68B2FB1C
:1014B000F3F3C3F30B03032B06D97B685B685B0074
:1014C000BA68B2FBF3F345E0042343E07B689B6812
:1014D000002B0FD17B685A6813465B001344BA682F
:1014E000B2FBF3F3C3F30B03002B0CBF0123002368
:1014F000DBB210E07B685A6813469B0013449A00E5
:101500001344BA68B2FBF3F3C3F30B03002B0CBF15
:1015100001230023DBB2002B01D001231AE07B68FA
:101520009B68002B0AD17B685A6813465B00134402
:10153000BA68B2FBF3F343F400430BE07B685A68EC
:1015400013469B0013449A001344BA68B2FBF3F3AA
:1015500043F44043CB617B681B687A68D1697A6841
:10156000126A0A431A607B681B687A6811697A6894
:10157000D2680A439A607B681B687A6851697A6806
:1015800092690A43DA607B681B687A68126812689D
:1015900042F001021A607B6800221A647B682022F4
:1015A00083F83D207B6800221A637B68002283F861
:1015B0003E20002318461037BD4680BD83DE1B4306
:1015C000A0860100D34D621080B588B000AFF860EE
:1015D0007A601A460B467B8113463B81FB6893F881
:1015E0003D30DBB2202B40F08A8142F210730122A1
:1015F0009149F86800F052FA0346002B01D002230B
:101600007EE1FB6893F83C30012B01D1022377E1A6
:10161000FB68012283F83C20FB681B68FA681268AB
:10162000126822F400621A60FB68222283F83D20CF
:10163000FB68102283F83E20FB6800221A64FB68D6
:101640007E4ADA627B89BA6A1946F86800F05CF96A
:101650000346002B0FD0FB681B6C042B05D1FB68E5
:10166000002283F83C2001234AE1FB68002283F832
:101670003C20032344E13B89002B13D10023FB6171
:10168000FB681B685B69FB61FB681B689B69FB610E
:10169000FB69FB681B68FA681268126842F4007202
:1016A0001A601AE13B89012B1BD1FB681B68FA68A1
:1016B0001268126822F480621A600023BB61FB6822
:1016C0001B685B69BB61FB681B689B69BB61BB698D
:1016D000FB681B68FA681268126842F400721A60AC
:1016E000FBE03B89022B1BD1FB681B68FA68126880
:1016F000126822F480621A60FB681B68FA6812683C
:10170000126842F400621A6000237B61FB681B6868
:101710005B697B61FB681B689B697B617B69DCE0C3
:10172000FB681B68FA681268126842F480621A60EB
:1017300000233B61FB681B685B693B61FB681B68BE
:101740009B693B613B69C8E03B89032B00F29980B0
:101750003B89012B1AD1B96AF86800F0A1FA034657
:10176000002B07D0FB681B6C202B01D10323C7E0A3
:101770000123C5E07B685A1C7A60FA681268126916
:10178000D2B21A703B89013B3B81A6E03B89022B18
:1017900029D1BB6A00222A49F86800F07FF9034684
:1017A000002B01D00323ABE0FB681B68FA681268CA
:1017B000126842F400721A607B685A1C7A60FA68F8
:1017C00012681269D2B21A703B89013B3B817B6877
:1017D0005A1C7A60FA6812681269D2B21A703B8990
:1017E000013B3B8179E0BB6A00221549F86800F0B3
:1017F00055F90346002B01D0032381E0FB681B68E9
:10180000FA681268126822F480621A607B685A1CB7
:101810007A60FA6812681269D2B21A703B89013B89
:101820003B81BB6A00220649F86800F037F903469D
:10183000002B07D0032363E0020010000000FFFF2D
:1018400004000100FB681B68FA681268126842F421
:1018500000721A607B685A1C7A60FA681268126912
:10186000D2B21A703B89013B3B817B685A1C7A607B
:10187000FA6812681269D2B21A703B89013B3B8147
:101880002BE0B96AF86800F00BFA0346002B07D08A
:10189000FB681B6C202B01D1032331E001232FE0D7
:1018A0007B685A1C7A60FA6812681269D2B21A70A0
:1018B0003B89013B3B81FB681B685B6903F00403C8
:1018C000002B0AD07B685A1C7A60FA681268126989
:1018D000D2B21A703B89013B3B813B89002B7FF4DC
:1018E00033AFFB68202283F83D20FB68002283F899
:1018F0003E20FB68002283F83C20002300E0022306
:1019000018462037BD4680BD80B586B000AFF86070
:101910000B467A607B81FB68DB6A042B08D0FB688E
:10192000DB6A012B04D0FB68DB6A13F5803F10D122
:10193000FB681B68FA681268126842F480621A60D9
:10194000FB681B68FA681268126842F480721A60B9
:1019500013E0FB681B6B112B0FD1FB681B68FA6847
:101960001268126842F480621A60FB681B68FA68A9
:101970001268126842F480721A607B6800224FF08D
:101980000111F86800F08AF80346002B01D0032308
:101990007CE0FB681B69B3F5804F08D1FB681B68CE
:1019A0007A89D2B242F00102D2B21A615DE0FB68DC
:1019B0001B687A89D21152B202F0060252B262F06A
:1019C0000F0252B2D2B21A617A683249F86800F056
:1019D000F5F80346002B07D0FB681B6C042B01D1E4
:1019E000012353E0032351E0FB681B687A89D2B2DC
:1019F0001A617A682849F86800F0E0F80346002B7D
:101A000007D0FB681B6C042B01D101233EE00323AC
:101A10003CE000237B61FB681B685B697B61FB68C2
:101A20001B689B697B617B69FB681B68FA681268AD
:101A3000126842F480721A607B6800224FF0011134
:101A4000F86800F02BF80346002B01D003231DE0BB
:101A5000FB681B687A89D21152B202F0060252B2B8
:101A600062F00E0252B2D2B21A617A680A49F8687C
:101A700000F0A4F80346002B07D0FB681B6C042B76
:101A800001D1012302E0032300E0002318461837A8
:101A9000BD4680BD080001000200010080B586B08F
:101AA00000AFF860B9603B601346FB7100237B61B7
:101AB000FEF702FD7861FB79002B59D11BE03B68F2
:101AC000B3F1FF3F17D03B68002B07D0FEF7F4FCC3
:101AD00002467B69D21A3B689A420CD9FB68002205
:101AE0001A63FB68202283F83D20FB68002283F8FC
:101AF0003C2003235DE0BB681B0CDBB2012B0CD147
:101B0000FB681B685B69DA43BB6813409BB2002B20
:101B100014BF01230023DBB20BE0FB681B689B6949
:101B2000DA43BB6813409BB2002B14BF0123002390
:101B3000DBB2002BC3D13BE03B68B3F1FF3F17D0D2
:101B40003B68002B07D0FEF7B7FC02467B69D21A30
:101B50003B689A420CD9FB6800221A63FB6820227A
:101B600083F83D20FB68002283F83C20032320E01B
:101B7000BB681B0CDBB2012B0CD1FB681B685B69DB
:101B8000DA43BB6813409BB2002B0CBF0123002338
:101B9000DBB20BE0FB681B689B69DA43BB68134050
:101BA0009BB2002B0CBF01230023DBB2002BC3D15F
:101BB000002318461837BD4680BD00BF80B586B0EB
:101BC00000AFF860B9607A6000237B61FEF774FCB7
:101BD00078613FE0FB681B685B6903F48063002B5E
:101BE0001CD0FB681B68FA681268126842F4007225
:101BF0001A60FB681B686FF480625A61FB680422FC
:101C00001A64FB6800221A63FB68202283F83D20D7
:101C1000FB68002283F83C2001233CE07B68B3F1A1
:101C2000FF3F17D07B68002B07D0FEF745FC02462C
:101C30007B69D21A7B689A420CD9FB6800221A632E
:101C4000FB68202283F83D20FB68002283F83C20BB
:101C5000032320E0BB681B0CDBB2012B0CD1FB681B
:101C60001B685B69DA43BB6813409BB2002B14BF4F
:101C700001230023DBB20BE0FB681B689B69DA439E
:101C8000BB6813409BB2002B14BF01230023DBB2BF
:101C9000002B9FD1002318461837BD4680BD00BFDA
:101CA00080B584B000AF786039600023FB60FEF738
:101CB00003FCF86036E07B681B685B6903F0100387
:101CC000002B14D07B681B686FF010025A617B6890
:101CD00000221A647B6800221A637B68202283F842
:101CE0003D207B68002283F83C20012322E03B68F2
:101CF000002B07D0FEF7E0FB0246FB68D21A3B68D8
:101D00009A420FD97B681B6C43F020027B681A64EF
:101D10007B68202283F83D207B68002283F83C20EA
:101D2000032307E07B681B685B6903F04003002B1B
:101D3000C1D0002318461037BD4680BD80B58EB097
:101D400000AF786000237B637B681B6803F00103AE
:101D5000002B4FD0A44B9B6803F00C03042B0BD03B
:101D6000A14B9B6803F00C03082B11D19E4B5B68C1
:101D700003F48003002B0BD09B4B1B6803F4003350
:101D8000002B36D07B685B68002B32D10123DFE16A
:101D9000964A7B685B68DBB213707B685B68002BDC
:101DA00013D0FEF789FB786308E0FEF785FB024657
:101DB0007B6BD31A642B01D90323C9E18A4B1B68BF
:101DC00003F40033002BF0D014E0FEF775FB7863CA
:101DD00008E0FEF771FB02467B6BD31A642B01D936
:101DE0000323B5E1804B1B6803F40033002BF0D1D3
:101DF00000E000BF7B681B6803F00203002B77D074
:101E0000794B9B6803F00C03002B0BD0764B9B683F
:101E100003F00C03082B26D1734B5B6803F480039B
:101E2000002B20D1704B1B6803F00203002B05D060
:101E30007B68DB68012B01D0012389E16A486A4B8A
:101E40001B6823F0F8027B681969F8233B623B6A40
:101E500093FAA3F3FB61FB69B3FA83F301FA03F38B
:101E60001343036044E07B68DB68002B2AD0604B9F
:101E700001221A60FEF720FB786308E0FEF71CFBE6
:101E800002467B6BD31A022B01D9032360E1564B28
:101E90001B6803F00203002BF0D05348524B1B6821
:101EA00023F0F8027B681969F823FB62FB6A93FA56
:101EB000A3F3BB61BB69B3FA83F301FA03F31343E2
:101EC000036015E04A4B00221A60FEF7F5FA7863CA
:101ED00008E0FEF7F1FA02467B6BD31A022B01D918
:101EE000032335E1404B1B6803F00203002BF0D1C4
:101EF0007B681B6803F00803002B30D07B685B69AC
:101F0000002B16D03B4B01221A60FEF7D5FA7863FE
:101F100008E0FEF7D1FA02467B6BD31A022B01D9F7
:101F2000032315E1304B5B6F03F00203002BF0D06D
:101F300015E0304B00221A60FEF7BEFA786308E025
:101F4000FEF7BAFA02467B6BD31A022B01D90323A0
:101F5000FEE0254B5B6F03F00203002BF0D17B68A2
:101F60001B6803F00403002B66D00023BB601E4AED
:101F70001D4B1B6C43F0805313641B4B1B6C03F015
:101F80008053BB60BB681C4A1B4B1B6843F48073C7
:101F90001360FEF791FA786308E0FEF78DFA0246C7
:101FA0007B6BD31A022B01D90323D1E0124B1B68A0
:101FB00003F48073002BF0D0104A7B689B68DBB27F
:101FC00013707B689B68002B21D0FEF775FA78634D
:101FD00016E0FEF771FA02467B6BD31A41F28832A3
:101FE00093420DD90323B3E0003802400238024087
:101FF00000004742800E47420070004070380240A7
:10200000554B1B6F03F00203002BE2D014E0FEF7E8
:1020100053FA78630AE0FEF74FFA02467B6BD31A55
:1020200041F28832934201D9032391E04A4B1B6F5E
:1020300003F00203002BEED17B689B69002B00F0BC
:102040008680454B9B6803F00C03082B7DD07B6892
:102050009B69022B62D1414B00221A60FEF72CFAD9
:10206000786308E0FEF728FA02467B6BD31A022B4E
:1020700001D903236CE0384B1B6803F00073002B7D
:10208000F0D135487B68DA697B681B6A1A437B6844
:10209000596A47F6C073BB62BB6A93FAA3F3FB604D
:1020A000FB68B3FA83F301FA03F31A437B689B6A74
:1020B0005B08591E4FF440337B627B6A93FAA3F3AB
:1020C0003B613B69B3FA83F301FA03F31A437B687C
:1020D000D96A4FF070633B633B6B93FAA3F37B6168
:1020E0007B69B3FA83F301FA03F3134343601B4B99
:1020F00001221A60FEF7E0F9786308E0FEF7DCF9E8
:1021000002467B6BD31A022B01D9032320E0124B2A
:102110001B6803F00073002BF0D018E00F4B002277
:102120001A60FEF7C9F9786308E0FEF7C5F90246C0
:102130007B6BD31A022B01D9032309E0064B1B68E2
:1021400003F00073002BF0D101E0012300E0002335
:1021500018463837BD4680BD00380240600047420F
:1021600080B584B000AF786039600023FB60734BAA
:102170001B6803F00F023B689A420CD26F4B3A681F
:10218000D2B21A706D4B1B6803F00F023B689A4283
:1021900001D00123CEE07B681B6803F00203002B13
:1021A00008D06749664B9B6823F0F0027B689B6808
:1021B00013438B607B681B6803F00103002B00F066
:1021C00082807B685B68012B07D15D4B1B6803F441
:1021D0000033002B19D10123ACE07B685B68022B34
:1021E00003D07B685B68032B07D1554B1B6803F05A
:1021F0000073002B09D101239CE0514B1B6803F0B5
:102200000203002B01D1012394E04D494C4B9B6804
:1022100023F003027B685B6813438B60FEF74CF985
:10222000F8607B685B68012B12D10AE0FEF744F985
:102230000246FB68D31A41F28832934201D9032344
:1022400078E03F4B9B6803F00C03042BEED13AE09F
:102250007B685B68022B12D10AE0FEF72DF902467B
:10226000FB68D31A41F28832934201D9032361E01B
:10227000334B9B6803F00C03082BEED123E07B6803
:102280005B68032B19D10AE0FEF716F90246FB68DA
:10229000D31A41F28832934201D903234AE0284BF2
:1022A0009B68F1E7FEF708F90246FB68D31A41F292
:1022B0008832934201D903233CE0214B9B6803F011
:1022C0000C03002BEED11D4B1B6803F00F023B6883
:1022D0009A420CD9194B3A68D2B21A70174B1B6844
:1022E00003F00F023B689A4201D0012322E07B6891
:1022F0001B6803F00403002B08D01149104B9B68A6
:1023000023F4E0527B68DB6813438B607B681B68B7
:1023100003F00803002B09D00949094B9B6823F4FB
:1023200060427B681B69DB0013438B600020FEF773
:1023300099F8002318461037BD4680BD003C024086
:102340000038024080B48BB000AF0023FB61002353
:102350007B620023BB6100233B62364B9B6803F02A
:102360000C03042B06D0082B07D0002B58D1324B7E
:102370003B6258E0314B3B6255E02E4B5B6803F00B
:102380003F03FB612B4B5B6803F48003002B17D0EA
:102390002A4AFB69B2FBF3F2264B596847F6C07331
:1023A0000B4047F6C071F960F96891FAA1F1B96084
:1023B000B968B1FA81F1CB4003FB02F37B6216E00E
:1023C0001D4AFB69B2FBF3F21A4B596847F6C0731A
:1023D0000B4047F6C0717961796991FAA1F1796092
:1023E0007968B1FA81F1CB4003FB02F37B62114BB8
:1023F0005B6803F440324FF440333B613B6993FA2E
:10240000A3F33B603B68B3FA83F322FA03F301338F
:102410005B00BB617A6ABB69B2FBF3F33B6202E02B
:10242000054B3B6200BF3B6A18462C37BD465DF842
:10243000047B7047003802400024F400001BB70002
:1024400080B582B000AFFFF77DFF01460D4B9B6862
:1024500003F0F002F0237B607B6893FAA3F33B6008
:102460003B68B3FA83F322FA03F3074AD35C21FAF9
:1024700003F3064A1360054B1B6818460837BD4630
:1024800080BD00BF003802405059010808000020FC
:1024900080B582B000AFFFF7D3FF01460B4B9B68BE
:1024A00003F4E0524FF4E0537B607B6893FAA3F3AC
:1024B0003B603B68B3FA83F322FA03F3044AD35C2C
:1024C00021FA03F318460837BD4680BD00380240A4
:1024D0005059010880B582B000AFFFF7B1FF014647
:1024E0000B4B9B6803F460424FF460437B607B6856
:1024F00093FAA3F33B603B68B3FA83F322FA03F346
:10250000044AD35C21FA03F318460837BD4680BD60
:10251000003802405059010880B58AB000AF786099
:1025200000237B6200233B627B681B6803F001038E
:10253000002B4AD0684B00221A60FDF7BDFF78627D
:1025400008E0FDF7B9FF02467B6AD31A022B01D9D6
:102550000323BDE0614B1B6803F00063002BF0D147
:102560005E487B685A6847F6C073FB61FB6993FA63
:10257000A3F33B613B69B3FA83F39A407B689968A4
:102580004FF0E043BB61BB6993FAA3F37B617B69C6
:10259000B3FA83F301FA03F31343C0F884304E4BCC
:1025A00001221A60FDF788FF786208E0FDF784FFDA
:1025B00002467B6AD31A022B01D9032388E0474BDA
:1025C0001B6803F00063002BF0D07B681B6803F0EE
:1025D0000203002B7BD00023FB60404A3F4B1B6C67
:1025E00043F0805313643D4B1B6C03F08053FB603E
:1025F000FB683B4A3A4B1B6843F480731360FDF75A
:102600005BFF786208E0FDF757FF02467B6AD31A4A
:10261000022B01D903235BE0314B1B6803F4807369
:10262000002BF0D02D4B1A6F7B68DB68534003F40E
:102630004073002B4BD0294B1B6F23F440733B623C
:10264000284B01221A60274B00221A60234A3B6A5A
:1026500013673B6A03F00203002B14D0FDF72CFF35
:1026600078620AE0FDF728FF02467B6AD31A41F23E
:102670008832934201D903232AE0184B1B6F03F0E1
:102680000203002BEED07B68DB6803F44073B3F5E4
:10269000407F0DD11149114B9B6823F4F8127B68E0
:1026A000DB6823F0704323F4407313438B6005E031
:1026B0000A4A0A4B9B6823F4F81393600749074BB7
:1026C0001A6F7B68DB68C3F30B0313430B670023AC
:1026D00018462837BD4680BD680047420038024092
:1026E00000700040400E474280B582B000AF786075
:1026F0007B68002B01D101236DE07B685B7FDBB23F
:10270000002B05D17B6800221A7778680EF0BCFE9A
:102710007B6802225A777B681B68CA225A627B68F0
:102720001B6853225A62786800F0ACFA0346002B0B
:1027300008D07B681B68FF225A627B6804225A77A4
:10274000012348E07B681A687B681B689B6823F458
:10275000E00323F0400393607B681B687A6812688B
:1027600091687A6850687A68126910437A68526989
:1027700002430A439A607B681B687A68D2681A61D0
:102780007B681B687A68126811697A68926812041B
:102790000A431A617B681B687A681268D26822F063
:1027A0008002DA607B681B687A681268126C22F417
:1027B00080221A647B681B687A681268116C7A68D8
:1027C00092690A431A647B681B68FF225A627B681D
:1027D00001225A77002318460837BD4680BD00BF46
:1027E00090B587B000AFF860B9607A6000237B6174
:1027F000FB681B7F012B01D10223B2E0FB680122A1
:102800001A77FB6802225A777B68002B26D1FB6877
:102810001B689B6803F04003002B02D1BB680022B9
:10282000DA70BB681B78184600F058FA03461C049F
:10283000BB685B78184600F051FA03461B021C4344
:10284000BB689B78184600F049FA034644EA030245
:10285000BB68DB781B0413437B6120E0FB681B68CB
:102860009B6803F04003002B07D0BB681B78184619
:1028700000F052FA03467B6102E0BB680022DA7086
:10288000BB681B781A04BB685B781B021343BA68E9
:1028900092781A43BB68DB781B0413437B61FB68A7
:1028A0001B68CA225A62FB681B6853225A62F86886
:1028B00000F0E8F90346002B0BD0FB681B68FF22F1
:1028C0005A62FB6804225A77FB6800221A770123B8
:1028D00047E0FB681A687B6903F07F3323F0FE430F
:1028E0001360FB681B68FA681268926822F4802201
:1028F0009A60FB681B68FA6812689168BA68D068C9
:10290000BA68126902430A439A60FB681B68FA6856
:102910001268D26822F08002DA60FB681B689B684C
:1029200003F02003002B11D1F86800F083F903466F
:10293000002B0BD0FB681B68FF225A62FB68042245
:102940005A77FB6800221A7701230AE0FB681B68AC
:10295000FF225A62FB6801225A77FB6800221A772D
:10296000002318461C37BD4690BD00BF80B586B019
:1029700000AFF860B9607A6000237B61FB681B6878
:102980009A6ABB685A60FB681B681B69C3F30E0236
:10299000BB689A60FB681B681B6803F07F3323F0F9
:1029A000FE437B617B691B0CDBB203F03F03DAB2B1
:1029B000BB681A707B691B0ADBB203F07F03DAB2D3
:1029C000BB685A707B69DBB203F07F03DAB2BB6885
:1029D0009A707B691B0CDBB203F04003DAB2BB6870
:1029E000DA707B68002B1AD1BB681B78184600F0A0
:1029F00093F903461A46BB681A70BB685B781846A1
:102A000000F08AF903461A46BB685A70BB689B7887
:102A1000184600F081F903461A46BB689A700023F5
:102A200018461837BD4680BD90B587B000AFF86036
:102A3000B9607A6000237B61FB681B7F012B01D1A9
:102A40000223A2E0FB6801221A77FB6802225A7770
:102A50007B68002B0ED1BB685B7803F01003002B62
:102A600008D0BB685B7823F01003DBB20A33DAB21C
:102A7000BB685A707B68002B1CD1BB68DB7818469A
:102A800000F02CF903461C04BB685B78184600F084
:102A900025F903461B021C43BB689B78184600F0CF
:102AA0001DF9034644EA0302BB681B785B0313432A
:102AB0007B611CE0BB685B78184600F02DF903468B
:102AC0007B61BB689B78184600F026F903467B6162
:102AD000BB68DB781A04BB685B781B021343BA68D7
:102AE00092781A43BB681B785B0313437B61FB68D6
:102AF0001B68CA225A62FB681B6853225A62F86834
:102B000000F0C0F80346002B0BD0FB681B68FF22C7
:102B10005A62FB6804225A77FB6800221A77012365
:102B200033E0FB681A687B6923F07F4323F0C0031E
:102B30005360FB681B68FA681268D26822F0800252
:102B4000DA60FB681B689B6803F02003002B11D13F
:102B5000F86800F06FF80346002B0BD0FB681B6889
:102B6000FF225A62FB6804225A77FB6800221A7718
:102B700001230AE0FB681B68FF225A62FB680122FE
:102B80005A77FB6800221A77002318461C37BD4687
:102B900090BD00BF80B586B000AFF860B9607A60C4
:102BA00000237B61FB681B685B6823F07F4323F095
:102BB000C0037B617B691B0CDAB2BB68DA707B698E
:102BC0001B0ADBB203F01F03DAB2BB685A707B69E1
:102BD000DBB203F03F03DAB2BB689A707B695B0B30
:102BE000DBB203F00703DAB2BB681A707B68002B14
:102BF0001AD1BB68DB78184600F08EF803461A46F7
:102C0000BB68DA70BB685B78184600F085F803464D
:102C10001A46BB685A70BB689B78184600F07CF86F
:102C200003461A46BB689A70002318461837BD46FB
:102C300080BD00BF80B584B000AF78600023FB602A
:102C40007B681B687A681268D26822F0A002DA609A
:102C5000FDF732FCF86009E0FDF72EFC0246FB6848
:102C6000D31AB3F57A7F01D9032307E07B681B6889
:102C7000DB6803F02003002BEED00023184610374A
:102C8000BD4680BD80B584B000AF78600023FB6096
:102C90007B681B68DB6803F04003002B19D17B685D
:102CA0001B684FF0FF32DA60FDF706FCF86009E0C0
:102CB000FDF702FC0246FB68D31AB3F57A7F01D90F
:102CC000032307E07B681B68DB6803F04003002BED
:102CD000EED0002318461037BD4680BD80B485B0C5
:102CE00000AF0346FB710023FB6005E0FB68013386
:102CF000FB60FB790A3BFB71FB79092BF6D8FB687B
:102D0000DBB21B01DAB2FB791343DBB2184614378E
:102D1000BD465DF8047B704780B485B000AF0346C4
:102D2000FB710023FB60FB791B09DBB21A461346DB
:102D30009B0013445B00FB60FB7903F00F03DAB2E6
:102D4000FB68DBB21344DBB218461437BD465DF8AE
:102D5000047B7047B0B58EB004AF78603960002353
:102D600087F827307B6800221A7778680EF0A2FB7C
:102D70000023FB6000233B6100237B610023BB61D8
:102D80000023FB6176233B627B681D686C4607F17C
:102D9000180393E8070084E8070007F10C030ECB43
:102DA000284603F0D1FD786801F02AF8034687F839
:102DB000273097F82730DBB2002B03D097F8273065
:102DC000DBB239E0786800F02DFF034687F8273042
:102DD00097F82730DBB2002B03D097F82730DBB20F
:102DE0002AE03968786800F057FB034687F82730F7
:102DF00097F82730DBB2002B0DD13B68B3F8543085
:102E00001B044FF000041A462346786800F0CEFFFA
:102E1000034687F827307B681D687B686C4603F1A2
:102E2000100207CA84E8070004330ECB284603F0DB
:102E30008BFD97F82730DBB218462837BD46B0BD6A
:102E4000B0B592B000AFF860B960C7E900230023C5
:102E500087F8473000233B64BB68FB63FB681B6853
:102E60000022DA62FB681B6A022B0AD14FF400735E
:102E7000BB65D7E90023540A44EAC3545D0AC7E995
:102E80000045BB6DBB621023FB6240233B63002304
:102E90007B634FF48063BB63FB681B6807F1280208
:102EA0001146184603F0B8FD1021F86801F05AF9F0
:102EB000034687F8473097F84730002B02D097F841
:102EC000473019E14FF0FF333B61FB6DBA6D02FBF8
:102ED00003F37B619023BB610223FB6100233B6210
:102EE00001237B62FB681B6807F11002114618463C
:102EF00003F0DEFDFB6D012B02D91223FB6201E022
:102F00001123FB623B68BB62FB681B6807F1280268
:102F10001146184603F080FDFB6D012B34D91221B8
:102F2000F86801F01FF9034687F8473097F84730F3
:102F3000002B20D097F84730DEE0FB681B685B6B06
:102F400003F40043002B16D000233B640DE03B6CE0
:102F50009B00FA6BD418FB681B68184603F020FD31
:102F6000034623603B6C01333B643B6C072BEED97B
:102F7000FB6B2033FB63FB681B685A6B40F22A3300
:102F80001340002BD9D033E01121F86801F0EAF8A2
:102F9000034687F8473097F84730002B20D097F842
:102FA0004730A9E0FB681B685B6B03F40043002B10
:102FB00016D000233B640DE03B6C9B00FA6BD418E9
:102FC000FB681B68184603F0EBFC034623603B6C70
:102FD00001333B643B6C072BEED9FB6B2033FB6367
:102FE000FB681B685A6B40F22A631340002BD9D050
:102FF000FB681B685B6B03F48073002B14D0FB6DC4
:10300000012B11D9FB681B6A002B07D0FB681B6AD8
:10301000012B03D0FB681B6A022B05D1F86800F076
:10302000A7FD034687F84730FB681B685B6B03F01E
:103030000803002B09D0FB681B6808229A6304234D
:1030400087F8473097F8473056E0FB681B685B6BA2
:1030500003F00203002B09D0FB681B6802229A636D
:10306000022387F8473097F8473045E0FB681B6834
:103070005B6B03F02003002B09D0FB681B68202248
:103080009A63062387F8473097F8473034E0FB68A7
:103090001B685B6B03F40073002B0AD0FB681B6892
:1030A0004FF400729A63072387F8473097F8473048
:1030B00022E04FF0FF333B640DE0FB681B681846CD
:1030C00003F06EFC0246FB6B1A60FB6B0433FB6380
:1030D0003B6C013B3B64FB681B685B6B03F40013B8
:1030E000002B02D03B6C002BE7D1FB681B6840F241
:1030F000FF529A6397F8473018464837BD46B0BD2F
:10310000B0B596B000AFF860B960C7E900230023FE
:1031100087F8573000237B6400233B650023FB6462
:1031200000233B64BB68BB640023FB74FB681B6823
:103130000022DA62FB681B6A022B0AD14FF400738B
:10314000BB66D7E90023540A44EAC3545D0AC7E9C1
:103150000045BB6EFB6210233B6340237B6300236F
:10316000BB634FF48063FB63FB681B6807F12C02B1
:103170001146184603F050FC1021F86800F0F2FFE9
:10318000034687F8573097F85730002B02D097F84E
:1031900057307CE1FB6E012B02D919233B6301E020
:1031A00018233B633B68FB62FB681B6807F12C023A
:1031B0001146184603F030FCFB6E012B07D919218C
:1031C000F86800F0CFFF034687F8573006E0182173
:1031D000F86800F0C7FF034687F8573097F8573074
:1031E000002B02D097F8573051E1FB6EBA6E02FB0C
:1031F00003F37B644FF0FF337B61FB6EBA6E02FB1F
:1032000003F3BB619023FB6100233B6200237B62DD
:103210000123BB62FB681B6807F1140211461846C4
:1032200003F046FCFB6E012B40F2A4804CE0FB68EF
:103230001B685B6B03F48043002B45D07A6C3B6DBD
:10324000D31A1F2B28D87A6C3B6DD31A03F00303D3
:10325000002B04D17A6C3B6DD31A9B0804E07A6C86
:103260003B6DD31A9B0801333B640023FB640EE0E3
:10327000FB681B68B96C184603F0A0FBBB6C0433F9
:10328000BB643B6D04333B65FB6C0133FB64FA6C40
:103290003B6C9A42ECD317E00023FB640BE0FB6825
:1032A0001868FB6C9B00BA6C1344194603F086FB4C
:1032B000FB6C0133FB64FB6C072BF0D9BB6C203338
:1032C000BB643B6D20333B65FB681B685A6B40F267
:1032D0001A331340002BAAD054E0FB681B685B6BC9
:1032E00003F48043002B45D07A6C3B6DD31A1F2B1F
:1032F00028D87A6C3B6DD31A03F00303002B04D15A
:103300007A6C3B6DD31A9B0804E07A6C3B6DD31A40
:103310009B0801333B640023FB640EE0FB681B68E1
:10332000B96C184603F04AFBBB6C0433BB643B6DBD
:1033300004333B65FB6C0133FB64FA6C3B6C9A42D3
:10334000ECD317E00023FB640BE0FB681868FB6C10
:103350009B00BA6C1344194603F030FBFB6C01333D
:10336000FB64FB6C072BF0D9BB6C2033BB643B6D5B
:1033700020333B65FB681B685A6B40F21A631340AD
:10338000002BAAD0FB681B685B6B03F48073002BD7
:1033900014D0FB6E012B11D9FB681B6A002B07D0E0
:1033A000FB681B6A012B03D0FB681B6A022B05D14B
:1033B000F86800F0DDFB034687F85730FB681B68B0
:1033C0005B6B03F00803002B09D0FB681B68082225
:1033D0009A63042387F8573097F8573057E0FB6813
:1033E0001B685B6B03F00203002B09D0FB681B68B2
:1033F00002229A63022387F8573097F8573046E045
:10340000FB681B685B6B03F01003002B09D0FB68A3
:103410001B6810229A63052387F8573097F85730B6
:1034200035E0FB681B685B6B03F40073002B0AD06C
:10343000FB681B684FF400729A63072387F85730C4
:1034400097F8573023E0FB681B6840F2FF529A63FD
:1034500007F113031946F86801F024FA034687F8C8
:10346000573008E007F113031946F86801F01AFA1B
:10347000034687F8573097F85730002B05D1FB7C6F
:10348000072BEFD0FB7C062BECD097F85730184673
:103490005837BD46B0BD00BFB0B485B000AF78604E
:1034A00039600022FA730022BA607A68126AD1B2D7
:1034B0003A6882F856107A68526A91B23A68A2F86D
:1034C00054107A68926A120EBA60BA689209D2B23F
:1034D00002F00302D1B23A681170BA689208D2B20F
:1034E00002F00F02D1B23A685170BA68D2B202F05B
:1034F0000302D1B23A6891707A68926A120CD2B221
:10350000BA60BA68D1B23A68D1707A68926A120A1F
:10351000D2B2BA60BA68D1B23A6811717A68926A66
:10352000D2B2BA60BA68D1B23A6851717A68D26AD6
:10353000120EBA60BA6892B2120191B23A68D180A2
:103540007A68D26A120CD2B2BA603A68D28892B261
:1035500011B2BA68120912B202F00F0212B20A4393
:1035600012B291B23A68D180BA68D2B202F00F02B8
:10357000D1B23A6811727A68D26A120AD2B2BA60CB
:10358000BA68D209D2B202F00102D1B23A685172DD
:10359000BA689209D2B202F00102D1B23A689172CD
:1035A000BA685209D2B202F00102D1B23A68D172BD
:1035B000BA681209D2B202F00102D1B23A681173AC
:1035C0003A68002151737A68126A002A04D07A6836
:1035D000126A012A40F09A80BB689B0203F44062A1
:1035E0003B681A617B68DB6ADBB2BB603B681A69C7
:1035F000BB689B001A433B681A617B681B6B1B0E00
:10360000BB603B681A69BB689B0903F003031A435C
:103610003B681A61BB68DB08DBB203F00703DAB270
:103620003B681A75BB68DBB203F00703DAB23B688C
:103630005A757B681B6B1B0CDBB2BB60BB685B09FC
:10364000DBB203F00703DAB23B689A75BB689B08EC
:10365000DBB203F00703DAB23B68DA75BB68DBB2B2
:103660005B00DBB203F00603DAB23B681A767B68D4
:103670001B6B1B0ADBB2BB603B681B7EDAB2BB680C
:10368000DB09DBB203F00103DBB21343DAB23B68C0
:103690001A763B681B6901334FF000043A68C2E9AF
:1036A00012343B681B7EDBB20233012202FA03F3C1
:1036B0003A68D2E912124FF0000403FB02F501FB55
:1036C00004F02844A1FB0334021914463A68C2E905
:1036D00012343B681B7ADBB21A46012303FA02F26A
:1036E0003B681A653B68D3E912123B681B6D4FF0CB
:1036F000000403FB02F501FB04F02844A1FB0334A2
:10370000021914463A68C2E912343EE07A68126A35
:10371000022A38D17A68D26AD2B2BA60BA68120480
:1037200002F47C113A6811617A68126B120EBA6069
:103730003A681169BA68120211433A6811617A68ED
:10374000126B120CD2B2BA603A681169BA681143AE
:103750003A6811617A68126B120AD2B2BA603A689A
:10376000126911464FF00002013142F10002D40407
:1037700044EA5134CB043A68C2E912343B684FF44E
:1037800000721A6501E02923FB73BB689B09DBB259
:1037900003F00103DAB23B685A76BB68DBB25B0028
:1037A000DBB203F07E03DAB23B689A767B681B6B70
:1037B000DBB2BB603B689B7EDAB2BB68DB09DBB285
:1037C00003F00103DBB21343DAB23B689A76BB68BD
:1037D000DBB203F07F03DAB23B68DA767B685B6BBF
:1037E0001B0EBB60BB68DB09DBB203F00103DAB27E
:1037F0003B681A77BB685B09DBB203F00303DAB2FC
:103800003B685A77BB689B08DBB203F00703DAB268
:103810003B689A77BB68DBB29B00DBB203F00C031A
:10382000DAB23B68DA777B685B6B1B0CDBB2BB60A0
:103830003B68DB7FDAB2BB689B09DBB203F00303B2
:10384000DBB21343DAB23B68DA77BB685B09DBB201
:1038500003F00103DAB23B6883F820203B680022C2
:1038600083F82120BB68DBB203F00103DAB23B68C6
:1038700083F822207B685B6B1B0ADBB2BB60BB68F2
:10388000DB09DBB203F00103DAB23B6883F82320E3
:10389000BB689B09DBB203F00103DAB23B6883F833
:1038A0002420BB685B09DBB203F00103DAB23B689A
:1038B00083F82520BB681B09DBB203F00103DAB2F1
:1038C0003B6883F82620BB689B08DBB203F0030348
:1038D000DAB23B6883F82720BB68DBB203F003034E
:1038E000DAB23B6883F828207B685B6BDBB2BB6095
:1038F000BB685B08DBB203F07F03DAB23B6883F896
:1039000029203B68012283F82A207B689B6B1B0ED1
:10391000BB60BB68DAB23B6883F82C207B689B6B8A
:103920001B0CDBB2BB60BB689BB21B029AB23B684C
:10393000DA857B689B6B1B0ADBB2BB603B68DB8D67
:103940009AB2BB689BB213439AB23B68DA857B6834
:103950009B6BDBB2BB60BB681A063B681A637B6873
:10396000DB6B1B0EBB603B681A6BBB681B041A4306
:103970003B681A637B68DB6B1B0CDBB2BB603B688C
:103980001A6BBB681B021A433B681A637B68DB6BCC
:103990001B0ADBB2BB603B681A6BBB681A433B680F
:1039A0001A637B68DB6BDBB2BB60BB68DAB23B6877
:1039B00083F834207B681B6C1B0EBB60BB68DAB2DB
:1039C0003B6883F835207B681B6C1B0CDBB2BB604B
:1039D000BB681A063B689A637B681B6C1B0ADBB2E8
:1039E000BB603B689A6BBB681B041A433B689A63D5
:1039F0007B681B6CDBB2BB603B689A6BBB681B02CD
:103A00001A433B689A637B685B6C1B0EBB603B6828
:103A10009A6BBB681A433B689A637B685B6C1B0CB0
:103A2000DBB2BB603B6893F83C30DAB2BB681B0981
:103A3000DBB203F00F03DBB21343DAB23B6883F867
:103A40003C20BB689BB21B029BB203F470639AB22A
:103A50003B68DA877B685B6C1B0ADBB2BB603B6848
:103A6000DB8F9AB2BB689BB213439AB23B68DA878A
:103A70007B685B6CDBB2BB60BB685B08DBB203F0EE
:103A80007F03DAB23B6883F840203B68012283F869
:103A90004120FB7B18461437BD46B0BC704700BFC1
:103AA000B0B58EB004AF78603960002387F8273056
:103AB0007B681B6A032B05D1272387F8273097F8EB
:103AC000273051E07B681B6A002B07D07B681B6A9C
:103AD000012B03D07B681B6A022B43D13B68B3F5F3
:103AE000805F03D1272387F8273017E03B68B3F5C1
:103AF000006F06D1786800F0D9FC034687F82730BC
:103B00000CE03B68002B06D1786800F047FD0346C7
:103B100087F8273002E0262387F8273097F82730E8
:103B2000002B1FD17B685B68FB607B689B683B61F7
:103B30007B68DB687B613B68BB617B685B69FB61C1
:103B40007B689B693B627B681D686C4607F11803C4
:103B500093E8070084E8070007F10C030ECB284622
:103B600002F0F2FE97F8273018462837BD46B0BD60
:103B700080B588B000AF78600023FB770023BB607E
:103B80000C23FB6040233B6100237B614FF4806387
:103B9000BB617B681B6807F108021146184602F0FA
:103BA0003BFF0C21786800F0DDFA0346FB77FB7FD2
:103BB00018462037BD4680BD80B584B000AF786020
:103BC0000423FB73786800F011F80346FB73FB7B5A
:103BD000042B01D1002305E0FB7BFF2B01D1022345
:103BE00000E0012318461037BD4680BD80B584B083
:103BF00000AF78600023FB6007F10C03194678687A
:103C000000F0E2F90346002B01D0FF2305E0FB683A
:103C10005B0ADBB203F00F03DBB218461037BD4678
:103C200080BD00BF80B58AB000AF7860002387F800
:103C300027300123FB817B681B68184602F0DEFEFB
:103C40000346002B05D1252387F8273097F8273026
:103C5000A7E07B681B6A042B37D000233B6102235B
:103C60007B61C023BB610023FB614FF480633B6237
:103C70007B681B6807F110021146184602F0CCFE63
:103C8000786800F06FFB034687F8273097F82730F5
:103C9000002B02D097F8273083E0002002F0F4FEDA
:103CA00002467B689A63042002F0EEFE02467B68BF
:103CB000DA63082002F0E8FE02467B681A640C20F2
:103CC00002F0E2FE02467B685A647B681B6A002BA6
:103CD0000BD07B681B6A012B07D07B681B6A062B05
:103CE00003D07B681B6A022B1CD103237B6140231A
:103CF000BB617B681B6807F110021146184602F091
:103D00008BFE07F10E031A460321786800F062FB70
:103D1000034687F8273097F82730002B02D097F812
:103D200027303EE07B681B6A042B38D0FB891A469B
:103D30007B685A627B685B6A1B043B6109237B6179
:103D4000C023BB617B681B6807F11002114618464F
:103D500002F062FE786800F005FB034687F8273022
:103D600097F82730002B02D097F8273019E0002071
:103D700002F08AFE02467B689A62042002F084FE0A
:103D800002467B68DA62082002F07EFE02467B680B
:103D90001A630C2002F078FE02467B685A6397F89B
:103DA000273018462837BD4680BD00BF80B58AB091
:103DB00000AFF860C7E90023002387F827303B688D
:103DC0003B6107237B614023BB610023FB614FF410
:103DD00080633B62FB681B6807F1100211461846BE
:103DE00002F01AFE0721F86800F0BCF9034687F8D4
:103DF000273097F8273018462837BD4680BD00BFCA
:103E000080B58CB000AF78600023FB720023FB62AA
:103E10000023BB6200237B6200233B62694B0022CC
:103E20001A607B681B68184602F0DAFD0120FCF777
:103E30004FFB644B01221A600023FB6000233B61AF
:103E400000237B610023BB614FF48063FB617B68CF
:103E50001B6807F10C021146184602F0DDFD786878
:103E600000F0ECF80346FB72FB7ADBB2002B02D0C9
:103E7000FB7ADBB2A2E04FF4D573FB6008233B6111
:103E800040237B617B681B6807F10C0211461846D2
:103E900002F0C2FD786800F00DF90346FB72FB7A70
:103EA000DBB2002B05D17B6801221A624FF0804300
:103EB0003B620023FB6037233B617B681B6807F193
:103EC0000C021146184602F0A7FD3721786800F071
:103ED00049F90346FB72FB7ADBB2002B6CD151E04F
:103EE0000023FB6037233B6140237B610023BB61E0
:103EF0004FF48063FB617B681B6807F10C0211467D
:103F0000184602F089FD3721786800F02BF9034646
:103F1000FB72FB7ADBB2002B02D0FB7ADBB24DE006
:103F20003B6A43F0004343F48013FB6029233B6169
:103F300040237B610023BB614FF48063FB617B689E
:103F40001B6807F10C021146184602F065FD7868FF
:103F500000F0DEF90346FB72FB7ADBB2002B02D0E5
:103F6000FB7ADBB22AE0002002F08EFDF862FB6AE9
:103F7000DB0F012B01D1012300E000237B62BB6A30
:103F80000133BB627B6A002B04D1BB6A4FF6FE7221
:103F90009342A5D9BB6A4FF6FE72934204D91B2304
:103FA000FB72FB7ADBB209E0FB6A03F08043002B73
:103FB00002D07B6802221A62FB7ADBB218463037E5
:103FC000BD4680BDA080254280B588B000AF786036
:103FD00039600023FB773B68002B03D12623FB7756
:103FE000FB7F26E07B685B6A1B04BB600D23FB60E4
:103FF00040233B6100237B614FF48063BB617B689E
:104000001B6807F108021146184602F005FD0D2154
:10401000786800F0A7F80346FB77FB7F002B01D000
:10402000FB7F06E0002002F02FFD02463B681A608D
:10403000FB7F18462037BD4680BD00BF80B487B0E7
:1040400000AF78600023FB734FF480337B617B68A3
:104050001B685B6B03F08003002B14BF012300235C
:10406000DBB23B610DE07B681B685B6B03F0800398
:10407000002B14BF01230023DBB23B617B69013BB2
:104080007B617B69002B02D03B69002BEBD07B6905
:10409000002B03D10323FB73FB7B05E07B681B68CC
:1040A00040F2FF529A63FB7B18461C37BD465DF811
:1040B000047B704780B487B000AF78602923FB731E
:1040C0004FF480337B617B681B685B6B03F04503B7
:1040D000002B14BF01230023DBB23B610DE07B68A2
:1040E0001B685B6B03F04503002B14BF0123002307
:1040F000DBB23B617B69013B7B613B69002B02D1F9
:104100007B69002BEBD17B681B685B6B03F00403BE
:10411000002B14BF01230023DBB23B617B69002B22
:1041200002D03B69002B07D00323FB737B681B681D
:1041300004229A63FB7B0FE07B681B685B6B03F0D8
:104140004003002B07D00023FB737B681B684022D1
:104150009A63FB7B00E0FB7B18461C37BD465DF88D
:10416000047B704780B584B000AF78600B46FB706D
:104170000023FB7300BF7B681B685B6B03F0450388
:10418000002BF8D07B681B685B6B03F00403002BEB
:1041900007D00323FB737B681B6804229A63FB7BB5
:1041A000B0E07B681B685B6B03F00103002B07D05A
:1041B0000123FB737B681B6801229A63FB7BA1E0F0
:1041C0007B681B68184602F051FC03461A46FB78D0
:1041D000934203D01023FB73FB7B93E07B681B6847
:1041E00040F2FF529A63002002F04EFCB860BA68B9
:1041F000464B1340002B01D1FB7B83E0BB68002BB7
:1042000001DA1C237EE0BB6803F08043002B01D061
:10421000092377E0BB6803F00053002B01D00A2389
:1042200070E0BB6803F08053002B01D00B2369E0E2
:10423000BB6803F00063002B01D00C2362E0BB6875
:1042400003F08063002B01D00D235BE0BB6803F01B
:104250008073002B01D00E2354E0BB6803F40003ED
:10426000002B01D00F234DE0BB6803F48003002B2B
:1042700001D0102346E0BB6803F40013002B01D0EB
:1042800011233FE0BB6803F48013002B01D01223FD
:1042900038E0BB6803F40023002B01D0132331E086
:1042A000BB6803F48023002B01D014232AE0BB68F1
:1042B00003F40033002B01D0152323E0BB6803F483
:1042C0008033002B01D016231CE0BB6803F40043AD
:1042D000002B01D0172315E0BB6803F48043002BAB
:1042E00001D018230EE0BB6803F40053002B01D06B
:1042F000192307E0BB6803F00803002B01D01A2341
:1043000000E0FB7B18461037BD4680BD08E0FFFD8E
:1043100080B485B000AF78600023FB7300BF7B687A
:104320001B685B6B03F04503002BF8D07B681B68B0
:104330005B6B03F00403002B07D00323FB737B6844
:104340001B6804229A63FB7B05E07B681B6840F2D4
:10435000FF529A63FB7B18461437BD465DF8047B19
:10436000704700BF80B485B000AF78600023FB7356
:1043700000BF7B681B685B6B03F04503002BF8D024
:104380007B681B685B6B03F00403002B07D00323DF
:10439000FB737B681B6804229A63FB7B14E07B68D9
:1043A0001B685B6B03F00103002B07D00123FB7339
:1043B0007B681B6801229A63FB7B05E07B681B68B6
:1043C00040F2FF529A63FB7B18461437BD465DF8F6
:1043D000047B704780B586B000AFF8600B467A600A
:1043E000FB720023FB7500BFFB681B685B6B03F06F
:1043F0004503002BF8D0FB681B685B6B03F00403DC
:10440000002B07D00323FB75FB681B6804229A630B
:10441000FB7D47E0FB681B685B6B03F00103002B2F
:1044200007D00123FB75FB681B6801229A63FB7DA3
:1044300038E0FB681B68184602F018FB03461A4672
:10444000FB7A934203D01023FB75FB7D2AE0FB68C7
:104450001B6840F2FF529A63002002F015FB38619E
:104460003B6903F46043002B06D13B691B0C9AB2F5
:104470007B681A80FB7D15E03B6903F40053002B39
:1044800001D013230EE03B6903F48043002B01D0DD
:10449000102307E03B6903F40043002B01D00F23F6
:1044A00000E0FB7D18461837BD4680BD80B58AB058
:1044B00000AF7860002387F827300023BB6000231B
:1044C000FB60002002F0E0FA034603F00073002BCB
:1044D00005D00E2387F8273097F8273059E007F1E9
:1044E00008031946786800F0D1F8034687F82730AA
:1044F00097F82730002B02D097F8273049E0FB6867
:1045000003F48023002B3FD07B685B6A1B043B6174
:1045100037237B614023BB610023FB614FF4806341
:104520003B627B681B6807F110021146184602F0D7
:1045300073FA37217868FFF715FE034687F82730AE
:1045400097F82730002B02D097F8273021E002237C
:104550003B6106237B617B681B6807F110021146F3
:10456000184602F059FA06217868FFF7FBFD03466A
:1045700087F8273097F82730002B02D097F827309C
:1045800007E097F8273004E0252387F8273097F8CD
:10459000273018462837BD4680BD00BF80B58AB099
:1045A00000AF7860002387F827300023BB6000232A
:1045B000FB60002002F068FA034603F00073002B52
:1045C00005D00E2387F8273097F8273059E007F1F8
:1045D00008031946786800F059F8034687F8273031
:1045E00097F82730002B02D097F8273049E0FB6876
:1045F00003F48033002B3FD07B685B6A1B043B6174
:1046000037237B614023BB610023FB614FF4806350
:104610003B627B681B6807F110021146184602F0E6
:10462000FBF937217868FFF79DFD034687F82730AF
:1046300097F82730002B02D097F8273021E000238D
:104640003B6106237B617B681B6807F11002114602
:10465000184602F0E1F906217868FFF783FD03466A
:1046600087F8273097F82730002B02D097F82730AB
:1046700007E097F8273004E0252387F8273097F8DC
:10468000273018462837BD4680BD00BF90B593B08F
:1046900000AF78603960002387F8433000237B64E3
:1046A0000023FB6000233B610823FB6210233B6374
:1046B00040237B630023BB634FF48063FB637B6811
:1046C0001B6807F12C021146184602F0A5F91021CB
:1046D0007868FFF747FD034687F8433097F8433083
:1046E000002B02D097F84330D7E07B685B6A1B044D
:1046F000FB6237233B637B681B6807F12C02114682
:10470000184602F089F937217868FFF72BFD034638
:1047100087F8433097F84330002B02D097F84330A6
:10472000BBE04FF0FF337B610823BB613023FB61AB
:1047300002233B6200237B620123BB627B681B6810
:1047400007F114021146184602F0B2F90023FB6289
:1047500033233B637B681B6807F12C021146184624
:1047600002F05AF933217868FFF7FCFC034687F81A
:10477000433097F84330002B18D097F843308CE043
:104780007B681B685B6B03F40013002B0ED07B6C03
:104790009B0007F10C02D4187B681B68184602F0D6
:1047A000FFF8034623607B6C01337B647B681B68E6
:1047B0005A6B40F22A631340002BE1D07B681B68E0
:1047C0005B6B03F00803002B09D07B681B68082291
:1047D0009A63042387F8433097F843305DE07B68A1
:1047E0001B685B6B03F00203002B09D07B681B681E
:1047F00002229A63022387F8433097F843304CE053
:104800007B681B685B6B03F02003002B09D07B687F
:104810001B6820229A63062387F8433097F84330B9
:104820003BE07B681B685B6B03F40073002B0AD0D2
:104830007B681B684FF400729A63072387F8433044
:1048400097F8433029E07B681B6840F2FF529A6377
:104850003B680433FA681106FA68120202F47F0218
:104860001143FA68120A02F47F421143FA68120EE9
:104870000A431A603B691A063B691B0203F47F0373
:104880001A433B691B0A03F47F431A433B691B0E1F
:104890001A433B681A6097F8433018464C37BD46B8
:1048A00090BD00BF80B58AB000AF7860396000234A
:1048B00087F827300023FB607B685B6A1B043B6141
:1048C0000D237B614023BB610023FB614FF48063B8
:1048D0003B627B681B6807F110021146184602F024
:1048E0009BF800BF7B681B685B6B03F04503002BE4
:1048F000F8D07B681B685B6B03F00403002B09D0C6
:10490000032387F827307B681B6804229A6397F893
:104910002730BDE07B681B685B6B03F00103002B55
:1049200009D0012387F827307B681B6801229A632E
:1049300097F82730ACE07B681B68184602F096F8C1
:1049400003460D2B05D0102387F8273097F8273022
:104950009EE07B681B6840F2FF529A63002002F0E1
:1049600093F80346FB60FB685B0ADBB203F00F03BE
:10497000DAB23B681A70FA68474B1340002B02D139
:1049800097F8273084E0FB68002B01DA1C237FE0D6
:10499000FB6803F08043002B01D0092378E0FB681B
:1049A00003F00053002B01D00A2371E0FB6803F0F1
:1049B0008053002B01D00B236AE0FB6803F00063F7
:1049C000002B01D00C2363E0FB6803F08063002B15
:1049D00001D00D235CE0FB6803F08073002B01D055
:1049E0000E2355E0FB6803F40003002B01D00F23D6
:1049F0004EE0FB6803F48003002B01D0102347E056
:104A0000FB6803F40013002B01D0112340E0FB6886
:104A100003F48013002B01D0122339E0FB6803F468
:104A20000023002B01D0132332E0FB6803F4802322
:104A3000002B01D014232BE0FB6803F40033002B80
:104A400001D0152324E0FB6803F48033002B01D050
:104A500016231DE0FB6803F40043002B01D017234D
:104A600016E0FB6803F48043002B01D018230FE00D
:104A7000FB6803F40053002B01D0192308E0FB6806
:104A800003F00803002B01D01A2301E097F8273028
:104A900018462837BD4680BD08E0FFFD80B582B0CE
:104AA00000AF78607B68002B01D101235CE07B685C
:104AB00093F85130DBB2002B06D17B68002283F8DB
:104AC000502078680CF03AFD7B68022283F8512070
:104AD0007B681B687A681268126822F040021A60CC
:104AE0007B681B687A6851687A68926811437A68B3
:104AF000D26811437A68126911437A685269114386
:104B00007A68926902F4007211437A68D26911439B
:104B10007A68126A11437A68926A0A431A607B685B
:104B20001B687A689269120C02F004017A68526A72
:104B30000A435A607B689B6AB3F5005F04D17B68C7
:104B40001B687A68D26A1A617B681B687A68126887
:104B5000D26922F40062DA617B6800225A657B68C0
:104B6000012283F85120002318460837BD4680BD36
:104B700080B588B000AFF860B9603B601346FB8039
:104B80000023BB610023FB77FB6893F85030012BB7
:104B900001D1022302E1FB68012283F85020FBF7D8
:104BA0008BFCB861FB6893F85130DBB2012B02D06B
:104BB0000223FB77E9E0BB68002B02D0FB88002BC7
:104BC00002D10123FB77E0E0FB68032283F8512048
:104BD000FB6800225A65FB68BA681A63FB68FA88AA
:104BE0009A86FB68FA88DA86FB6800229A63FB687B
:104BF00000229A87FB680022DA87FB6800225A6449
:104C0000FB6800221A64FB689B68B3F5004F07D16C
:104C1000FB681B68FA681268126842F480421A60E6
:104C2000FB689B6AB3F5005F10D1FB681A68FB68EC
:104C30001B6819684DF6FF730B401360FB681B6817
:104C4000FA681268126842F400521A60FB681B6826
:104C50001B6803F04003002B07D1FB681B68FA6850
:104C60001268126842F040021A60FB68DB68B3F514
:104C7000006F56D127E0FB681B689B6803F00203B6
:104C8000002B0ED0FB681B68BA681288DA60BB681C
:104C90000233BB60FB68DB8E013B9AB2FB68DA86AD
:104CA00011E03B68002B0BD03B68B3F1FF3F0AD00B
:104CB000FBF702FC0246BB69D21A3B689A4202D358
:104CC0000323FB7761E0FB68DB8E002BD3D12CE064
:104CD000FB681B689B6803F00203002B0FD0FB6886
:104CE0001B680C33BA6812781A70BB680133BB605A
:104CF000FB68DB8E013B9AB2FB68DA8611E03B6809
:104D0000002B0BD03B68B3F1FF3F0AD0FBF7D4FB7D
:104D10000246BB69D21A3B689A4202D30323FB774F
:104D200033E0FB68DB8E002BD2D1FB689B6AB3F5C6
:104D3000005F07D1FB681B68FA681268126842F4CA
:104D400080521A60BA693968F86800F0D1FB0346EE
:104D5000002B05D0FB685B6D43F02002FB685A65B1
:104D6000FB689B68002B0AD100237B61FB681B68F2
:104D7000DB687B61FB681B689B687B617B69FB6808
:104D80005B6D002B01D00123FB77FB68012283F8C8
:104D90005120FB68002283F85020FB7F1846203703
:104DA000BD4680BD80B58AB002AFF860B9603B6097
:104DB0001346FB800023FB820023BB610023FB77AB
:104DC000FB685B68B3F5827F12D1FB689B68002BA0
:104DD0000ED1FB68042283F85120FA883B680093C7
:104DE0001346BA68B968F86800F064F903465CE1F4
:104DF000FB6893F85030012B01D1022355E1FB6889
:104E0000012283F85020FBF757FBB861FB6893F849
:104E10005130DBB2012B02D00223FB773CE1BB68AF
:104E2000002B02D0FB88002B02D10123FB7733E15A
:104E3000FB68042283F85120FB6800225A65FB6856
:104E4000BA689A63FB68FA889A87FB68FA88DA87F7
:104E5000FB6800221A63FB6800229A86FB68002226
:104E6000DA86FB6800221A64FB6800225A64FB6839
:104E70009B6AB3F5005F16D1FB681A68FB681B6874
:104E800019684DF6FF730B401360FB681B68FA68E6
:104E90001268126842F400521A60FB68DB8F013B13
:104EA0009AB2FB68DA87FB689B68B3F5004F07D1BD
:104EB000FB681B68FA681268126822F480421A6064
:104EC000FB681B681B6803F04003002B07D1FB68DD
:104ED0001B68FA681268126842F040021A60FB68A8
:104EE000DB68002B58D129E0FB681B689B6803F046
:104EF0000103002B10D0FB681B680C331B78DAB25F
:104F0000BB681A70BB680133BB60FB68DB8F013B79
:104F10009AB2FB68DA8711E03B68002B0BD03B6844
:104F2000B3F1FF3F0AD0FBF7C7FA0246BB69D21ABA
:104F30003B689A4202D30323FB77ADE0FB68DB8F2B
:104F4000002BD1D12CE0FB681B689B6803F00103A8
:104F5000002B0FD0FB681B68DB689AB2BB681A8015
:104F6000BB680233BB60FB68DB8F013B9AB2FB6816
:104F7000DA8711E03B68002B0BD03B68B3F1FF3FB1
:104F80000AD0FBF799FA0246BB69D21A3B689A42EB
:104F900002D30323FB777FE0FB68DB8F002BD2D1AA
:104FA000FB689B6AB3F5005F42D1FB681B68FA6837
:104FB0001268126842F480521A60BB6900933B6821
:104FC00001220121F86800F00DFA0346002B02D0FF
:104FD0000323FB7760E0FB68DB68B3F5006F06D165
:104FE000FB681B68DB689AB2BB681A8006E0FB6846
:104FF0001B680C331B78DAB2BB681A70BB6900936C
:105000003B6801220121F86800F0ECF90346002B0F
:1050100008D0FB685B6D43F00202FB685A6503230E
:10502000FB7739E0FB681B68DB689BB2FB82FB8A7D
:10503000F86800F03BFA0346002B05D0FB685B6D77
:1050400043F02002FB685A65BA693968F86800F0D5
:105050004FFA0346002B07D0FB685B6D43F020023C
:10506000FB685A650123FB77FB681B689B6803F0AC
:105070001003002B0AD0FB685B6D43F00202FB6853
:105080005A65FB681B684FF6EF729A60FB685B6DB0
:10509000002B01D00123FB77FB68012283F851200C
:1050A000FB68002283F85020FB7F18462037BD465E
:1050B00080BD00BF80B58AB002AFF860B9607A6089
:1050C0007B800023FB820023BB610023FB77FB680E
:1050D00093F85030012B01D102237EE1FB680122BD
:1050E00083F85020FBF7E8F9B861FB6893F851307A
:1050F000DBB2012B11D0FB685B68B3F5827F09D16D
:10510000FB689B68002B05D1FB6893F85130DBB23C
:10511000042B02D00223FB7756E1BB68002B05D09D
:105120007B68002B02D07B88002B02D10123FB7708
:105130004AE1FB6893F85130DBB2012B03D1FB68E5
:10514000052283F85120FB6800225A65FB687A68C3
:105150009A63FB687A88DA87FB687A889A87FB68A3
:10516000BA681A63FB687A88DA86FB687A889A8656
:10517000FB6800221A64FB6800225A64FB689B6A81
:10518000B3F5005F10D1FB681A68FB681B681968EB
:105190004DF6FF730B401360FB681B68FA681268DA
:1051A000126842F400521A60FB681B681B6803F027
:1051B0004003002B07D1FB681B68FA68126812686D
:1051C00042F040021A60FB68DB68B3F5006F40F004
:1051D000B08052E0FB68DB8E002B25D0FB681B689B
:1051E0009B6803F00203002B1ED0FB681B68BA68A3
:1051F0001288DA60BB680233BB60FB68DB8E013B60
:105200009AB2FB68DA86FB68DB8E002B0CD1FB6858
:105210009B6AB3F5005F07D1FB681B68FA681268E8
:10522000126842F480521A60FB68DB8F002B15D0A5
:10523000FB681B689B6803F00103002B0ED0FB6822
:105240001B68DB689AB27B681A807B6802337B60DC
:10525000FB68DB8F013B9AB2FB68DA87BB6AB3F16C
:10526000FF3F0AD0FBF728F90246BB69D21ABB6A96
:105270009A4202D30323FB77A6E0FB68DB8E002B68
:10528000A8D1FB68DB8F002BA4D15AE0FB68DB8E32
:10529000002B26D0FB681B689B6803F00203002BE1
:1052A0001FD0FB681B6803F10C02BB68591CB96076
:1052B0001B781370FB68DB8E013B9AB2FB68DA86C1
:1052C000FB68DB8E002B0CD1FB689B6AB3F5005F9B
:1052D00007D1FB681B68FA681268126842F48052B2
:1052E0001A60FB68DB8F002B14D0FB681B689B687F
:1052F00003F00103002B0DD07B685A1C7A60FA681A
:105300001268D268D2B21A70FB68DB8F013B9AB286
:10531000FB68DA87BB6AB3F1FF3F0AD0FBF7CCF832
:105320000246BB69D21ABB6A9A4202D30323FB77B7
:105330004AE0FB68DB8E002BA8D1FB68DB8F002BDB
:10534000A4D1FB689B6AB3F5005F19D1BB690093D8
:10535000BB6A01220121F86800F044F80346002BE3
:1053600008D0FB685B6D43F00202FB685A650323BB
:10537000FB7729E0FB681B68DB689BB2FB82FB8A3A
:10538000FB681B689B6803F01003002B0CD0FB68C4
:105390005B6D43F00202FB685A65FB681B684FF6C1
:1053A000EF729A600123FB77BA69B96AF86800F076
:1053B0009FF80346002B07D0FB685B6D43F020028B
:1053C000FB685A650123FB77FB68012283F85120B3
:1053D000FB68002283F85020FB7F18462037BD462B
:1053E00080BD00BF80B584B000AFF860B9607A605E
:1053F0003B604DE03B68B3F1FF3F49D03B68002B79
:1054000007D0FBF759F80246BB69D21A3B689A42AB
:105410003ED3FB681B68FA681268526822F0E0020B
:105420005A60FB685B68B3F5827F11D1FB689B68AB
:10543000B3F5004F04D0FB689B68B3F5806F07D1CC
:10544000FB681B68FA681268126822F040021A6052
:10545000FB689B6AB3F5005F10D1FB681A68FB68B4
:105460001B6819684DF6FF730B401360FB681B68DF
:10547000FA681268126842F400521A60FB6801224E
:1054800083F85120FB68002283F85020032308E0B2
:10549000FB681B689A68BB681A407B689A42A9D16E
:1054A000002318461037BD4680BD00BF80B483B0CE
:1054B00000AF78607B685B68B3F5827F11D17B6851
:1054C0009B68B3F5004F04D07B689B68B3F5806F91
:1054D00007D17B681B687A681268126822F0400264
:1054E0001A60002318460C37BD465DF8047B7047F0
:1054F00080B586B002AFF860B9607A607B680093CF
:10550000BB6800228021F868FFF76CFF0346002B80
:1055100007D0FB685B6D43F02002FB685A650323EC
:1055200000E0002318461037BD4680BD80B582B02C
:1055300000AF78607B68002B01D101231DE07B6800
:1055400093F83930DBB2002B06D17B68002283F858
:10555000382078680CF030F87B68022283F8392014
:105560007B681A687B6804331946104600F04EFACF
:105570007B68012283F83920002318460837BD468E
:1055800080BD00BF80B483B000AF78607B6802222A
:1055900083F839207B681B687A681268126842F0C9
:1055A00001021A607B68012283F839200023184623
:1055B0000C37BD465DF8047B704700BF80B483B0F4
:1055C00000AF78607B681B687A681268D26842F026
:1055D0000102DA607B681B687A681268126842F020
:1055E00001021A60002318460C37BD465DF8047BA3
:1055F000704700BF80B582B000AF78607B681B68E1
:105600001B6903F00203002B22D07B681B68DB6858
:1056100003F00203002B1BD07B681B686FF00202B3
:105620001A617B6801221A767B681B689B6903F00C
:105630000303002B03D0786800F0CAF905E078680E
:1056400000F0BCF9786800F0CDF97B6800221A768A
:105650007B681B681B6903F00403002B22D07B6866
:105660001B68DB6803F00403002B1BD07B681B68FE
:105670006FF004021A617B6802221A767B681B684D
:105680009B6903F44073002B03D0786800F0A0F905
:1056900005E0786800F092F9786800F0A3F97B687B
:1056A00000221A767B681B681B6903F00803002B35
:1056B00022D07B681B68DB6803F00803002B1BD03B
:1056C0007B681B686FF008021A617B6804221A76F7
:1056D0007B681B68DB6903F00303002B03D0786849
:1056E00000F076F905E0786800F068F9786800F075
:1056F00079F97B6800221A767B681B681B6903F0C6
:105700001003002B22D07B681B68DB6803F01003BA
:10571000002B1BD07B681B686FF010021A617B683E
:1057200008221A767B681B68DB6903F44073002B40
:1057300003D0786800F04CF905E0786800F03EF995
:10574000786800F04FF97B6800221A767B681B6846
:105750001B6903F00103002B0ED07B681B68DB681C
:1057600003F00103002B07D07B681B686FF0010278
:105770001A61786806F0E8FD7B681B681B6903F016
:105780008003002B0ED07B681B68DB6803F080036E
:10579000002B07D07B681B686FF080021A61786865
:1057A00000F0D8FA7B681B681B6903F04003002BEC
:1057B0000ED07B681B68DB6803F04003002B07D02A
:1057C0007B681B686FF040021A61786800F014F97A
:1057D0007B681B681B6903F02003002B0ED07B68DD
:1057E0001B68DB6803F02003002B07D07B681B6875
:1057F0006FF020021A61786800F0A2FA00BF083743
:10580000BD4680BD80B584B000AF786039600023AC
:10581000FB607B6893F83830012B01D10223C8E08C
:105820007B68012283F838207B68022283F83920C4
:105830007B681B689B68FB60FB6823F07703FB6059
:10584000FB6823F47F43FB607B681B68FA689A60FF
:105850003B681B68402B77D0402B0ED8102B00F0F4
:105860008A80102B02D8002B7ED099E0202B00F0EC
:105870008980302B00F08D8092E0702B16D0702B39
:1058800004D8502B40D0602B4ED089E0B3F5805F18
:1058900003D0B3F5005F24D082E07B681B687A6890
:1058A0001268926822F007029A6079E07B681868B3
:1058B0003B6899683B685A683B68DB6800F0D8F938
:1058C0007B681B689B68FB60FB6823F07703FB60C9
:1058D000FB6843F07703FB607B681B68FA689A609B
:1058E0005EE07B6818683B6899683B685A683B686B
:1058F000DB6800F0BDF97B681B687A681268926803
:1059000042F480429A604BE07B6818683B685968B3
:105910003B68DB681A4600F023F97B681B6850215E
:10592000184600F085F93BE07B6818683B685968C9
:105930003B68DB681A4600F047F97B681B6860210A
:10594000184600F075F92BE07B6818683B685968C9
:105950003B68DB681A4600F003F97B681B6840214E
:10596000184600F065F91BE07B681B6800211846AB
:1059700000F05EF914E07B681B681021184600F007
:1059800057F90DE07B681B682021184600F050F99C
:1059900006E07B681B683021184600F049F900BF1B
:1059A0007B68012283F839207B68002283F8382045
:1059B000002318461037BD4680BD00BF80B483B0B9
:1059C00000AF786000BF0C37BD465DF8047B7047C0
:1059D00080B483B000AF786000BF0C37BD465DF87F
:1059E000047B704780B483B000AF786000BF0C3791
:1059F000BD465DF8047B704780B483B000AF78602B
:105A000000BF0C37BD465DF8047B704780B485B09D
:105A100000AF786039600023FB607B681B68FB6027
:105A20007B68444A934213D07B68B3F1804F0FD018
:105A30007B68414A93420BD07B68404A934207D02F
:105A40007B683F4A934203D07B683E4A934201D130
:105A5000012300E00023002B08D0FB6823F0700333
:105A6000FB603B685B68FA681343FB607B68314A04
:105A700093422BD07B68B3F1804F27D07B682E4AAE
:105A8000934223D07B682D4A93421FD07B682C4AD7
:105A900093421BD07B682B4A934217D07B682A4ADB
:105AA000934213D07B68294A93420FD07B68284ADF
:105AB00093420BD07B68274A934207D07B68264AE3
:105AC000934203D07B68254A934201D1012300E031
:105AD0000023002B08D0FB6823F44073FB603B6875
